{
  "_format": "hh-sol-artifact-1",
  "contractName": "LSTMLiquidityManager",
  "sourceName": "Phase3_Smart_Contract/contracts/Uniswap_one.sol",
  "abi": [
    {
      "inputs": [
        {
          "internalType": "address",
          "name": "_swapRouter",
          "type": "address"
        },
        {
          "internalType": "address",
          "name": "_tokenA",
          "type": "address"
        },
        {
          "internalType": "address",
          "name": "_tokenB",
          "type": "address"
        },
        {
          "internalType": "address",
          "name": "_priceFeed",
          "type": "address"
        }
      ],
      "stateMutability": "nonpayable",
      "type": "constructor"
    },
    {
      "inputs": [],
      "name": "getPredictedPrice",
      "outputs": [
        {
          "internalType": "int256",
          "name": "",
          "type": "int256"
        }
      ],
      "stateMutability": "view",
      "type": "function"
    },
    {
      "inputs": [],
      "name": "swapRouter",
      "outputs": [
        {
          "internalType": "contract ISwapRouter",
          "name": "",
          "type": "address"
        }
      ],
      "stateMutability": "view",
      "type": "function"
    },
    {
      "inputs": [
        {
          "internalType": "uint256",
          "name": "amountIn",
          "type": "uint256"
        }
      ],
      "name": "swapTokens",
      "outputs": [
        {
          "internalType": "uint256",
          "name": "amountOut",
          "type": "uint256"
        }
      ],
      "stateMutability": "nonpayable",
      "type": "function"
    },
    {
      "inputs": [],
      "name": "tokenA",
      "outputs": [
        {
          "internalType": "address",
          "name": "",
          "type": "address"
        }
      ],
      "stateMutability": "view",
      "type": "function"
    },
    {
      "inputs": [],
      "name": "tokenB",
      "outputs": [
        {
          "internalType": "address",
          "name": "",
          "type": "address"
        }
      ],
      "stateMutability": "view",
      "type": "function"
    }
  ],
  "bytecode": "0x60e060405234801561001057600080fd5b5060405162000d3038038062000d308339818101604052810190610034919061017c565b8373ffffffffffffffffffffffffffffffffffffffff1660808173ffffffffffffffffffffffffffffffffffffffff16815250508273ffffffffffffffffffffffffffffffffffffffff1660a08173ffffffffffffffffffffffffffffffffffffffff16815250508173ffffffffffffffffffffffffffffffffffffffff1660c08173ffffffffffffffffffffffffffffffffffffffff1681525050806000806101000a81548173ffffffffffffffffffffffffffffffffffffffff021916908373ffffffffffffffffffffffffffffffffffffffff160217905550505050506101e3565b600080fd5b600073ffffffffffffffffffffffffffffffffffffffff82169050919050565b60006101498261011e565b9050919050565b6101598161013e565b811461016457600080fd5b50565b60008151905061017681610150565b92915050565b6000806000806080858703121561019657610195610119565b5b60006101a487828801610167565b94505060206101b587828801610167565b93505060406101c687828801610167565b92505060606101d787828801610167565b91505092959194509250565b60805160a05160c051610af36200023d6000396000818161012a01526103ff01526000818161010601528181610255015281816102f601526103c30152600081816101ed0152818161033201526104a60152610af36000f3fe608060405234801561001057600080fd5b50600436106100575760003560e01c80630fc63d101461005c5780635f64b55b1461007a57806364b3912914610098578063c31c9c07146100b6578063fe784eaa146100d4575b600080fd5b610064610104565b6040516100719190610589565b60405180910390f35b610082610128565b60405161008f9190610589565b60405180910390f35b6100a061014c565b6040516100ad91906105bd565b60405180910390f35b6100be6101eb565b6040516100cb9190610637565b60405180910390f35b6100ee60048036038101906100e9919061068d565b61020f565b6040516100fb91906106c9565b60405180910390f35b7f000000000000000000000000000000000000000000000000000000000000000081565b7f000000000000000000000000000000000000000000000000000000000000000081565b60008060008054906101000a900473ffffffffffffffffffffffffffffffffffffffff1673ffffffffffffffffffffffffffffffffffffffff1663feaf968c6040518163ffffffff1660e01b815260040160a060405180830381865afa1580156101ba573d6000803e3d6000fd5b505050506040513d601f19601f820116820180604052508101906101de9190610767565b5050509150508091505090565b7f000000000000000000000000000000000000000000000000000000000000000081565b6000808211610253576040517f08c379a000000000000000000000000000000000000000000000000000000000815260040161024a9061083f565b60405180910390fd5b7f000000000000000000000000000000000000000000000000000000000000000073ffffffffffffffffffffffffffffffffffffffff166323b872dd3330856040518463ffffffff1660e01b81526004016102b09392919061085f565b6020604051808303816000875af11580156102cf573d6000803e3d6000fd5b505050506040513d601f19601f820116820180604052508101906102f391906108ce565b507f000000000000000000000000000000000000000000000000000000000000000073ffffffffffffffffffffffffffffffffffffffff1663095ea7b37f0000000000000000000000000000000000000000000000000000000000000000846040518363ffffffff1660e01b815260040161036f9291906108fb565b6020604051808303816000875af115801561038e573d6000803e3d6000fd5b505050506040513d601f19601f820116820180604052508101906103b291906108ce565b5060006040518061010001604052807f000000000000000000000000000000000000000000000000000000000000000073ffffffffffffffffffffffffffffffffffffffff1681526020017f000000000000000000000000000000000000000000000000000000000000000073ffffffffffffffffffffffffffffffffffffffff168152602001610bb862ffffff1681526020013373ffffffffffffffffffffffffffffffffffffffff168152602001600f4261046f9190610953565b815260200184815260200161048261014c565b8152602001600073ffffffffffffffffffffffffffffffffffffffff1681525090507f000000000000000000000000000000000000000000000000000000000000000073ffffffffffffffffffffffffffffffffffffffff1663414bf389826040518263ffffffff1660e01b81526004016104fd9190610a74565b6020604051808303816000875af115801561051c573d6000803e3d6000fd5b505050506040513d601f19601f820116820180604052508101906105409190610a90565b915050919050565b600073ffffffffffffffffffffffffffffffffffffffff82169050919050565b600061057382610548565b9050919050565b61058381610568565b82525050565b600060208201905061059e600083018461057a565b92915050565b6000819050919050565b6105b7816105a4565b82525050565b60006020820190506105d260008301846105ae565b92915050565b6000819050919050565b60006105fd6105f86105f384610548565b6105d8565b610548565b9050919050565b600061060f826105e2565b9050919050565b600061062182610604565b9050919050565b61063181610616565b82525050565b600060208201905061064c6000830184610628565b92915050565b600080fd5b6000819050919050565b61066a81610657565b811461067557600080fd5b50565b60008135905061068781610661565b92915050565b6000602082840312156106a3576106a2610652565b5b60006106b184828501610678565b91505092915050565b6106c381610657565b82525050565b60006020820190506106de60008301846106ba565b92915050565b600069ffffffffffffffffffff82169050919050565b610703816106e4565b811461070e57600080fd5b50565b600081519050610720816106fa565b92915050565b61072f816105a4565b811461073a57600080fd5b50565b60008151905061074c81610726565b92915050565b60008151905061076181610661565b92915050565b600080600080600060a0868803121561078357610782610652565b5b600061079188828901610711565b95505060206107a28882890161073d565b94505060406107b388828901610752565b93505060606107c488828901610752565b92505060806107d588828901610711565b9150509295509295909350565b600082825260208201905092915050565b7f416d6f756e74206d7573742062652067726561746572207468616e207a65726f600082015250565b60006108296020836107e2565b9150610834826107f3565b602082019050919050565b600060208201905081810360008301526108588161081c565b9050919050565b6000606082019050610874600083018661057a565b610881602083018561057a565b61088e60408301846106ba565b949350505050565b60008115159050919050565b6108ab81610896565b81146108b657600080fd5b50565b6000815190506108c8816108a2565b92915050565b6000602082840312156108e4576108e3610652565b5b60006108f2848285016108b9565b91505092915050565b6000604082019050610910600083018561057a565b61091d60208301846106ba565b9392505050565b7f4e487b7100000000000000000000000000000000000000000000000000000000600052601160045260246000fd5b600061095e82610657565b915061096983610657565b925082820190508082111561098157610980610924565b5b92915050565b61099081610568565b82525050565b600062ffffff82169050919050565b6109ae81610996565b82525050565b6109bd81610657565b82525050565b6109cc81610548565b82525050565b610100820160008201516109e96000850182610987565b5060208201516109fc6020850182610987565b506040820151610a0f60408501826109a5565b506060820151610a226060850182610987565b506080820151610a3560808501826109b4565b5060a0820151610a4860a08501826109b4565b5060c0820151610a5b60c08501826109b4565b5060e0820151610a6e60e08501826109c3565b50505050565b600061010082019050610a8a60008301846109d2565b92915050565b600060208284031215610aa657610aa5610652565b5b6000610ab484828501610752565b9150509291505056fea2646970667358221220a35d85c4a1d840c52a6092cd9aa6497edb076527cb42a8ef01a1a5dd5734094264736f6c63430008140033",
  "linkReferences": {},
  "deployedLinkReferences": {}
}