{
  "_format": "hh-sol-artifact-1",
  "contractName": "UniswapLiquidityManager",
  "sourceName": "contracts/UniswapLiquidityManager.sol",
  "abi": [
    {
      "inputs": [
        {
          "internalType": "address",
          "name": "_factory",
          "type": "address"
        },
        {
          "internalType": "address",
          "name": "_token0",
          "type": "address"
        },
        {
          "internalType": "address",
          "name": "_token1",
          "type": "address"
        },
        {
          "internalType": "uint24",
          "name": "_fee",
          "type": "uint24"
        },
        {
          "internalType": "address",
          "name": "_owner",
          "type": "address"
        }
      ],
      "stateMutability": "nonpayable",
      "type": "constructor"
    },
    {
      "inputs": [
        {
          "internalType": "address",
          "name": "owner",
          "type": "address"
        }
      ],
      "name": "OwnableInvalidOwner",
      "type": "error"
    },
    {
      "inputs": [
        {
          "internalType": "address",
          "name": "account",
          "type": "address"
        }
      ],
      "name": "OwnableUnauthorizedAccount",
      "type": "error"
    },
    {
      "anonymous": false,
      "inputs": [
        {
          "indexed": false,
          "internalType": "uint256",
          "name": "timestamp",
          "type": "uint256"
        },
        {
          "indexed": false,
          "internalType": "uint256",
          "name": "actualPrice",
          "type": "uint256"
        },
        {
          "indexed": false,
          "internalType": "uint256",
          "name": "predictedPrice",
          "type": "uint256"
        },
        {
          "indexed": false,
          "internalType": "bool",
          "name": "increasedLiquidity",
          "type": "bool"
        },
        {
          "indexed": false,
          "internalType": "uint256",
          "name": "liquidityBefore",
          "type": "uint256"
        },
        {
          "indexed": false,
          "internalType": "uint256",
          "name": "liquidityAfter",
          "type": "uint256"
        },
        {
          "indexed": false,
          "internalType": "uint256",
          "name": "gasUsed",
          "type": "uint256"
        }
      ],
      "name": "DataRecorded",
      "type": "event"
    },
    {
      "anonymous": false,
      "inputs": [
        {
          "indexed": false,
          "internalType": "bool",
          "name": "increased",
          "type": "bool"
        },
        {
          "indexed": false,
          "internalType": "uint256",
          "name": "amount",
          "type": "uint256"
        }
      ],
      "name": "LiquidityChanged",
      "type": "event"
    },
    {
      "anonymous": false,
      "inputs": [
        {
          "indexed": true,
          "internalType": "address",
          "name": "previousOwner",
          "type": "address"
        },
        {
          "indexed": true,
          "internalType": "address",
          "name": "newOwner",
          "type": "address"
        }
      ],
      "name": "OwnershipTransferred",
      "type": "event"
    },
    {
      "anonymous": false,
      "inputs": [
        {
          "indexed": false,
          "internalType": "uint256",
          "name": "actualPrice",
          "type": "uint256"
        },
        {
          "indexed": false,
          "internalType": "uint256",
          "name": "predictedPrice",
          "type": "uint256"
        }
      ],
      "name": "PriceUpdated",
      "type": "event"
    },
    {
      "inputs": [],
      "name": "currentPrice",
      "outputs": [
        {
          "internalType": "uint256",
          "name": "",
          "type": "uint256"
        }
      ],
      "stateMutability": "view",
      "type": "function"
    },
    {
      "inputs": [],
      "name": "factory",
      "outputs": [
        {
          "internalType": "contract IUniswapV3Factory",
          "name": "",
          "type": "address"
        }
      ],
      "stateMutability": "view",
      "type": "function"
    },
    {
      "inputs": [],
      "name": "fee",
      "outputs": [
        {
          "internalType": "uint24",
          "name": "",
          "type": "uint24"
        }
      ],
      "stateMutability": "view",
      "type": "function"
    },
    {
      "inputs": [],
      "name": "fetchUniswapPrice",
      "outputs": [
        {
          "internalType": "uint256",
          "name": "",
          "type": "uint256"
        }
      ],
      "stateMutability": "view",
      "type": "function"
    },
    {
      "inputs": [],
      "name": "getLiquidity",
      "outputs": [
        {
          "internalType": "uint256",
          "name": "",
          "type": "uint256"
        }
      ],
      "stateMutability": "view",
      "type": "function"
    },
    {
      "inputs": [],
      "name": "getPriceDataHistory",
      "outputs": [
        {
          "components": [
            {
              "internalType": "uint256",
              "name": "timestamp",
              "type": "uint256"
            },
            {
              "internalType": "uint256",
              "name": "actualPrice",
              "type": "uint256"
            },
            {
              "internalType": "uint256",
              "name": "predictedPrice",
              "type": "uint256"
            },
            {
              "internalType": "bool",
              "name": "increasedLiquidity",
              "type": "bool"
            },
            {
              "internalType": "uint256",
              "name": "liquidityBefore",
              "type": "uint256"
            },
            {
              "internalType": "uint256",
              "name": "liquidityAfter",
              "type": "uint256"
            },
            {
              "internalType": "uint256",
              "name": "gasUsed",
              "type": "uint256"
            }
          ],
          "internalType": "struct UniswapLiquidityManager.PriceData[]",
          "name": "",
          "type": "tuple[]"
        }
      ],
      "stateMutability": "view",
      "type": "function"
    },
    {
      "inputs": [],
      "name": "manageLiquidity",
      "outputs": [],
      "stateMutability": "nonpayable",
      "type": "function"
    },
    {
      "inputs": [],
      "name": "owner",
      "outputs": [
        {
          "internalType": "address",
          "name": "",
          "type": "address"
        }
      ],
      "stateMutability": "view",
      "type": "function"
    },
    {
      "inputs": [],
      "name": "predictedPrice",
      "outputs": [
        {
          "internalType": "uint256",
          "name": "",
          "type": "uint256"
        }
      ],
      "stateMutability": "view",
      "type": "function"
    },
    {
      "inputs": [
        {
          "internalType": "uint256",
          "name": "",
          "type": "uint256"
        }
      ],
      "name": "priceDataHistory",
      "outputs": [
        {
          "internalType": "uint256",
          "name": "timestamp",
          "type": "uint256"
        },
        {
          "internalType": "uint256",
          "name": "actualPrice",
          "type": "uint256"
        },
        {
          "internalType": "uint256",
          "name": "predictedPrice",
          "type": "uint256"
        },
        {
          "internalType": "bool",
          "name": "increasedLiquidity",
          "type": "bool"
        },
        {
          "internalType": "uint256",
          "name": "liquidityBefore",
          "type": "uint256"
        },
        {
          "internalType": "uint256",
          "name": "liquidityAfter",
          "type": "uint256"
        },
        {
          "internalType": "uint256",
          "name": "gasUsed",
          "type": "uint256"
        }
      ],
      "stateMutability": "view",
      "type": "function"
    },
    {
      "inputs": [],
      "name": "priceThreshold",
      "outputs": [
        {
          "internalType": "uint256",
          "name": "",
          "type": "uint256"
        }
      ],
      "stateMutability": "view",
      "type": "function"
    },
    {
      "inputs": [],
      "name": "renounceOwnership",
      "outputs": [],
      "stateMutability": "nonpayable",
      "type": "function"
    },
    {
      "inputs": [
        {
          "internalType": "uint256",
          "name": "_predictedPrice",
          "type": "uint256"
        }
      ],
      "name": "setPredictedPrice",
      "outputs": [],
      "stateMutability": "nonpayable",
      "type": "function"
    },
    {
      "inputs": [],
      "name": "token0",
      "outputs": [
        {
          "internalType": "address",
          "name": "",
          "type": "address"
        }
      ],
      "stateMutability": "view",
      "type": "function"
    },
    {
      "inputs": [],
      "name": "token1",
      "outputs": [
        {
          "internalType": "address",
          "name": "",
          "type": "address"
        }
      ],
      "stateMutability": "view",
      "type": "function"
    },
    {
      "inputs": [
        {
          "internalType": "address",
          "name": "newOwner",
          "type": "address"
        }
      ],
      "name": "transferOwnership",
      "outputs": [],
      "stateMutability": "nonpayable",
      "type": "function"
    }
  ],
  "bytecode": "0x61010060405260056003553480156200001757600080fd5b5060405162001034380380620010348339810160408190526200003a916200010c565b806001600160a01b0381166200006a57604051631e4fbdf760e01b81526000600482015260240160405180910390fd5b62000075816200009f565b50506001600160a01b0393841660805291831660a05290911660c05262ffffff1660e05262000185565b600080546001600160a01b038381166001600160a01b0319831681178455604051919092169283917f8be0079c531659141344cd1fd0a4f28419497f9722a3daafe3b4186f6b6457e09190a35050565b80516001600160a01b03811681146200010757600080fd5b919050565b600080600080600060a086880312156200012557600080fd5b6200013086620000ef565b94506200014060208701620000ef565b93506200015060408701620000ef565b9250606086015162ffffff811681146200016957600080fd5b91506200017960808701620000ef565b90509295509295909350565b60805160a05160c05160e051610e3d620001f7600039600081816102550152818161031801526104e401526000818161022e015281816102f001526104bc015260008181610125015281816102c801526104940152600081816101fe0152818161034801526105140152610e3d6000f3fe608060405234801561001057600080fd5b50600436106101005760003560e01c80639d1b464a11610097578063d21220a711610066578063d21220a714610229578063ddca3f4314610250578063f027f3611461028b578063f2fde38b1461029e57600080fd5b80639d1b464a146101e7578063a27afd67146101f0578063c45a0155146101f9578063cc2f60931461022057600080fd5b8063715018a6116100d3578063715018a61461017c5780637cfff8e6146101865780638da5cb5b1461018e5780638fe043791461019f57600080fd5b80630910a510146101055780630dfe1681146101205780633f9fa0561461015f5780634ae1045014610167575b600080fd5b61010d6102b1565b6040519081526020015b60405180910390f35b6101477f000000000000000000000000000000000000000000000000000000000000000081565b6040516001600160a01b039091168152602001610117565b61010d61047d565b61016f61067d565b6040516101179190610bc8565b610184610721565b005b610184610735565b6000546001600160a01b0316610147565b6101b26101ad366004610c4c565b6107e4565b604080519788526020880196909652948601939093529015156060850152608084015260a083015260c082015260e001610117565b61010d60015481565b61010d60025481565b6101477f000000000000000000000000000000000000000000000000000000000000000081565b61010d60035481565b6101477f000000000000000000000000000000000000000000000000000000000000000081565b6102777f000000000000000000000000000000000000000000000000000000000000000081565b60405162ffffff9091168152602001610117565b610184610299366004610c4c565b610837565b6101846102ac366004610c7a565b610896565b604051630b4c774160e11b81526001600160a01b037f0000000000000000000000000000000000000000000000000000000000000000811660048301527f0000000000000000000000000000000000000000000000000000000000000000811660248301527f000000000000000000000000000000000000000000000000000000000000000062ffffff16604483015260009182917f00000000000000000000000000000000000000000000000000000000000000001690631698ee8290606401602060405180830381865afa15801561038f573d6000803e3d6000fd5b505050506040513d601f19601f820116820180604052508101906103b39190610c9e565b90506001600160a01b0381166104065760405162461bcd60e51b8152602060048201526013602482015272141bdbdb08191bd95cc81b9bdd08195e1a5cdd606a1b60448201526064015b60405180910390fd5b6000819050806001600160a01b0316631a6865026040518163ffffffff1660e01b8152600401602060405180830381865afa158015610449573d6000803e3d6000fd5b505050506040513d601f19601f8201168201806040525081019061046d9190610cbb565b6001600160801b03169250505090565b604051630b4c774160e11b81526001600160a01b037f0000000000000000000000000000000000000000000000000000000000000000811660048301527f0000000000000000000000000000000000000000000000000000000000000000811660248301527f000000000000000000000000000000000000000000000000000000000000000062ffffff16604483015260009182917f00000000000000000000000000000000000000000000000000000000000000001690631698ee8290606401602060405180830381865afa15801561055b573d6000803e3d6000fd5b505050506040513d601f19601f8201168201806040525081019061057f9190610c9e565b90506001600160a01b0381166105cd5760405162461bcd60e51b8152602060048201526013602482015272141bdbdb08191bd95cc81b9bdd08195e1a5cdd606a1b60448201526064016103fd565b60008190506000816001600160a01b0316633850c7bd6040518163ffffffff1660e01b815260040160e060405180830381865afa158015610612573d6000803e3d6000fd5b505050506040513d601f19601f820116820180604052508101906106369190610cfb565b5050505050509050600060c0826001600160a01b0316836001600160a01b03166106609190610db5565b61067290670de0b6b3a7640000610db5565b901c95945050505050565b60606004805480602002602001604051908101604052809291908181526020016000905b828210156107185760008481526020908190206040805160e081018252600786029092018054835260018082015484860152600282015492840192909252600381015460ff161515606084015260048101546080840152600581015460a08401526006015460c083015290835290920191016106a1565b50505050905090565b6107296108d4565b6107336000610901565b565b61073d6108d4565b60008060015460025411156107675760015460025461075c9190610dd2565b91506001905061077e565b6002546001546107779190610dd2565b9150600090505b60035460015461078f846064610db5565b6107999190610de5565b11156107e05760006107a96102b1565b905081156107be576107b9610951565b6107c6565b6107c661098e565b60006107d06102b1565b90506107dd8383836109c4565b50505b5050565b600481815481106107f457600080fd5b600091825260209091206007909102018054600182015460028301546003840154600485015460058601546006909601549496509294919360ff90911692919087565b61083f6108d4565b600281905561084c61047d565b60018190556002546040517f945c1c4e99aa89f648fbfe3df471b916f719e16d960fcec0737d4d56bd6968389261088b92908252602082015260400190565b60405180910390a150565b61089e6108d4565b6001600160a01b0381166108c857604051631e4fbdf760e01b8152600060048201526024016103fd565b6108d181610901565b50565b6000546001600160a01b031633146107335760405163118cdaa760e01b81523360048201526024016103fd565b600080546001600160a01b038381166001600160a01b0319831681178455604051919092169283917f8be0079c531659141344cd1fd0a4f28419497f9722a3daafe3b4186f6b6457e09190a35050565b6040805160018152600060208201527f1dc58be0dec3d5f4b0799d75f3a3334ea7474c94639ef24986a31a5748f24f8f91015b60405180910390a1565b60408051600080825260208201527f1dc58be0dec3d5f4b0799d75f3a3334ea7474c94639ef24986a31a5748f24f8f9101610984565b60005a905060006040518060e001604052804281526020016001548152602001600254815260200186151581526020018581526020018481526020015a610a0b9085610dd2565b9052600480546001808201835560009290925282517f8a35acfbc15ff81a39ae7d344fd709f28e8600b4aa8c65c6b64bfe7fe36bd19b60079092029182015560208301517f8a35acfbc15ff81a39ae7d344fd709f28e8600b4aa8c65c6b64bfe7fe36bd19c82015560408301517f8a35acfbc15ff81a39ae7d344fd709f28e8600b4aa8c65c6b64bfe7fe36bd19d82015560608301517f8a35acfbc15ff81a39ae7d344fd709f28e8600b4aa8c65c6b64bfe7fe36bd19e8201805460ff191691151591909117905560808301517f8a35acfbc15ff81a39ae7d344fd709f28e8600b4aa8c65c6b64bfe7fe36bd19f82015560a08301517f8a35acfbc15ff81a39ae7d344fd709f28e8600b4aa8c65c6b64bfe7fe36bd1a082015560c08301517f8a35acfbc15ff81a39ae7d344fd709f28e8600b4aa8c65c6b64bfe7fe36bd1a190910155546002549192507fbd042a495f99ccb07096aef2bb6b8beabbfe4078720d34ce8e038262fe4532d6914291908888885a610b89908a610dd2565b604080519788526020880196909652948601939093529015156060850152608084015260a083015260c082015260e00160405180910390a15050505050565b602080825282518282018190526000919060409081850190868401855b82811015610c3f57815180518552868101518786015285810151868601526060808201511515908601526080808201519086015260a0808201519086015260c0908101519085015260e09093019290850190600101610be5565b5091979650505050505050565b600060208284031215610c5e57600080fd5b5035919050565b6001600160a01b03811681146108d157600080fd5b600060208284031215610c8c57600080fd5b8135610c9781610c65565b9392505050565b600060208284031215610cb057600080fd5b8151610c9781610c65565b600060208284031215610ccd57600080fd5b81516001600160801b0381168114610c9757600080fd5b805161ffff81168114610cf657600080fd5b919050565b600080600080600080600060e0888a031215610d1657600080fd5b8751610d2181610c65565b8097505060208801518060020b8114610d3957600080fd5b9550610d4760408901610ce4565b9450610d5560608901610ce4565b9350610d6360808901610ce4565b925060a088015160ff81168114610d7957600080fd5b60c08901519092508015158114610d8f57600080fd5b8091505092959891949750929550565b634e487b7160e01b600052601160045260246000fd5b8082028115828204841417610dcc57610dcc610d9f565b92915050565b81810381811115610dcc57610dcc610d9f565b600082610e0257634e487b7160e01b600052601260045260246000fd5b50049056fea26469706673582212207011729607ffbf6ddc1d7eebf56759022ffa7cbc7224ddc874a2191df71d62e864736f6c63430008180033",
  "linkReferences": {},
  "deployedLinkReferences": {}
}