{
  "_format": "hh-sol-artifact-1",
  "contractName": "PredictiveLiquidityManagerFinal",
  "sourceName": "contracts/PredictiveLiquidityManagerFinal.sol",
  "abi": [
    {
      "inputs": [
        {
          "internalType": "address",
          "name": "_factory",
          "type": "address"
        },
        {
          "internalType": "address",
          "name": "_positionManager",
          "type": "address"
        },
        {
          "internalType": "address",
          "name": "_swapRouter",
          "type": "address"
        },
        {
          "internalType": "address",
          "name": "_token0",
          "type": "address"
        },
        {
          "internalType": "address",
          "name": "_token1",
          "type": "address"
        },
        {
          "internalType": "uint24",
          "name": "_fee",
          "type": "uint24"
        },
        {
          "internalType": "address",
          "name": "_weth9",
          "type": "address"
        },
        {
          "internalType": "address",
          "name": "_initialOwner",
          "type": "address"
        }
      ],
      "stateMutability": "nonpayable",
      "type": "constructor"
    },
    {
      "anonymous": false,
      "inputs": [
        {
          "indexed": true,
          "internalType": "address",
          "name": "token",
          "type": "address"
        },
        {
          "indexed": true,
          "internalType": "address",
          "name": "sender",
          "type": "address"
        },
        {
          "indexed": false,
          "internalType": "uint256",
          "name": "amount",
          "type": "uint256"
        }
      ],
      "name": "Deposited",
      "type": "event"
    },
    {
      "anonymous": false,
      "inputs": [
        {
          "indexed": false,
          "internalType": "uint256",
          "name": "tokenId",
          "type": "uint256"
        },
        {
          "indexed": false,
          "internalType": "int24",
          "name": "tickLower",
          "type": "int24"
        },
        {
          "indexed": false,
          "internalType": "int24",
          "name": "tickUpper",
          "type": "int24"
        },
        {
          "indexed": false,
          "internalType": "uint128",
          "name": "liquidity",
          "type": "uint128"
        }
      ],
      "name": "LiquidityAdjusted",
      "type": "event"
    },
    {
      "anonymous": false,
      "inputs": [
        {
          "indexed": false,
          "internalType": "uint256",
          "name": "timestamp",
          "type": "uint256"
        },
        {
          "indexed": false,
          "internalType": "uint256",
          "name": "actualPrice",
          "type": "uint256"
        },
        {
          "indexed": false,
          "internalType": "uint256",
          "name": "predictedPrice",
          "type": "uint256"
        },
        {
          "indexed": false,
          "internalType": "int24",
          "name": "currentTick",
          "type": "int24"
        },
        {
          "indexed": false,
          "internalType": "int24",
          "name": "predictedTick",
          "type": "int24"
        },
        {
          "indexed": false,
          "internalType": "int24",
          "name": "tickLower",
          "type": "int24"
        },
        {
          "indexed": false,
          "internalType": "int24",
          "name": "tickUpper",
          "type": "int24"
        },
        {
          "indexed": false,
          "internalType": "uint128",
          "name": "liquidity",
          "type": "uint128"
        },
        {
          "indexed": false,
          "internalType": "uint256",
          "name": "amount0",
          "type": "uint256"
        },
        {
          "indexed": false,
          "internalType": "uint256",
          "name": "amount1",
          "type": "uint256"
        }
      ],
      "name": "LiquidityManagementMetrics",
      "type": "event"
    },
    {
      "anonymous": false,
      "inputs": [
        {
          "indexed": false,
          "internalType": "uint256",
          "name": "amount0Desired",
          "type": "uint256"
        },
        {
          "indexed": false,
          "internalType": "uint256",
          "name": "amount1Desired",
          "type": "uint256"
        },
        {
          "indexed": false,
          "internalType": "string",
          "name": "reason",
          "type": "string"
        }
      ],
      "name": "LiquidityMintFailed",
      "type": "event"
    },
    {
      "anonymous": false,
      "inputs": [
        {
          "indexed": true,
          "internalType": "uint256",
          "name": "tokenId",
          "type": "uint256"
        },
        {
          "indexed": false,
          "internalType": "string",
          "name": "reason",
          "type": "string"
        }
      ],
      "name": "LiquidityRemoveFailed",
      "type": "event"
    },
    {
      "anonymous": false,
      "inputs": [
        {
          "indexed": true,
          "internalType": "uint256",
          "name": "tokenId",
          "type": "uint256"
        },
        {
          "indexed": false,
          "internalType": "uint256",
          "name": "amount0",
          "type": "uint256"
        },
        {
          "indexed": false,
          "internalType": "uint256",
          "name": "amount1",
          "type": "uint256"
        }
      ],
      "name": "LiquidityRemoved",
      "type": "event"
    },
    {
      "anonymous": false,
      "inputs": [
        {
          "indexed": false,
          "internalType": "uint256",
          "name": "actualPrice",
          "type": "uint256"
        },
        {
          "indexed": false,
          "internalType": "uint256",
          "name": "predictedPrice",
          "type": "uint256"
        },
        {
          "indexed": false,
          "internalType": "int24",
          "name": "currentTick",
          "type": "int24"
        },
        {
          "indexed": false,
          "internalType": "int24",
          "name": "predictedTick",
          "type": "int24"
        },
        {
          "indexed": false,
          "internalType": "bool",
          "name": "adjusted",
          "type": "bool"
        },
        {
          "indexed": false,
          "internalType": "uint256",
          "name": "gasUsed",
          "type": "uint256"
        }
      ],
      "name": "OperationReported",
      "type": "event"
    },
    {
      "anonymous": false,
      "inputs": [
        {
          "indexed": true,
          "internalType": "address",
          "name": "previousOwner",
          "type": "address"
        },
        {
          "indexed": true,
          "internalType": "address",
          "name": "newOwner",
          "type": "address"
        }
      ],
      "name": "OwnershipTransferred",
      "type": "event"
    },
    {
      "anonymous": false,
      "inputs": [
        {
          "indexed": false,
          "internalType": "string",
          "name": "paramName",
          "type": "string"
        },
        {
          "indexed": false,
          "internalType": "uint256",
          "name": "newValue",
          "type": "uint256"
        }
      ],
      "name": "StrategyParamUpdated",
      "type": "event"
    },
    {
      "anonymous": false,
      "inputs": [
        {
          "indexed": true,
          "internalType": "address",
          "name": "tokenIn",
          "type": "address"
        },
        {
          "indexed": true,
          "internalType": "address",
          "name": "tokenOut",
          "type": "address"
        },
        {
          "indexed": false,
          "internalType": "uint256",
          "name": "amountIn",
          "type": "uint256"
        },
        {
          "indexed": false,
          "internalType": "uint256",
          "name": "amountOut",
          "type": "uint256"
        }
      ],
      "name": "Swapped",
      "type": "event"
    },
    {
      "anonymous": false,
      "inputs": [
        {
          "indexed": true,
          "internalType": "address",
          "name": "token",
          "type": "address"
        },
        {
          "indexed": true,
          "internalType": "address",
          "name": "recipient",
          "type": "address"
        },
        {
          "indexed": false,
          "internalType": "uint256",
          "name": "amount",
          "type": "uint256"
        }
      ],
      "name": "Withdrawn",
      "type": "event"
    },
    {
      "inputs": [],
      "name": "WETH9",
      "outputs": [
        {
          "internalType": "address",
          "name": "",
          "type": "address"
        }
      ],
      "stateMutability": "view",
      "type": "function"
    },
    {
      "inputs": [],
      "name": "currentPosition",
      "outputs": [
        {
          "internalType": "uint256",
          "name": "tokenId",
          "type": "uint256"
        },
        {
          "internalType": "uint128",
          "name": "liquidity",
          "type": "uint128"
        },
        {
          "internalType": "int24",
          "name": "tickLower",
          "type": "int24"
        },
        {
          "internalType": "int24",
          "name": "tickUpper",
          "type": "int24"
        },
        {
          "internalType": "bool",
          "name": "active",
          "type": "bool"
        }
      ],
      "stateMutability": "view",
      "type": "function"
    },
    {
      "inputs": [],
      "name": "depositETH",
      "outputs": [],
      "stateMutability": "payable",
      "type": "function"
    },
    {
      "inputs": [
        {
          "internalType": "address",
          "name": "_token",
          "type": "address"
        },
        {
          "internalType": "uint256",
          "name": "_amount",
          "type": "uint256"
        }
      ],
      "name": "depositToken",
      "outputs": [],
      "stateMutability": "nonpayable",
      "type": "function"
    },
    {
      "inputs": [],
      "name": "factory",
      "outputs": [
        {
          "internalType": "contract IUniswapV3Factory",
          "name": "",
          "type": "address"
        }
      ],
      "stateMutability": "view",
      "type": "function"
    },
    {
      "inputs": [],
      "name": "fee",
      "outputs": [
        {
          "internalType": "uint24",
          "name": "",
          "type": "uint24"
        }
      ],
      "stateMutability": "view",
      "type": "function"
    },
    {
      "inputs": [],
      "name": "getActivePositionDetails",
      "outputs": [
        {
          "internalType": "uint256",
          "name": "tokenId",
          "type": "uint256"
        },
        {
          "internalType": "uint128",
          "name": "liquidity",
          "type": "uint128"
        },
        {
          "internalType": "int24",
          "name": "tickLower",
          "type": "int24"
        },
        {
          "internalType": "int24",
          "name": "tickUpper",
          "type": "int24"
        },
        {
          "internalType": "bool",
          "name": "active",
          "type": "bool"
        }
      ],
      "stateMutability": "view",
      "type": "function"
    },
    {
      "inputs": [],
      "name": "getContractBalances",
      "outputs": [
        {
          "internalType": "uint256",
          "name": "balance0",
          "type": "uint256"
        },
        {
          "internalType": "uint256",
          "name": "balance1",
          "type": "uint256"
        },
        {
          "internalType": "uint256",
          "name": "balanceWETH",
          "type": "uint256"
        }
      ],
      "stateMutability": "view",
      "type": "function"
    },
    {
      "inputs": [],
      "name": "getPoolAddress",
      "outputs": [
        {
          "internalType": "address",
          "name": "",
          "type": "address"
        }
      ],
      "stateMutability": "view",
      "type": "function"
    },
    {
      "inputs": [],
      "name": "owner",
      "outputs": [
        {
          "internalType": "address",
          "name": "",
          "type": "address"
        }
      ],
      "stateMutability": "view",
      "type": "function"
    },
    {
      "inputs": [],
      "name": "positionManager",
      "outputs": [
        {
          "internalType": "contract INonfungiblePositionManager",
          "name": "",
          "type": "address"
        }
      ],
      "stateMutability": "view",
      "type": "function"
    },
    {
      "inputs": [],
      "name": "rangeWidthMultiplier",
      "outputs": [
        {
          "internalType": "uint24",
          "name": "",
          "type": "uint24"
        }
      ],
      "stateMutability": "view",
      "type": "function"
    },
    {
      "inputs": [],
      "name": "refundETH",
      "outputs": [],
      "stateMutability": "payable",
      "type": "function"
    },
    {
      "inputs": [],
      "name": "renounceOwnership",
      "outputs": [],
      "stateMutability": "nonpayable",
      "type": "function"
    },
    {
      "inputs": [
        {
          "internalType": "uint24",
          "name": "_multiplier",
          "type": "uint24"
        }
      ],
      "name": "setRangeWidthMultiplier",
      "outputs": [],
      "stateMutability": "nonpayable",
      "type": "function"
    },
    {
      "inputs": [
        {
          "components": [
            {
              "internalType": "address",
              "name": "tokenIn",
              "type": "address"
            },
            {
              "internalType": "address",
              "name": "tokenOut",
              "type": "address"
            },
            {
              "internalType": "uint24",
              "name": "poolFee",
              "type": "uint24"
            },
            {
              "internalType": "uint256",
              "name": "amountIn",
              "type": "uint256"
            },
            {
              "internalType": "uint256",
              "name": "amountOutMinimum",
              "type": "uint256"
            },
            {
              "internalType": "uint160",
              "name": "sqrtPriceLimitX96",
              "type": "uint160"
            }
          ],
          "internalType": "struct PredictiveLiquidityManagerFinal.SwapParams",
          "name": "params",
          "type": "tuple"
        }
      ],
      "name": "swap",
      "outputs": [
        {
          "internalType": "uint256",
          "name": "amountOut",
          "type": "uint256"
        }
      ],
      "stateMutability": "nonpayable",
      "type": "function"
    },
    {
      "inputs": [],
      "name": "swapRouter",
      "outputs": [
        {
          "internalType": "contract ISwapRouter",
          "name": "",
          "type": "address"
        }
      ],
      "stateMutability": "view",
      "type": "function"
    },
    {
      "inputs": [
        {
          "internalType": "address",
          "name": "token",
          "type": "address"
        },
        {
          "internalType": "uint256",
          "name": "amountMinimum",
          "type": "uint256"
        },
        {
          "internalType": "address",
          "name": "recipient",
          "type": "address"
        }
      ],
      "name": "sweepToken",
      "outputs": [],
      "stateMutability": "payable",
      "type": "function"
    },
    {
      "inputs": [],
      "name": "tickSpacing",
      "outputs": [
        {
          "internalType": "int24",
          "name": "",
          "type": "int24"
        }
      ],
      "stateMutability": "view",
      "type": "function"
    },
    {
      "inputs": [],
      "name": "token0",
      "outputs": [
        {
          "internalType": "address",
          "name": "",
          "type": "address"
        }
      ],
      "stateMutability": "view",
      "type": "function"
    },
    {
      "inputs": [],
      "name": "token0Decimals",
      "outputs": [
        {
          "internalType": "uint8",
          "name": "",
          "type": "uint8"
        }
      ],
      "stateMutability": "view",
      "type": "function"
    },
    {
      "inputs": [],
      "name": "token1",
      "outputs": [
        {
          "internalType": "address",
          "name": "",
          "type": "address"
        }
      ],
      "stateMutability": "view",
      "type": "function"
    },
    {
      "inputs": [],
      "name": "token1Decimals",
      "outputs": [
        {
          "internalType": "uint8",
          "name": "",
          "type": "uint8"
        }
      ],
      "stateMutability": "view",
      "type": "function"
    },
    {
      "inputs": [
        {
          "internalType": "address",
          "name": "newOwner",
          "type": "address"
        }
      ],
      "name": "transferOwnership",
      "outputs": [],
      "stateMutability": "nonpayable",
      "type": "function"
    },
    {
      "inputs": [
        {
          "internalType": "uint256",
          "name": "amount0Owed",
          "type": "uint256"
        },
        {
          "internalType": "uint256",
          "name": "amount1Owed",
          "type": "uint256"
        },
        {
          "internalType": "bytes",
          "name": "",
          "type": "bytes"
        }
      ],
      "name": "uniswapV3MintCallback",
      "outputs": [],
      "stateMutability": "nonpayable",
      "type": "function"
    },
    {
      "inputs": [
        {
          "internalType": "uint256",
          "name": "amountMinimum",
          "type": "uint256"
        },
        {
          "internalType": "address",
          "name": "recipient",
          "type": "address"
        }
      ],
      "name": "unwrapWETH9",
      "outputs": [],
      "stateMutability": "payable",
      "type": "function"
    },
    {
      "inputs": [
        {
          "internalType": "uint256",
          "name": "predictedPriceDecimal",
          "type": "uint256"
        }
      ],
      "name": "updatePredictionAndAdjust",
      "outputs": [],
      "stateMutability": "nonpayable",
      "type": "function"
    },
    {
      "inputs": [
        {
          "internalType": "uint256",
          "name": "_amount",
          "type": "uint256"
        },
        {
          "internalType": "address payable",
          "name": "_recipient",
          "type": "address"
        }
      ],
      "name": "withdrawETH",
      "outputs": [],
      "stateMutability": "nonpayable",
      "type": "function"
    },
    {
      "inputs": [
        {
          "internalType": "address",
          "name": "_token",
          "type": "address"
        },
        {
          "internalType": "uint256",
          "name": "_amount",
          "type": "uint256"
        },
        {
          "internalType": "address",
          "name": "_recipient",
          "type": "address"
        }
      ],
      "name": "withdrawToken",
      "outputs": [],
      "stateMutability": "nonpayable",
      "type": "function"
    },
    {
      "stateMutability": "payable",
      "type": "receive"
    }
  ],
  "bytecode": "0x6101c06040526004805462ffffff1916811790553480156200002057600080fd5b5060405162005951380380620059518339810160408190526200004391620009e8565b60006200004f62000480565b600080546001600160a01b0319166001600160a01b038316908117825560405192935091600080516020620058d1833981519152908290a350600180556001600160601b0319606089811b821660805288811b821660a05287811b821660c05286811b821660e05285811b8216610100526001600160e81b031960e886901b166101605283901b166101a0526040805163313ce56760e01b815290516001600160a01b0387169163313ce567916004808301926020929190829003018186803b1580156200011c57600080fd5b505afa9250505080156200014f575060408051601f3d908101601f191682019092526200014c9181019062000aba565b60015b620001775760405162461bcd60e51b81526004016200016e9062000b7e565b60405180910390fd5b6001600160f81b031960f89190911b1661012052836001600160a01b031663313ce5676040518163ffffffff1660e01b815260040160206040518083038186803b158015620001c557600080fd5b505afa925050508015620001f8575060408051601f3d908101601f19168201909252620001f59181019062000aba565b60015b620002175760405162461bcd60e51b81526004016200016e9062000b05565b60f81b6001600160f81b03191661014052604051630b4c774160e11b81526000906001600160a01b038a1690631698ee82906200025d9089908990899060040162000add565b60206040518083038186803b1580156200027657600080fd5b505afa1580156200028b573d6000803e3d6000fd5b505050506040513d601f19601f82011682018060405250810190620002b19190620009cb565b90506001600160a01b038116620002dc5760405162461bcd60e51b81526004016200016e9062000b47565b806001600160a01b031663d0c93a7c6040518163ffffffff1660e01b815260040160206040518083038186803b1580156200031657600080fd5b505afa1580156200032b573d6000803e3d6000fd5b505050506040513d601f19601f8201168201806040525081019062000351919062000a97565b600290810b900b60e81b61018052620003836001600160a01b0387168960001962000484602090811b6200218e17901c565b620003aa88600019876001600160a01b03166200048460201b6200218e179092919060201c565b620003d187600019886001600160a01b03166200048460201b6200218e179092919060201c565b620003f887600019876001600160a01b03166200048460201b6200218e179092919060201c565b6001600160a01b0383161562000456576200042f88600019856001600160a01b03166200048460201b6200218e179092919060201c565b6200045687600019856001600160a01b03166200048460201b6200218e179092919060201c565b6001600160a01b0382161562000471576200047182620005a8565b50505050505050505062000bc0565b3390565b8015806200050e575060408051636eb1769f60e11b81523060048201526001600160a01b03848116602483015291519185169163dd62ed3e91604480820192602092909190829003018186803b158015620004de57600080fd5b505afa158015620004f3573d6000803e3d6000fd5b505050506040513d60208110156200050a57600080fd5b5051155b6200054b5760405162461bcd60e51b81526004018080602001828103825260368152602001806200591b6036913960400191505060405180910390fd5b604080516001600160a01b038416602482015260448082018490528251808303909101815260649091019091526020810180516001600160e01b0390811663095ea7b360e01b17909152620005a3918591620006b216565b505050565b620005b262000480565b6001600160a01b0316620005c56200076e565b6001600160a01b03161462000621576040805162461bcd60e51b815260206004820181905260248201527f4f776e61626c653a2063616c6c6572206973206e6f7420746865206f776e6572604482015290519081900360640190fd5b6001600160a01b038116620006685760405162461bcd60e51b8152600401808060200182810382526026815260200180620058856026913960400191505060405180910390fd5b600080546040516001600160a01b0380851693921691600080516020620058d183398151915291a3600080546001600160a01b0319166001600160a01b0392909216919091179055565b60006200070e826040518060400160405280602081526020017f5361666545524332303a206c6f772d6c6576656c2063616c6c206661696c6564815250856001600160a01b03166200077d60201b620022a6179092919060201c565b805190915015620005a3578080602001905160208110156200072f57600080fd5b5051620005a35760405162461bcd60e51b815260040180806020018281038252602a815260200180620058f1602a913960400191505060405180910390fd5b6000546001600160a01b031690565b60606200078e848460008562000798565b90505b9392505050565b606082471015620007db5760405162461bcd60e51b8152600401808060200182810382526026815260200180620058ab6026913960400191505060405180910390fd5b620007e685620008ff565b62000838576040805162461bcd60e51b815260206004820152601d60248201527f416464726573733a2063616c6c20746f206e6f6e2d636f6e7472616374000000604482015290519081900360640190fd5b600080866001600160a01b031685876040518082805190602001908083835b60208310620008785780518252601f19909201916020918201910162000857565b6001836020036101000a03801982511681845116808217855250505050505090500191505060006040518083038185875af1925050503d8060008114620008dc576040519150601f19603f3d011682016040523d82523d6000602084013e620008e1565b606091505b509092509050620008f482828662000909565b979650505050505050565b803b15155b919050565b606083156200091a57508162000791565b8251156200092b5782518084602001fd5b8160405162461bcd60e51b81526004018080602001828103825283818151815260200191508051906020019080838360005b83811015620009775781810151838201526020016200095d565b50505050905090810190601f168015620009a55780820380516001836020036101000a031916815260200191505b509250505060405180910390fd5b80516001600160a01b03811681146200090457600080fd5b600060208284031215620009dd578081fd5b6200079182620009b3565b600080600080600080600080610100898b03121562000a05578384fd5b62000a1089620009b3565b975062000a2060208a01620009b3565b965062000a3060408a01620009b3565b955062000a4060608a01620009b3565b945062000a5060808a01620009b3565b935060a089015162ffffff8116811462000a68578384fd5b925062000a7860c08a01620009b3565b915062000a8860e08a01620009b3565b90509295985092959890939650565b60006020828403121562000aa9578081fd5b81518060020b811462000791578182fd5b60006020828403121562000acc578081fd5b815160ff8116811462000791578182fd5b6001600160a01b03938416815291909216602082015262ffffff909116604082015260600190565b60208082526022908201527f546f6b656e3120646f6573206e6f7420737570706f727420646563696d616c73604082015261282960f01b606082015260800190565b60208082526013908201527f506f6f6c20646f6573206e6f7420657869737400000000000000000000000000604082015260600190565b60208082526022908201527f546f6b656e3020646f6573206e6f7420737570706f727420646563696d616c73604082015261282960f01b606082015260800190565b60805160601c60a05160601c60c05160601c60e05160601c6101005160601c6101205160f81c6101405160f81c6101605160e81c6101805160e81c6101a05160601c614afa62000d8b6000398061079152806107cd528061094b52806109ee5280610aa85280610b52528061111d52806111a1528061125f52806113045280611e2b5280611e915280611f0f52806120b852806121025250806118da52806127b852806127f55280612816525080611a135280611cff52806123e752806135bf5250806104e652806125615280612591528061261e528061268652806126b6528061274352508061186e528061253e52806125b552806125fa528061266252806126da528061271f5250806107555280611032528061142652806114ce52806118fe52806119b55280611cdd528061202f52806123c6528061293b528061359052508061050a528061071a5280610f9652806113df5280611484528061197b5280611cbb5280611f7b52806123a552806128b0528061356152508061155252806116455280611754528061189252508061183a528061192b528061321e52806133385280613438528061363152806138b85250806118b65280611c8e52806123765250614afa6000f3fe6080604052600436106101c65760003560e01c8063791b98bc116100f7578063d348799711610095578063f2fde38b11610064578063f2fde38b14610478578063f586c6d914610498578063f6326fb3146104ad578063ffd2a7d3146104b5576101cd565b8063d34879971461041b578063d534d6361461043b578063ddca3f4314610450578063df2ab5bb14610465576101cd565b8063c31c9c07116100d1578063c31c9c07146103ba578063c45a0155146103cf578063d0c93a7c146103e4578063d21220a714610406576101cd565b8063791b98bc1461037b5780638da5cb5b14610390578063b31ac6e2146103a5576101cd565b80633ccdbb281161016457806349404b7c1161013e57806349404b7c146103115780634aa4a4fc14610324578063516606eb14610339578063715018a614610366576101cd565b80633ccdbb28146102ab57806341675b05146102cb578063479c2e76146102eb576101cd565b806312210e8a116101a057806312210e8a146102415780631ee0b02e1461024b578063338b5dea1461026b57806336118b521461028b576101cd565b806301d31e7c146101d25780630b77884d146101fd5780630dfe16811461021f576101cd565b366101cd57005b600080fd5b3480156101de57600080fd5b506101e76104d9565b6040516101f49190614733565b60405180910390f35b34801561020957600080fd5b506102126104e4565b6040516101f491906148e9565b34801561022b57600080fd5b50610234610508565b6040516101f4919061418d565b61024961052c565b005b34801561025757600080fd5b50610249610266366004613fab565b610584565b34801561027757600080fd5b50610249610286366004613e8e565b61066b565b34801561029757600080fd5b506102496102a636600461402d565b61089c565b3480156102b757600080fd5b506102496102c6366004613eb9565b610ba9565b3480156102d757600080fd5b506102496102e6366004613fce565b610da0565b3480156102f757600080fd5b506103006110e4565b6040516101f4959493929190614774565b61024961031f366004613ffe565b61111b565b34801561033057600080fd5b50610234611302565b34801561034557600080fd5b50610359610354366004613efa565b611326565b6040516101f49190614743565b34801561037257600080fd5b5061024961178c565b34801561038757600080fd5b50610234611838565b34801561039c57600080fd5b5061023461185c565b3480156103b157600080fd5b5061021261186c565b3480156103c657600080fd5b50610234611890565b3480156103db57600080fd5b506102346118b4565b3480156103f057600080fd5b506103f96118d8565b6040516101f491906141c9565b34801561041257600080fd5b506102346118fc565b34801561042757600080fd5b506102496104363660046140aa565b611920565b34801561044757600080fd5b506103006119dc565b34801561045c57600080fd5b506101e7611a11565b610249610473366004613eb9565b611a35565b34801561048457600080fd5b50610249610493366004613e56565b611b72565b3480156104a457600080fd5b50610234611c74565b610249611d7c565b3480156104c157600080fd5b506104ca611f74565b6040516101f49392919061487d565b60045462ffffff1681565b7f000000000000000000000000000000000000000000000000000000000000000081565b7f000000000000000000000000000000000000000000000000000000000000000081565b600047116105555760405162461bcd60e51b815260040161054c90614448565b60405180910390fd5b60405133904780156108fc02916000818181858888f19350505050158015610581573d6000803e3d6000fd5b50565b61058c6122bf565b6001600160a01b031661059d61185c565b6001600160a01b0316146105e6576040805162461bcd60e51b81526020600482018190526024820152600080516020614a45833981519152604482015290519081900360640190fd5b60008162ffffff16118015610601575060648162ffffff1611155b61061d5760405162461bcd60e51b815260040161054c906141ea565b6004805462ffffff191662ffffff83161790556040517f22a7b700c7155ab4252833eee76474bc7531e6598483ae76eb278df86f084c0c9061066090839061455b565b60405180910390a150565b600260015414156106b1576040805162461bcd60e51b815260206004820152601f60248201526000805160206149b8833981519152604482015290519081900360640190fd5b60026001556106be6122bf565b6001600160a01b03166106cf61185c565b6001600160a01b031614610718576040805162461bcd60e51b81526020600482018190526024820152600080516020614a45833981519152604482015290519081900360640190fd5b7f00000000000000000000000000000000000000000000000000000000000000006001600160a01b0316826001600160a01b0316148061078957507f00000000000000000000000000000000000000000000000000000000000000006001600160a01b0316826001600160a01b0316145b806107f857507f00000000000000000000000000000000000000000000000000000000000000006001600160a01b0316826001600160a01b03161480156107f857507f00000000000000000000000000000000000000000000000000000000000000006001600160a01b031615155b6108145760405162461bcd60e51b815260040161054c9061424d565b600081116108345760405162461bcd60e51b815260040161054c906143c3565b6108496001600160a01b0383163330846122c3565b336001600160a01b0316826001600160a01b03167f8752a472e571a816aea92eec8dae9baf628e840f4929fbcc2d155e6233ff68a78360405161088c9190614743565b60405180910390a3505060018055565b600260015414156108e2576040805162461bcd60e51b815260206004820152601f60248201526000805160206149b8833981519152604482015290519081900360640190fd5b60026001556108ef6122bf565b6001600160a01b031661090061185c565b6001600160a01b031614610949576040805162461bcd60e51b81526020600482018190526024820152600080516020614a45833981519152604482015290519081900360640190fd5b7f00000000000000000000000000000000000000000000000000000000000000006001600160a01b031661098f5760405162461bcd60e51b815260040161054c9061427c565b6001600160a01b0381166109b55760405162461bcd60e51b815260040161054c90614472565b600082116109d55760405162461bcd60e51b815260040161054c906142ab565b6040516370a0823160e01b815282906001600160a01b037f000000000000000000000000000000000000000000000000000000000000000016906370a0823190610a2390309060040161418d565b60206040518083038186803b158015610a3b57600080fd5b505afa158015610a4f573d6000803e3d6000fd5b505050506040513d601f19601f82011682018060405250810190610a739190613fe6565b1015610a915760405162461bcd60e51b815260040161054c90614524565b604051632e1a7d4d60e01b81526001600160a01b037f00000000000000000000000000000000000000000000000000000000000000001690632e1a7d4d90610add908590600401614743565b600060405180830381600087803b158015610af757600080fd5b505af1158015610b0b573d6000803e3d6000fd5b50506040516001600160a01b038416925084156108fc02915084906000818181858888f19350505050158015610b45573d6000803e3d6000fd5b50806001600160a01b03167f00000000000000000000000000000000000000000000000000000000000000006001600160a01b03167fd1c19fbcd4551a5edfb66d43d2e337c04837afda3482b42bdf569a8fccdae5fb8460405161088c9190614743565b60026001541415610bef576040805162461bcd60e51b815260206004820152601f60248201526000805160206149b8833981519152604482015290519081900360640190fd5b6002600155610bfc6122bf565b6001600160a01b0316610c0d61185c565b6001600160a01b031614610c56576040805162461bcd60e51b81526020600482018190526024820152600080516020614a45833981519152604482015290519081900360640190fd5b6001600160a01b038116610c7c5760405162461bcd60e51b815260040161054c90614472565b60008211610c9c5760405162461bcd60e51b815260040161054c906142ab565b6040516370a0823160e01b815282906001600160a01b038516906370a0823190610cca90309060040161418d565b60206040518083038186803b158015610ce257600080fd5b505afa158015610cf6573d6000803e3d6000fd5b505050506040513d601f19601f82011682018060405250810190610d1a9190613fe6565b1015610d385760405162461bcd60e51b815260040161054c90614310565b610d4c6001600160a01b038416828461231d565b806001600160a01b0316836001600160a01b03167fd1c19fbcd4551a5edfb66d43d2e337c04837afda3482b42bdf569a8fccdae5fb84604051610d8f9190614743565b60405180910390a350506001805550565b60026001541415610de6576040805162461bcd60e51b815260206004820152601f60248201526000805160206149b8833981519152604482015290519081900360640190fd5b6002600155610df36122bf565b6001600160a01b0316610e0461185c565b6001600160a01b031614610e4d576040805162461bcd60e51b81526020600482018190526024820152600080516020614a45833981519152604482015290519081900360640190fd5b60005a905060008080610e5e61236f565b915091506000610e6d8361251d565b90506000610e7a8761265d565b9050600080610e88836127a9565b6003549193509150600160b01b900460ff161580610eb85750600354600283810b600160801b909204810b900b14155b80610ed55750600354600282810b600160981b909204810b900b14155b15610ee957610ee4828261287c565b600196505b7f74e6b99361b503f9a408f847f4767af1b660a31aade7f5e8b2a3ff487d35e854848a87868b5a8e03604051610f24969594939291906147b4565b60405180910390a16003546040516370a0823160e01b81527f9d590540b9df5920f0d9d5d6702f02af98857dbee3bc9d3e2d5273d67d533c1891429187918d918a918991600160801b8204600290810b92600160981b810490910b916001600160801b03909116906001600160a01b037f000000000000000000000000000000000000000000000000000000000000000016906370a0823190610fcb90309060040161418d565b60206040518083038186803b158015610fe357600080fd5b505afa158015610ff7573d6000803e3d6000fd5b505050506040513d601f19601f8201168201806040525081019061101b9190613fe6565b6040516370a0823160e01b81526001600160a01b037f000000000000000000000000000000000000000000000000000000000000000016906370a082319061106790309060040161418d565b60206040518083038186803b15801561107f57600080fd5b505afa158015611093573d6000803e3d6000fd5b505050506040513d601f19601f820116820180604052508101906110b79190613fe6565b6040516110cd9a99989796959493929190614893565b60405180910390a150506001805550505050505050565b6002805460035490926001600160801b03821692600160801b8304810b92600160981b810490910b91600160b01b90910460ff1690565b7f00000000000000000000000000000000000000000000000000000000000000006001600160a01b03166111615760405162461bcd60e51b815260040161054c906144fd565b6001600160a01b0381166111875760405162461bcd60e51b815260040161054c906144d2565b6040516370a0823160e01b81526000906001600160a01b037f000000000000000000000000000000000000000000000000000000000000000016906370a08231906111d690309060040161418d565b60206040518083038186803b1580156111ee57600080fd5b505afa158015611202573d6000803e3d6000fd5b505050506040513d601f19601f820116820180604052508101906112269190613fe6565b9050828110156112485760405162461bcd60e51b815260040161054c90614398565b604051632e1a7d4d60e01b81526001600160a01b037f00000000000000000000000000000000000000000000000000000000000000001690632e1a7d4d90611294908490600401614743565b600060405180830381600087803b1580156112ae57600080fd5b505af11580156112c2573d6000803e3d6000fd5b50506040516001600160a01b038516925083156108fc02915083906000818181858888f193505050501580156112fc573d6000803e3d6000fd5b50505050565b7f000000000000000000000000000000000000000000000000000000000000000081565b60006002600154141561136e576040805162461bcd60e51b815260206004820152601f60248201526000805160206149b8833981519152604482015290519081900360640190fd5b600260015561137b6122bf565b6001600160a01b031661138c61185c565b6001600160a01b0316146113d5576040805162461bcd60e51b81526020600482018190526024820152600080516020614a45833981519152604482015290519081900360640190fd5b6001600160a01b037f00000000000000000000000000000000000000000000000000000000000000001661140c6020840184613e56565b6001600160a01b0316148061145e57506001600160a01b037f0000000000000000000000000000000000000000000000000000000000000000166114536020840184613e56565b6001600160a01b0316145b61147a5760405162461bcd60e51b815260040161054c906144a9565b6001600160a01b037f0000000000000000000000000000000000000000000000000000000000000000166114b46040840160208501613e56565b6001600160a01b0316148061150957506001600160a01b037f0000000000000000000000000000000000000000000000000000000000000000166114fe6040840160208501613e56565b6001600160a01b0316145b6115255760405162461bcd60e51b815260040161054c9061436e565b61154d3330606085013561153c6020870187613e56565b6001600160a01b03169291906122c3565b6115937f000000000000000000000000000000000000000000000000000000000000000060608401356115836020860186613e56565b6001600160a01b0316919061218e565b604080516101008101909152600090806115b06020860186613e56565b6001600160a01b031681526020018460200160208101906115d19190613e56565b6001600160a01b031681526020016115ef6060860160408701613fab565b62ffffff168152602001306001600160a01b0316815260200142815260200184606001358152602001846080013581526020018460a00160208101906116359190613e56565b6001600160a01b031681525090507f00000000000000000000000000000000000000000000000000000000000000006001600160a01b031663414bf389826040518263ffffffff1660e01b815260040161168f919061461c565b602060405180830381600087803b1580156116a957600080fd5b505af11580156116bd573d6000803e3d6000fd5b505050506040513d601f19601f820116820180604052508101906116e19190613fe6565b91506116f36040840160208501613e56565b6001600160a01b03166117096020850185613e56565b6001600160a01b03167fa078c4190abe07940190effc1846be0ccf03ad6007bc9e93f9697d0b460befbb8560600135856040516117479291906147a6565b60405180910390a36117827f000000000000000000000000000000000000000000000000000000000000000060006115836020870187613e56565b5060018055919050565b6117946122bf565b6001600160a01b03166117a561185c565b6001600160a01b0316146117ee576040805162461bcd60e51b81526020600482018190526024820152600080516020614a45833981519152604482015290519081900360640190fd5b600080546040516001600160a01b03909116907f8be0079c531659141344cd1fd0a4f28419497f9722a3daafe3b4186f6b6457e0908390a3600080546001600160a01b0319169055565b7f000000000000000000000000000000000000000000000000000000000000000081565b6000546001600160a01b03165b90565b7f000000000000000000000000000000000000000000000000000000000000000081565b7f000000000000000000000000000000000000000000000000000000000000000081565b7f000000000000000000000000000000000000000000000000000000000000000081565b7f000000000000000000000000000000000000000000000000000000000000000081565b7f000000000000000000000000000000000000000000000000000000000000000081565b336001600160a01b037f000000000000000000000000000000000000000000000000000000000000000016146119685760405162461bcd60e51b815260040161054c90614216565b83156119a2576119a26001600160a01b037f000000000000000000000000000000000000000000000000000000000000000016338661231d565b82156112fc576112fc6001600160a01b037f000000000000000000000000000000000000000000000000000000000000000016338561231d565b6002805460035490916001600160801b03821691600160801b8104820b91600160981b8204900b90600160b01b900460ff1685565b7f000000000000000000000000000000000000000000000000000000000000000081565b611a3d6122bf565b6001600160a01b0316611a4e61185c565b6001600160a01b031614611a97576040805162461bcd60e51b81526020600482018190526024820152600080516020614a45833981519152604482015290519081900360640190fd5b6001600160a01b038116611abd5760405162461bcd60e51b815260040161054c906144d2565b6040516370a0823160e01b81526000906001600160a01b038516906370a0823190611aec90309060040161418d565b60206040518083038186803b158015611b0457600080fd5b505afa158015611b18573d6000803e3d6000fd5b505050506040513d601f19601f82011682018060405250810190611b3c9190613fe6565b905082811015611b5e5760405162461bcd60e51b815260040161054c90614310565b6112fc6001600160a01b038516838361231d565b611b7a6122bf565b6001600160a01b0316611b8b61185c565b6001600160a01b031614611bd4576040805162461bcd60e51b81526020600482018190526024820152600080516020614a45833981519152604482015290519081900360640190fd5b6001600160a01b038116611c195760405162461bcd60e51b81526004018080602001828103825260268152602001806149d86026913960400191505060405180910390fd5b600080546040516001600160a01b03808516939216917f8be0079c531659141344cd1fd0a4f28419497f9722a3daafe3b4186f6b6457e091a3600080546001600160a01b0319166001600160a01b0392909216919091179055565b604051630b4c774160e11b81526000906001600160a01b037f00000000000000000000000000000000000000000000000000000000000000001690631698ee8290611d27907f0000000000000000000000000000000000000000000000000000000000000000907f0000000000000000000000000000000000000000000000000000000000000000907f0000000000000000000000000000000000000000000000000000000000000000906004016141a1565b60206040518083038186803b158015611d3f57600080fd5b505afa158015611d53573d6000803e3d6000fd5b505050506040513d601f19601f82011682018060405250810190611d779190613e72565b905090565b60026001541415611dc2576040805162461bcd60e51b815260206004820152601f60248201526000805160206149b8833981519152604482015290519081900360640190fd5b6002600155611dcf6122bf565b6001600160a01b0316611de061185c565b6001600160a01b031614611e29576040805162461bcd60e51b81526020600482018190526024820152600080516020614a45833981519152604482015290519081900360640190fd5b7f00000000000000000000000000000000000000000000000000000000000000006001600160a01b0316611e6f5760405162461bcd60e51b815260040161054c9061427c565b60003411611e8f5760405162461bcd60e51b815260040161054c9061433e565b7f00000000000000000000000000000000000000000000000000000000000000006001600160a01b031663d0e30db0346040518263ffffffff1660e01b81526004016000604051808303818588803b158015611eea57600080fd5b505af1158015611efe573d6000803e3d6000fd5b5050505050336001600160a01b03167f00000000000000000000000000000000000000000000000000000000000000006001600160a01b03167f8752a472e571a816aea92eec8dae9baf628e840f4929fbcc2d155e6233ff68a734604051611f669190614743565b60405180910390a360018055565b60008060007f00000000000000000000000000000000000000000000000000000000000000006001600160a01b03166370a08231306040518263ffffffff1660e01b8152600401611fc5919061418d565b60206040518083038186803b158015611fdd57600080fd5b505afa158015611ff1573d6000803e3d6000fd5b505050506040513d601f19601f820116820180604052508101906120159190613fe6565b6040516370a0823160e01b81529093506001600160a01b037f000000000000000000000000000000000000000000000000000000000000000016906370a082319061206490309060040161418d565b60206040518083038186803b15801561207c57600080fd5b505afa158015612090573d6000803e3d6000fd5b505050506040513d601f19601f820116820180604052508101906120b49190613fe6565b91507f00000000000000000000000000000000000000000000000000000000000000006001600160a01b03166120eb576000612187565b6040516370a0823160e01b81526001600160a01b037f000000000000000000000000000000000000000000000000000000000000000016906370a082319061213790309060040161418d565b60206040518083038186803b15801561214f57600080fd5b505afa158015612163573d6000803e3d6000fd5b505050506040513d601f19601f820116820180604052508101906121879190613fe6565b9050909192565b801580612214575060408051636eb1769f60e11b81523060048201526001600160a01b03848116602483015291519185169163dd62ed3e91604480820192602092909190829003018186803b1580156121e657600080fd5b505afa1580156121fa573d6000803e3d6000fd5b505050506040513d602081101561221057600080fd5b5051155b61224f5760405162461bcd60e51b8152600401808060200182810382526036815260200180614a8f6036913960400191505060405180910390fd5b604080516001600160a01b038416602482015260448082018490528251808303909101815260649091019091526020810180516001600160e01b031663095ea7b360e01b1790526122a1908490612a27565b505050565b60606122b58484600085612ad8565b90505b9392505050565b3390565b604080516001600160a01b0380861660248301528416604482015260648082018490528251808303909101815260849091019091526020810180516001600160e01b03166323b872dd60e01b1790526112fc908590612a27565b604080516001600160a01b038416602482015260448082018490528251808303909101815260649091019091526020810180516001600160e01b031663a9059cbb60e01b1790526122a1908490612a27565b60008060007f00000000000000000000000000000000000000000000000000000000000000006001600160a01b0316631698ee827f00000000000000000000000000000000000000000000000000000000000000007f00000000000000000000000000000000000000000000000000000000000000007f00000000000000000000000000000000000000000000000000000000000000006040518463ffffffff1660e01b8152600401612424939291906141a1565b60206040518083038186803b15801561243c57600080fd5b505afa158015612450573d6000803e3d6000fd5b505050506040513d601f19601f820116820180604052508101906124749190613e72565b90506001600160a01b03811661249c5760405162461bcd60e51b815260040161054c9061441c565b806001600160a01b0316633850c7bd6040518163ffffffff1660e01b815260040160e06040518083038186803b1580156124d557600080fd5b505afa1580156124e9573d6000803e3d6000fd5b505050506040513d601f19601f8201168201806040525081019061250d9190613f0b565b5094989397509295505050505050565b6000806125336001600160a01b03841680612c33565b905060c081901c60ff7f000000000000000000000000000000000000000000000000000000000000000081167f0000000000000000000000000000000000000000000000000000000000000000909116106125f15760006125da60ff7f00000000000000000000000000000000000000000000000000000000000000008116907f000000000000000000000000000000000000000000000000000000000000000016612c95565b600a0a90506125e98282612c33565b935050612656565b600061264360ff7f00000000000000000000000000000000000000000000000000000000000000008116907f000000000000000000000000000000000000000000000000000000000000000016612c95565b600a0a90506126528282612cf2565b9350505b5050919050565b6000807f000000000000000000000000000000000000000000000000000000000000000060ff167f000000000000000000000000000000000000000000000000000000000000000060ff16106127165760006126ff60ff7f00000000000000000000000000000000000000000000000000000000000000008116907f000000000000000000000000000000000000000000000000000000000000000016612c95565b600a0a905061270e8482612cf2565b91505061277b565b600061276860ff7f00000000000000000000000000000000000000000000000000000000000000008116907f000000000000000000000000000000000000000000000000000000000000000016612c95565b600a0a90506127778482612c33565b9150505b6000612794600160601b61278e84612d59565b90612c33565b905061279f81612e41565b925050505b919050565b600454600090819062ffffff167f0000000000000000000000000000000000000000000000000000000000000000908102908190600281810b9087900b816127ed57fe5b0502039250807f00000000000000000000000000000000000000000000000000000000000000007f000000000000000000000000000000000000000000000000000000000000000060020b8660020b8161284357fe5b0502019150620d89e719600284900b121561286057620d89e71992505b620d89e8600283900b131561287657620d89e891505b50915091565b600354600160b01b900460ff161561289657612896613160565b6040516370a0823160e01b81526000906001600160a01b037f000000000000000000000000000000000000000000000000000000000000000016906370a08231906128e590309060040161418d565b60206040518083038186803b1580156128fd57600080fd5b505afa158015612911573d6000803e3d6000fd5b505050506040513d601f19601f820116820180604052508101906129359190613fe6565b905060007f00000000000000000000000000000000000000000000000000000000000000006001600160a01b03166370a08231306040518263ffffffff1660e01b8152600401612985919061418d565b60206040518083038186803b15801561299d57600080fd5b505afa1580156129b1573d6000803e3d6000fd5b505050506040513d601f19601f820116820180604052508101906129d59190613fe6565b905060008211806129e65750600081115b156129fc576129f784848484613527565b6112fc565b60038054600060025576ff000000000000ffffffffffffffffffffffffffffffff1916905550505050565b6000612a7c826040518060400160405280602081526020017f5361666545524332303a206c6f772d6c6576656c2063616c6c206661696c6564815250856001600160a01b03166122a69092919063ffffffff16565b8051909150156122a157808060200190516020811015612a9b57600080fd5b50516122a15760405162461bcd60e51b815260040180806020018281038252602a815260200180614a65602a913960400191505060405180910390fd5b606082471015612b195760405162461bcd60e51b81526004018080602001828103825260268152602001806149fe6026913960400191505060405180910390fd5b612b2285613963565b612b73576040805162461bcd60e51b815260206004820152601d60248201527f416464726573733a2063616c6c20746f206e6f6e2d636f6e7472616374000000604482015290519081900360640190fd5b600080866001600160a01b031685876040518082805190602001908083835b60208310612bb15780518252601f199092019160209182019101612b92565b6001836020036101000a03801982511681845116808217855250505050505090500191505060006040518083038185875af1925050503d8060008114612c13576040519150601f19603f3d011682016040523d82523d6000602084013e612c18565b606091505b5091509150612c28828286613969565b979650505050505050565b600082612c4257506000612c8f565b82820282848281612c4f57fe5b0414612c8c5760405162461bcd60e51b8152600401808060200182810382526021815260200180614a246021913960400191505060405180910390fd5b90505b92915050565b600082821115612cec576040805162461bcd60e51b815260206004820152601e60248201527f536166654d6174683a207375627472616374696f6e206f766572666c6f770000604482015290519081900360640190fd5b50900390565b6000808211612d48576040805162461bcd60e51b815260206004820152601a60248201527f536166654d6174683a206469766973696f6e206279207a65726f000000000000604482015290519081900360640190fd5b818381612d5157fe5b049392505050565b600081612d68575060006127a4565b60006001612d7584613a0d565b6001911c1b905080612d85575060015b6000612da66002612da0612d998786612cf2565b8590613ab8565b90612cf2565b9050612dc16002612da0612dba8785612cf2565b8490613ab8565b9050612dd56002612da0612dba8785612cf2565b9050612de96002612da0612dba8785612cf2565b9050612dfd6002612da0612dba8785612cf2565b9050612e116002612da0612dba8785612cf2565b9050612e1d8482612cf2565b811115612e3857612e2f816001612c95565b925050506127a4565b91506127a49050565b60006401000276a36001600160a01b03831610801590612e7d575073fffd8963efd1fc6a506488495d951d5263988d266001600160a01b038316105b612eb2576040805162461bcd60e51b81526020600482015260016024820152602960f91b604482015290519081900360640190fd5b640100000000600160c01b03602083901b166001600160801b03811160071b81811c67ffffffffffffffff811160061b90811c63ffffffff811160051b90811c61ffff811160041b90811c60ff8111600390811b91821c600f811160021b90811c918211600190811b92831c97908811961790941790921717909117171760808110612f4657607f810383901c9150612f50565b80607f0383901b91505b908002607f81811c60ff83811c9190911c800280831c81831c1c800280841c81841c1c800280851c81851c1c800280861c81861c1c800280871c81871c1c800280881c81881c1c800280891c81891c1c8002808a1c818a1c1c8002808b1c818b1c1c8002808c1c818c1c1c8002808d1c818d1c1c8002808e1c9c81901c9c909c1c80029c8d901c9e9d607f198f0160401b60c09190911c678000000000000000161760c19b909b1c674000000000000000169a909a1760c29990991c672000000000000000169890981760c39790971c671000000000000000169690961760c49590951c670800000000000000169490941760c59390931c670400000000000000169290921760c69190911c670200000000000000161760c79190911c670100000000000000161760c89190911c6680000000000000161760c99190911c6640000000000000161760ca9190911c6620000000000000161760cb9190911c6610000000000000161760cc9190911c6608000000000000161760cd9190911c66040000000000001617693627a301d71055774c8581026f028f6481ab7f045a5af012a19d003aa9198101608090811d906fdb2df09e81959a81455e260799a0632f8301901d600281810b9083900b1461315157886001600160a01b031661313582613b12565b6001600160a01b0316111561314a578161314c565b805b613153565b815b9998505050505050505050565b600354600160b01b900460ff16801561317a575060025415155b6131965760405162461bcd60e51b815260040161054c906143f0565b60028054600380546000938490556001600160b81b03198116909155604080516020810190915283815291926001600160801b0390911691839190819084156132f2576040805160a0810182528581526001600160801b0387166020820152600081830181905260608201524260808201529051630624e65f60e11b81526001600160a01b037f00000000000000000000000000000000000000000000000000000000000000001691630c49ccbe9161325291906004016145d9565b6040805180830381600087803b15801561326b57600080fd5b505af192505050801561329b575060408051601f3d908101601f1916820190925261329891810190614087565b60015b6132e6576132a76148fd565b806132b257506132b9565b90506132e1565b5060408051808201909152600f81526e111958dc99585cd94819985a5b1959608a1b60208201525b6132ed565b5050600192505b6132f7565b600192505b604080516080810182528581523060208201526001600160801b038183018190526060820152905163fc6f786560e01b815260009182916001600160a01b037f0000000000000000000000000000000000000000000000000000000000000000169163fc6f78659161336c9190600401614596565b6040805180830381600087803b15801561338557600080fd5b505af19250505080156133b5575060408051601f3d908101601f191682019092526133b291810190614087565b60015b613411576133c16148fd565b806133cc57506133dc565b83516133d6578093505b5061340c565b825161340c576040518060400160405280600e81526020016d10dbdb1b1958dd0819985a5b195960921b81525092505b61341b565b6001955090925090505b841561349a57604051630852cd8d60e31b81526001600160a01b037f000000000000000000000000000000000000000000000000000000000000000016906342966c689061346d908990600401614743565b600060405180830381600087803b15801561348757600080fd5b505af1925050508015613498575060015b505b8415806134a5575083155b156134e357857fe8914e5f08092e2e56ef8bced992f3d69b4ee899c061273d524b9b8369a2e5f6846040516134da91906141d7565b60405180910390a25b857f0bb89aa54ed6940a7e7167bd262b2400d63945045ceff1a52a05f2601ed215f183836040516135159291906147a6565b60405180910390a25050505050505050565b600354600160b01b900460ff16156135515760405162461bcd60e51b815260040161054c906142d9565b60006040518061016001604052807f00000000000000000000000000000000000000000000000000000000000000006001600160a01b031681526020017f00000000000000000000000000000000000000000000000000000000000000006001600160a01b031681526020017f000000000000000000000000000000000000000000000000000000000000000062ffffff1681526020018660020b81526020018560020b81526020018481526020018381526020016000815260200160008152602001306001600160a01b031681526020014281525090506000806000807f00000000000000000000000000000000000000000000000000000000000000006001600160a01b03166388316456866040518263ffffffff1660e01b815260040161367b9190614685565b608060405180830381600087803b15801561369557600080fd5b505af19250505080156136c5575060408051601f3d908101601f191682019092526136c29181019061403f565b60015b61375c576136d16148fd565b806136dc575061371d565b7fe3e761156cb5aad50f5757ac6ff101fd3eb2eba81b0d509536c0de0f1046332a88888360405161370f939291906147e2565b60405180910390a150613757565b7fe3e761156cb5aad50f5757ac6ff101fd3eb2eba81b0d509536c0de0f1046332a878760405161374e92919061480a565b60405180910390a15b613958565b8397508296508195508094506000876001600160801b031611156138a1576040518060a00160405280898152602001886001600160801b031681526020018e60020b81526020018d60020b81526020016001151581525060026000820151816000015560208201518160010160006101000a8154816001600160801b0302191690836001600160801b0316021790555060408201518160010160106101000a81548162ffffff021916908360020b62ffffff16021790555060608201518160010160136101000a81548162ffffff021916908360020b62ffffff16021790555060808201518160010160166101000a81548160ff0219169083151502179055509050507fa8ebf59e901fc409129a5ddfce5dcf103a4e3e31687d70e3faa5eab31c0715e1888e8e8a604051613894949392919061474c565b60405180910390a1613953565b604051630852cd8d60e31b81526001600160a01b037f000000000000000000000000000000000000000000000000000000000000000016906342966c68906138ed908b90600401614743565b600060405180830381600087803b15801561390757600080fd5b505af1925050508015613918575060015b507fe3e761156cb5aad50f5757ac6ff101fd3eb2eba81b0d509536c0de0f1046332a8b8b60405161394a929190614842565b60405180910390a15b505050505b505050505050505050565b3b151590565b606083156139785750816122b8565b8251156139885782518084602001fd5b8160405162461bcd60e51b81526004018080602001828103825283818151815260200191508051906020019080838360005b838110156139d25781810151838201526020016139ba565b50505050905090810190601f1680156139ff5780820380516001836020036101000a031916815260200191505b509250505060405180910390fd5b60008180613a1a57600091505b6001600160801b03811115613a31576080918201911c5b67ffffffffffffffff811115613a49576040918201911c5b63ffffffff811115613a5d576020918201911c5b61ffff811115613a6f576010918201911c5b60ff811115613a80576008918201911c5b600f811115613a91576004918201911c5b6003811115613aa2576002918201911c5b6001811115613ab2576001820191505b50919050565b600082820183811015612c8c576040805162461bcd60e51b815260206004820152601b60248201527f536166654d6174683a206164646974696f6e206f766572666c6f770000000000604482015290519081900360640190fd5b60008060008360020b12613b29578260020b613b31565b8260020b6000035b9050620d89e8811115613b6f576040805162461bcd60e51b81526020600482015260016024820152601560fa1b604482015290519081900360640190fd5b600060018216613b8357600160801b613b95565b6ffffcb933bd6fad37aa2d162d1a5940015b70ffffffffffffffffffffffffffffffffff1690506002821615613bc9576ffff97272373d413259a46990580e213a0260801c5b6004821615613be8576ffff2e50f5f656932ef12357cf3c7fdcc0260801c5b6008821615613c07576fffe5caca7e10e4e61c3624eaa0941cd00260801c5b6010821615613c26576fffcb9843d60f6159c9db58835c9266440260801c5b6020821615613c45576fff973b41fa98c081472e6896dfb254c00260801c5b6040821615613c64576fff2ea16466c96a3843ec78b326b528610260801c5b6080821615613c83576ffe5dee046a99a2a811c461f1969c30530260801c5b610100821615613ca3576ffcbe86c7900a88aedcffc83b479aa3a40260801c5b610200821615613cc3576ff987a7253ac413176f2b074cf7815e540260801c5b610400821615613ce3576ff3392b0822b70005940c7a398e4b70f30260801c5b610800821615613d03576fe7159475a2c29b7443b29c7fa6e889d90260801c5b611000821615613d23576fd097f3bdfd2022b8845ad8f792aa58250260801c5b612000821615613d43576fa9f746462d870fdf8a65dc1f90e061e50260801c5b614000821615613d63576f70d869a156d2a1b890bb3df62baf32f70260801c5b618000821615613d83576f31be135f97d08fd981231505542fcfa60260801c5b62010000821615613da4576f09aa508b5b7a84e1c677de54f3e99bc90260801c5b62020000821615613dc4576e5d6af8dedb81196699c329225ee6040260801c5b62040000821615613de3576d2216e584f5fa1ea926041bedfe980260801c5b62080000821615613e00576b048a170391f7dc42444e8fa20260801c5b60008460020b1315613e1b578060001981613e1757fe5b0490505b640100000000810615613e2f576001613e32565b60005b60ff16602082901c0192505050919050565b805161ffff811681146127a457600080fd5b600060208284031215613e67578081fd5b8135612c8c816149a2565b600060208284031215613e83578081fd5b8151612c8c816149a2565b60008060408385031215613ea0578081fd5b8235613eab816149a2565b946020939093013593505050565b600080600060608486031215613ecd578081fd5b8335613ed8816149a2565b9250602084013591506040840135613eef816149a2565b809150509250925092565b600060c08284031215613ab2578081fd5b600080600080600080600060e0888a031215613f25578283fd5b8751613f30816149a2565b8097505060208801518060020b8114613f47578384fd5b9550613f5560408901613e44565b9450613f6360608901613e44565b9350613f7160808901613e44565b925060a088015160ff81168114613f86578283fd5b60c08901519092508015158114613f9b578182fd5b8091505092959891949750929550565b600060208284031215613fbc578081fd5b813562ffffff81168114612c8c578182fd5b600060208284031215613fdf578081fd5b5035919050565b600060208284031215613ff7578081fd5b5051919050565b60008060408385031215614010578182fd5b823591506020830135614022816149a2565b809150509250929050565b60008060408385031215614010578081fd5b60008060008060808587031215614054578182fd5b8451935060208501516001600160801b0381168114614071578283fd5b6040860151606090960151949790965092505050565b60008060408385031215614099578182fd5b505080516020909101519092909150565b600080600080606085870312156140bf578182fd5b8435935060208501359250604085013567ffffffffffffffff808211156140e4578384fd5b818701915087601f8301126140f7578384fd5b813581811115614105578485fd5b886020828501011115614116578485fd5b95989497505060200194505050565b6001600160a01b03169052565b60020b9052565b60008151808452815b8181101561415e57602081850181015186830182015201614142565b8181111561416f5782602083870101525b50601f01601f19169290920160200192915050565b62ffffff169052565b6001600160a01b0391909116815260200190565b6001600160a01b03938416815291909216602082015262ffffff909116604082015260600190565b60029190910b815260200190565b6000602082526122b86020830184614139565b60208082526012908201527124b73b30b634b21036bab63a34b83634b2b960711b604082015260600190565b60208082526018908201527f43616c6c6261636b2073656e646572206d69736d617463680000000000000000604082015260600190565b60208082526015908201527424b73b30b634b2103232b837b9b4ba103a37b5b2b760591b604082015260600190565b60208082526015908201527415d155120e481859191c995cdcc81b9bdd081cd95d605a1b604082015260600190565b602080825260149082015273576974686472617720616d6f756e74207a65726f60601b604082015260600190565b60208082526017908201527f506f736974696f6e20616c726561647920616374697665000000000000000000604082015260600190565b602080825260149082015273496e73756666696369656e742062616c616e636560601b604082015260600190565b6020808252601690820152754465706f736974204554482076616c7565207a65726f60501b604082015260600190565b60208082526010908201526f125b9d985b1a59081d1bdad95b93dd5d60821b604082015260600190565b602080825260119082015270092dce6eaccccd2c6d2cadce840ae8aa89607b1b604082015260600190565b6020808252601390820152724465706f73697420616d6f756e74207a65726f60681b604082015260600190565b60208082526012908201527127379030b1ba34bb32903837b9b4ba34b7b760711b604082015260600190565b602080825260129082015271141bdbdb08191bd95cdb89dd08195e1a5cdd60721b604082015260600190565b60208082526010908201526f139bc8115512081d1bc81c99599d5b9960821b604082015260600190565b60208082526019908201527f496e76616c696420726563697069656e74206164647265737300000000000000604082015260600190565b6020808252600f908201526e24b73b30b634b2103a37b5b2b724b760891b604082015260600190565b602080825260119082015270125b9d985b1a59081c9958da5c1a595b9d607a1b604082015260600190565b6020808252600d908201526c15d155120e481b9bdd081cd95d609a1b604082015260600190565b60208082526019908201527f496e73756666696369656e7420574554482062616c616e636500000000000000604082015260600190565b6040808252601490820152733930b733b2abb4b23a3426bab63a34b83634b2b960611b606082015262ffffff91909116602082015260800190565b815181526020808301516001600160a01b0316908201526040808301516001600160801b0390811691830191909152606092830151169181019190915260800190565b600060a082019050825182526001600160801b03602084015116602083015260408301516040830152606083015160608301526080830151608083015292915050565b81516001600160a01b03908116825260208084015182169083015260408084015162ffffff16908301526060808401518216908301526080808401519083015260a0838101519083015260c0808401519083015260e09283015116918101919091526101000190565b600061016082019050614699828451614125565b60208301516146ab6020840182614125565b5060408301516146be6040840182614184565b5060608301516146d16060840182614132565b5060808301516146e46080840182614132565b5060a083015160a083015260c083015160c083015260e083015160e08301526101008084015181840152506101208084015161472282850182614125565b505061014092830151919092015290565b62ffffff91909116815260200190565b90815260200190565b938452600292830b6020850152910b60408301526001600160801b0316606082015260800190565b9485526001600160801b03939093166020850152600291820b6040850152900b60608301521515608082015260a00190565b918252602082015260400190565b9586526020860194909452600292830b6040860152910b60608401521515608083015260a082015260c00190565b6000848252836020830152606060408301526148016060830184614139565b95945050505050565b9182526020820152606060408201819052601290820152712ab735b737bbb71036b4b73a1032b93937b960711b608082015260a00190565b91825260208201526060604082018190526015908201527416995c9bc81b1a5c5d5a591a5d1e481b5a5b9d1959605a1b608082015260a00190565b9283526020830191909152604082015260600190565b998a5260208a01989098526040890196909652600294850b606089015292840b608088015290830b60a087015290910b60c08501526001600160801b031660e08401526101008301526101208201526101400190565b60ff91909116815260200190565b60e01c90565b600060443d101561490d57611869565b600481823e6308c379a061492182516148f7565b1461492b57611869565b6040513d600319016004823e80513d67ffffffffffffffff816024840111818411171561495b5750505050611869565b828401925082519150808211156149755750505050611869565b503d8301602082840101111561498d57505050611869565b601f01601f1916810160200160405291505090565b6001600160a01b038116811461058157600080fdfe5265656e7472616e637947756172643a207265656e7472616e742063616c6c004f776e61626c653a206e6577206f776e657220697320746865207a65726f2061646472657373416464726573733a20696e73756666696369656e742062616c616e636520666f722063616c6c536166654d6174683a206d756c7469706c69636174696f6e206f766572666c6f774f776e61626c653a2063616c6c6572206973206e6f7420746865206f776e65725361666545524332303a204552433230206f7065726174696f6e20646964206e6f7420737563636565645361666545524332303a20617070726f76652066726f6d206e6f6e2d7a65726f20746f206e6f6e2d7a65726f20616c6c6f77616e6365a26469706673582212200775a0ed4b5af58e7953357af6d061376a6fcc0ff09e6ba3b28ccb7b71c539e264736f6c634300070600334f776e61626c653a206e6577206f776e657220697320746865207a65726f2061646472657373416464726573733a20696e73756666696369656e742062616c616e636520666f722063616c6c8be0079c531659141344cd1fd0a4f28419497f9722a3daafe3b4186f6b6457e05361666545524332303a204552433230206f7065726174696f6e20646964206e6f7420737563636565645361666545524332303a20617070726f76652066726f6d206e6f6e2d7a65726f20746f206e6f6e2d7a65726f20616c6c6f77616e6365",
  "linkReferences": {},
  "deployedLinkReferences": {}
}