{
  "_format": "hh-sol-artifact-1",
  "contractName": "BaselineMinimal",
  "sourceName": "contracts/BaselineMinimal.sol",
  "abi": [
    {
      "inputs": [
        {
          "internalType": "address",
          "name": "_factory",
          "type": "address"
        },
        {
          "internalType": "address",
          "name": "_positionManager",
          "type": "address"
        },
        {
          "internalType": "address",
          "name": "_token0",
          "type": "address"
        },
        {
          "internalType": "address",
          "name": "_token1",
          "type": "address"
        },
        {
          "internalType": "uint24",
          "name": "_fee",
          "type": "uint24"
        }
      ],
      "stateMutability": "nonpayable",
      "type": "constructor"
    },
    {
      "anonymous": false,
      "inputs": [
        {
          "indexed": false,
          "internalType": "uint256",
          "name": "timestamp",
          "type": "uint256"
        },
        {
          "indexed": false,
          "internalType": "uint256",
          "name": "currentPrice",
          "type": "uint256"
        },
        {
          "indexed": false,
          "internalType": "int24",
          "name": "currentTick",
          "type": "int24"
        },
        {
          "indexed": false,
          "internalType": "int24",
          "name": "finalTickLower",
          "type": "int24"
        },
        {
          "indexed": false,
          "internalType": "int24",
          "name": "finalTickUpper",
          "type": "int24"
        },
        {
          "indexed": false,
          "internalType": "bool",
          "name": "adjusted",
          "type": "bool"
        }
      ],
      "name": "BaselineAdjustmentMetrics",
      "type": "event"
    },
    {
      "anonymous": false,
      "inputs": [
        {
          "indexed": true,
          "internalType": "address",
          "name": "previousOwner",
          "type": "address"
        },
        {
          "indexed": true,
          "internalType": "address",
          "name": "newOwner",
          "type": "address"
        }
      ],
      "name": "OwnershipTransferred",
      "type": "event"
    },
    {
      "anonymous": false,
      "inputs": [
        {
          "indexed": false,
          "internalType": "bool",
          "name": "hasPosition",
          "type": "bool"
        },
        {
          "indexed": false,
          "internalType": "int24",
          "name": "lowerTick",
          "type": "int24"
        },
        {
          "indexed": false,
          "internalType": "int24",
          "name": "upperTick",
          "type": "int24"
        }
      ],
      "name": "PositionChanged",
      "type": "event"
    },
    {
      "inputs": [],
      "name": "adjustLiquidityWithCurrentPrice",
      "outputs": [],
      "stateMutability": "nonpayable",
      "type": "function"
    },
    {
      "inputs": [],
      "name": "currentTokenId",
      "outputs": [
        {
          "internalType": "uint256",
          "name": "",
          "type": "uint256"
        }
      ],
      "stateMutability": "view",
      "type": "function"
    },
    {
      "inputs": [],
      "name": "factory",
      "outputs": [
        {
          "internalType": "contract IUniswapV3Factory",
          "name": "",
          "type": "address"
        }
      ],
      "stateMutability": "view",
      "type": "function"
    },
    {
      "inputs": [],
      "name": "fee",
      "outputs": [
        {
          "internalType": "uint24",
          "name": "",
          "type": "uint24"
        }
      ],
      "stateMutability": "view",
      "type": "function"
    },
    {
      "inputs": [],
      "name": "hasPosition",
      "outputs": [
        {
          "internalType": "bool",
          "name": "",
          "type": "bool"
        }
      ],
      "stateMutability": "view",
      "type": "function"
    },
    {
      "inputs": [],
      "name": "lowerTick",
      "outputs": [
        {
          "internalType": "int24",
          "name": "",
          "type": "int24"
        }
      ],
      "stateMutability": "view",
      "type": "function"
    },
    {
      "inputs": [],
      "name": "owner",
      "outputs": [
        {
          "internalType": "address",
          "name": "",
          "type": "address"
        }
      ],
      "stateMutability": "view",
      "type": "function"
    },
    {
      "inputs": [],
      "name": "positionManager",
      "outputs": [
        {
          "internalType": "contract INonfungiblePositionManager",
          "name": "",
          "type": "address"
        }
      ],
      "stateMutability": "view",
      "type": "function"
    },
    {
      "inputs": [],
      "name": "renounceOwnership",
      "outputs": [],
      "stateMutability": "nonpayable",
      "type": "function"
    },
    {
      "inputs": [
        {
          "internalType": "address",
          "name": "token",
          "type": "address"
        },
        {
          "internalType": "address",
          "name": "to",
          "type": "address"
        }
      ],
      "name": "rescueTokens",
      "outputs": [],
      "stateMutability": "nonpayable",
      "type": "function"
    },
    {
      "inputs": [],
      "name": "tickSpacing",
      "outputs": [
        {
          "internalType": "int24",
          "name": "",
          "type": "int24"
        }
      ],
      "stateMutability": "view",
      "type": "function"
    },
    {
      "inputs": [],
      "name": "token0",
      "outputs": [
        {
          "internalType": "address",
          "name": "",
          "type": "address"
        }
      ],
      "stateMutability": "view",
      "type": "function"
    },
    {
      "inputs": [],
      "name": "token1",
      "outputs": [
        {
          "internalType": "address",
          "name": "",
          "type": "address"
        }
      ],
      "stateMutability": "view",
      "type": "function"
    },
    {
      "inputs": [
        {
          "internalType": "address",
          "name": "newOwner",
          "type": "address"
        }
      ],
      "name": "transferOwnership",
      "outputs": [],
      "stateMutability": "nonpayable",
      "type": "function"
    },
    {
      "inputs": [],
      "name": "upperTick",
      "outputs": [
        {
          "internalType": "int24",
          "name": "",
          "type": "int24"
        }
      ],
      "stateMutability": "view",
      "type": "function"
    },
    {
      "stateMutability": "payable",
      "type": "receive"
    }
  ],
  "bytecode": "0x6101406040523480156200001257600080fd5b506040516200201c3803806200201c833981016040819052620000359162000437565b600062000041620003f2565b600080546001600160a01b0319166001600160a01b0383169081178255604051929350917f8be0079c531659141344cd1fd0a4f28419497f9722a3daafe3b4186f6b6457e0908290a3506001600160a01b038516620000bd5760405162461bcd60e51b8152600401620000b49062000536565b60405180910390fd5b6001600160a01b038416620000e65760405162461bcd60e51b8152600401620000b490620005f1565b6001600160a01b0383166200010f5760405162461bcd60e51b8152600401620000b490620005c9565b6001600160a01b038216620001385760405162461bcd60e51b8152600401620000b49062000628565b60008162ffffff1611620001605760405162461bcd60e51b8152600401620000b490620005a4565b6001600160601b0319606086811b821660805285811b821660a05284811b821660c05283901b1660e0526001600160e81b031960e882901b1661010052604051630b4c774160e11b81526000906001600160a01b03871690631698ee8290620001d290879087908790600401620004f5565b60206040518083038186803b158015620001eb57600080fd5b505afa15801562000200573d6000803e3d6000fd5b505050506040513d601f19601f8201168201806040525081019062000226919062000413565b90506001600160a01b038116620002515760405162461bcd60e51b8152600401620000b4906200056d565b806001600160a01b031663d0c93a7c6040518163ffffffff1660e01b815260040160206040518083038186803b1580156200028b57600080fd5b505afa158015620002a0573d6000803e3d6000fd5b505050506040513d601f19601f82011682018060405250810190620002c69190620004d2565b600290810b900b60e81b6101205260405163095ea7b360e01b81526001600160a01b0385169063095ea7b39062000306908890600019906004016200051d565b602060405180830381600087803b1580156200032157600080fd5b505af115801562000336573d6000803e3d6000fd5b505050506040513d601f19601f820116820180604052508101906200035c9190620004b0565b5060405163095ea7b360e01b81526001600160a01b0384169063095ea7b3906200038f908890600019906004016200051d565b602060405180830381600087803b158015620003aa57600080fd5b505af1158015620003bf573d6000803e3d6000fd5b505050506040513d601f19601f82011682018060405250810190620003e59190620004b0565b5050505050505062000650565b3390565b80516001600160a01b03811681146200040e57600080fd5b919050565b60006020828403121562000425578081fd5b6200043082620003f6565b9392505050565b600080600080600060a086880312156200044f578081fd5b6200045a86620003f6565b94506200046a60208701620003f6565b93506200047a60408701620003f6565b92506200048a60608701620003f6565b9150608086015162ffffff81168114620004a2578182fd5b809150509295509295909350565b600060208284031215620004c2578081fd5b8151801515811462000430578182fd5b600060208284031215620004e4578081fd5b81518060020b811462000430578182fd5b6001600160a01b03938416815291909216602082015262ffffff909116604082015260600190565b6001600160a01b03929092168252602082015260400190565b60208082526017908201527f496e76616c696420666163746f72792061646472657373000000000000000000604082015260600190565b60208082526013908201527f506f6f6c20646f6573206e6f7420657869737400000000000000000000000000604082015260600190565b6020808252600b908201526a496e76616c69642066656560a81b604082015260600190565b6020808252600e908201526d0496e76616c696420746f6b656e360941b604082015260600190565b60208082526018908201527f496e76616c696420706f736974696f6e206d616e616765720000000000000000604082015260600190565b6020808252600e908201526d496e76616c696420746f6b656e3160901b604082015260600190565b60805160601c60a05160601c60c05160601c60e05160601c6101005160e81c6101205160e81c611920620006fc600039806106205280610669528061068a528061086b52508061050252806108b35280610ee65250806104e0528061088f5280610d975280610eb752508061029c52806104be5280610d0c5280610e885250806108065280610ab65280610b7d5280610c205280610e4d525080610491528061084752506119206000f3fe6080604052600436106100eb5760003560e01c8063791b98bc1161008a578063d0c93a7c11610059578063d0c93a7c14610228578063d21220a71461023d578063ddca3f4314610252578063f2fde38b14610274576100f2565b8063791b98bc146101d45780638da5cb5b146101e95780639b1344ac146101fe578063c45a015514610213576100f2565b806362ca5772116100c657806362ca577214610166578063715018a61461017b578063727dd2281461019057806375a6a7a9146101b2576100f2565b80629a9b7b146100f75780630dfe1681146101225780635431c94e14610144576100f2565b366100f257005b600080fd5b34801561010357600080fd5b5061010c610294565b6040516101199190611802565b60405180910390f35b34801561012e57600080fd5b5061013761029a565b6040516101199190611522565b34801561015057600080fd5b5061016461015f3660046113aa565b6102be565b005b34801561017257600080fd5b50610164610415565b34801561018757600080fd5b5061016461073e565b34801561019c57600080fd5b506101a56107ea565b6040516101199190611585565b3480156101be57600080fd5b506101c76107fb565b604051610119919061155e565b3480156101e057600080fd5b50610137610804565b3480156101f557600080fd5b50610137610828565b34801561020a57600080fd5b506101a5610837565b34801561021f57600080fd5b50610137610845565b34801561023457600080fd5b506101a5610869565b34801561024957600080fd5b5061013761088d565b34801561025e57600080fd5b506102676108b1565b60405161011991906117f2565b34801561028057600080fd5b5061016461028f366004611372565b6108d5565b60015481565b7f000000000000000000000000000000000000000000000000000000000000000081565b6102c66109d7565b6001600160a01b03166102d7610828565b6001600160a01b031614610320576040805162461bcd60e51b815260206004820181905260248201526000805160206118a1833981519152604482015290519081900360640190fd5b6001600160a01b03821661034f5760405162461bcd60e51b815260040161034690611593565b60405180910390fd5b6001600160a01b0381166103755760405162461bcd60e51b815260040161034690611612565b6040516370a0823160e01b81526000906001600160a01b038416906370a08231906103a4903090600401611522565b60206040518083038186803b1580156103bc57600080fd5b505afa1580156103d0573d6000803e3d6000fd5b505050506040513d601f19601f820116820180604052508101906103f49190611482565b90508015610410576104106001600160a01b03841683836109db565b505050565b61041d6109d7565b6001600160a01b031661042e610828565b6001600160a01b031614610477576040805162461bcd60e51b815260206004820181905260248201526000805160206118a1833981519152604482015290519081900360640190fd5b604051630b4c774160e11b81526000906001600160a01b037f00000000000000000000000000000000000000000000000000000000000000001690631698ee829061052a907f0000000000000000000000000000000000000000000000000000000000000000907f0000000000000000000000000000000000000000000000000000000000000000907f000000000000000000000000000000000000000000000000000000000000000090600401611536565b60206040518083038186803b15801561054257600080fd5b505afa158015610556573d6000803e3d6000fd5b505050506040513d601f19601f8201168201806040525081019061057a919061138e565b90506001600160a01b0381166105a25760405162461bcd60e51b815260040161034690611696565b600080826001600160a01b0316633850c7bd6040518163ffffffff1660e01b815260040160e06040518083038186803b1580156105de57600080fd5b505afa1580156105f2573d6000803e3d6000fd5b505050506040513d601f19601f8201168201806040525081019061061691906113e2565b50949650929450507f0000000000000000000000000000000000000000000000000000000000000000600481029350600092509050600281810b9084810b05850360020b8161066157fe5b0502905060007f00000000000000000000000000000000000000000000000000000000000000007f000000000000000000000000000000000000000000000000000000000000000060020b60028560020b816106b957fe5b05860160020b816106c657fe5b60025491900591909102915060ff16156106e2576106e2610a2d565b6106ec8282610ccd565b7f15f744a7d97f7abd1bc7398cb3f55bb78b9dd63011770e854d31d8d846f13ef34261071787611051565b868585600160405161072e9695949392919061180b565b60405180910390a1505050505050565b6107466109d7565b6001600160a01b0316610757610828565b6001600160a01b0316146107a0576040805162461bcd60e51b815260206004820181905260248201526000805160206118a1833981519152604482015290519081900360640190fd5b600080546040516001600160a01b03909116907f8be0079c531659141344cd1fd0a4f28419497f9722a3daafe3b4186f6b6457e0908390a3600080546001600160a01b0319169055565b600280546401000000009004900b81565b60025460ff1681565b7f000000000000000000000000000000000000000000000000000000000000000081565b6000546001600160a01b031690565b600280546101009004900b81565b7f000000000000000000000000000000000000000000000000000000000000000081565b7f000000000000000000000000000000000000000000000000000000000000000081565b7f000000000000000000000000000000000000000000000000000000000000000081565b7f000000000000000000000000000000000000000000000000000000000000000081565b6108dd6109d7565b6001600160a01b03166108ee610828565b6001600160a01b031614610937576040805162461bcd60e51b815260206004820181905260248201526000805160206118a1833981519152604482015290519081900360640190fd5b6001600160a01b03811661097c5760405162461bcd60e51b81526004018080602001828103825260268152602001806118556026913960400191505060405180910390fd5b600080546040516001600160a01b03808516939216917f8be0079c531659141344cd1fd0a4f28419497f9722a3daafe3b4186f6b6457e091a3600080546001600160a01b0319166001600160a01b0392909216919091179055565b3390565b604080516001600160a01b038416602482015260448082018490528251808303909101815260649091019091526020810180516001600160e01b031663a9059cbb60e01b179052610410908490611091565b60025460ff16610a4f5760405162461bcd60e51b815260040161034690611667565b600060015411610a715760405162461bcd60e51b81526004016103469061163d565b6040805160a08101825260015481526001600160801b036020820152600081830181905260608201524260808201529051630624e65f60e11b81526001600160a01b037f00000000000000000000000000000000000000000000000000000000000000001691630c49ccbe91610aea9190600401611701565b6040805180830381600087803b158015610b0357600080fd5b505af1925050508015610b33575060408051601f3d908101601f19168201909252610b30918101906114e2565b60015b610b3c57610b3f565b50505b6040805160808101825260015481523060208201526001600160801b038183018190526060820152905163fc6f786560e01b81526001600160a01b037f0000000000000000000000000000000000000000000000000000000000000000169163fc6f786591610bb191906004016116be565b6040805180830381600087803b158015610bca57600080fd5b505af1925050508015610bfa575060408051601f3d908101601f19168201909252610bf7918101906114e2565b60015b610c0357610c06565b50505b600154604051630852cd8d60e31b81526001600160a01b037f000000000000000000000000000000000000000000000000000000000000000016916342966c6891610c549190600401611802565b600060405180830381600087803b158015610c6e57600080fd5b505af1925050508015610c7f575060015b506002805460ff19169055600060018190556040517f2a189a700ef68d9815a7f1c9a2aa4ff3eadd8675084668b6f754a9fe403e33b991610cc39181908190611569565b60405180910390a1565b8060020b8260020b12610cf25760405162461bcd60e51b8152600401610346906115ba565b6040516370a0823160e01b81526000906001600160a01b037f000000000000000000000000000000000000000000000000000000000000000016906370a0823190610d41903090600401611522565b60206040518083038186803b158015610d5957600080fd5b505afa158015610d6d573d6000803e3d6000fd5b505050506040513d601f19601f82011682018060405250810190610d919190611482565b905060007f00000000000000000000000000000000000000000000000000000000000000006001600160a01b03166370a08231306040518263ffffffff1660e01b8152600401610de19190611522565b60206040518083038186803b158015610df957600080fd5b505afa158015610e0d573d6000803e3d6000fd5b505050506040513d601f19601f82011682018060405250810190610e319190611482565b905081158015610e3f575080155b15610e4b57505061104d565b7f00000000000000000000000000000000000000000000000000000000000000006001600160a01b031663883164566040518061016001604052807f00000000000000000000000000000000000000000000000000000000000000006001600160a01b031681526020017f00000000000000000000000000000000000000000000000000000000000000006001600160a01b031681526020017f000000000000000000000000000000000000000000000000000000000000000062ffffff1681526020018760020b81526020018660020b81526020018581526020018481526020016000815260200160008152602001306001600160a01b03168152602001428152506040518263ffffffff1660e01b8152600401610f6a9190611744565b608060405180830381600087803b158015610f8457600080fd5b505af1925050508015610fb4575060408051601f3d908101601f19168201909252610fb19181019061149a565b60015b610fbd5761104a565b83156110455760018481556002805489820b62ffffff9081166401000000000266ffffff00000000198d850b9092166101000263ffffff001960ff1990941686179390931692909217161790556040517f2a189a700ef68d9815a7f1c9a2aa4ff3eadd8675084668b6f754a9fe403e33b99161103c918b908b90611569565b60405180910390a15b505050505b50505b5050565b600080826001600160a01b03161161107b5760405162461bcd60e51b8152600401610346906115e6565b506001600160a01b038116800260601c5b919050565b60006110e6826040518060400160405280602081526020017f5361666545524332303a206c6f772d6c6576656c2063616c6c206661696c6564815250856001600160a01b03166111429092919063ffffffff16565b8051909150156104105780806020019051602081101561110557600080fd5b50516104105760405162461bcd60e51b815260040180806020018281038252602a8152602001806118c1602a913960400191505060405180910390fd5b6060611151848460008561115b565b90505b9392505050565b60608247101561119c5760405162461bcd60e51b815260040180806020018281038252602681526020018061187b6026913960400191505060405180910390fd5b6111a5856112b6565b6111f6576040805162461bcd60e51b815260206004820152601d60248201527f416464726573733a2063616c6c20746f206e6f6e2d636f6e7472616374000000604482015290519081900360640190fd5b600080866001600160a01b031685876040518082805190602001908083835b602083106112345780518252601f199092019160209182019101611215565b6001836020036101000a03801982511681845116808217855250505050505090500191505060006040518083038185875af1925050503d8060008114611296576040519150601f19603f3d011682016040523d82523d6000602084013e61129b565b606091505b50915091506112ab8282866112bc565b979650505050505050565b3b151590565b606083156112cb575081611154565b8251156112db5782518084602001fd5b8160405162461bcd60e51b81526004018080602001828103825283818151815260200191508051906020019080838360005b8381101561132557818101518382015260200161130d565b50505050905090810190601f1680156113525780820380516001836020036101000a031916815260200191505b509250505060405180910390fd5b805161ffff8116811461108c57600080fd5b600060208284031215611383578081fd5b81356111548161183c565b60006020828403121561139f578081fd5b81516111548161183c565b600080604083850312156113bc578081fd5b82356113c78161183c565b915060208301356113d78161183c565b809150509250929050565b600080600080600080600060e0888a0312156113fc578283fd5b87516114078161183c565b8097505060208801518060020b811461141e578384fd5b955061142c60408901611360565b945061143a60608901611360565b935061144860808901611360565b925060a088015160ff8116811461145d578283fd5b60c08901519092508015158114611472578182fd5b8091505092959891949750929550565b600060208284031215611493578081fd5b5051919050565b600080600080608085870312156114af578384fd5b8451935060208501516001600160801b03811681146114cc578384fd5b6040860151606090960151949790965092505050565b600080604083850312156114f4578182fd5b505080516020909101519092909150565b6001600160a01b03169052565b60020b9052565b62ffffff169052565b6001600160a01b0391909116815260200190565b6001600160a01b03938416815291909216602082015262ffffff909116604082015260600190565b901515815260200190565b9215158352600291820b6020840152900b604082015260600190565b60029190910b815260200190565b6020808252600d908201526c24b73b30b634b2103a37b5b2b760991b604082015260600190565b602080825260129082015271496e76616c6964207469636b2072616e676560701b604082015260600190565b602080825260129082015271496e76616c6964207371727420707269636560701b604082015260600190565b602080825260119082015270125b9d985b1a59081c9958da5c1a595b9d607a1b604082015260600190565b60208082526010908201526f125b9d985b1a59081d1bdad95b88125160821b604082015260600190565b6020808252601590820152744e6f20706f736974696f6e20746f2072656d6f766560581b604082015260600190565b6020808252600e908201526d141bdbdb081b9bdd08199bdd5b9960921b604082015260600190565b815181526020808301516001600160a01b0316908201526040808301516001600160801b0390811691830191909152606092830151169181019190915260800190565b600060a082019050825182526001600160801b03602084015116602083015260408301516040830152606083015160608301526080830151608083015292915050565b600061016082019050611758828451611505565b602083015161176a6020840182611505565b50604083015161177d6040840182611519565b5060608301516117906060840182611512565b5060808301516117a36080840182611512565b5060a083015160a083015260c083015160c083015260e083015160e0830152610100808401518184015250610120808401516117e182850182611505565b505061014092830151919092015290565b62ffffff91909116815260200190565b90815260200190565b9586526020860194909452600292830b604086015290820b6060850152900b6080830152151560a082015260c00190565b6001600160a01b038116811461185157600080fd5b5056fe4f776e61626c653a206e6577206f776e657220697320746865207a65726f2061646472657373416464726573733a20696e73756666696369656e742062616c616e636520666f722063616c6c4f776e61626c653a2063616c6c6572206973206e6f7420746865206f776e65725361666545524332303a204552433230206f7065726174696f6e20646964206e6f742073756363656564a264697066735822122089a4928b832b7a07066683d531f7aedb940fe198df3d07eb105391a02e75cc4364736f6c63430007060033",
  "linkReferences": {},
  "deployedLinkReferences": {}
}