{
  "_format": "hh-sol-artifact-1",
  "contractName": "BaselineMinimal",
  "sourceName": "contracts/BaselineMinimal.sol",
  "abi": [
    {
      "inputs": [
        {
          "internalType": "address",
          "name": "_factory",
          "type": "address"
        },
        {
          "internalType": "address",
          "name": "_positionManager",
          "type": "address"
        },
        {
          "internalType": "address",
          "name": "_swapRouter",
          "type": "address"
        },
        {
          "internalType": "address",
          "name": "_token0",
          "type": "address"
        },
        {
          "internalType": "address",
          "name": "_token1",
          "type": "address"
        },
        {
          "internalType": "uint24",
          "name": "_fee",
          "type": "uint24"
        }
      ],
      "stateMutability": "nonpayable",
      "type": "constructor"
    },
    {
      "anonymous": false,
      "inputs": [
        {
          "indexed": false,
          "internalType": "uint256",
          "name": "timestamp",
          "type": "uint256"
        },
        {
          "indexed": false,
          "internalType": "uint256",
          "name": "currentPrice",
          "type": "uint256"
        },
        {
          "indexed": false,
          "internalType": "int24",
          "name": "currentTick",
          "type": "int24"
        },
        {
          "indexed": false,
          "internalType": "int24",
          "name": "finalTickLower",
          "type": "int24"
        },
        {
          "indexed": false,
          "internalType": "int24",
          "name": "finalTickUpper",
          "type": "int24"
        },
        {
          "indexed": false,
          "internalType": "bool",
          "name": "adjusted",
          "type": "bool"
        }
      ],
      "name": "BaselineAdjustmentMetrics",
      "type": "event"
    },
    {
      "anonymous": false,
      "inputs": [
        {
          "indexed": true,
          "internalType": "address",
          "name": "previousOwner",
          "type": "address"
        },
        {
          "indexed": true,
          "internalType": "address",
          "name": "newOwner",
          "type": "address"
        }
      ],
      "name": "OwnershipTransferred",
      "type": "event"
    },
    {
      "anonymous": false,
      "inputs": [
        {
          "indexed": false,
          "internalType": "bool",
          "name": "hasPosition",
          "type": "bool"
        },
        {
          "indexed": false,
          "internalType": "int24",
          "name": "lowerTick",
          "type": "int24"
        },
        {
          "indexed": false,
          "internalType": "int24",
          "name": "upperTick",
          "type": "int24"
        }
      ],
      "name": "PositionChanged",
      "type": "event"
    },
    {
      "anonymous": false,
      "inputs": [
        {
          "indexed": false,
          "internalType": "uint256",
          "name": "amountIn",
          "type": "uint256"
        },
        {
          "indexed": false,
          "internalType": "uint256",
          "name": "amountOut",
          "type": "uint256"
        }
      ],
      "name": "TokensSwapped",
      "type": "event"
    },
    {
      "inputs": [],
      "name": "adjustLiquidityWithCurrentPrice",
      "outputs": [],
      "stateMutability": "nonpayable",
      "type": "function"
    },
    {
      "inputs": [],
      "name": "currentTokenId",
      "outputs": [
        {
          "internalType": "uint256",
          "name": "",
          "type": "uint256"
        }
      ],
      "stateMutability": "view",
      "type": "function"
    },
    {
      "inputs": [],
      "name": "factory",
      "outputs": [
        {
          "internalType": "contract IUniswapV3Factory",
          "name": "",
          "type": "address"
        }
      ],
      "stateMutability": "view",
      "type": "function"
    },
    {
      "inputs": [],
      "name": "fee",
      "outputs": [
        {
          "internalType": "uint24",
          "name": "",
          "type": "uint24"
        }
      ],
      "stateMutability": "view",
      "type": "function"
    },
    {
      "inputs": [],
      "name": "hasPosition",
      "outputs": [
        {
          "internalType": "bool",
          "name": "",
          "type": "bool"
        }
      ],
      "stateMutability": "view",
      "type": "function"
    },
    {
      "inputs": [],
      "name": "lowerTick",
      "outputs": [
        {
          "internalType": "int24",
          "name": "",
          "type": "int24"
        }
      ],
      "stateMutability": "view",
      "type": "function"
    },
    {
      "inputs": [],
      "name": "owner",
      "outputs": [
        {
          "internalType": "address",
          "name": "",
          "type": "address"
        }
      ],
      "stateMutability": "view",
      "type": "function"
    },
    {
      "inputs": [],
      "name": "positionManager",
      "outputs": [
        {
          "internalType": "contract INonfungiblePositionManager",
          "name": "",
          "type": "address"
        }
      ],
      "stateMutability": "view",
      "type": "function"
    },
    {
      "inputs": [],
      "name": "renounceOwnership",
      "outputs": [],
      "stateMutability": "nonpayable",
      "type": "function"
    },
    {
      "inputs": [],
      "name": "rescueETH",
      "outputs": [],
      "stateMutability": "nonpayable",
      "type": "function"
    },
    {
      "inputs": [
        {
          "internalType": "address",
          "name": "token",
          "type": "address"
        },
        {
          "internalType": "address",
          "name": "to",
          "type": "address"
        }
      ],
      "name": "rescueTokens",
      "outputs": [],
      "stateMutability": "nonpayable",
      "type": "function"
    },
    {
      "inputs": [
        {
          "internalType": "uint256",
          "name": "amount",
          "type": "uint256"
        }
      ],
      "name": "rescueWETH",
      "outputs": [],
      "stateMutability": "nonpayable",
      "type": "function"
    },
    {
      "inputs": [],
      "name": "swapRouter",
      "outputs": [
        {
          "internalType": "contract ISwapRouter",
          "name": "",
          "type": "address"
        }
      ],
      "stateMutability": "view",
      "type": "function"
    },
    {
      "inputs": [],
      "name": "tickSpacing",
      "outputs": [
        {
          "internalType": "int24",
          "name": "",
          "type": "int24"
        }
      ],
      "stateMutability": "view",
      "type": "function"
    },
    {
      "inputs": [],
      "name": "token0",
      "outputs": [
        {
          "internalType": "address",
          "name": "",
          "type": "address"
        }
      ],
      "stateMutability": "view",
      "type": "function"
    },
    {
      "inputs": [],
      "name": "token1",
      "outputs": [
        {
          "internalType": "address",
          "name": "",
          "type": "address"
        }
      ],
      "stateMutability": "view",
      "type": "function"
    },
    {
      "inputs": [
        {
          "internalType": "address",
          "name": "newOwner",
          "type": "address"
        }
      ],
      "name": "transferOwnership",
      "outputs": [],
      "stateMutability": "nonpayable",
      "type": "function"
    },
    {
      "inputs": [],
      "name": "upperTick",
      "outputs": [
        {
          "internalType": "int24",
          "name": "",
          "type": "int24"
        }
      ],
      "stateMutability": "view",
      "type": "function"
    },
    {
      "stateMutability": "payable",
      "type": "receive"
    }
  ],
  "bytecode": "0x6101606040523480156200001257600080fd5b506040516200263c3803806200263c83398101604081905262000035916200057c565b60006200004162000537565b600080546001600160a01b0319166001600160a01b0383169081178255604051929350917f8be0079c531659141344cd1fd0a4f28419497f9722a3daafe3b4186f6b6457e0908290a3506001600160a01b038616620000bd5760405162461bcd60e51b8152600401620000b4906200068c565b60405180910390fd5b6001600160a01b038516620000e65760405162461bcd60e51b8152600401620000b4906200077e565b6001600160a01b0384166200010f5760405162461bcd60e51b8152600401620000b4906200071f565b6001600160a01b038316620001385760405162461bcd60e51b8152600401620000b49062000756565b6001600160a01b038216620001615760405162461bcd60e51b8152600401620000b490620007b5565b60008162ffffff1611620001895760405162461bcd60e51b8152600401620000b490620006fa565b6001600160601b0319606087811b821660805286811b821660a05285811b821660c05284811b821660e05283901b16610100526001600160e81b031960e882901b1661012052604051630b4c774160e11b81526000906001600160a01b03881690631698ee829062000204908790879087906004016200064b565b60206040518083038186803b1580156200021d57600080fd5b505afa15801562000232573d6000803e3d6000fd5b505050506040513d601f19601f8201168201806040525081019062000258919062000558565b90506001600160a01b038116620002835760405162461bcd60e51b8152600401620000b490620006c3565b806001600160a01b031663d0c93a7c6040518163ffffffff1660e01b815260040160206040518083038186803b158015620002bd57600080fd5b505afa158015620002d2573d6000803e3d6000fd5b505050506040513d601f19601f82011682018060405250810190620002f8919062000628565b600290810b900b60e81b6101405260405163095ea7b360e01b81526001600160a01b0385169063095ea7b390620003389089906000199060040162000673565b602060405180830381600087803b1580156200035357600080fd5b505af115801562000368573d6000803e3d6000fd5b505050506040513d601f19601f820116820180604052508101906200038e919062000606565b5060405163095ea7b360e01b81526001600160a01b0384169063095ea7b390620003c19089906000199060040162000673565b602060405180830381600087803b158015620003dc57600080fd5b505af1158015620003f1573d6000803e3d6000fd5b505050506040513d601f19601f8201168201806040525081019062000417919062000606565b5060405163095ea7b360e01b81526001600160a01b0385169063095ea7b3906200044a9088906000199060040162000673565b602060405180830381600087803b1580156200046557600080fd5b505af11580156200047a573d6000803e3d6000fd5b505050506040513d601f19601f82011682018060405250810190620004a0919062000606565b5060405163095ea7b360e01b81526001600160a01b0384169063095ea7b390620004d39088906000199060040162000673565b602060405180830381600087803b158015620004ee57600080fd5b505af115801562000503573d6000803e3d6000fd5b505050506040513d601f19601f8201168201806040525081019062000529919062000606565b5050505050505050620007dd565b3390565b80516001600160a01b03811681146200055357600080fd5b919050565b6000602082840312156200056a578081fd5b62000575826200053b565b9392505050565b60008060008060008060c0878903121562000595578182fd5b620005a0876200053b565b9550620005b0602088016200053b565b9450620005c0604088016200053b565b9350620005d0606088016200053b565b9250620005e0608088016200053b565b915060a087015162ffffff81168114620005f8578182fd5b809150509295509295509295565b60006020828403121562000618578081fd5b8151801515811462000575578182fd5b6000602082840312156200063a578081fd5b81518060020b811462000575578182fd5b6001600160a01b03938416815291909216602082015262ffffff909116604082015260600190565b6001600160a01b03929092168252602082015260400190565b60208082526017908201527f496e76616c696420666163746f72792061646472657373000000000000000000604082015260600190565b60208082526013908201527f506f6f6c20646f6573206e6f7420657869737400000000000000000000000000604082015260600190565b6020808252600b908201526a496e76616c69642066656560a81b604082015260600190565b60208082526013908201527f496e76616c6964207377617020726f7574657200000000000000000000000000604082015260600190565b6020808252600e908201526d0496e76616c696420746f6b656e360941b604082015260600190565b60208082526018908201527f496e76616c696420706f736974696f6e206d616e616765720000000000000000604082015260600190565b6020808252600e908201526d496e76616c696420746f6b656e3160901b604082015260600190565b60805160601c60a05160601c60c05160601c60e05160601c6101005160601c6101205160e81c6101405160e81c611d88620008b4600039806106d05280610719528061073a5280610c4d5250806103fd52806105a95280610c955280611272525080610113528061019952806105875280610bdc5280610c71528061112352806112435250806101ba528061056552806107f6528061109852806112145250806104525280610b1d525080610adc5280610e425280610f095280610fac52806111d95250806105385280610b415250611d886000f3fe60806040526004361061010c5760003560e01c80638da5cb5b11610095578063c853c4bc11610064578063c853c4bc1461034b578063d0c93a7c1461036b578063d21220a714610380578063ddca3f4314610395578063f2fde38b146103b7576101eb565b80638da5cb5b146102f75780639b1344ac1461030c578063c31c9c0714610321578063c45a015514610336576101eb565b806362ca5772116100dc57806362ca577214610274578063715018a614610289578063727dd2281461029e57806375a6a7a9146102c0578063791b98bc146102e2576101eb565b80629a9b7b146101f05780630dfe16811461021b57806320800a001461023d5780635431c94e14610254576101eb565b366101eb577f00000000000000000000000000000000000000000000000000000000000000006001600160a01b031663d0e30db0346040518263ffffffff1660e01b81526004016000604051808303818588803b15801561016c57600080fd5b505af1158015610180573d6000803e3d6000fd5b505050505060006002348161019157fe5b0490506101df7f00000000000000000000000000000000000000000000000000000000000000007f0000000000000000000000000000000000000000000000000000000000000000836103d7565b506101e861051e565b50005b600080fd5b3480156101fc57600080fd5b506102056107ee565b6040516102129190611c5f565b60405180910390f35b34801561022757600080fd5b506102306107f4565b6040516102129190611916565b34801561024957600080fd5b50610252610818565b005b34801561026057600080fd5b5061025261026f366004611786565b6108c6565b34801561028057600080fd5b5061025261051e565b34801561029557600080fd5b50610252610a14565b3480156102aa57600080fd5b506102b3610ac0565b6040516102129190611979565b3480156102cc57600080fd5b506102d5610ad1565b6040516102129190611952565b3480156102ee57600080fd5b50610230610ada565b34801561030357600080fd5b50610230610afe565b34801561031857600080fd5b506102b3610b0d565b34801561032d57600080fd5b50610230610b1b565b34801561034257600080fd5b50610230610b3f565b34801561035757600080fd5b5061025261036636600461185e565b610b63565b34801561037757600080fd5b506102b3610c4b565b34801561038c57600080fd5b50610230610c6f565b3480156103a157600080fd5b506103aa610c93565b6040516102129190611c4f565b3480156103c357600080fd5b506102526103d236600461174e565b610cb7565b60408051610100810182526001600160a01b038086168252848116602083015262ffffff7f0000000000000000000000000000000000000000000000000000000000000000168284015230606083015242608083015260a08201849052600060c0830181905260e08301819052925163414bf38960e01b81527f00000000000000000000000000000000000000000000000000000000000000009091169063414bf38990610489908490600401611b38565b602060405180830381600087803b1580156104a357600080fd5b505af11580156104b7573d6000803e3d6000fd5b505050506040513d601f19601f820116820180604052508101906104db9190611876565b91507fbdc89df9460547640e2147ba22a6ef8476d5390eecc620e9d76fbaa551bf4e8a838360405161050e929190611c68565b60405180910390a1509392505050565b604051630b4c774160e11b81526000906001600160a01b037f00000000000000000000000000000000000000000000000000000000000000001690631698ee82906105d1907f0000000000000000000000000000000000000000000000000000000000000000907f0000000000000000000000000000000000000000000000000000000000000000907f00000000000000000000000000000000000000000000000000000000000000009060040161192a565b60206040518083038186803b1580156105e957600080fd5b505afa1580156105fd573d6000803e3d6000fd5b505050506040513d601f19601f82011682018060405250810190610621919061176a565b90506001600160a01b0381166106525760405162461bcd60e51b815260040161064990611a8a565b60405180910390fd5b600080826001600160a01b0316633850c7bd6040518163ffffffff1660e01b815260040160e06040518083038186803b15801561068e57600080fd5b505afa1580156106a2573d6000803e3d6000fd5b505050506040513d601f19601f820116820180604052508101906106c691906117be565b50949650929450507f0000000000000000000000000000000000000000000000000000000000000000600481029350600092509050600281810b9084810b05850360020b8161071157fe5b0502905060007f00000000000000000000000000000000000000000000000000000000000000007f000000000000000000000000000000000000000000000000000000000000000060020b60028560020b8161076957fe5b05860160020b8161077657fe5b60025491900591909102915060ff161561079257610792610db9565b61079c8282611059565b7f15f744a7d97f7abd1bc7398cb3f55bb78b9dd63011770e854d31d8d846f13ef3426107c7876113dc565b86858560016040516107de96959493929190611c76565b60405180910390a1505050505050565b60015481565b7f000000000000000000000000000000000000000000000000000000000000000081565b61082061141c565b6001600160a01b0316610831610afe565b6001600160a01b03161461087a576040805162461bcd60e51b81526020600482018190526024820152600080516020611d09833981519152604482015290519081900360640190fd5b4780156108c357610889610afe565b6001600160a01b03166108fc829081150290604051600060405180830381858888f193505050501580156108c1573d6000803e3d6000fd5b505b50565b6108ce61141c565b6001600160a01b03166108df610afe565b6001600160a01b031614610928576040805162461bcd60e51b81526020600482018190526024820152600080516020611d09833981519152604482015290519081900360640190fd5b6001600160a01b03821661094e5760405162461bcd60e51b815260040161064990611987565b6001600160a01b0381166109745760405162461bcd60e51b815260040161064990611a06565b6040516370a0823160e01b81526000906001600160a01b038416906370a08231906109a3903090600401611916565b60206040518083038186803b1580156109bb57600080fd5b505afa1580156109cf573d6000803e3d6000fd5b505050506040513d601f19601f820116820180604052508101906109f39190611876565b90508015610a0f57610a0f6001600160a01b0384168383611420565b505050565b610a1c61141c565b6001600160a01b0316610a2d610afe565b6001600160a01b031614610a76576040805162461bcd60e51b81526020600482018190526024820152600080516020611d09833981519152604482015290519081900360640190fd5b600080546040516001600160a01b03909116907f8be0079c531659141344cd1fd0a4f28419497f9722a3daafe3b4186f6b6457e0908390a3600080546001600160a01b0319169055565b600280546401000000009004900b81565b60025460ff1681565b7f000000000000000000000000000000000000000000000000000000000000000081565b6000546001600160a01b031690565b600280546101009004900b81565b7f000000000000000000000000000000000000000000000000000000000000000081565b7f000000000000000000000000000000000000000000000000000000000000000081565b610b6b61141c565b6001600160a01b0316610b7c610afe565b6001600160a01b031614610bc5576040805162461bcd60e51b81526020600482018190526024820152600080516020611d09833981519152604482015290519081900360640190fd5b604051632e1a7d4d60e01b81526001600160a01b037f00000000000000000000000000000000000000000000000000000000000000001690632e1a7d4d90610c11908490600401611c5f565b600060405180830381600087803b158015610c2b57600080fd5b505af1158015610c3f573d6000803e3d6000fd5b50505050610889610afe565b7f000000000000000000000000000000000000000000000000000000000000000081565b7f000000000000000000000000000000000000000000000000000000000000000081565b7f000000000000000000000000000000000000000000000000000000000000000081565b610cbf61141c565b6001600160a01b0316610cd0610afe565b6001600160a01b031614610d19576040805162461bcd60e51b81526020600482018190526024820152600080516020611d09833981519152604482015290519081900360640190fd5b6001600160a01b038116610d5e5760405162461bcd60e51b8152600401808060200182810382526026815260200180611cbd6026913960400191505060405180910390fd5b600080546040516001600160a01b03808516939216917f8be0079c531659141344cd1fd0a4f28419497f9722a3daafe3b4186f6b6457e091a3600080546001600160a01b0319166001600160a01b0392909216919091179055565b60025460ff16610ddb5760405162461bcd60e51b815260040161064990611a5b565b600060015411610dfd5760405162461bcd60e51b815260040161064990611a31565b6040805160a08101825260015481526001600160801b036020820152600081830181905260608201524260808201529051630624e65f60e11b81526001600160a01b037f00000000000000000000000000000000000000000000000000000000000000001691630c49ccbe91610e769190600401611af5565b6040805180830381600087803b158015610e8f57600080fd5b505af1925050508015610ebf575060408051601f3d908101601f19168201909252610ebc918101906118d6565b60015b610ec857610ecb565b50505b6040805160808101825260015481523060208201526001600160801b038183018190526060820152905163fc6f786560e01b81526001600160a01b037f0000000000000000000000000000000000000000000000000000000000000000169163fc6f786591610f3d9190600401611ab2565b6040805180830381600087803b158015610f5657600080fd5b505af1925050508015610f86575060408051601f3d908101601f19168201909252610f83918101906118d6565b60015b610f8f57610f92565b50505b600154604051630852cd8d60e31b81526001600160a01b037f000000000000000000000000000000000000000000000000000000000000000016916342966c6891610fe09190600401611c5f565b600060405180830381600087803b158015610ffa57600080fd5b505af192505050801561100b575060015b506002805460ff19169055600060018190556040517f2a189a700ef68d9815a7f1c9a2aa4ff3eadd8675084668b6f754a9fe403e33b99161104f918190819061195d565b60405180910390a1565b8060020b8260020b1261107e5760405162461bcd60e51b8152600401610649906119ae565b6040516370a0823160e01b81526000906001600160a01b037f000000000000000000000000000000000000000000000000000000000000000016906370a08231906110cd903090600401611916565b60206040518083038186803b1580156110e557600080fd5b505afa1580156110f9573d6000803e3d6000fd5b505050506040513d601f19601f8201168201806040525081019061111d9190611876565b905060007f00000000000000000000000000000000000000000000000000000000000000006001600160a01b03166370a08231306040518263ffffffff1660e01b815260040161116d9190611916565b60206040518083038186803b15801561118557600080fd5b505afa158015611199573d6000803e3d6000fd5b505050506040513d601f19601f820116820180604052508101906111bd9190611876565b9050811580156111cb575080155b156111d75750506108c1565b7f00000000000000000000000000000000000000000000000000000000000000006001600160a01b031663883164566040518061016001604052807f00000000000000000000000000000000000000000000000000000000000000006001600160a01b031681526020017f00000000000000000000000000000000000000000000000000000000000000006001600160a01b031681526020017f000000000000000000000000000000000000000000000000000000000000000062ffffff1681526020018760020b81526020018660020b81526020018581526020018481526020016000815260200160008152602001306001600160a01b03168152602001428152506040518263ffffffff1660e01b81526004016112f69190611ba1565b608060405180830381600087803b15801561131057600080fd5b505af1925050508015611340575060408051601f3d908101601f1916820190925261133d9181019061188e565b60015b611349576113d6565b83156113d15760018481556002805489820b62ffffff9081166401000000000266ffffff00000000198d850b9092166101000263ffffff001960ff1990941686179390931692909217161790556040517f2a189a700ef68d9815a7f1c9a2aa4ff3eadd8675084668b6f754a9fe403e33b9916113c8918b908b9061195d565b60405180910390a15b505050505b50505050565b600080826001600160a01b0316116114065760405162461bcd60e51b8152600401610649906119da565b506001600160a01b038116800260601c5b919050565b3390565b604080516001600160a01b038416602482015260448082018490528251808303909101815260649091019091526020810180516001600160e01b031663a9059cbb60e01b179052610a0f90849060006114c2826040518060400160405280602081526020017f5361666545524332303a206c6f772d6c6576656c2063616c6c206661696c6564815250856001600160a01b031661151e9092919063ffffffff16565b805190915015610a0f578080602001905160208110156114e157600080fd5b5051610a0f5760405162461bcd60e51b815260040180806020018281038252602a815260200180611d29602a913960400191505060405180910390fd5b606061152d8484600085611537565b90505b9392505050565b6060824710156115785760405162461bcd60e51b8152600401808060200182810382526026815260200180611ce36026913960400191505060405180910390fd5b61158185611692565b6115d2576040805162461bcd60e51b815260206004820152601d60248201527f416464726573733a2063616c6c20746f206e6f6e2d636f6e7472616374000000604482015290519081900360640190fd5b600080866001600160a01b031685876040518082805190602001908083835b602083106116105780518252601f1990920191602091820191016115f1565b6001836020036101000a03801982511681845116808217855250505050505090500191505060006040518083038185875af1925050503d8060008114611672576040519150601f19603f3d011682016040523d82523d6000602084013e611677565b606091505b5091509150611687828286611698565b979650505050505050565b3b151590565b606083156116a7575081611530565b8251156116b75782518084602001fd5b8160405162461bcd60e51b81526004018080602001828103825283818151815260200191508051906020019080838360005b838110156117015781810151838201526020016116e9565b50505050905090810190601f16801561172e5780820380516001836020036101000a031916815260200191505b509250505060405180910390fd5b805161ffff8116811461141757600080fd5b60006020828403121561175f578081fd5b813561153081611ca7565b60006020828403121561177b578081fd5b815161153081611ca7565b60008060408385031215611798578081fd5b82356117a381611ca7565b915060208301356117b381611ca7565b809150509250929050565b600080600080600080600060e0888a0312156117d8578283fd5b87516117e381611ca7565b8097505060208801518060020b81146117fa578384fd5b95506118086040890161173c565b94506118166060890161173c565b93506118246080890161173c565b925060a088015160ff81168114611839578283fd5b60c0890151909250801515811461184e578182fd5b8091505092959891949750929550565b60006020828403121561186f578081fd5b5035919050565b600060208284031215611887578081fd5b5051919050565b600080600080608085870312156118a3578384fd5b8451935060208501516001600160801b03811681146118c0578384fd5b6040860151606090960151949790965092505050565b600080604083850312156118e8578182fd5b505080516020909101519092909150565b6001600160a01b03169052565b60020b9052565b62ffffff169052565b6001600160a01b0391909116815260200190565b6001600160a01b03938416815291909216602082015262ffffff909116604082015260600190565b901515815260200190565b9215158352600291820b6020840152900b604082015260600190565b60029190910b815260200190565b6020808252600d908201526c24b73b30b634b2103a37b5b2b760991b604082015260600190565b602080825260129082015271496e76616c6964207469636b2072616e676560701b604082015260600190565b602080825260129082015271496e76616c6964207371727420707269636560701b604082015260600190565b602080825260119082015270125b9d985b1a59081c9958da5c1a595b9d607a1b604082015260600190565b60208082526010908201526f125b9d985b1a59081d1bdad95b88125160821b604082015260600190565b6020808252601590820152744e6f20706f736974696f6e20746f2072656d6f766560581b604082015260600190565b6020808252600e908201526d141bdbdb081b9bdd08199bdd5b9960921b604082015260600190565b815181526020808301516001600160a01b0316908201526040808301516001600160801b0390811691830191909152606092830151169181019190915260800190565b600060a082019050825182526001600160801b03602084015116602083015260408301516040830152606083015160608301526080830151608083015292915050565b81516001600160a01b03908116825260208084015182169083015260408084015162ffffff16908301526060808401518216908301526080808401519083015260a0838101519083015260c0808401519083015260e09283015116918101919091526101000190565b600061016082019050611bb58284516118f9565b6020830151611bc760208401826118f9565b506040830151611bda604084018261190d565b506060830151611bed6060840182611906565b506080830151611c006080840182611906565b5060a083015160a083015260c083015160c083015260e083015160e083015261010080840151818401525061012080840151611c3e828501826118f9565b505061014092830151919092015290565b62ffffff91909116815260200190565b90815260200190565b918252602082015260400190565b9586526020860194909452600292830b604086015290820b6060850152900b6080830152151560a082015260c00190565b6001600160a01b03811681146108c357600080fdfe4f776e61626c653a206e6577206f776e657220697320746865207a65726f2061646472657373416464726573733a20696e73756666696369656e742062616c616e636520666f722063616c6c4f776e61626c653a2063616c6c6572206973206e6f7420746865206f776e65725361666545524332303a204552433230206f7065726174696f6e20646964206e6f742073756363656564a26469706673582212209ced09fbb03c16a46b80502e59400f96cc1ef89211514bf027a97091584d887364736f6c63430007060033",
  "linkReferences": {},
  "deployedLinkReferences": {}
}