{
  "_format": "hh-sol-artifact-1",
  "contractName": "PredictiveLiquidityManager",
  "sourceName": "contracts/PredictiveLiquidityManager.sol",
  "abi": [
    {
      "inputs": [
        {
          "internalType": "address",
          "name": "_factory",
          "type": "address"
        },
        {
          "internalType": "address",
          "name": "_positionManager",
          "type": "address"
        },
        {
          "internalType": "address",
          "name": "_token0",
          "type": "address"
        },
        {
          "internalType": "address",
          "name": "_token1",
          "type": "address"
        },
        {
          "internalType": "uint24",
          "name": "_fee",
          "type": "uint24"
        },
        {
          "internalType": "address",
          "name": "_weth9",
          "type": "address"
        },
        {
          "internalType": "address",
          "name": "_initialOwner",
          "type": "address"
        }
      ],
      "stateMutability": "nonpayable",
      "type": "constructor"
    },
    {
      "anonymous": false,
      "inputs": [
        {
          "indexed": false,
          "internalType": "string",
          "name": "operationType",
          "type": "string"
        },
        {
          "indexed": true,
          "internalType": "uint256",
          "name": "tokenId",
          "type": "uint256"
        },
        {
          "indexed": false,
          "internalType": "int24",
          "name": "tickLower",
          "type": "int24"
        },
        {
          "indexed": false,
          "internalType": "int24",
          "name": "tickUpper",
          "type": "int24"
        },
        {
          "indexed": false,
          "internalType": "uint128",
          "name": "liquidity",
          "type": "uint128"
        },
        {
          "indexed": false,
          "internalType": "uint256",
          "name": "amount0",
          "type": "uint256"
        },
        {
          "indexed": false,
          "internalType": "uint256",
          "name": "amount1",
          "type": "uint256"
        },
        {
          "indexed": false,
          "internalType": "bool",
          "name": "success",
          "type": "bool"
        }
      ],
      "name": "LiquidityOperation",
      "type": "event"
    },
    {
      "anonymous": false,
      "inputs": [
        {
          "indexed": true,
          "internalType": "address",
          "name": "previousOwner",
          "type": "address"
        },
        {
          "indexed": true,
          "internalType": "address",
          "name": "newOwner",
          "type": "address"
        }
      ],
      "name": "OwnershipTransferred",
      "type": "event"
    },
    {
      "anonymous": false,
      "inputs": [
        {
          "indexed": false,
          "internalType": "uint256",
          "name": "timestamp",
          "type": "uint256"
        },
        {
          "indexed": false,
          "internalType": "uint256",
          "name": "actualPrice",
          "type": "uint256"
        },
        {
          "indexed": false,
          "internalType": "uint256",
          "name": "predictedPrice",
          "type": "uint256"
        },
        {
          "indexed": false,
          "internalType": "int24",
          "name": "predictedTick",
          "type": "int24"
        },
        {
          "indexed": false,
          "internalType": "int24",
          "name": "finalTickLower",
          "type": "int24"
        },
        {
          "indexed": false,
          "internalType": "int24",
          "name": "finalTickUpper",
          "type": "int24"
        },
        {
          "indexed": false,
          "internalType": "bool",
          "name": "adjusted",
          "type": "bool"
        }
      ],
      "name": "PredictionAdjustmentMetrics",
      "type": "event"
    },
    {
      "anonymous": false,
      "inputs": [
        {
          "indexed": true,
          "internalType": "string",
          "name": "paramName",
          "type": "string"
        },
        {
          "indexed": false,
          "internalType": "uint256",
          "name": "newValue",
          "type": "uint256"
        }
      ],
      "name": "StrategyParamUpdated",
      "type": "event"
    },
    {
      "inputs": [],
      "name": "WETH9",
      "outputs": [
        {
          "internalType": "address",
          "name": "",
          "type": "address"
        }
      ],
      "stateMutability": "view",
      "type": "function"
    },
    {
      "inputs": [],
      "name": "currentPosition",
      "outputs": [
        {
          "internalType": "uint256",
          "name": "tokenId",
          "type": "uint256"
        },
        {
          "internalType": "uint128",
          "name": "liquidity",
          "type": "uint128"
        },
        {
          "internalType": "int24",
          "name": "tickLower",
          "type": "int24"
        },
        {
          "internalType": "int24",
          "name": "tickUpper",
          "type": "int24"
        },
        {
          "internalType": "bool",
          "name": "active",
          "type": "bool"
        }
      ],
      "stateMutability": "view",
      "type": "function"
    },
    {
      "inputs": [],
      "name": "factory",
      "outputs": [
        {
          "internalType": "contract IUniswapV3Factory",
          "name": "",
          "type": "address"
        }
      ],
      "stateMutability": "view",
      "type": "function"
    },
    {
      "inputs": [],
      "name": "fee",
      "outputs": [
        {
          "internalType": "uint24",
          "name": "",
          "type": "uint24"
        }
      ],
      "stateMutability": "view",
      "type": "function"
    },
    {
      "inputs": [],
      "name": "getActivePositionDetails",
      "outputs": [
        {
          "internalType": "uint256",
          "name": "tokenId",
          "type": "uint256"
        },
        {
          "internalType": "uint128",
          "name": "liquidity",
          "type": "uint128"
        },
        {
          "internalType": "int24",
          "name": "tickLower",
          "type": "int24"
        },
        {
          "internalType": "int24",
          "name": "tickUpper",
          "type": "int24"
        },
        {
          "internalType": "bool",
          "name": "active",
          "type": "bool"
        }
      ],
      "stateMutability": "view",
      "type": "function"
    },
    {
      "inputs": [],
      "name": "getContractBalances",
      "outputs": [
        {
          "internalType": "uint256",
          "name": "balance0",
          "type": "uint256"
        },
        {
          "internalType": "uint256",
          "name": "balance1",
          "type": "uint256"
        },
        {
          "internalType": "uint256",
          "name": "balanceWETH",
          "type": "uint256"
        }
      ],
      "stateMutability": "view",
      "type": "function"
    },
    {
      "inputs": [],
      "name": "getPoolAddress",
      "outputs": [
        {
          "internalType": "address",
          "name": "",
          "type": "address"
        }
      ],
      "stateMutability": "view",
      "type": "function"
    },
    {
      "inputs": [],
      "name": "owner",
      "outputs": [
        {
          "internalType": "address",
          "name": "",
          "type": "address"
        }
      ],
      "stateMutability": "view",
      "type": "function"
    },
    {
      "inputs": [],
      "name": "positionManager",
      "outputs": [
        {
          "internalType": "contract INonfungiblePositionManager",
          "name": "",
          "type": "address"
        }
      ],
      "stateMutability": "view",
      "type": "function"
    },
    {
      "inputs": [],
      "name": "rangeWidthMultiplier",
      "outputs": [
        {
          "internalType": "uint24",
          "name": "",
          "type": "uint24"
        }
      ],
      "stateMutability": "view",
      "type": "function"
    },
    {
      "inputs": [],
      "name": "renounceOwnership",
      "outputs": [],
      "stateMutability": "nonpayable",
      "type": "function"
    },
    {
      "inputs": [
        {
          "internalType": "uint24",
          "name": "_multiplier",
          "type": "uint24"
        }
      ],
      "name": "setRangeWidthMultiplier",
      "outputs": [],
      "stateMutability": "nonpayable",
      "type": "function"
    },
    {
      "inputs": [],
      "name": "tickSpacing",
      "outputs": [
        {
          "internalType": "int24",
          "name": "",
          "type": "int24"
        }
      ],
      "stateMutability": "view",
      "type": "function"
    },
    {
      "inputs": [],
      "name": "token0",
      "outputs": [
        {
          "internalType": "address",
          "name": "",
          "type": "address"
        }
      ],
      "stateMutability": "view",
      "type": "function"
    },
    {
      "inputs": [],
      "name": "token0Decimals",
      "outputs": [
        {
          "internalType": "uint8",
          "name": "",
          "type": "uint8"
        }
      ],
      "stateMutability": "view",
      "type": "function"
    },
    {
      "inputs": [],
      "name": "token1",
      "outputs": [
        {
          "internalType": "address",
          "name": "",
          "type": "address"
        }
      ],
      "stateMutability": "view",
      "type": "function"
    },
    {
      "inputs": [],
      "name": "token1Decimals",
      "outputs": [
        {
          "internalType": "uint8",
          "name": "",
          "type": "uint8"
        }
      ],
      "stateMutability": "view",
      "type": "function"
    },
    {
      "inputs": [
        {
          "internalType": "address",
          "name": "newOwner",
          "type": "address"
        }
      ],
      "name": "transferOwnership",
      "outputs": [],
      "stateMutability": "nonpayable",
      "type": "function"
    },
    {
      "inputs": [
        {
          "internalType": "uint256",
          "name": "amount0Owed",
          "type": "uint256"
        },
        {
          "internalType": "uint256",
          "name": "amount1Owed",
          "type": "uint256"
        },
        {
          "internalType": "bytes",
          "name": "",
          "type": "bytes"
        }
      ],
      "name": "uniswapV3MintCallback",
      "outputs": [],
      "stateMutability": "nonpayable",
      "type": "function"
    },
    {
      "inputs": [
        {
          "internalType": "uint256",
          "name": "predictedPriceDecimal",
          "type": "uint256"
        }
      ],
      "name": "updatePredictionAndAdjust",
      "outputs": [],
      "stateMutability": "nonpayable",
      "type": "function"
    },
    {
      "stateMutability": "payable",
      "type": "receive"
    }
  ],
  "bytecode": "0x6101a06040526004805462ffffff1916811790553480156200002057600080fd5b50604051620044ab380380620044ab833981016040819052620000439162000932565b60006200004f620003ca565b600080546001600160a01b0319166001600160a01b0383169081178255604051929350916000805160206200442b833981519152908290a350600180556001600160601b0319606088811b821660805287811b821660a05286811b821660c05285811b821660e0526001600160e81b031960e886901b166101405283901b16610180526040805163313ce56760e01b815290516001600160a01b0387169163313ce567916004808301926020929190829003018186803b1580156200011357600080fd5b505afa92505050801562000146575060408051601f3d908101601f191682019092526200014391810190620009f1565b60015b6200016e5760405162461bcd60e51b8152600401620001659062000ab5565b60405180910390fd5b6001600160f81b031960f89190911b1661010052836001600160a01b031663313ce5676040518163ffffffff1660e01b815260040160206040518083038186803b158015620001bc57600080fd5b505afa925050508015620001ef575060408051601f3d908101601f19168201909252620001ec91810190620009f1565b60015b6200020e5760405162461bcd60e51b8152600401620001659062000a3c565b60f81b6001600160f81b03191661012052604051630b4c774160e11b81526000906001600160a01b03891690631698ee8290620002549089908990899060040162000a14565b60206040518083038186803b1580156200026d57600080fd5b505afa15801562000282573d6000803e3d6000fd5b505050506040513d601f19601f82011682018060405250810190620002a8919062000915565b90506001600160a01b038116620002d35760405162461bcd60e51b8152600401620001659062000a7e565b806001600160a01b031663d0c93a7c6040518163ffffffff1660e01b815260040160206040518083038186803b1580156200030d57600080fd5b505afa15801562000322573d6000803e3d6000fd5b505050506040513d601f19601f82011682018060405250810190620003489190620009ce565b600290810b900b60e81b610160526200037a6001600160a01b03871688600019620003ce602090811b62000f0a17901c565b620003a187600019876001600160a01b0316620003ce60201b62000f0a179092919060201c565b6001600160a01b03821615620003bc57620003bc82620004f2565b505050505050505062000af7565b3390565b80158062000458575060408051636eb1769f60e11b81523060048201526001600160a01b03848116602483015291519185169163dd62ed3e91604480820192602092909190829003018186803b1580156200042857600080fd5b505afa1580156200043d573d6000803e3d6000fd5b505050506040513d60208110156200045457600080fd5b5051155b620004955760405162461bcd60e51b8152600401808060200182810382526036815260200180620044756036913960400191505060405180910390fd5b604080516001600160a01b038416602482015260448082018490528251808303909101815260649091019091526020810180516001600160e01b0390811663095ea7b360e01b17909152620004ed918591620005fc16565b505050565b620004fc620003ca565b6001600160a01b03166200050f620006b8565b6001600160a01b0316146200056b576040805162461bcd60e51b815260206004820181905260248201527f4f776e61626c653a2063616c6c6572206973206e6f7420746865206f776e6572604482015290519081900360640190fd5b6001600160a01b038116620005b25760405162461bcd60e51b8152600401808060200182810382526026815260200180620043df6026913960400191505060405180910390fd5b600080546040516001600160a01b03808516939216916000805160206200442b83398151915291a3600080546001600160a01b0319166001600160a01b0392909216919091179055565b600062000658826040518060400160405280602081526020017f5361666545524332303a206c6f772d6c6576656c2063616c6c206661696c6564815250856001600160a01b0316620006c760201b62001022179092919060201c565b805190915015620004ed578080602001905160208110156200067957600080fd5b5051620004ed5760405162461bcd60e51b815260040180806020018281038252602a8152602001806200444b602a913960400191505060405180910390fd5b6000546001600160a01b031690565b6060620006d88484600085620006e2565b90505b9392505050565b606082471015620007255760405162461bcd60e51b8152600401808060200182810382526026815260200180620044056026913960400191505060405180910390fd5b620007308562000849565b62000782576040805162461bcd60e51b815260206004820152601d60248201527f416464726573733a2063616c6c20746f206e6f6e2d636f6e7472616374000000604482015290519081900360640190fd5b600080866001600160a01b031685876040518082805190602001908083835b60208310620007c25780518252601f199092019160209182019101620007a1565b6001836020036101000a03801982511681845116808217855250505050505090500191505060006040518083038185875af1925050503d806000811462000826576040519150601f19603f3d011682016040523d82523d6000602084013e6200082b565b606091505b5090925090506200083e82828662000853565b979650505050505050565b803b15155b919050565b6060831562000864575081620006db565b825115620008755782518084602001fd5b8160405162461bcd60e51b81526004018080602001828103825283818151815260200191508051906020019080838360005b83811015620008c1578181015183820152602001620008a7565b50505050905090810190601f168015620008ef5780820380516001836020036101000a031916815260200191505b509250505060405180910390fd5b80516001600160a01b03811681146200084e57600080fd5b60006020828403121562000927578081fd5b620006db82620008fd565b600080600080600080600060e0888a0312156200094d578283fd5b6200095888620008fd565b96506200096860208901620008fd565b95506200097860408901620008fd565b94506200098860608901620008fd565b9350608088015162ffffff81168114620009a0578384fd5b9250620009b060a08901620008fd565b9150620009c060c08901620008fd565b905092959891949750929550565b600060208284031215620009e0578081fd5b81518060020b8114620006db578182fd5b60006020828403121562000a03578081fd5b815160ff81168114620006db578182fd5b6001600160a01b03938416815291909216602082015262ffffff909116604082015260600190565b60208082526022908201527f546f6b656e3120646f6573206e6f7420737570706f727420646563696d616c73604082015261282960f01b606082015260800190565b60208082526013908201527f506f6f6c20646f6573206e6f7420657869737400000000000000000000000000604082015260600190565b60208082526022908201527f546f6b656e3020646f6573206e6f7420737570706f727420646563696d616c73604082015261282960f01b606082015260800190565b60805160601c60a05160601c60c05160601c60e05160601c6101005160f81c6101205160f81c6101405160e81c6101605160e81c6101805160601c61374862000c97600039806105dc5280610e345280610e7e5250806107275280611922528061197152806119a452806119d052806119fc5280611a315280611a745280611ab75280611aec5280611b275280611b4f5250806107f85280610ac45280610c73528061142652806124b152508061036b528061157e52806115f7528061165352806116855280611752528061178452806117d652806118505250806106df52806115a152806115d3528061162f52806116a9528061172f52806117a852806117fa528061182c52508061074b52806107d652806109af5280610a5f5280610c515280610dab52806114055280611c3a528061248252508061038f52806107b452806108b952806109695280610c2f5280610cf752806113e45280611baf52806124535250806106ac52806129b65280612a8f5280612b365280612bca5280612d4a52508061070352806107875280610c0252806113b552506137486000f3fe6080604052600436106101235760003560e01c8063b31ac6e2116100a0578063d534d63611610064578063d534d636146102db578063ddca3f43146102f0578063f2fde38b14610305578063f586c6d914610325578063ffd2a7d31461033a5761012a565b8063b31ac6e21461025a578063c45a01551461026f578063d0c93a7c14610284578063d21220a7146102a6578063d3487997146102bb5761012a565b8063479c2e76116100e7578063479c2e76146101e05780634aa4a4fc14610206578063715018a61461021b578063791b98bc146102305780638da5cb5b146102455761012a565b806301d31e7c1461012f5780630b77884d1461015a5780630dfe16811461017c5780631ee0b02e1461019e57806341675b05146101c05761012a565b3661012a57005b600080fd5b34801561013b57600080fd5b5061014461035e565b6040516101519190613567565b60405180910390f35b34801561016657600080fd5b5061016f610369565b60405161015191906135ff565b34801561018857600080fd5b5061019161038d565b60405161015191906130f1565b3480156101aa57600080fd5b506101be6101b9366004612f7b565b6103b1565b005b3480156101cc57600080fd5b506101be6101db366004612f9e565b6104a2565b3480156101ec57600080fd5b506101f56105a3565b604051610151959493929190613580565b34801561021257600080fd5b506101916105da565b34801561022757600080fd5b506101be6105fe565b34801561023c57600080fd5b506101916106aa565b34801561025157600080fd5b506101916106ce565b34801561026657600080fd5b5061016f6106dd565b34801561027b57600080fd5b50610191610701565b34801561029057600080fd5b50610299610725565b604051610151919061312d565b3480156102b257600080fd5b50610191610749565b3480156102c757600080fd5b506101be6102d6366004613039565b61076d565b3480156102e757600080fd5b506101f5610a8d565b3480156102fc57600080fd5b50610144610ac2565b34801561031157600080fd5b506101be610320366004612ea3565b610ae6565b34801561033157600080fd5b50610191610be8565b34801561034657600080fd5b5061034f610cf0565b604051610151939291906135b2565b60045462ffffff1681565b7f000000000000000000000000000000000000000000000000000000000000000081565b7f000000000000000000000000000000000000000000000000000000000000000081565b6103b961103b565b6001600160a01b03166103ca6106ce565b6001600160a01b031614610413576040805162461bcd60e51b81526020600482018190526024820152600080516020613693833981519152604482015290519081900360640190fd5b60008162ffffff16116104415760405162461bcd60e51b815260040161043890613348565b60405180910390fd5b6004805462ffffff191662ffffff8316179055604051610460906130d1565b60405180910390207f22a7b700c7155ab4252833eee76474bc7531e6598483ae76eb278df86f084c0c826040516104979190613567565b60405180910390a250565b600260015414156104fa576040805162461bcd60e51b815260206004820152601f60248201527f5265656e7472616e637947756172643a207265656e7472616e742063616c6c00604482015290519081900360640190fd5b600260015561050761103b565b6001600160a01b03166105186106ce565b6001600160a01b031614610561576040805162461bcd60e51b81526020600482018190526024820152600080516020613693833981519152604482015290519081900360640190fd5b60008060008060006105728661103f565b9450945094509450945060006105888383611088565b9050610596868886846110f4565b5050600180555050505050565b6002805460035490926001600160801b03821692600160801b8304810b92600160981b810490910b91600160b01b90910460ff1690565b7f000000000000000000000000000000000000000000000000000000000000000081565b61060661103b565b6001600160a01b03166106176106ce565b6001600160a01b031614610660576040805162461bcd60e51b81526020600482018190526024820152600080516020613693833981519152604482015290519081900360640190fd5b600080546040516001600160a01b03909116907f8be0079c531659141344cd1fd0a4f28419497f9722a3daafe3b4186f6b6457e0908390a3600080546001600160a01b0319169055565b7f000000000000000000000000000000000000000000000000000000000000000081565b6000546001600160a01b031690565b7f000000000000000000000000000000000000000000000000000000000000000081565b7f000000000000000000000000000000000000000000000000000000000000000081565b7f000000000000000000000000000000000000000000000000000000000000000081565b7f000000000000000000000000000000000000000000000000000000000000000081565b604051630b4c774160e11b81526000906001600160a01b037f00000000000000000000000000000000000000000000000000000000000000001690631698ee8290610820907f0000000000000000000000000000000000000000000000000000000000000000907f0000000000000000000000000000000000000000000000000000000000000000907f000000000000000000000000000000000000000000000000000000000000000090600401613105565b60206040518083038186803b15801561083857600080fd5b505afa15801561084c573d6000803e3d6000fd5b505050506040513d601f19601f820116820180604052508101906108709190612ebf565b9050336001600160a01b0382161461089a5760405162461bcd60e51b8152600401610438906131fc565b8415610990576040516370a0823160e01b815285906001600160a01b037f000000000000000000000000000000000000000000000000000000000000000016906370a08231906108ee9030906004016130f1565b60206040518083038186803b15801561090657600080fd5b505afa15801561091a573d6000803e3d6000fd5b505050506040513d601f19601f8201168201806040525081019061093e9190612fb6565b101561095c5760405162461bcd60e51b815260040161043890613166565b6109906001600160a01b037f0000000000000000000000000000000000000000000000000000000000000000163387611154565b8315610a86576040516370a0823160e01b815284906001600160a01b037f000000000000000000000000000000000000000000000000000000000000000016906370a08231906109e49030906004016130f1565b60206040518083038186803b1580156109fc57600080fd5b505afa158015610a10573d6000803e3d6000fd5b505050506040513d601f19601f82011682018060405250810190610a349190612fb6565b1015610a525760405162461bcd60e51b815260040161043890613233565b610a866001600160a01b037f0000000000000000000000000000000000000000000000000000000000000000163386611154565b5050505050565b6002805460035490916001600160801b03821691600160801b8104820b91600160981b8204900b90600160b01b900460ff1685565b7f000000000000000000000000000000000000000000000000000000000000000081565b610aee61103b565b6001600160a01b0316610aff6106ce565b6001600160a01b031614610b48576040805162461bcd60e51b81526020600482018190526024820152600080516020613693833981519152604482015290519081900360640190fd5b6001600160a01b038116610b8d5760405162461bcd60e51b81526004018080602001828103825260268152602001806136266026913960400191505060405180910390fd5b600080546040516001600160a01b03808516939216917f8be0079c531659141344cd1fd0a4f28419497f9722a3daafe3b4186f6b6457e091a3600080546001600160a01b0319166001600160a01b0392909216919091179055565b604051630b4c774160e11b81526000906001600160a01b037f00000000000000000000000000000000000000000000000000000000000000001690631698ee8290610c9b907f0000000000000000000000000000000000000000000000000000000000000000907f0000000000000000000000000000000000000000000000000000000000000000907f000000000000000000000000000000000000000000000000000000000000000090600401613105565b60206040518083038186803b158015610cb357600080fd5b505afa158015610cc7573d6000803e3d6000fd5b505050506040513d601f19601f82011682018060405250810190610ceb9190612ebf565b905090565b60008060007f00000000000000000000000000000000000000000000000000000000000000006001600160a01b03166370a08231306040518263ffffffff1660e01b8152600401610d4191906130f1565b60206040518083038186803b158015610d5957600080fd5b505afa158015610d6d573d6000803e3d6000fd5b505050506040513d601f19601f82011682018060405250810190610d919190612fb6565b6040516370a0823160e01b81529093506001600160a01b037f000000000000000000000000000000000000000000000000000000000000000016906370a0823190610de09030906004016130f1565b60206040518083038186803b158015610df857600080fd5b505afa158015610e0c573d6000803e3d6000fd5b505050506040513d601f19601f82011682018060405250810190610e309190612fb6565b91507f00000000000000000000000000000000000000000000000000000000000000006001600160a01b0316610e67576000610f03565b6040516370a0823160e01b81526001600160a01b037f000000000000000000000000000000000000000000000000000000000000000016906370a0823190610eb39030906004016130f1565b60206040518083038186803b158015610ecb57600080fd5b505afa158015610edf573d6000803e3d6000fd5b505050506040513d601f19601f82011682018060405250810190610f039190612fb6565b9050909192565b801580610f90575060408051636eb1769f60e11b81523060048201526001600160a01b03848116602483015291519185169163dd62ed3e91604480820192602092909190829003018186803b158015610f6257600080fd5b505afa158015610f76573d6000803e3d6000fd5b505050506040513d6020811015610f8c57600080fd5b5051155b610fcb5760405162461bcd60e51b81526004018080602001828103825260368152602001806136dd6036913960400191505060405180910390fd5b604080516001600160a01b038416602482015260448082018490528251808303909101815260649091019091526020810180516001600160e01b031663095ea7b360e01b17905261101d9084906111a2565b505050565b60606110318484600085611253565b90505b9392505050565b3390565b60008060008060008060006110526113ae565b965091508590506110628261155c565b965061106d88611700565b94506110788561191b565b9094509250505091939590929450565b600354600090600160b01b900460ff1615806110b65750600354600284810b600160801b909204810b900b14155b806110d35750600354600283810b600160981b909204810b900b14155b156110ea576110e28383611b7b565b5060016110ee565b5060005b92915050565b6003546040517f5422e969a24d0b1e269860d579e64358e9de3df58e771549e1f5310c2ee2e56291611146914291889188918891600160801b8204600290810b92600160981b9004900b9089906135c8565b60405180910390a150505050565b604080516001600160a01b038416602482015260448082018490528251808303909101815260649091019091526020810180516001600160e01b031663a9059cbb60e01b17905261101d9084905b60006111f7826040518060400160405280602081526020017f5361666545524332303a206c6f772d6c6576656c2063616c6c206661696c6564815250856001600160a01b03166110229092919063ffffffff16565b80519091501561101d5780806020019051602081101561121657600080fd5b505161101d5760405162461bcd60e51b815260040180806020018281038252602a8152602001806136b3602a913960400191505060405180910390fd5b6060824710156112945760405162461bcd60e51b815260040180806020018281038252602681526020018061364c6026913960400191505060405180910390fd5b61129d85611d3e565b6112ee576040805162461bcd60e51b815260206004820152601d60248201527f416464726573733a2063616c6c20746f206e6f6e2d636f6e7472616374000000604482015290519081900360640190fd5b600080866001600160a01b031685876040518082805190602001908083835b6020831061132c5780518252601f19909201916020918201910161130d565b6001836020036101000a03801982511681845116808217855250505050505090500191505060006040518083038185875af1925050503d806000811461138e576040519150601f19603f3d011682016040523d82523d6000602084013e611393565b606091505b50915091506113a3828286611d44565b979650505050505050565b60008060007f00000000000000000000000000000000000000000000000000000000000000006001600160a01b0316631698ee827f00000000000000000000000000000000000000000000000000000000000000007f00000000000000000000000000000000000000000000000000000000000000007f00000000000000000000000000000000000000000000000000000000000000006040518463ffffffff1660e01b815260040161146393929190613105565b60206040518083038186803b15801561147b57600080fd5b505afa15801561148f573d6000803e3d6000fd5b505050506040513d601f19601f820116820180604052508101906114b39190612ebf565b90506001600160a01b0381166114db5760405162461bcd60e51b8152600401610438906132ee565b806001600160a01b0316633850c7bd6040518163ffffffff1660e01b815260040160e06040518083038186803b15801561151457600080fd5b505afa158015611528573d6000803e3d6000fd5b505050506040513d601f19601f8201168201806040525081019061154c9190612edb565b5094989397509295505050505050565b6000806115726001600160a01b03841680611de8565b905080600160c01b60ff7f000000000000000000000000000000000000000000000000000000000000000081167f0000000000000000000000000000000000000000000000000000000000000000909116111561162d5761162661161c60ff7f00000000000000000000000000000000000000000000000000000000000000008116907f000000000000000000000000000000000000000000000000000000000000000016611e41565b8390600a0a611de8565b91506116db565b7f000000000000000000000000000000000000000000000000000000000000000060ff167f000000000000000000000000000000000000000000000000000000000000000060ff1611156116db576116d86116ce60ff7f00000000000000000000000000000000000000000000000000000000000000008116907f000000000000000000000000000000000000000000000000000000000000000016611e41565b8290600a0a611de8565b90505b6116f7816116f184670de0b6b3a7640000611de8565b90611e9e565b95945050505050565b60008082116117215760405162461bcd60e51b81526004016104389061313b565b81670de0b6b3a764000060ff7f000000000000000000000000000000000000000000000000000000000000000081167f000000000000000000000000000000000000000000000000000000000000000090911611156117d4576117cd61161c60ff7f00000000000000000000000000000000000000000000000000000000000000008116907f000000000000000000000000000000000000000000000000000000000000000016611e41565b9150611878565b7f000000000000000000000000000000000000000000000000000000000000000060ff167f000000000000000000000000000000000000000000000000000000000000000060ff161115611878576118756116ce60ff7f00000000000000000000000000000000000000000000000000000000000000008116907f000000000000000000000000000000000000000000000000000000000000000016611e41565b90505b600061188c826116f185600160c01b611de8565b9050600061189982611f05565b90506401000276a36001600160a01b03821610156118c95760405162461bcd60e51b81526004016104389061337f565b73fffd8963efd1fc6a506488495d951d5263988d266001600160a01b03821611156119065760405162461bcd60e51b81526004016104389061319d565b61190f81611fe7565b9450505050505b919050565b60008060007f000000000000000000000000000000000000000000000000000000000000000060020b136119615760405162461bcd60e51b81526004016104389061331a565b60045460009060029062ffffff167f000000000000000000000000000000000000000000000000000000000000000002810b05905060008160020b136119c457507f00000000000000000000000000000000000000000000000000000000000000005b8084038482016119f4827f0000000000000000000000000000000000000000000000000000000000000000612306565b9450611a20817f0000000000000000000000000000000000000000000000000000000000000000612306565b93508360020b8560020b12611a55577f0000000000000000000000000000000000000000000000000000000000000000850193505b620d89e719600286900b12611a6a5784611a98565b611a98620d89e7197f0000000000000000000000000000000000000000000000000000000000000000612306565b9450620d89e8600285900b13611aae5783611adb565b611adb620d89e87f0000000000000000000000000000000000000000000000000000000000000000612306565b93508360020b8560020b12611b73577f000000000000000000000000000000000000000000000000000000000000000085019350620d89e8600285900b1315611b7357611b4b620d89e87f0000000000000000000000000000000000000000000000000000000000000000612306565b93507f0000000000000000000000000000000000000000000000000000000000000000840394505b505050915091565b600354600160b01b900460ff1615611b9557611b95612375565b6040516370a0823160e01b81526000906001600160a01b037f000000000000000000000000000000000000000000000000000000000000000016906370a0823190611be49030906004016130f1565b60206040518083038186803b158015611bfc57600080fd5b505afa158015611c10573d6000803e3d6000fd5b505050506040513d601f19601f82011682018060405250810190611c349190612fb6565b905060007f00000000000000000000000000000000000000000000000000000000000000006001600160a01b03166370a08231306040518263ffffffff1660e01b8152600401611c8491906130f1565b60206040518083038186803b158015611c9c57600080fd5b505afa158015611cb0573d6000803e3d6000fd5b505050506040513d601f19601f82011682018060405250810190611cd49190612fb6565b90506000821180611ce55750600081115b15611cfb57611cf684848484612419565b611d38565b6040805160a08101825260008082526020820181905291810182905260608101829052608001819052600255600380546001600160b81b03191690555b50505050565b3b151590565b60608315611d53575081611034565b825115611d635782518084602001fd5b8160405162461bcd60e51b81526004018080602001828103825283818151815260200191508051906020019080838360005b83811015611dad578181015183820152602001611d95565b50505050905090810190601f168015611dda5780820380516001836020036101000a031916815260200191505b509250505060405180910390fd5b600082611df7575060006110ee565b82820282848281611e0457fe5b04146110345760405162461bcd60e51b81526004018080602001828103825260218152602001806136726021913960400191505060405180910390fd5b600082821115611e98576040805162461bcd60e51b815260206004820152601e60248201527f536166654d6174683a207375627472616374696f6e206f766572666c6f770000604482015290519081900360640190fd5b50900390565b6000808211611ef4576040805162461bcd60e51b815260206004820152601a60248201527f536166654d6174683a206469766973696f6e206279207a65726f000000000000604482015290519081900360640190fd5b818381611efd57fe5b049392505050565b600081611f1457506000611916565b60006001611f2184612526565b6001911c1b905080611f31575060015b6000611f4c60026116f1611f458786611e9e565b85906125d1565b9050611f6760026116f1611f608785611e9e565b84906125d1565b9050611f7b60026116f1611f608785611e9e565b9050611f8f60026116f1611f608785611e9e565b9050611fa360026116f1611f608785611e9e565b9050611fb760026116f1611f608785611e9e565b9050611fc38482611e9e565b811115611fde57611fd5816001611e41565b92505050611916565b91506119169050565b60006401000276a36001600160a01b03831610801590612023575073fffd8963efd1fc6a506488495d951d5263988d266001600160a01b038316105b612058576040805162461bcd60e51b81526020600482015260016024820152602960f91b604482015290519081900360640190fd5b640100000000600160c01b03602083901b166001600160801b03811160071b81811c67ffffffffffffffff811160061b90811c63ffffffff811160051b90811c61ffff811160041b90811c60ff8111600390811b91821c600f811160021b90811c918211600190811b92831c979088119617909417909217179091171717608081106120ec57607f810383901c91506120f6565b80607f0383901b91505b908002607f81811c60ff83811c9190911c800280831c81831c1c800280841c81841c1c800280851c81851c1c800280861c81861c1c800280871c81871c1c800280881c81881c1c800280891c81891c1c8002808a1c818a1c1c8002808b1c818b1c1c8002808c1c818c1c1c8002808d1c818d1c1c8002808e1c9c81901c9c909c1c80029c8d901c9e9d607f198f0160401b60c09190911c678000000000000000161760c19b909b1c674000000000000000169a909a1760c29990991c672000000000000000169890981760c39790971c671000000000000000169690961760c49590951c670800000000000000169490941760c59390931c670400000000000000169290921760c69190911c670200000000000000161760c79190911c670100000000000000161760c89190911c6680000000000000161760c99190911c6640000000000000161760ca9190911c6620000000000000161760cb9190911c6610000000000000161760cc9190911c6608000000000000161760cd9190911c66040000000000001617693627a301d71055774c8581026f028f6481ab7f045a5af012a19d003aa9198101608090811d906fdb2df09e81959a81455e260799a0632f8301901d600281810b9083900b146122f757886001600160a01b03166122db8261262b565b6001600160a01b031611156122f057816122f2565b805b6122f9565b815b9998505050505050505050565b6000808260020b1361232a5760405162461bcd60e51b8152600401610438906133a6565b60008260020b8460020b8161233b57fe5b05905060008460020b12801561236257508260020b8460020b8161235b57fe5b0760020b15155b1561236c57600019015b90910292915050565b600354600160b01b900460ff16801561238f575060025415155b6123ab5760405162461bcd60e51b81526004016104389061326a565b60028054600380546040805160a0810182526000808252602082018190529181018290526060810182905260800181905284556001600160b81b0319811690915590916001600160801b03821691600160801b8104820b91600160981b909104900b611d388484848461295d565b600354600160b01b900460ff16156124435760405162461bcd60e51b8152600401610438906131c5565b60006040518061016001604052807f00000000000000000000000000000000000000000000000000000000000000006001600160a01b031681526020017f00000000000000000000000000000000000000000000000000000000000000006001600160a01b031681526020017f000000000000000000000000000000000000000000000000000000000000000062ffffff1681526020018660020b81526020018560020b81526020018481526020018381526020016000815260200160008152602001306001600160a01b03168152602001428152509050610a86818686612bc0565b6000818061253357600091505b6001600160801b0381111561254a576080918201911c5b67ffffffffffffffff811115612562576040918201911c5b63ffffffff811115612576576020918201911c5b61ffff811115612588576010918201911c5b60ff811115612599576008918201911c5b600f8111156125aa576004918201911c5b60038111156125bb576002918201911c5b60018111156125cb576001820191505b50919050565b600082820183811015611034576040805162461bcd60e51b815260206004820152601b60248201527f536166654d6174683a206164646974696f6e206f766572666c6f770000000000604482015290519081900360640190fd5b60008060008360020b12612642578260020b61264a565b8260020b6000035b9050620d89e8811115612688576040805162461bcd60e51b81526020600482015260016024820152601560fa1b604482015290519081900360640190fd5b60006001821661269c57600160801b6126ae565b6ffffcb933bd6fad37aa2d162d1a5940015b70ffffffffffffffffffffffffffffffffff16905060028216156126e2576ffff97272373d413259a46990580e213a0260801c5b6004821615612701576ffff2e50f5f656932ef12357cf3c7fdcc0260801c5b6008821615612720576fffe5caca7e10e4e61c3624eaa0941cd00260801c5b601082161561273f576fffcb9843d60f6159c9db58835c9266440260801c5b602082161561275e576fff973b41fa98c081472e6896dfb254c00260801c5b604082161561277d576fff2ea16466c96a3843ec78b326b528610260801c5b608082161561279c576ffe5dee046a99a2a811c461f1969c30530260801c5b6101008216156127bc576ffcbe86c7900a88aedcffc83b479aa3a40260801c5b6102008216156127dc576ff987a7253ac413176f2b074cf7815e540260801c5b6104008216156127fc576ff3392b0822b70005940c7a398e4b70f30260801c5b61080082161561281c576fe7159475a2c29b7443b29c7fa6e889d90260801c5b61100082161561283c576fd097f3bdfd2022b8845ad8f792aa58250260801c5b61200082161561285c576fa9f746462d870fdf8a65dc1f90e061e50260801c5b61400082161561287c576f70d869a156d2a1b890bb3df62baf32f70260801c5b61800082161561289c576f31be135f97d08fd981231505542fcfa60260801c5b620100008216156128bd576f09aa508b5b7a84e1c677de54f3e99bc90260801c5b620200008216156128dd576e5d6af8dedb81196699c329225ee6040260801c5b620400008216156128fc576d2216e584f5fa1ea926041bedfe980260801c5b62080000821615612919576b048a170391f7dc42444e8fa20260801c5b60008460020b131561293457806000198161293057fe5b0490505b64010000000081061561294857600161294b565b60005b60ff16602082901c0192505050919050565b60008080806001600160801b03871615612a48576040805160a0810182528981526001600160801b0389166020820152600081830181905260608201524260808201529051630624e65f60e11b81526001600160a01b037f00000000000000000000000000000000000000000000000000000000000000001691630c49ccbe916129ea9190600401613476565b6040805180830381600087803b158015612a0357600080fd5b505af1925050508015612a33575060408051601f3d908101601f19168201909252612a3091810190613016565b60015b612a3c57612a43565b5050600193505b612a4d565b600193505b8315612b9857604080516080810182528981523060208201526001600160801b038183018190526060820152905163fc6f786560e01b81526001600160a01b037f0000000000000000000000000000000000000000000000000000000000000000169163fc6f786591612ac39190600401613433565b6040805180830381600087803b158015612adc57600080fd5b505af1925050508015612b0c575060408051601f3d908101601f19168201909252612b0991810190613016565b60015b612b1557612b1f565b6001945090925090505b604051630852cd8d60e31b81526001600160a01b037f000000000000000000000000000000000000000000000000000000000000000016906342966c6890612b6b908b90600401613577565b600060405180830381600087803b158015612b8557600080fd5b505af1925050508015612b96575060015b505b6000848015612ba45750835b9050612bb58988888b878787612e0c565b505050505050505050565b60008060008060007f00000000000000000000000000000000000000000000000000000000000000006001600160a01b03166388316456896040518263ffffffff1660e01b8152600401612c1491906134b9565b608060405180830381600087803b158015612c2e57600080fd5b505af1925050508015612c5e575060408051601f3d908101601f19168201909252612c5b91810190612fce565b60015b612c6757612db1565b8398508297508196508095506000886001600160801b03161115612d2d576040805160a0810182528a81526001600160801b038a166020820181905260028e810b9383018490528d810b60608401819052600160809094018490528d825560038054600160b01b6fffffffffffffffffffffffffffffffff1990911690941762ffffff60801b1916600160801b96840b62ffffff908116979097021762ffffff60981b1916600160981b9290930b95909516021760ff60b01b1916179091559450612dac565b8815612dac57604051630852cd8d60e31b81526001600160a01b037f000000000000000000000000000000000000000000000000000000000000000016906342966c6890612d7f908c90600401613577565b600060405180830381600087803b158015612d9957600080fd5b505af1925050508015612daa575060015b505b505050505b612dc085888887878787612e57565b80612e02576040805160a08101825260008082526020820181905291810182905260608101829052608001819052600255600380546001600160b81b03191690555b5050505050505050565b867fdee9c9ac7e4f2757956dfcf228dc427442ec0a77c0020754a5d9c3b2583d9a14878787878787604051612e4696959493929190613296565b60405180910390a250505050505050565b867fdee9c9ac7e4f2757956dfcf228dc427442ec0a77c0020754a5d9c3b2583d9a14878787878787604051612e46969594939291906133dd565b805161ffff8116811461191657600080fd5b600060208284031215612eb4578081fd5b81356110348161360d565b600060208284031215612ed0578081fd5b81516110348161360d565b600080600080600080600060e0888a031215612ef5578283fd5b8751612f008161360d565b8097505060208801518060020b8114612f17578384fd5b9550612f2560408901612e91565b9450612f3360608901612e91565b9350612f4160808901612e91565b925060a088015160ff81168114612f56578283fd5b60c08901519092508015158114612f6b578182fd5b8091505092959891949750929550565b600060208284031215612f8c578081fd5b813562ffffff81168114611034578182fd5b600060208284031215612faf578081fd5b5035919050565b600060208284031215612fc7578081fd5b5051919050565b60008060008060808587031215612fe3578384fd5b8451935060208501516001600160801b0381168114613000578384fd5b6040860151606090960151949790965092505050565b60008060408385031215613028578182fd5b505080516020909101519092909150565b6000806000806060858703121561304e578384fd5b8435935060208501359250604085013567ffffffffffffffff80821115613073578384fd5b818701915087601f830112613086578384fd5b813581811115613094578485fd5b8860208285010111156130a5578485fd5b95989497505060200194505050565b6001600160a01b03169052565b60020b9052565b62ffffff169052565b733930b733b2abb4b23a3426bab63a34b83634b2b960611b815260140190565b6001600160a01b0391909116815260200190565b6001600160a01b03938416815291909216602082015262ffffff909116604082015260600190565b60029190910b815260200190565b60208082526011908201527005072696365206d757374206265203e203607c1b604082015260600190565b6020808252601c908201527f496e73756666696369656e7420543020666f722063616c6c6261636b00000000604082015260600190565b6020808252600e908201526d0a0e4d2c6ca40e8dede40d0d2ced60931b604082015260600190565b60208082526017908201527f506f736974696f6e20616c726561647920616374697665000000000000000000604082015260600190565b60208082526017908201527f43616c6c6261636b2073656e64657220696e76616c6964000000000000000000604082015260600190565b6020808252601c908201527f496e73756666696369656e7420543120666f722063616c6c6261636b00000000604082015260600190565b60208082526012908201527127379030b1ba34bb32903837b9b4ba34b7b760711b604082015260600190565b60e08082526006908201526552454d4f564560d01b610100820152600296870b60208201529490950b60408501526001600160801b03929092166060840152608083015260a082015290151560c08201526101200190565b602080825260129082015271141bdbdb08191bd95cdb89dd08195e1a5cdd60721b604082015260600190565b602080825260149082015273496e76616c6964207469636b2073706163696e6760601b604082015260600190565b6020808252601b908201527f4d756c7469706c696572206d75737420626520706f7369746976650000000000604082015260600190565b6020808252600d908201526c507269636520746f6f206c6f7760981b604082015260600190565b6020808252601d908201527f5469636b2073706163696e67206d75737420626520706f736974697665000000604082015260600190565b60e0808252600490820152631352539560e21b610100820152600296870b60208201529490950b60408501526001600160801b03929092166060840152608083015260a082015290151560c08201526101200190565b815181526020808301516001600160a01b0316908201526040808301516001600160801b0390811691830191909152606092830151169181019190915260800190565b600060a082019050825182526001600160801b03602084015116602083015260408301516040830152606083015160608301526080830151608083015292915050565b6000610160820190506134cd8284516130b4565b60208301516134df60208401826130b4565b5060408301516134f260408401826130c8565b50606083015161350560608401826130c1565b50608083015161351860808401826130c1565b5060a083015160a083015260c083015160c083015260e083015160e083015261010080840151818401525061012080840151613556828501826130b4565b505061014092830151919092015290565b62ffffff91909116815260200190565b90815260200190565b9485526001600160801b03939093166020850152600291820b6040850152900b60608301521515608082015260a00190565b9283526020830191909152604082015260600190565b96875260208701959095526040860193909352600291820b6060860152810b60808501520b60a0830152151560c082015260e00190565b60ff91909116815260200190565b6001600160a01b038116811461362257600080fd5b5056fe4f776e61626c653a206e6577206f776e657220697320746865207a65726f2061646472657373416464726573733a20696e73756666696369656e742062616c616e636520666f722063616c6c536166654d6174683a206d756c7469706c69636174696f6e206f766572666c6f774f776e61626c653a2063616c6c6572206973206e6f7420746865206f776e65725361666545524332303a204552433230206f7065726174696f6e20646964206e6f7420737563636565645361666545524332303a20617070726f76652066726f6d206e6f6e2d7a65726f20746f206e6f6e2d7a65726f20616c6c6f77616e6365a2646970667358221220a69babaef561d668b23c23020be2f812114afea10d26e2ced8172b0997383a7964736f6c634300070600334f776e61626c653a206e6577206f776e657220697320746865207a65726f2061646472657373416464726573733a20696e73756666696369656e742062616c616e636520666f722063616c6c8be0079c531659141344cd1fd0a4f28419497f9722a3daafe3b4186f6b6457e05361666545524332303a204552433230206f7065726174696f6e20646964206e6f7420737563636565645361666545524332303a20617070726f76652066726f6d206e6f6e2d7a65726f20746f206e6f6e2d7a65726f20616c6c6f77616e6365",
  "linkReferences": {},
  "deployedLinkReferences": {}
}