{
  "_format": "hh-sol-artifact-1",
  "contractName": "PredictiveLiquidityManager",
  "sourceName": "contracts/PredictiveLiquidityManager.sol",
  "abi": [
    {
      "inputs": [
        {
          "internalType": "address",
          "name": "_factory",
          "type": "address"
        },
        {
          "internalType": "address",
          "name": "_positionManager",
          "type": "address"
        },
        {
          "internalType": "address",
          "name": "_token0",
          "type": "address"
        },
        {
          "internalType": "address",
          "name": "_token1",
          "type": "address"
        },
        {
          "internalType": "uint24",
          "name": "_fee",
          "type": "uint24"
        },
        {
          "internalType": "address",
          "name": "_weth9",
          "type": "address"
        },
        {
          "internalType": "address",
          "name": "_initialOwner",
          "type": "address"
        }
      ],
      "stateMutability": "nonpayable",
      "type": "constructor"
    },
    {
      "anonymous": false,
      "inputs": [
        {
          "indexed": false,
          "internalType": "string",
          "name": "operationType",
          "type": "string"
        },
        {
          "indexed": true,
          "internalType": "uint256",
          "name": "tokenId",
          "type": "uint256"
        },
        {
          "indexed": false,
          "internalType": "int24",
          "name": "tickLower",
          "type": "int24"
        },
        {
          "indexed": false,
          "internalType": "int24",
          "name": "tickUpper",
          "type": "int24"
        },
        {
          "indexed": false,
          "internalType": "uint128",
          "name": "liquidity",
          "type": "uint128"
        },
        {
          "indexed": false,
          "internalType": "uint256",
          "name": "amount0",
          "type": "uint256"
        },
        {
          "indexed": false,
          "internalType": "uint256",
          "name": "amount1",
          "type": "uint256"
        },
        {
          "indexed": false,
          "internalType": "bool",
          "name": "success",
          "type": "bool"
        }
      ],
      "name": "LiquidityOperation",
      "type": "event"
    },
    {
      "anonymous": false,
      "inputs": [
        {
          "indexed": true,
          "internalType": "address",
          "name": "previousOwner",
          "type": "address"
        },
        {
          "indexed": true,
          "internalType": "address",
          "name": "newOwner",
          "type": "address"
        }
      ],
      "name": "OwnershipTransferred",
      "type": "event"
    },
    {
      "anonymous": false,
      "inputs": [
        {
          "indexed": false,
          "internalType": "uint256",
          "name": "timestamp",
          "type": "uint256"
        },
        {
          "indexed": false,
          "internalType": "uint256",
          "name": "actualPrice",
          "type": "uint256"
        },
        {
          "indexed": false,
          "internalType": "uint256",
          "name": "predictedPrice",
          "type": "uint256"
        },
        {
          "indexed": false,
          "internalType": "int24",
          "name": "predictedTick",
          "type": "int24"
        },
        {
          "indexed": false,
          "internalType": "int24",
          "name": "finalTickLower",
          "type": "int24"
        },
        {
          "indexed": false,
          "internalType": "int24",
          "name": "finalTickUpper",
          "type": "int24"
        },
        {
          "indexed": false,
          "internalType": "bool",
          "name": "adjusted",
          "type": "bool"
        }
      ],
      "name": "PredictionAdjustmentMetrics",
      "type": "event"
    },
    {
      "anonymous": false,
      "inputs": [
        {
          "indexed": true,
          "internalType": "string",
          "name": "paramName",
          "type": "string"
        },
        {
          "indexed": false,
          "internalType": "uint256",
          "name": "newValue",
          "type": "uint256"
        }
      ],
      "name": "StrategyParamUpdated",
      "type": "event"
    },
    {
      "inputs": [],
      "name": "WETH9",
      "outputs": [
        {
          "internalType": "address",
          "name": "",
          "type": "address"
        }
      ],
      "stateMutability": "view",
      "type": "function"
    },
    {
      "inputs": [],
      "name": "currentPosition",
      "outputs": [
        {
          "internalType": "uint256",
          "name": "tokenId",
          "type": "uint256"
        },
        {
          "internalType": "uint128",
          "name": "liquidity",
          "type": "uint128"
        },
        {
          "internalType": "int24",
          "name": "tickLower",
          "type": "int24"
        },
        {
          "internalType": "int24",
          "name": "tickUpper",
          "type": "int24"
        },
        {
          "internalType": "bool",
          "name": "active",
          "type": "bool"
        }
      ],
      "stateMutability": "view",
      "type": "function"
    },
    {
      "inputs": [],
      "name": "factory",
      "outputs": [
        {
          "internalType": "contract IUniswapV3Factory",
          "name": "",
          "type": "address"
        }
      ],
      "stateMutability": "view",
      "type": "function"
    },
    {
      "inputs": [],
      "name": "fee",
      "outputs": [
        {
          "internalType": "uint24",
          "name": "",
          "type": "uint24"
        }
      ],
      "stateMutability": "view",
      "type": "function"
    },
    {
      "inputs": [],
      "name": "owner",
      "outputs": [
        {
          "internalType": "address",
          "name": "",
          "type": "address"
        }
      ],
      "stateMutability": "view",
      "type": "function"
    },
    {
      "inputs": [],
      "name": "positionManager",
      "outputs": [
        {
          "internalType": "contract INonfungiblePositionManager",
          "name": "",
          "type": "address"
        }
      ],
      "stateMutability": "view",
      "type": "function"
    },
    {
      "inputs": [],
      "name": "rangeWidthMultiplier",
      "outputs": [
        {
          "internalType": "uint24",
          "name": "",
          "type": "uint24"
        }
      ],
      "stateMutability": "view",
      "type": "function"
    },
    {
      "inputs": [],
      "name": "renounceOwnership",
      "outputs": [],
      "stateMutability": "nonpayable",
      "type": "function"
    },
    {
      "inputs": [],
      "name": "tickSpacing",
      "outputs": [
        {
          "internalType": "int24",
          "name": "",
          "type": "int24"
        }
      ],
      "stateMutability": "view",
      "type": "function"
    },
    {
      "inputs": [],
      "name": "token0",
      "outputs": [
        {
          "internalType": "address",
          "name": "",
          "type": "address"
        }
      ],
      "stateMutability": "view",
      "type": "function"
    },
    {
      "inputs": [],
      "name": "token0Decimals",
      "outputs": [
        {
          "internalType": "uint8",
          "name": "",
          "type": "uint8"
        }
      ],
      "stateMutability": "view",
      "type": "function"
    },
    {
      "inputs": [],
      "name": "token1",
      "outputs": [
        {
          "internalType": "address",
          "name": "",
          "type": "address"
        }
      ],
      "stateMutability": "view",
      "type": "function"
    },
    {
      "inputs": [],
      "name": "token1Decimals",
      "outputs": [
        {
          "internalType": "uint8",
          "name": "",
          "type": "uint8"
        }
      ],
      "stateMutability": "view",
      "type": "function"
    },
    {
      "inputs": [
        {
          "internalType": "address",
          "name": "newOwner",
          "type": "address"
        }
      ],
      "name": "transferOwnership",
      "outputs": [],
      "stateMutability": "nonpayable",
      "type": "function"
    },
    {
      "inputs": [
        {
          "internalType": "uint256",
          "name": "amount0Owed",
          "type": "uint256"
        },
        {
          "internalType": "uint256",
          "name": "amount1Owed",
          "type": "uint256"
        },
        {
          "internalType": "bytes",
          "name": "data",
          "type": "bytes"
        }
      ],
      "name": "uniswapV3MintCallback",
      "outputs": [],
      "stateMutability": "nonpayable",
      "type": "function"
    },
    {
      "inputs": [
        {
          "internalType": "uint256",
          "name": "predictedPriceDecimal",
          "type": "uint256"
        }
      ],
      "name": "updatePredictionAndAdjust",
      "outputs": [],
      "stateMutability": "nonpayable",
      "type": "function"
    }
  ],
  "bytecode": "0x6101a06040526004805462ffffff1916811790553480156200002057600080fd5b5060405162003c5938038062003c59833981016040819052620000439162000932565b60006200004f620003ca565b600080546001600160a01b0319166001600160a01b03831690811782556040519293509160008051602062003bd9833981519152908290a350600180556001600160601b0319606088811b821660805287811b821660a05286811b821660c05285811b821660e0526001600160e81b031960e886901b166101405283901b16610180526040805163313ce56760e01b815290516001600160a01b0387169163313ce567916004808301926020929190829003018186803b1580156200011357600080fd5b505afa92505050801562000146575060408051601f3d908101601f191682019092526200014391810190620009f1565b60015b6200016e5760405162461bcd60e51b8152600401620001659062000ab5565b60405180910390fd5b6001600160f81b031960f89190911b1661010052836001600160a01b031663313ce5676040518163ffffffff1660e01b815260040160206040518083038186803b158015620001bc57600080fd5b505afa925050508015620001ef575060408051601f3d908101601f19168201909252620001ec91810190620009f1565b60015b6200020e5760405162461bcd60e51b8152600401620001659062000a3c565b60f81b6001600160f81b03191661012052604051630b4c774160e11b81526000906001600160a01b03891690631698ee8290620002549089908990899060040162000a14565b60206040518083038186803b1580156200026d57600080fd5b505afa15801562000282573d6000803e3d6000fd5b505050506040513d601f19601f82011682018060405250810190620002a8919062000915565b90506001600160a01b038116620002d35760405162461bcd60e51b8152600401620001659062000a7e565b806001600160a01b031663d0c93a7c6040518163ffffffff1660e01b815260040160206040518083038186803b1580156200030d57600080fd5b505afa15801562000322573d6000803e3d6000fd5b505050506040513d601f19601f82011682018060405250810190620003489190620009ce565b600290810b900b60e81b610160526200037a6001600160a01b03871688600019620003ce602090811b6200073b17901c565b620003a187600019876001600160a01b0316620003ce60201b6200073b179092919060201c565b6001600160a01b03821615620003bc57620003bc82620004f2565b505050505050505062000af7565b3390565b80158062000458575060408051636eb1769f60e11b81523060048201526001600160a01b03848116602483015291519185169163dd62ed3e91604480820192602092909190829003018186803b1580156200042857600080fd5b505afa1580156200043d573d6000803e3d6000fd5b505050506040513d60208110156200045457600080fd5b5051155b620004955760405162461bcd60e51b815260040180806020018281038252603681526020018062003c236036913960400191505060405180910390fd5b604080516001600160a01b038416602482015260448082018490528251808303909101815260649091019091526020810180516001600160e01b0390811663095ea7b360e01b17909152620004ed918591620005fc16565b505050565b620004fc620003ca565b6001600160a01b03166200050f620006b8565b6001600160a01b0316146200056b576040805162461bcd60e51b815260206004820181905260248201527f4f776e61626c653a2063616c6c6572206973206e6f7420746865206f776e6572604482015290519081900360640190fd5b6001600160a01b038116620005b25760405162461bcd60e51b815260040180806020018281038252602681526020018062003b8d6026913960400191505060405180910390fd5b600080546040516001600160a01b038085169392169160008051602062003bd983398151915291a3600080546001600160a01b0319166001600160a01b0392909216919091179055565b600062000658826040518060400160405280602081526020017f5361666545524332303a206c6f772d6c6576656c2063616c6c206661696c6564815250856001600160a01b0316620006c760201b62000853179092919060201c565b805190915015620004ed578080602001905160208110156200067957600080fd5b5051620004ed5760405162461bcd60e51b815260040180806020018281038252602a81526020018062003bf9602a913960400191505060405180910390fd5b6000546001600160a01b031690565b6060620006d88484600085620006e2565b90505b9392505050565b606082471015620007255760405162461bcd60e51b815260040180806020018281038252602681526020018062003bb36026913960400191505060405180910390fd5b620007308562000849565b62000782576040805162461bcd60e51b815260206004820152601d60248201527f416464726573733a2063616c6c20746f206e6f6e2d636f6e7472616374000000604482015290519081900360640190fd5b600080866001600160a01b031685876040518082805190602001908083835b60208310620007c25780518252601f199092019160209182019101620007a1565b6001836020036101000a03801982511681845116808217855250505050505090500191505060006040518083038185875af1925050503d806000811462000826576040519150601f19603f3d011682016040523d82523d6000602084013e6200082b565b606091505b5090925090506200083e82828662000853565b979650505050505050565b803b15155b919050565b6060831562000864575081620006db565b825115620008755782518084602001fd5b8160405162461bcd60e51b81526004018080602001828103825283818151815260200191508051906020019080838360005b83811015620008c1578181015183820152602001620008a7565b50505050905090810190601f168015620008ef5780820380516001836020036101000a031916815260200191505b509250505060405180910390fd5b80516001600160a01b03811681146200084e57600080fd5b60006020828403121562000927578081fd5b620006db82620008fd565b600080600080600080600060e0888a0312156200094d578283fd5b6200095888620008fd565b96506200096860208901620008fd565b95506200097860408901620008fd565b94506200098860608901620008fd565b9350608088015162ffffff81168114620009a0578384fd5b9250620009b060a08901620008fd565b9150620009c060c08901620008fd565b905092959891949750929550565b600060208284031215620009e0578081fd5b81518060020b8114620006db578182fd5b60006020828403121562000a03578081fd5b815160ff81168114620006db578182fd5b6001600160a01b03938416815291909216602082015262ffffff909116604082015260600190565b60208082526022908201527f546f6b656e3120646f6573206e6f7420737570706f727420646563696d616c73604082015261282960f01b606082015260800190565b60208082526013908201527f506f6f6c20646f6573206e6f7420657869737400000000000000000000000000604082015260600190565b60208082526022908201527f546f6b656e3020646f6573206e6f7420737570706f727420646563696d616c73604082015261282960f01b606082015260800190565b60805160601c60a05160601c60c05160601c60e05160601c6101005160f81c6101205160f81c6101405160e81c6101605160e81c6101805160601c612f1e62000c6f600039806103605250806104bd5280611137528061118652806111b952806111db52806111fc528061123c5280611268528061129452806112bc52806112f45280611327528061136a52806113ad52806113e2528061141d52806114455250806106055280610c425280611da65250806102035280610db25280610dfd5280610e355280610e855280610f595280610f8b5280610fe752806110615250806104755280610d8f5280610ddc5280610e595280610ea65280610f365280610faf528061100b528061103d5250806104e152806105a15280610c2152806115305280611d7752508061022752806105675280610c0052806114a55280611d48525080610442528061050e52806122b2528061238b528061243252806124c652806126465250806104995280610bd15250612f1e6000f3fe608060405234801561001057600080fd5b50600436106101005760003560e01c8063b31ac6e211610097578063d348799711610066578063d3487997146101af578063d534d636146101c2578063ddca3f43146101db578063f2fde38b146101e357610100565b8063b31ac6e214610182578063c45a01551461018a578063d0c93a7c14610192578063d21220a7146101a757610100565b80634aa4a4fc116100d35780634aa4a4fc14610162578063715018a61461016a578063791b98bc146101725780638da5cb5b1461017a57610100565b806301d31e7c146101055780630b77884d146101235780630dfe16811461013857806341675b051461014d575b600080fd5b61010d6101f6565b60405161011a9190612d73565b60405180910390f35b61012b610201565b60405161011a9190612df5565b610140610225565b60405161011a91906129aa565b61016061015b366004612877565b610249565b005b61014061035e565b610160610382565b610140610440565b610140610464565b61012b610473565b610140610497565b61019a6104bb565b60405161011a91906129e6565b6101406104df565b6101606101bd366004612912565b610503565b6101ca6105ce565b60405161011a959493929190612d8c565b61010d610603565b6101606101f136600461279f565b610627565b60045462ffffff1681565b7f000000000000000000000000000000000000000000000000000000000000000081565b7f000000000000000000000000000000000000000000000000000000000000000081565b600260015414156102a1576040805162461bcd60e51b815260206004820152601f60248201527f5265656e7472616e637947756172643a207265656e7472616e742063616c6c00604482015290519081900360640190fd5b60026001556102ae61086c565b6001600160a01b03166102bf610464565b6001600160a01b03161461031a576040805162461bcd60e51b815260206004820181905260248201527f4f776e61626c653a2063616c6c6572206973206e6f7420746865206f776e6572604482015290519081900360640190fd5b600080600080600061032b86610870565b94509450945094509450600061034183836108b9565b9050610351868886868686610925565b5050600180555050505050565b7f000000000000000000000000000000000000000000000000000000000000000081565b61038a61086c565b6001600160a01b031661039b610464565b6001600160a01b0316146103f6576040805162461bcd60e51b815260206004820181905260248201527f4f776e61626c653a2063616c6c6572206973206e6f7420746865206f776e6572604482015290519081900360640190fd5b600080546040516001600160a01b03909116907f8be0079c531659141344cd1fd0a4f28419497f9722a3daafe3b4186f6b6457e0908390a3600080546001600160a01b0319169055565b7f000000000000000000000000000000000000000000000000000000000000000081565b6000546001600160a01b031690565b7f000000000000000000000000000000000000000000000000000000000000000081565b7f000000000000000000000000000000000000000000000000000000000000000081565b7f000000000000000000000000000000000000000000000000000000000000000081565b7f000000000000000000000000000000000000000000000000000000000000000081565b336001600160a01b037f000000000000000000000000000000000000000000000000000000000000000016146105545760405162461bcd60e51b815260040161054b90612a47565b60405180910390fd5b831561058e5761058e6001600160a01b037f0000000000000000000000000000000000000000000000000000000000000000163386610970565b82156105c8576105c86001600160a01b037f0000000000000000000000000000000000000000000000000000000000000000163385610970565b50505050565b6002805460035490916001600160801b03821691600160801b8104820b91600160981b8204900b90600160b01b900460ff1685565b7f000000000000000000000000000000000000000000000000000000000000000081565b61062f61086c565b6001600160a01b0316610640610464565b6001600160a01b03161461069b576040805162461bcd60e51b815260206004820181905260248201527f4f776e61626c653a2063616c6c6572206973206e6f7420746865206f776e6572604482015290519081900360640190fd5b6001600160a01b0381166106e05760405162461bcd60e51b8152600401808060200182810382526026815260200180612e1c6026913960400191505060405180910390fd5b600080546040516001600160a01b03808516939216917f8be0079c531659141344cd1fd0a4f28419497f9722a3daafe3b4186f6b6457e091a3600080546001600160a01b0319166001600160a01b0392909216919091179055565b8015806107c1575060408051636eb1769f60e11b81523060048201526001600160a01b03848116602483015291519185169163dd62ed3e91604480820192602092909190829003018186803b15801561079357600080fd5b505afa1580156107a7573d6000803e3d6000fd5b505050506040513d60208110156107bd57600080fd5b5051155b6107fc5760405162461bcd60e51b8152600401808060200182810382526036815260200180612eb36036913960400191505060405180910390fd5b604080516001600160a01b038416602482015260448082018490528251808303909101815260649091019091526020810180516001600160e01b031663095ea7b360e01b17905261084e9084906109be565b505050565b60606108628484600085610a6f565b90505b9392505050565b3390565b6000806000806000806000610883610bca565b9650915085905061089382610d78565b965061089e88610ed5565b94506108a985611130565b9094509250505091939590929450565b600354600090600160b01b900460ff1615806108e75750600354600284810b600160801b909204810b900b14155b806109045750600354600283810b600160981b909204810b900b14155b1561091b576109138383611471565b50600161091f565b5060005b92915050565b7f5422e969a24d0b1e269860d579e64358e9de3df58e771549e1f5310c2ee2e562428787878787876040516109609796959493929190612dbe565b60405180910390a1505050505050565b604080516001600160a01b038416602482015260448082018490528251808303909101815260649091019091526020810180516001600160e01b031663a9059cbb60e01b17905261084e9084905b6000610a13826040518060400160405280602081526020017f5361666545524332303a206c6f772d6c6576656c2063616c6c206661696c6564815250856001600160a01b03166108539092919063ffffffff16565b80519091501561084e57808060200190516020811015610a3257600080fd5b505161084e5760405162461bcd60e51b815260040180806020018281038252602a815260200180612e89602a913960400191505060405180910390fd5b606082471015610ab05760405162461bcd60e51b8152600401808060200182810382526026815260200180612e426026913960400191505060405180910390fd5b610ab985611633565b610b0a576040805162461bcd60e51b815260206004820152601d60248201527f416464726573733a2063616c6c20746f206e6f6e2d636f6e7472616374000000604482015290519081900360640190fd5b600080866001600160a01b031685876040518082805190602001908083835b60208310610b485780518252601f199092019160209182019101610b29565b6001836020036101000a03801982511681845116808217855250505050505090500191505060006040518083038185875af1925050503d8060008114610baa576040519150601f19603f3d011682016040523d82523d6000602084013e610baf565b606091505b5091509150610bbf828286611639565b979650505050505050565b60008060007f00000000000000000000000000000000000000000000000000000000000000006001600160a01b0316631698ee827f00000000000000000000000000000000000000000000000000000000000000007f00000000000000000000000000000000000000000000000000000000000000007f00000000000000000000000000000000000000000000000000000000000000006040518463ffffffff1660e01b8152600401610c7f939291906129be565b60206040518083038186803b158015610c9757600080fd5b505afa158015610cab573d6000803e3d6000fd5b505050506040513d601f19601f82011682018060405250810190610ccf91906127bb565b90506001600160a01b038116610cf75760405162461bcd60e51b815260040161054b90612b31565b806001600160a01b0316633850c7bd6040518163ffffffff1660e01b815260040160e06040518083038186803b158015610d3057600080fd5b505afa158015610d44573d6000803e3d6000fd5b505050506040513d601f19601f82011682018060405250810190610d6891906127d7565b5094989397509295505050505050565b60006001600160a01b038216800260c081901c60ff7f000000000000000000000000000000000000000000000000000000000000000081167f00000000000000000000000000000000000000000000000000000000000000009091161115610e33577f00000000000000000000000000000000000000000000000000000000000000007f00000000000000000000000000000000000000000000000000000000000000000360ff16600a0a8181610e2b57fe5b049050610ecc565b7f000000000000000000000000000000000000000000000000000000000000000060ff167f000000000000000000000000000000000000000000000000000000000000000060ff161115610ecc5760ff7f00000000000000000000000000000000000000000000000000000000000000007f00000000000000000000000000000000000000000000000000000000000000000316600a0a025b9150505b919050565b6000808211610ef65760405162461bcd60e51b815260040161054b906129f4565b600064e8d4a51000831115610f2557610f1e6ec097ce7bc90715b34b9f1000000000846116dd565b9050610f28565b50815b80670de0b6b3a764000060ff7f000000000000000000000000000000000000000000000000000000000000000081167f00000000000000000000000000000000000000000000000000000000000000009091161115610fe557610fde610fd460ff7f00000000000000000000000000000000000000000000000000000000000000008116907f000000000000000000000000000000000000000000000000000000000000000016611744565b8390600a0a6117a1565b9150611093565b7f000000000000000000000000000000000000000000000000000000000000000060ff167f000000000000000000000000000000000000000000000000000000000000000060ff1611156110935761109061108660ff7f00000000000000000000000000000000000000000000000000000000000000008116907f000000000000000000000000000000000000000000000000000000000000000016611744565b8290600a0a6117a1565b90505b60006110ad826110a785600160c01b6117a1565b906116dd565b905060006110ba826117fa565b90506401000276a36001600160a01b03821610156110ea5760405162461bcd60e51b815260040161054b90612b8b565b73fffd8963efd1fc6a506488495d951d5263988d266001600160a01b03821611156111275760405162461bcd60e51b815260040161054b90612a1f565b610bbf816118dc565b60008060007f000000000000000000000000000000000000000000000000000000000000000060020b136111765760405162461bcd60e51b815260040161054b90612b5d565b60045460009060029062ffffff167f000000000000000000000000000000000000000000000000000000000000000002810b05905060008160020b136111d957507f00000000000000000000000000000000000000000000000000000000000000005b7f00000000000000000000000000000000000000000000000000000000000000007f000000000000000000000000000000000000000000000000000000000000000060020b8260020b8161122957fe5b050290508060020b6000141561125c57507f00000000000000000000000000000000000000000000000000000000000000005b80840384820161128c827f0000000000000000000000000000000000000000000000000000000000000000611bfb565b94506112b8817f0000000000000000000000000000000000000000000000000000000000000000611bfb565b93507f000000000000000000000000000000000000000000000000000000000000000060020b8160020b816112e957fe5b0760020b15611318577f0000000000000000000000000000000000000000000000000000000000000000840193505b8360020b8560020b1261134b577f0000000000000000000000000000000000000000000000000000000000000000850193505b620d89e719600286900b12611360578461138e565b61138e620d89e7197f0000000000000000000000000000000000000000000000000000000000000000611bfb565b9450620d89e8600285900b136113a457836113d1565b6113d1620d89e87f0000000000000000000000000000000000000000000000000000000000000000611bfb565b93508360020b8560020b12611469577f000000000000000000000000000000000000000000000000000000000000000085019350620d89e8600285900b131561146957611441620d89e87f0000000000000000000000000000000000000000000000000000000000000000611bfb565b93507f0000000000000000000000000000000000000000000000000000000000000000840394505b505050915091565b600354600160b01b900460ff161561148b5761148b611c6a565b6040516370a0823160e01b81526000906001600160a01b037f000000000000000000000000000000000000000000000000000000000000000016906370a08231906114da9030906004016129aa565b60206040518083038186803b1580156114f257600080fd5b505afa158015611506573d6000803e3d6000fd5b505050506040513d601f19601f8201168201806040525081019061152a919061288f565b905060007f00000000000000000000000000000000000000000000000000000000000000006001600160a01b03166370a08231306040518263ffffffff1660e01b815260040161157a91906129aa565b60206040518083038186803b15801561159257600080fd5b505afa1580156115a6573d6000803e3d6000fd5b505050506040513d601f19601f820116820180604052508101906115ca919061288f565b905060008211806115db5750600081115b156115f1576115ec84848484611d0e565b6105c8565b6040805160a08101825260008082526020820181905291810182905260608101829052608001819052600255600380546001600160b81b031916905550505050565b3b151590565b60608315611648575081610865565b8251156116585782518084602001fd5b8160405162461bcd60e51b81526004018080602001828103825283818151815260200191508051906020019080838360005b838110156116a257818101518382015260200161168a565b50505050905090810190601f1680156116cf5780820380516001836020036101000a031916815260200191505b509250505060405180910390fd5b6000808211611733576040805162461bcd60e51b815260206004820152601a60248201527f536166654d6174683a206469766973696f6e206279207a65726f000000000000604482015290519081900360640190fd5b81838161173c57fe5b049392505050565b60008282111561179b576040805162461bcd60e51b815260206004820152601e60248201527f536166654d6174683a207375627472616374696f6e206f766572666c6f770000604482015290519081900360640190fd5b50900390565b6000826117b05750600061091f565b828202828482816117bd57fe5b04146108655760405162461bcd60e51b8152600401808060200182810382526021815260200180612e686021913960400191505060405180910390fd5b60008161180957506000610ed0565b6000600161181684611e22565b6001911c1b905080611826575060015b600061184160026110a761183a87866116dd565b8590611ecd565b905061185c60026110a761185587856116dd565b8490611ecd565b905061187060026110a761185587856116dd565b905061188460026110a761185587856116dd565b905061189860026110a761185587856116dd565b90506118ac60026110a761185587856116dd565b90506118b884826116dd565b8111156118d3576118ca816001611744565b92505050610ed0565b9150610ed09050565b60006401000276a36001600160a01b03831610801590611918575073fffd8963efd1fc6a506488495d951d5263988d266001600160a01b038316105b61194d576040805162461bcd60e51b81526020600482015260016024820152602960f91b604482015290519081900360640190fd5b640100000000600160c01b03602083901b166001600160801b03811160071b81811c67ffffffffffffffff811160061b90811c63ffffffff811160051b90811c61ffff811160041b90811c60ff8111600390811b91821c600f811160021b90811c918211600190811b92831c979088119617909417909217179091171717608081106119e157607f810383901c91506119eb565b80607f0383901b91505b908002607f81811c60ff83811c9190911c800280831c81831c1c800280841c81841c1c800280851c81851c1c800280861c81861c1c800280871c81871c1c800280881c81881c1c800280891c81891c1c8002808a1c818a1c1c8002808b1c818b1c1c8002808c1c818c1c1c8002808d1c818d1c1c8002808e1c9c81901c9c909c1c80029c8d901c9e9d607f198f0160401b60c09190911c678000000000000000161760c19b909b1c674000000000000000169a909a1760c29990991c672000000000000000169890981760c39790971c671000000000000000169690961760c49590951c670800000000000000169490941760c59390931c670400000000000000169290921760c69190911c670200000000000000161760c79190911c670100000000000000161760c89190911c6680000000000000161760c99190911c6640000000000000161760ca9190911c6620000000000000161760cb9190911c6610000000000000161760cc9190911c6608000000000000161760cd9190911c66040000000000001617693627a301d71055774c8581026f028f6481ab7f045a5af012a19d003aa9198101608090811d906fdb2df09e81959a81455e260799a0632f8301901d600281810b9083900b14611bec57886001600160a01b0316611bd082611f27565b6001600160a01b03161115611be55781611be7565b805b611bee565b815b9998505050505050505050565b6000808260020b13611c1f5760405162461bcd60e51b815260040161054b90612bb2565b60008260020b8460020b81611c3057fe5b05905060008460020b128015611c5757508260020b8460020b81611c5057fe5b0760020b15155b15611c6157600019015b90910292915050565b600354600160b01b900460ff168015611c84575060025415155b611ca05760405162461bcd60e51b815260040161054b90612aad565b60028054600380546040805160a0810182526000808252602082018190529181018290526060810182905260800181905284556001600160b81b0319811690915590916001600160801b03821691600160801b8104820b91600160981b909104900b6105c884848484612259565b600354600160b01b900460ff1615611d385760405162461bcd60e51b815260040161054b90612a76565b60006040518061016001604052807f00000000000000000000000000000000000000000000000000000000000000006001600160a01b031681526020017f00000000000000000000000000000000000000000000000000000000000000006001600160a01b031681526020017f000000000000000000000000000000000000000000000000000000000000000062ffffff1681526020018660020b81526020018560020b81526020018481526020018381526020016000815260200160008152602001306001600160a01b03168152602001428152509050611e1b8186866124bc565b5050505050565b60008180611e2f57600091505b6001600160801b03811115611e46576080918201911c5b67ffffffffffffffff811115611e5e576040918201911c5b63ffffffff811115611e72576020918201911c5b61ffff811115611e84576010918201911c5b60ff811115611e95576008918201911c5b600f811115611ea6576004918201911c5b6003811115611eb7576002918201911c5b6001811115611ec7576001820191505b50919050565b600082820183811015610865576040805162461bcd60e51b815260206004820152601b60248201527f536166654d6174683a206164646974696f6e206f766572666c6f770000000000604482015290519081900360640190fd5b60008060008360020b12611f3e578260020b611f46565b8260020b6000035b9050620d89e8811115611f84576040805162461bcd60e51b81526020600482015260016024820152601560fa1b604482015290519081900360640190fd5b600060018216611f9857600160801b611faa565b6ffffcb933bd6fad37aa2d162d1a5940015b70ffffffffffffffffffffffffffffffffff1690506002821615611fde576ffff97272373d413259a46990580e213a0260801c5b6004821615611ffd576ffff2e50f5f656932ef12357cf3c7fdcc0260801c5b600882161561201c576fffe5caca7e10e4e61c3624eaa0941cd00260801c5b601082161561203b576fffcb9843d60f6159c9db58835c9266440260801c5b602082161561205a576fff973b41fa98c081472e6896dfb254c00260801c5b6040821615612079576fff2ea16466c96a3843ec78b326b528610260801c5b6080821615612098576ffe5dee046a99a2a811c461f1969c30530260801c5b6101008216156120b8576ffcbe86c7900a88aedcffc83b479aa3a40260801c5b6102008216156120d8576ff987a7253ac413176f2b074cf7815e540260801c5b6104008216156120f8576ff3392b0822b70005940c7a398e4b70f30260801c5b610800821615612118576fe7159475a2c29b7443b29c7fa6e889d90260801c5b611000821615612138576fd097f3bdfd2022b8845ad8f792aa58250260801c5b612000821615612158576fa9f746462d870fdf8a65dc1f90e061e50260801c5b614000821615612178576f70d869a156d2a1b890bb3df62baf32f70260801c5b618000821615612198576f31be135f97d08fd981231505542fcfa60260801c5b620100008216156121b9576f09aa508b5b7a84e1c677de54f3e99bc90260801c5b620200008216156121d9576e5d6af8dedb81196699c329225ee6040260801c5b620400008216156121f8576d2216e584f5fa1ea926041bedfe980260801c5b62080000821615612215576b048a170391f7dc42444e8fa20260801c5b60008460020b131561223057806000198161222c57fe5b0490505b640100000000810615612244576001612247565b60005b60ff16602082901c0192505050919050565b60008080806001600160801b03871615612344576040805160a0810182528981526001600160801b0389166020820152600081830181905260608201524260808201529051630624e65f60e11b81526001600160a01b037f00000000000000000000000000000000000000000000000000000000000000001691630c49ccbe916122e69190600401612c82565b6040805180830381600087803b1580156122ff57600080fd5b505af192505050801561232f575060408051601f3d908101601f1916820190925261232c918101906128ef565b60015b6123385761233f565b5050600193505b612349565b600193505b831561249457604080516080810182528981523060208201526001600160801b038183018190526060820152905163fc6f786560e01b81526001600160a01b037f0000000000000000000000000000000000000000000000000000000000000000169163fc6f7865916123bf9190600401612c3f565b6040805180830381600087803b1580156123d857600080fd5b505af1925050508015612408575060408051601f3d908101601f19168201909252612405918101906128ef565b60015b6124115761241b565b6001945090925090505b604051630852cd8d60e31b81526001600160a01b037f000000000000000000000000000000000000000000000000000000000000000016906342966c6890612467908b90600401612d83565b600060405180830381600087803b15801561248157600080fd5b505af1925050508015612492575060015b505b60008480156124a05750835b90506124b18988888b878787612708565b505050505050505050565b60008060008060007f00000000000000000000000000000000000000000000000000000000000000006001600160a01b03166388316456896040518263ffffffff1660e01b81526004016125109190612cc5565b608060405180830381600087803b15801561252a57600080fd5b505af192505050801561255a575060408051601f3d908101601f19168201909252612557918101906128a7565b60015b612563576126ad565b8398508297508196508095506000886001600160801b03161115612629576040805160a0810182528a81526001600160801b038a166020820181905260028e810b9383018490528d810b60608401819052600160809094018490528d825560038054600160b01b6fffffffffffffffffffffffffffffffff1990911690941762ffffff60801b1916600160801b96840b62ffffff908116979097021762ffffff60981b1916600160981b9290930b95909516021760ff60b01b19161790915594506126a8565b88156126a857604051630852cd8d60e31b81526001600160a01b037f000000000000000000000000000000000000000000000000000000000000000016906342966c689061267b908c90600401612d83565b600060405180830381600087803b15801561269557600080fd5b505af19250505080156126a6575060015b505b505050505b6126bc85888887878787612753565b806126fe576040805160a08101825260008082526020820181905291810182905260608101829052608001819052600255600380546001600160b81b03191690555b5050505050505050565b867fdee9c9ac7e4f2757956dfcf228dc427442ec0a77c0020754a5d9c3b2583d9a1487878787878760405161274296959493929190612ad9565b60405180910390a250505050505050565b867fdee9c9ac7e4f2757956dfcf228dc427442ec0a77c0020754a5d9c3b2583d9a1487878787878760405161274296959493929190612be9565b805161ffff81168114610ed057600080fd5b6000602082840312156127b0578081fd5b813561086581612e03565b6000602082840312156127cc578081fd5b815161086581612e03565b600080600080600080600060e0888a0312156127f1578283fd5b87516127fc81612e03565b8097505060208801518060020b8114612813578384fd5b95506128216040890161278d565b945061282f6060890161278d565b935061283d6080890161278d565b925060a088015160ff81168114612852578283fd5b60c08901519092508015158114612867578182fd5b8091505092959891949750929550565b600060208284031215612888578081fd5b5035919050565b6000602082840312156128a0578081fd5b5051919050565b600080600080608085870312156128bc578384fd5b8451935060208501516001600160801b03811681146128d9578384fd5b6040860151606090960151949790965092505050565b60008060408385031215612901578182fd5b505080516020909101519092909150565b60008060008060608587031215612927578384fd5b8435935060208501359250604085013567ffffffffffffffff8082111561294c578384fd5b818701915087601f83011261295f578384fd5b81358181111561296d578485fd5b88602082850101111561297e578485fd5b95989497505060200194505050565b6001600160a01b03169052565b60020b9052565b62ffffff169052565b6001600160a01b0391909116815260200190565b6001600160a01b03938416815291909216602082015262ffffff909116604082015260600190565b60029190910b815260200190565b60208082526011908201527005072696365206d757374206265203e203607c1b604082015260600190565b6020808252600e908201526d0a0e4d2c6ca40e8dede40d0d2ced60931b604082015260600190565b602080825260159082015274556e617574686f72697a65642063616c6c6261636b60581b604082015260600190565b60208082526017908201527f506f736974696f6e20616c726561647920616374697665000000000000000000604082015260600190565b60208082526012908201527127379030b1ba34bb32903837b9b4ba34b7b760711b604082015260600190565b60e08082526006908201526552454d4f564560d01b610100820152600296870b60208201529490950b60408501526001600160801b03929092166060840152608083015260a082015290151560c08201526101200190565b602080825260129082015271141bdbdb08191bd95cdb89dd08195e1a5cdd60721b604082015260600190565b602080825260149082015273496e76616c6964207469636b2073706163696e6760601b604082015260600190565b6020808252600d908201526c507269636520746f6f206c6f7760981b604082015260600190565b6020808252601d908201527f5469636b2073706163696e67206d75737420626520706f736974697665000000604082015260600190565b60e0808252600490820152631352539560e21b610100820152600296870b60208201529490950b60408501526001600160801b03929092166060840152608083015260a082015290151560c08201526101200190565b815181526020808301516001600160a01b0316908201526040808301516001600160801b0390811691830191909152606092830151169181019190915260800190565b600060a082019050825182526001600160801b03602084015116602083015260408301516040830152606083015160608301526080830151608083015292915050565b600061016082019050612cd982845161298d565b6020830151612ceb602084018261298d565b506040830151612cfe60408401826129a1565b506060830151612d11606084018261299a565b506080830151612d24608084018261299a565b5060a083015160a083015260c083015160c083015260e083015160e083015261010080840151818401525061012080840151612d628285018261298d565b505061014092830151919092015290565b62ffffff91909116815260200190565b90815260200190565b9485526001600160801b03939093166020850152600291820b6040850152900b60608301521515608082015260a00190565b96875260208701959095526040860193909352600291820b6060860152810b60808501520b60a0830152151560c082015260e00190565b60ff91909116815260200190565b6001600160a01b0381168114612e1857600080fd5b5056fe4f776e61626c653a206e6577206f776e657220697320746865207a65726f2061646472657373416464726573733a20696e73756666696369656e742062616c616e636520666f722063616c6c536166654d6174683a206d756c7469706c69636174696f6e206f766572666c6f775361666545524332303a204552433230206f7065726174696f6e20646964206e6f7420737563636565645361666545524332303a20617070726f76652066726f6d206e6f6e2d7a65726f20746f206e6f6e2d7a65726f20616c6c6f77616e6365a2646970667358221220895d9869c4eda3b215177e679dc0e1d9317ead593aca7b59f7cea95cfcc3e7b264736f6c634300070600334f776e61626c653a206e6577206f776e657220697320746865207a65726f2061646472657373416464726573733a20696e73756666696369656e742062616c616e636520666f722063616c6c8be0079c531659141344cd1fd0a4f28419497f9722a3daafe3b4186f6b6457e05361666545524332303a204552433230206f7065726174696f6e20646964206e6f7420737563636565645361666545524332303a20617070726f76652066726f6d206e6f6e2d7a65726f20746f206e6f6e2d7a65726f20616c6c6f77616e6365",
  "linkReferences": {},
  "deployedLinkReferences": {}
}