{
  "_format": "hh-sol-artifact-1",
  "contractName": "TokenOperationsManager",
  "sourceName": "contracts/TokenOperationsManager.sol",
  "abi": [
    {
      "inputs": [
        {
          "internalType": "address",
          "name": "_swapRouter",
          "type": "address"
        },
        {
          "internalType": "address",
          "name": "_weth9",
          "type": "address"
        },
        {
          "internalType": "address",
          "name": "_initialOwner",
          "type": "address"
        }
      ],
      "stateMutability": "nonpayable",
      "type": "constructor"
    },
    {
      "anonymous": false,
      "inputs": [
        {
          "indexed": true,
          "internalType": "address",
          "name": "previousOwner",
          "type": "address"
        },
        {
          "indexed": true,
          "internalType": "address",
          "name": "newOwner",
          "type": "address"
        }
      ],
      "name": "OwnershipTransferred",
      "type": "event"
    },
    {
      "anonymous": false,
      "inputs": [
        {
          "indexed": true,
          "internalType": "address",
          "name": "tokenIn",
          "type": "address"
        },
        {
          "indexed": true,
          "internalType": "address",
          "name": "tokenOut",
          "type": "address"
        },
        {
          "indexed": false,
          "internalType": "uint256",
          "name": "amountOut",
          "type": "uint256"
        }
      ],
      "name": "Swapped",
      "type": "event"
    },
    {
      "anonymous": false,
      "inputs": [
        {
          "indexed": false,
          "internalType": "string",
          "name": "operationType",
          "type": "string"
        },
        {
          "indexed": true,
          "internalType": "address",
          "name": "token",
          "type": "address"
        },
        {
          "indexed": true,
          "internalType": "address",
          "name": "user",
          "type": "address"
        },
        {
          "indexed": false,
          "internalType": "uint256",
          "name": "amount",
          "type": "uint256"
        }
      ],
      "name": "TokenOperation",
      "type": "event"
    },
    {
      "inputs": [],
      "name": "WETH9",
      "outputs": [
        {
          "internalType": "address",
          "name": "",
          "type": "address"
        }
      ],
      "stateMutability": "view",
      "type": "function"
    },
    {
      "inputs": [],
      "name": "getETHBalance",
      "outputs": [
        {
          "internalType": "uint256",
          "name": "",
          "type": "uint256"
        }
      ],
      "stateMutability": "view",
      "type": "function"
    },
    {
      "inputs": [
        {
          "internalType": "address",
          "name": "token",
          "type": "address"
        }
      ],
      "name": "getTokenBalance",
      "outputs": [
        {
          "internalType": "uint256",
          "name": "",
          "type": "uint256"
        }
      ],
      "stateMutability": "view",
      "type": "function"
    },
    {
      "inputs": [
        {
          "internalType": "string",
          "name": "operation",
          "type": "string"
        },
        {
          "internalType": "address",
          "name": "token",
          "type": "address"
        },
        {
          "internalType": "uint256",
          "name": "amount",
          "type": "uint256"
        },
        {
          "internalType": "address payable",
          "name": "recipient",
          "type": "address"
        }
      ],
      "name": "manageToken",
      "outputs": [],
      "stateMutability": "payable",
      "type": "function"
    },
    {
      "inputs": [],
      "name": "owner",
      "outputs": [
        {
          "internalType": "address",
          "name": "",
          "type": "address"
        }
      ],
      "stateMutability": "view",
      "type": "function"
    },
    {
      "inputs": [],
      "name": "refundETH",
      "outputs": [],
      "stateMutability": "payable",
      "type": "function"
    },
    {
      "inputs": [],
      "name": "renounceOwnership",
      "outputs": [],
      "stateMutability": "nonpayable",
      "type": "function"
    },
    {
      "inputs": [
        {
          "components": [
            {
              "internalType": "address",
              "name": "tokenIn",
              "type": "address"
            },
            {
              "internalType": "address",
              "name": "tokenOut",
              "type": "address"
            },
            {
              "internalType": "uint24",
              "name": "poolFee",
              "type": "uint24"
            },
            {
              "internalType": "uint256",
              "name": "amountIn",
              "type": "uint256"
            },
            {
              "internalType": "uint256",
              "name": "amountOutMinimum",
              "type": "uint256"
            },
            {
              "internalType": "uint160",
              "name": "sqrtPriceLimitX96",
              "type": "uint160"
            }
          ],
          "internalType": "struct TokenOperationsManager.SwapParams",
          "name": "params",
          "type": "tuple"
        }
      ],
      "name": "swap",
      "outputs": [
        {
          "internalType": "uint256",
          "name": "amountOut",
          "type": "uint256"
        }
      ],
      "stateMutability": "nonpayable",
      "type": "function"
    },
    {
      "inputs": [],
      "name": "swapRouter",
      "outputs": [
        {
          "internalType": "contract ISwapRouter",
          "name": "",
          "type": "address"
        }
      ],
      "stateMutability": "view",
      "type": "function"
    },
    {
      "inputs": [
        {
          "internalType": "address",
          "name": "token",
          "type": "address"
        },
        {
          "internalType": "uint256",
          "name": "amountMinimum",
          "type": "uint256"
        },
        {
          "internalType": "address",
          "name": "recipient",
          "type": "address"
        }
      ],
      "name": "sweepToken",
      "outputs": [],
      "stateMutability": "payable",
      "type": "function"
    },
    {
      "inputs": [
        {
          "internalType": "address",
          "name": "newOwner",
          "type": "address"
        }
      ],
      "name": "transferOwnership",
      "outputs": [],
      "stateMutability": "nonpayable",
      "type": "function"
    },
    {
      "inputs": [
        {
          "internalType": "uint256",
          "name": "amountMinimum",
          "type": "uint256"
        },
        {
          "internalType": "address",
          "name": "recipient",
          "type": "address"
        }
      ],
      "name": "unwrapWETH9",
      "outputs": [],
      "stateMutability": "payable",
      "type": "function"
    },
    {
      "stateMutability": "payable",
      "type": "receive"
    }
  ],
  "bytecode": "0x60c06040523480156200001157600080fd5b506040516200213c3803806200213c8339810160408190526200003491620001f5565b600062000040620000bb565b600080546001600160a01b0319166001600160a01b0383169081178255604051929350916000805160206200211c833981519152908290a350600180556001600160601b0319606084811b821660805283901b1660a0526001600160a01b03811615620000b257620000b281620000bf565b5050506200023e565b3390565b620000c9620000bb565b6001600160a01b0316620000dc620001c9565b6001600160a01b03161462000138576040805162461bcd60e51b815260206004820181905260248201527f4f776e61626c653a2063616c6c6572206973206e6f7420746865206f776e6572604482015290519081900360640190fd5b6001600160a01b0381166200017f5760405162461bcd60e51b8152600401808060200182810382526026815260200180620020f66026913960400191505060405180910390fd5b600080546040516001600160a01b03808516939216916000805160206200211c83398151915291a3600080546001600160a01b0319166001600160a01b0392909216919091179055565b6000546001600160a01b031690565b80516001600160a01b0381168114620001f057600080fd5b919050565b6000806000606084860312156200020a578283fd5b6200021584620001d8565b92506200022560208501620001d8565b91506200023560408501620001d8565b90509250925092565b60805160601c60a05160601c611e43620002b36000398061038b528061040f52806104d352806105795280610e1f5280610e785280610ebe5280610f3c5280611044528061107e52806110dc528061119a52806112445250806108ef5280610bb55280610ca85280610db15250611e436000f3fe6080604052600436106100ab5760003560e01c8063715018a611610064578063715018a6146101615780638da5cb5b14610176578063b9bf0ff11461018b578063c31c9c071461019e578063df2ab5bb146101b3578063f2fde38b146101c6576100b2565b806312210e8a146100b75780633aecd0e3146100c157806349404b7c146100f75780634aa4a4fc1461010a578063516606eb1461012c5780636e9472981461014c576100b2565b366100b257005b600080fd5b6100bf6101e6565b005b3480156100cd57600080fd5b506100e16100dc3660046117c6565b6102a0565b6040516100ee9190611d00565b60405180910390f35b6100bf610105366004611930565b610327565b34801561011657600080fd5b5061011f610577565b6040516100ee9190611998565b34801561013857600080fd5b506100e16101473660046118e4565b61059b565b34801561015857600080fd5b506100e1610697565b34801561016d57600080fd5b506100bf61069b565b34801561018257600080fd5b5061011f610747565b6100bf610199366004611823565b610756565b3480156101aa57600080fd5b5061011f6108ed565b6100bf6101c13660046117e2565b610911565b3480156101d257600080fd5b506100bf6101e13660046117c6565b610a4e565b6101ee610b50565b6001600160a01b03166101ff610747565b6001600160a01b031614610248576040805162461bcd60e51b81526020600482018190526024820152600080516020611d6e833981519152604482015290519081900360640190fd5b478061026f5760405162461bcd60e51b815260040161026690611b76565b60405180910390fd5b604051339082156108fc029083906000818181858888f1935050505015801561029c573d6000803e3d6000fd5b5050565b6040516370a0823160e01b81526000906001600160a01b038316906370a08231906102cf903090600401611998565b60206040518083038186803b1580156102e757600080fd5b505afa1580156102fb573d6000803e3d6000fd5b505050506040513d601f19601f8201168201806040525081019061031f9190611918565b90505b919050565b61032f610b50565b6001600160a01b0316610340610747565b6001600160a01b031614610389576040805162461bcd60e51b81526020600482018190526024820152600080516020611d6e833981519152604482015290519081900360640190fd5b7f00000000000000000000000000000000000000000000000000000000000000006001600160a01b03166103cf5760405162461bcd60e51b815260040161026690611c02565b6001600160a01b0381166103f55760405162461bcd60e51b815260040161026690611ba0565b6040516370a0823160e01b81526000906001600160a01b037f000000000000000000000000000000000000000000000000000000000000000016906370a0823190610444903090600401611998565b60206040518083038186803b15801561045c57600080fd5b505afa158015610470573d6000803e3d6000fd5b505050506040513d601f19601f820116820180604052508101906104949190611918565b9050828110156104b65760405162461bcd60e51b815260040161026690611a9c565b801561057257604051632e1a7d4d60e01b81526001600160a01b037f00000000000000000000000000000000000000000000000000000000000000001690632e1a7d4d90610508908490600401611d00565b600060405180830381600087803b15801561052257600080fd5b505af1158015610536573d6000803e3d6000fd5b50506040516001600160a01b038516925083156108fc02915083906000818181858888f19350505050158015610570573d6000803e3d6000fd5b505b505050565b7f000000000000000000000000000000000000000000000000000000000000000081565b6000600260015414156105f5576040805162461bcd60e51b815260206004820152601f60248201527f5265656e7472616e637947756172643a207265656e7472616e742063616c6c00604482015290519081900360640190fd5b6002600155610602610b50565b6001600160a01b0316610613610747565b6001600160a01b03161461065c576040805162461bcd60e51b81526020600482018190526024820152600080516020611d6e833981519152604482015290519081900360640190fd5b6106843330606085013561067360208701876117c6565b6001600160a01b0316929190610b54565b61068d82610bae565b6001805592915050565b4790565b6106a3610b50565b6001600160a01b03166106b4610747565b6001600160a01b0316146106fd576040805162461bcd60e51b81526020600482018190526024820152600080516020611d6e833981519152604482015290519081900360640190fd5b600080546040516001600160a01b03909116907f8be0079c531659141344cd1fd0a4f28419497f9722a3daafe3b4186f6b6457e0908390a3600080546001600160a01b0319169055565b6000546001600160a01b031690565b600260015414156107ae576040805162461bcd60e51b815260206004820152601f60248201527f5265656e7472616e637947756172643a207265656e7472616e742063616c6c00604482015290519081900360640190fd5b60026001556107bb610b50565b6001600160a01b03166107cc610747565b6001600160a01b031614610815576040805162461bcd60e51b81526020600482018190526024820152600080516020611d6e833981519152604482015290519081900360640190fd5b600082116108355760405162461bcd60e51b8152600401610266906119ac565b600084604051602001610848919061195f565b6040516020818303038152906040528051906020012090507f87a7811f4bfedea3d341ad165680ae306b01aaeacc205d227629cf157dd9f821811415610897576108928484610de5565b6108e2565b7f7a8dc26796a1e50e6e190b70259f58f6a4edd5b22280ceecc82b687b8e9828698114156108ca57610892848484610ffe565b60405162461bcd60e51b8152600401610266906119d8565b505060018055505050565b7f000000000000000000000000000000000000000000000000000000000000000081565b610919610b50565b6001600160a01b031661092a610747565b6001600160a01b031614610973576040805162461bcd60e51b81526020600482018190526024820152600080516020611d6e833981519152604482015290519081900360640190fd5b6001600160a01b0381166109995760405162461bcd60e51b815260040161026690611ba0565b6040516370a0823160e01b81526000906001600160a01b038516906370a08231906109c8903090600401611998565b60206040518083038186803b1580156109e057600080fd5b505afa1580156109f4573d6000803e3d6000fd5b505050506040513d601f19601f82011682018060405250810190610a189190611918565b905082811015610a3a5760405162461bcd60e51b815260040161026690611a37565b6105706001600160a01b038516838361138b565b610a56610b50565b6001600160a01b0316610a67610747565b6001600160a01b031614610ab0576040805162461bcd60e51b81526020600482018190526024820152600080516020611d6e833981519152604482015290519081900360640190fd5b6001600160a01b038116610af55760405162461bcd60e51b8152600401808060200182810382526026815260200180611d226026913960400191505060405180910390fd5b600080546040516001600160a01b03808516939216917f8be0079c531659141344cd1fd0a4f28419497f9722a3daafe3b4186f6b6457e091a3600080546001600160a01b0319166001600160a01b0392909216919091179055565b3390565b604080516001600160a01b0380861660248301528416604482015260648082018490528251808303909101815260849091019091526020810180516001600160e01b03166323b872dd60e01b1790526105709085906113d9565b6000610bf67f00000000000000000000000000000000000000000000000000000000000000006060840135610be660208601866117c6565b6001600160a01b0316919061148a565b60408051610100810190915260009080610c1360208601866117c6565b6001600160a01b03168152602001846020016020810190610c3491906117c6565b6001600160a01b03168152602001610c5260608601604087016118f5565b62ffffff168152602001306001600160a01b0316815260200142815260200184606001358152602001846080013581526020018460a0016020810190610c9891906117c6565b6001600160a01b031681525090507f00000000000000000000000000000000000000000000000000000000000000006001600160a01b031663414bf389826040518263ffffffff1660e01b8152600401610cf29190611c97565b602060405180830381600087803b158015610d0c57600080fd5b505af1158015610d20573d6000803e3d6000fd5b505050506040513d601f19601f82011682018060405250810190610d449190611918565b9150610d5660408401602085016117c6565b6001600160a01b0316610d6c60208501856117c6565b6001600160a01b03167f2e7f8a64aa3240292c0adfa332e1e8945dd31589fcb0bce2721fa21c69b1390f84604051610da49190611d00565b60405180910390a3610ddf7f00000000000000000000000000000000000000000000000000000000000000006000610be660208701876117c6565b50919050565b610ded610747565b6001600160a01b0316336001600160a01b031614610e1d5760405162461bcd60e51b815260040161026690611ac7565b7f00000000000000000000000000000000000000000000000000000000000000006001600160a01b0316826001600160a01b03161415610f8e57803414610e765760405162461bcd60e51b815260040161026690611af7565b7f00000000000000000000000000000000000000000000000000000000000000006001600160a01b0316610ebc5760405162461bcd60e51b815260040161026690611a08565b7f00000000000000000000000000000000000000000000000000000000000000006001600160a01b031663d0e30db0826040518263ffffffff1660e01b81526004016000604051808303818588803b158015610f1757600080fd5b505af1158015610f2b573d6000803e3d6000fd5b5050505050336001600160a01b03167f00000000000000000000000000000000000000000000000000000000000000006001600160a01b0316600080516020611d8e83398151915283604051610f819190611b4d565b60405180910390a361029c565b3415610fac5760405162461bcd60e51b815260040161026690611a65565b610fc16001600160a01b038316333084610b54565b336001600160a01b0316826001600160a01b0316600080516020611d8e83398151915283604051610ff29190611b4d565b60405180910390a35050565b6001600160a01b0381166110245760405162461bcd60e51b815260040161026690611ba0565b34156110425760405162461bcd60e51b815260040161026690611c60565b7f00000000000000000000000000000000000000000000000000000000000000006001600160a01b0316836001600160a01b03161415611297577f00000000000000000000000000000000000000000000000000000000000000006001600160a01b03166110c25760405162461bcd60e51b815260040161026690611a08565b6040516370a0823160e01b81526000906001600160a01b037f000000000000000000000000000000000000000000000000000000000000000016906370a0823190611111903090600401611998565b60206040518083038186803b15801561112957600080fd5b505afa15801561113d573d6000803e3d6000fd5b505050506040513d601f19601f820116820180604052508101906111619190611918565b9050828110156111835760405162461bcd60e51b815260040161026690611c29565b604051632e1a7d4d60e01b81526001600160a01b037f00000000000000000000000000000000000000000000000000000000000000001690632e1a7d4d906111cf908690600401611d00565b600060405180830381600087803b1580156111e957600080fd5b505af11580156111fd573d6000803e3d6000fd5b50506040516001600160a01b038516925085156108fc02915085906000818181858888f19350505050158015611237573d6000803e3d6000fd5b50816001600160a01b03167f00000000000000000000000000000000000000000000000000000000000000006001600160a01b0316600080516020611d8e833981519152856040516112899190611b23565b60405180910390a350610572565b6040516370a0823160e01b81526000906001600160a01b038516906370a08231906112c6903090600401611998565b60206040518083038186803b1580156112de57600080fd5b505afa1580156112f2573d6000803e3d6000fd5b505050506040513d601f19601f820116820180604052508101906113169190611918565b9050828110156113385760405162461bcd60e51b815260040161026690611bcb565b61134c6001600160a01b038516838561138b565b816001600160a01b0316846001600160a01b0316600080516020611d8e8339815191528560405161137d9190611b23565b60405180910390a350505050565b604080516001600160a01b038416602482015260448082018490528251808303909101815260649091019091526020810180516001600160e01b031663a9059cbb60e01b1790526105729084905b600061142e826040518060400160405280602081526020017f5361666545524332303a206c6f772d6c6576656c2063616c6c206661696c6564815250856001600160a01b031661159d9092919063ffffffff16565b8051909150156105725780806020019051602081101561144d57600080fd5b50516105725760405162461bcd60e51b815260040180806020018281038252602a815260200180611dae602a913960400191505060405180910390fd5b801580611510575060408051636eb1769f60e11b81523060048201526001600160a01b03848116602483015291519185169163dd62ed3e91604480820192602092909190829003018186803b1580156114e257600080fd5b505afa1580156114f6573d6000803e3d6000fd5b505050506040513d602081101561150c57600080fd5b5051155b61154b5760405162461bcd60e51b8152600401808060200182810382526036815260200180611dd86036913960400191505060405180910390fd5b604080516001600160a01b038416602482015260448082018490528251808303909101815260649091019091526020810180516001600160e01b031663095ea7b360e01b1790526105729084906113d9565b60606115ac84846000856115b6565b90505b9392505050565b6060824710156115f75760405162461bcd60e51b8152600401808060200182810382526026815260200180611d486026913960400191505060405180910390fd5b61160085611711565b611651576040805162461bcd60e51b815260206004820152601d60248201527f416464726573733a2063616c6c20746f206e6f6e2d636f6e7472616374000000604482015290519081900360640190fd5b600080866001600160a01b031685876040518082805190602001908083835b6020831061168f5780518252601f199092019160209182019101611670565b6001836020036101000a03801982511681845116808217855250505050505090500191505060006040518083038185875af1925050503d80600081146116f1576040519150601f19603f3d011682016040523d82523d6000602084013e6116f6565b606091505b5091509150611706828286611717565b979650505050505050565b3b151590565b606083156117265750816115af565b8251156117365782518084602001fd5b8160405162461bcd60e51b81526004018080602001828103825283818151815260200191508051906020019080838360005b83811015611780578181015183820152602001611768565b50505050905090810190601f1680156117ad5780820380516001836020036101000a031916815260200191505b509250505060405180910390fd5b803561032281611d09565b6000602082840312156117d7578081fd5b81356115af81611d09565b6000806000606084860312156117f6578182fd5b833561180181611d09565b925060208401359150604084013561181881611d09565b809150509250925092565b60008060008060808587031215611838578081fd5b843567ffffffffffffffff8082111561184f578283fd5b818701915087601f830112611862578283fd5b813560208282111561187057fe5b604051601f8301601f191681018201848111828210171561188d57fe5b60405282815284830182018b10156118a3578586fd5b8282860183830137808301820186905297506118c08982016117bb565b965050505050604085013591506118d9606086016117bb565b905092959194509250565b600060c08284031215610ddf578081fd5b600060208284031215611906578081fd5b813562ffffff811681146115af578182fd5b600060208284031215611929578081fd5b5051919050565b60008060408385031215611942578182fd5b82359150602083013561195481611d09565b809150509250929050565b60008251815b8181101561197f5760208186018101518583015201611965565b8181111561198d5782828501525b509190910192915050565b6001600160a01b0391909116815260200190565b6020808252601290820152710416d6f756e74206d757374206265203e20360741b604082015260600190565b602080825260169082015275496e76616c6964206f7065726174696f6e207479706560501b604082015260600190565b60208082526015908201527415d155120e481859191c995cdcc81b9bdd081cd95d605a1b604082015260600190565b602080825260149082015273496e73756666696369656e742062616c616e636560601b604082015260600190565b6020808252601a908201527f4554482073656e7420666f7220746f6b656e206465706f736974000000000000604082015260600190565b602080825260119082015270092dce6eaccccd2c6d2cadce840ae8aa89607b1b604082015260600190565b60208082526016908201527513db9b1e481bdddb995c8818d85b8819195c1bdcda5d60521b604082015260600190565b60208082526012908201527108aa89040ecc2d8eaca40dad2e6dac2e8c6d60731b604082015260600190565b604080825260089082015267574954484452415760c01b6060820152602081019190915260800190565b60408082526007908201526611115413d4d25560ca1b6060820152602081019190915260800190565b60208082526010908201526f139bc8115512081d1bc81c99599d5b9960821b604082015260600190565b602080825260119082015270125b9d985b1a59081c9958da5c1a595b9d607a1b604082015260600190565b6020808252601a908201527f496e73756666696369656e7420746f6b656e2062616c616e6365000000000000604082015260600190565b6020808252600d908201526c15d155120e481b9bdd081cd95d609a1b604082015260600190565b60208082526019908201527f496e73756666696369656e7420574554482062616c616e636500000000000000604082015260600190565b60208082526017908201527f4554482073656e7420666f72207769746864726177616c000000000000000000604082015260600190565b81516001600160a01b03908116825260208084015182169083015260408084015162ffffff16908301526060808401518216908301526080808401519083015260a0838101519083015260c0808401519083015260e09283015116918101919091526101000190565b90815260200190565b6001600160a01b0381168114611d1e57600080fd5b5056fe4f776e61626c653a206e6577206f776e657220697320746865207a65726f2061646472657373416464726573733a20696e73756666696369656e742062616c616e636520666f722063616c6c4f776e61626c653a2063616c6c6572206973206e6f7420746865206f776e65721ee82613c91d570fd2f83fde9f943ff08c2f8d284dc616e86c4d61e1c37a6ce85361666545524332303a204552433230206f7065726174696f6e20646964206e6f7420737563636565645361666545524332303a20617070726f76652066726f6d206e6f6e2d7a65726f20746f206e6f6e2d7a65726f20616c6c6f77616e6365a264697066735822122071037a48c601551fe51d94ec38019f2bddd0c16872048356aa00e9b416313db564736f6c634300070600334f776e61626c653a206e6577206f776e657220697320746865207a65726f20616464726573738be0079c531659141344cd1fd0a4f28419497f9722a3daafe3b4186f6b6457e0",
  "linkReferences": {},
  "deployedLinkReferences": {}
}