{"contracts/PredictiveLiquidityManager.sol":{"PredictiveLiquidityManager":{"abi":[{"inputs":[{"internalType":"address","name":"_factory","type":"address"},{"internalType":"address","name":"_positionManager","type":"address"},{"internalType":"address","name":"_token0","type":"address"},{"internalType":"address","name":"_token1","type":"address"},{"internalType":"uint24","name":"_fee","type":"uint24"},{"internalType":"address","name":"_weth9","type":"address"},{"internalType":"address","name":"_initialOwner","type":"address"}],"stateMutability":"nonpayable","type":"constructor"},{"anonymous":false,"inputs":[{"indexed":false,"internalType":"string","name":"operationType","type":"string"},{"indexed":true,"internalType":"uint256","name":"tokenId","type":"uint256"},{"indexed":false,"internalType":"int24","name":"tickLower","type":"int24"},{"indexed":false,"internalType":"int24","name":"tickUpper","type":"int24"},{"indexed":false,"internalType":"uint128","name":"liquidity","type":"uint128"},{"indexed":false,"internalType":"uint256","name":"amount0","type":"uint256"},{"indexed":false,"internalType":"uint256","name":"amount1","type":"uint256"},{"indexed":false,"internalType":"bool","name":"success","type":"bool"}],"name":"LiquidityOperation","type":"event"},{"anonymous":false,"inputs":[{"indexed":true,"internalType":"address","name":"previousOwner","type":"address"},{"indexed":true,"internalType":"address","name":"newOwner","type":"address"}],"name":"OwnershipTransferred","type":"event"},{"anonymous":false,"inputs":[{"indexed":false,"internalType":"uint256","name":"timestamp","type":"uint256"},{"indexed":false,"internalType":"uint256","name":"actualPrice","type":"uint256"},{"indexed":false,"internalType":"uint256","name":"predictedPrice","type":"uint256"},{"indexed":false,"internalType":"int24","name":"predictedTick","type":"int24"},{"indexed":false,"internalType":"int24","name":"finalTickLower","type":"int24"},{"indexed":false,"internalType":"int24","name":"finalTickUpper","type":"int24"},{"indexed":false,"internalType":"bool","name":"adjusted","type":"bool"}],"name":"PredictionAdjustmentMetrics","type":"event"},{"anonymous":false,"inputs":[{"indexed":true,"internalType":"string","name":"paramName","type":"string"},{"indexed":false,"internalType":"uint256","name":"newValue","type":"uint256"}],"name":"StrategyParamUpdated","type":"event"},{"inputs":[],"name":"WETH9","outputs":[{"internalType":"address","name":"","type":"address"}],"stateMutability":"view","type":"function"},{"inputs":[],"name":"currentPosition","outputs":[{"internalType":"uint256","name":"tokenId","type":"uint256"},{"internalType":"uint128","name":"liquidity","type":"uint128"},{"internalType":"int24","name":"tickLower","type":"int24"},{"internalType":"int24","name":"tickUpper","type":"int24"},{"internalType":"bool","name":"active","type":"bool"}],"stateMutability":"view","type":"function"},{"inputs":[],"name":"factory","outputs":[{"internalType":"contract IUniswapV3Factory","name":"","type":"address"}],"stateMutability":"view","type":"function"},{"inputs":[],"name":"fee","outputs":[{"internalType":"uint24","name":"","type":"uint24"}],"stateMutability":"view","type":"function"},{"inputs":[],"name":"owner","outputs":[{"internalType":"address","name":"","type":"address"}],"stateMutability":"view","type":"function"},{"inputs":[],"name":"positionManager","outputs":[{"internalType":"contract INonfungiblePositionManager","name":"","type":"address"}],"stateMutability":"view","type":"function"},{"inputs":[],"name":"rangeWidthMultiplier","outputs":[{"internalType":"uint24","name":"","type":"uint24"}],"stateMutability":"view","type":"function"},{"inputs":[],"name":"renounceOwnership","outputs":[],"stateMutability":"nonpayable","type":"function"},{"inputs":[],"name":"tickSpacing","outputs":[{"internalType":"int24","name":"","type":"int24"}],"stateMutability":"view","type":"function"},{"inputs":[],"name":"token0","outputs":[{"internalType":"address","name":"","type":"address"}],"stateMutability":"view","type":"function"},{"inputs":[],"name":"token0Decimals","outputs":[{"internalType":"uint8","name":"","type":"uint8"}],"stateMutability":"view","type":"function"},{"inputs":[],"name":"token1","outputs":[{"internalType":"address","name":"","type":"address"}],"stateMutability":"view","type":"function"},{"inputs":[],"name":"token1Decimals","outputs":[{"internalType":"uint8","name":"","type":"uint8"}],"stateMutability":"view","type":"function"},{"inputs":[{"internalType":"address","name":"newOwner","type":"address"}],"name":"transferOwnership","outputs":[],"stateMutability":"nonpayable","type":"function"},{"inputs":[{"internalType":"uint256","name":"amount0Owed","type":"uint256"},{"internalType":"uint256","name":"amount1Owed","type":"uint256"},{"internalType":"bytes","name":"data","type":"bytes"}],"name":"uniswapV3MintCallback","outputs":[],"stateMutability":"nonpayable","type":"function"},{"inputs":[{"internalType":"uint256","name":"predictedPriceDecimal","type":"uint256"}],"name":"updatePredictionAndAdjust","outputs":[],"stateMutability":"nonpayable","type":"function"}],"devdoc":{"kind":"dev","methods":{"owner()":{"details":"Returns the address of the current owner."},"renounceOwnership()":{"details":"Leaves the contract without owner. It will not be possible to call `onlyOwner` functions anymore. Can only be called by the current owner. NOTE: Renouncing ownership will leave the contract without an owner, thereby removing any functionality that is only available to the owner."},"transferOwnership(address)":{"details":"Transfers ownership of the contract to a new account (`newOwner`). Can only be called by the current owner."},"uniswapV3MintCallback(uint256,uint256,bytes)":{"details":"In the implementation you must pay the pool tokens owed for the minted liquidity. The caller of this method must be checked to be a UniswapV3Pool deployed by the canonical UniswapV3Factory.","params":{"amount0Owed":"The amount of token0 due to the pool for the minted liquidity","amount1Owed":"The amount of token1 due to the pool for the minted liquidity","data":"Any data passed through by the caller via the IUniswapV3PoolActions#mint call"}}},"title":"PredictiveLiquidityManager","version":1},"evm":{"bytecode":{"linkReferences":{},"object":"6101a06040526004805462ffffff1916811790553480156200002057600080fd5b5060405162003c5938038062003c59833981016040819052620000439162000932565b60006200004f620003ca565b600080546001600160a01b0319166001600160a01b03831690811782556040519293509160008051602062003bd9833981519152908290a350600180556001600160601b0319606088811b821660805287811b821660a05286811b821660c05285811b821660e0526001600160e81b031960e886901b166101405283901b16610180526040805163313ce56760e01b815290516001600160a01b0387169163313ce567916004808301926020929190829003018186803b1580156200011357600080fd5b505afa92505050801562000146575060408051601f3d908101601f191682019092526200014391810190620009f1565b60015b6200016e5760405162461bcd60e51b8152600401620001659062000ab5565b60405180910390fd5b6001600160f81b031960f89190911b1661010052836001600160a01b031663313ce5676040518163ffffffff1660e01b815260040160206040518083038186803b158015620001bc57600080fd5b505afa925050508015620001ef575060408051601f3d908101601f19168201909252620001ec91810190620009f1565b60015b6200020e5760405162461bcd60e51b8152600401620001659062000a3c565b60f81b6001600160f81b03191661012052604051630b4c774160e11b81526000906001600160a01b03891690631698ee8290620002549089908990899060040162000a14565b60206040518083038186803b1580156200026d57600080fd5b505afa15801562000282573d6000803e3d6000fd5b505050506040513d601f19601f82011682018060405250810190620002a8919062000915565b90506001600160a01b038116620002d35760405162461bcd60e51b8152600401620001659062000a7e565b806001600160a01b031663d0c93a7c6040518163ffffffff1660e01b815260040160206040518083038186803b1580156200030d57600080fd5b505afa15801562000322573d6000803e3d6000fd5b505050506040513d601f19601f82011682018060405250810190620003489190620009ce565b600290810b900b60e81b610160526200037a6001600160a01b03871688600019620003ce602090811b6200073b17901c565b620003a187600019876001600160a01b0316620003ce60201b6200073b179092919060201c565b6001600160a01b03821615620003bc57620003bc82620004f2565b505050505050505062000af7565b3390565b80158062000458575060408051636eb1769f60e11b81523060048201526001600160a01b03848116602483015291519185169163dd62ed3e91604480820192602092909190829003018186803b1580156200042857600080fd5b505afa1580156200043d573d6000803e3d6000fd5b505050506040513d60208110156200045457600080fd5b5051155b620004955760405162461bcd60e51b815260040180806020018281038252603681526020018062003c236036913960400191505060405180910390fd5b604080516001600160a01b038416602482015260448082018490528251808303909101815260649091019091526020810180516001600160e01b0390811663095ea7b360e01b17909152620004ed918591620005fc16565b505050565b620004fc620003ca565b6001600160a01b03166200050f620006b8565b6001600160a01b0316146200056b576040805162461bcd60e51b815260206004820181905260248201527f4f776e61626c653a2063616c6c6572206973206e6f7420746865206f776e6572604482015290519081900360640190fd5b6001600160a01b038116620005b25760405162461bcd60e51b815260040180806020018281038252602681526020018062003b8d6026913960400191505060405180910390fd5b600080546040516001600160a01b038085169392169160008051602062003bd983398151915291a3600080546001600160a01b0319166001600160a01b0392909216919091179055565b600062000658826040518060400160405280602081526020017f5361666545524332303a206c6f772d6c6576656c2063616c6c206661696c6564815250856001600160a01b0316620006c760201b62000853179092919060201c565b805190915015620004ed578080602001905160208110156200067957600080fd5b5051620004ed5760405162461bcd60e51b815260040180806020018281038252602a81526020018062003bf9602a913960400191505060405180910390fd5b6000546001600160a01b031690565b6060620006d88484600085620006e2565b90505b9392505050565b606082471015620007255760405162461bcd60e51b815260040180806020018281038252602681526020018062003bb36026913960400191505060405180910390fd5b620007308562000849565b62000782576040805162461bcd60e51b815260206004820152601d60248201527f416464726573733a2063616c6c20746f206e6f6e2d636f6e7472616374000000604482015290519081900360640190fd5b600080866001600160a01b031685876040518082805190602001908083835b60208310620007c25780518252601f199092019160209182019101620007a1565b6001836020036101000a03801982511681845116808217855250505050505090500191505060006040518083038185875af1925050503d806000811462000826576040519150601f19603f3d011682016040523d82523d6000602084013e6200082b565b606091505b5090925090506200083e82828662000853565b979650505050505050565b803b15155b919050565b6060831562000864575081620006db565b825115620008755782518084602001fd5b8160405162461bcd60e51b81526004018080602001828103825283818151815260200191508051906020019080838360005b83811015620008c1578181015183820152602001620008a7565b50505050905090810190601f168015620008ef5780820380516001836020036101000a031916815260200191505b509250505060405180910390fd5b80516001600160a01b03811681146200084e57600080fd5b60006020828403121562000927578081fd5b620006db82620008fd565b600080600080600080600060e0888a0312156200094d578283fd5b6200095888620008fd565b96506200096860208901620008fd565b95506200097860408901620008fd565b94506200098860608901620008fd565b9350608088015162ffffff81168114620009a0578384fd5b9250620009b060a08901620008fd565b9150620009c060c08901620008fd565b905092959891949750929550565b600060208284031215620009e0578081fd5b81518060020b8114620006db578182fd5b60006020828403121562000a03578081fd5b815160ff81168114620006db578182fd5b6001600160a01b03938416815291909216602082015262ffffff909116604082015260600190565b60208082526022908201527f546f6b656e3120646f6573206e6f7420737570706f727420646563696d616c73604082015261282960f01b606082015260800190565b60208082526013908201527f506f6f6c20646f6573206e6f7420657869737400000000000000000000000000604082015260600190565b60208082526022908201527f546f6b656e3020646f6573206e6f7420737570706f727420646563696d616c73604082015261282960f01b606082015260800190565b60805160601c60a05160601c60c05160601c60e05160601c6101005160f81c6101205160f81c6101405160e81c6101605160e81c6101805160601c612f1e62000c6f600039806103605250806104bd5280611137528061118652806111b952806111db52806111fc528061123c5280611268528061129452806112bc52806112f45280611327528061136a52806113ad52806113e2528061141d52806114455250806106055280610c425280611da65250806102035280610db25280610dfd5280610e355280610e855280610f595280610f8b5280610fe752806110615250806104755280610d8f5280610ddc5280610e595280610ea65280610f365280610faf528061100b528061103d5250806104e152806105a15280610c2152806115305280611d7752508061022752806105675280610c0052806114a55280611d48525080610442528061050e52806122b2528061238b528061243252806124c652806126465250806104995280610bd15250612f1e6000f3fe608060405234801561001057600080fd5b50600436106101005760003560e01c8063b31ac6e211610097578063d348799711610066578063d3487997146101af578063d534d636146101c2578063ddca3f43146101db578063f2fde38b146101e357610100565b8063b31ac6e214610182578063c45a01551461018a578063d0c93a7c14610192578063d21220a7146101a757610100565b80634aa4a4fc116100d35780634aa4a4fc14610162578063715018a61461016a578063791b98bc146101725780638da5cb5b1461017a57610100565b806301d31e7c146101055780630b77884d146101235780630dfe16811461013857806341675b051461014d575b600080fd5b61010d6101f6565b60405161011a9190612d73565b60405180910390f35b61012b610201565b60405161011a9190612df5565b610140610225565b60405161011a91906129aa565b61016061015b366004612877565b610249565b005b61014061035e565b610160610382565b610140610440565b610140610464565b61012b610473565b610140610497565b61019a6104bb565b60405161011a91906129e6565b6101406104df565b6101606101bd366004612912565b610503565b6101ca6105ce565b60405161011a959493929190612d8c565b61010d610603565b6101606101f136600461279f565b610627565b60045462ffffff1681565b7f000000000000000000000000000000000000000000000000000000000000000081565b7f000000000000000000000000000000000000000000000000000000000000000081565b600260015414156102a1576040805162461bcd60e51b815260206004820152601f60248201527f5265656e7472616e637947756172643a207265656e7472616e742063616c6c00604482015290519081900360640190fd5b60026001556102ae61086c565b6001600160a01b03166102bf610464565b6001600160a01b03161461031a576040805162461bcd60e51b815260206004820181905260248201527f4f776e61626c653a2063616c6c6572206973206e6f7420746865206f776e6572604482015290519081900360640190fd5b600080600080600061032b86610870565b94509450945094509450600061034183836108b9565b9050610351868886868686610925565b5050600180555050505050565b7f000000000000000000000000000000000000000000000000000000000000000081565b61038a61086c565b6001600160a01b031661039b610464565b6001600160a01b0316146103f6576040805162461bcd60e51b815260206004820181905260248201527f4f776e61626c653a2063616c6c6572206973206e6f7420746865206f776e6572604482015290519081900360640190fd5b600080546040516001600160a01b03909116907f8be0079c531659141344cd1fd0a4f28419497f9722a3daafe3b4186f6b6457e0908390a3600080546001600160a01b0319169055565b7f000000000000000000000000000000000000000000000000000000000000000081565b6000546001600160a01b031690565b7f000000000000000000000000000000000000000000000000000000000000000081565b7f000000000000000000000000000000000000000000000000000000000000000081565b7f000000000000000000000000000000000000000000000000000000000000000081565b7f000000000000000000000000000000000000000000000000000000000000000081565b336001600160a01b037f000000000000000000000000000000000000000000000000000000000000000016146105545760405162461bcd60e51b815260040161054b90612a47565b60405180910390fd5b831561058e5761058e6001600160a01b037f0000000000000000000000000000000000000000000000000000000000000000163386610970565b82156105c8576105c86001600160a01b037f0000000000000000000000000000000000000000000000000000000000000000163385610970565b50505050565b6002805460035490916001600160801b03821691600160801b8104820b91600160981b8204900b90600160b01b900460ff1685565b7f000000000000000000000000000000000000000000000000000000000000000081565b61062f61086c565b6001600160a01b0316610640610464565b6001600160a01b03161461069b576040805162461bcd60e51b815260206004820181905260248201527f4f776e61626c653a2063616c6c6572206973206e6f7420746865206f776e6572604482015290519081900360640190fd5b6001600160a01b0381166106e05760405162461bcd60e51b8152600401808060200182810382526026815260200180612e1c6026913960400191505060405180910390fd5b600080546040516001600160a01b03808516939216917f8be0079c531659141344cd1fd0a4f28419497f9722a3daafe3b4186f6b6457e091a3600080546001600160a01b0319166001600160a01b0392909216919091179055565b8015806107c1575060408051636eb1769f60e11b81523060048201526001600160a01b03848116602483015291519185169163dd62ed3e91604480820192602092909190829003018186803b15801561079357600080fd5b505afa1580156107a7573d6000803e3d6000fd5b505050506040513d60208110156107bd57600080fd5b5051155b6107fc5760405162461bcd60e51b8152600401808060200182810382526036815260200180612eb36036913960400191505060405180910390fd5b604080516001600160a01b038416602482015260448082018490528251808303909101815260649091019091526020810180516001600160e01b031663095ea7b360e01b17905261084e9084906109be565b505050565b60606108628484600085610a6f565b90505b9392505050565b3390565b6000806000806000806000610883610bca565b9650915085905061089382610d78565b965061089e88610ed5565b94506108a985611130565b9094509250505091939590929450565b600354600090600160b01b900460ff1615806108e75750600354600284810b600160801b909204810b900b14155b806109045750600354600283810b600160981b909204810b900b14155b1561091b576109138383611471565b50600161091f565b5060005b92915050565b7f5422e969a24d0b1e269860d579e64358e9de3df58e771549e1f5310c2ee2e562428787878787876040516109609796959493929190612dbe565b60405180910390a1505050505050565b604080516001600160a01b038416602482015260448082018490528251808303909101815260649091019091526020810180516001600160e01b031663a9059cbb60e01b17905261084e9084905b6000610a13826040518060400160405280602081526020017f5361666545524332303a206c6f772d6c6576656c2063616c6c206661696c6564815250856001600160a01b03166108539092919063ffffffff16565b80519091501561084e57808060200190516020811015610a3257600080fd5b505161084e5760405162461bcd60e51b815260040180806020018281038252602a815260200180612e89602a913960400191505060405180910390fd5b606082471015610ab05760405162461bcd60e51b8152600401808060200182810382526026815260200180612e426026913960400191505060405180910390fd5b610ab985611633565b610b0a576040805162461bcd60e51b815260206004820152601d60248201527f416464726573733a2063616c6c20746f206e6f6e2d636f6e7472616374000000604482015290519081900360640190fd5b600080866001600160a01b031685876040518082805190602001908083835b60208310610b485780518252601f199092019160209182019101610b29565b6001836020036101000a03801982511681845116808217855250505050505090500191505060006040518083038185875af1925050503d8060008114610baa576040519150601f19603f3d011682016040523d82523d6000602084013e610baf565b606091505b5091509150610bbf828286611639565b979650505050505050565b60008060007f00000000000000000000000000000000000000000000000000000000000000006001600160a01b0316631698ee827f00000000000000000000000000000000000000000000000000000000000000007f00000000000000000000000000000000000000000000000000000000000000007f00000000000000000000000000000000000000000000000000000000000000006040518463ffffffff1660e01b8152600401610c7f939291906129be565b60206040518083038186803b158015610c9757600080fd5b505afa158015610cab573d6000803e3d6000fd5b505050506040513d601f19601f82011682018060405250810190610ccf91906127bb565b90506001600160a01b038116610cf75760405162461bcd60e51b815260040161054b90612b31565b806001600160a01b0316633850c7bd6040518163ffffffff1660e01b815260040160e06040518083038186803b158015610d3057600080fd5b505afa158015610d44573d6000803e3d6000fd5b505050506040513d601f19601f82011682018060405250810190610d6891906127d7565b5094989397509295505050505050565b60006001600160a01b038216800260c081901c60ff7f000000000000000000000000000000000000000000000000000000000000000081167f00000000000000000000000000000000000000000000000000000000000000009091161115610e33577f00000000000000000000000000000000000000000000000000000000000000007f00000000000000000000000000000000000000000000000000000000000000000360ff16600a0a8181610e2b57fe5b049050610ecc565b7f000000000000000000000000000000000000000000000000000000000000000060ff167f000000000000000000000000000000000000000000000000000000000000000060ff161115610ecc5760ff7f00000000000000000000000000000000000000000000000000000000000000007f00000000000000000000000000000000000000000000000000000000000000000316600a0a025b9150505b919050565b6000808211610ef65760405162461bcd60e51b815260040161054b906129f4565b600064e8d4a51000831115610f2557610f1e6ec097ce7bc90715b34b9f1000000000846116dd565b9050610f28565b50815b80670de0b6b3a764000060ff7f000000000000000000000000000000000000000000000000000000000000000081167f00000000000000000000000000000000000000000000000000000000000000009091161115610fe557610fde610fd460ff7f00000000000000000000000000000000000000000000000000000000000000008116907f000000000000000000000000000000000000000000000000000000000000000016611744565b8390600a0a6117a1565b9150611093565b7f000000000000000000000000000000000000000000000000000000000000000060ff167f000000000000000000000000000000000000000000000000000000000000000060ff1611156110935761109061108660ff7f00000000000000000000000000000000000000000000000000000000000000008116907f000000000000000000000000000000000000000000000000000000000000000016611744565b8290600a0a6117a1565b90505b60006110ad826110a785600160c01b6117a1565b906116dd565b905060006110ba826117fa565b90506401000276a36001600160a01b03821610156110ea5760405162461bcd60e51b815260040161054b90612b8b565b73fffd8963efd1fc6a506488495d951d5263988d266001600160a01b03821611156111275760405162461bcd60e51b815260040161054b90612a1f565b610bbf816118dc565b60008060007f000000000000000000000000000000000000000000000000000000000000000060020b136111765760405162461bcd60e51b815260040161054b90612b5d565b60045460009060029062ffffff167f000000000000000000000000000000000000000000000000000000000000000002810b05905060008160020b136111d957507f00000000000000000000000000000000000000000000000000000000000000005b7f00000000000000000000000000000000000000000000000000000000000000007f000000000000000000000000000000000000000000000000000000000000000060020b8260020b8161122957fe5b050290508060020b6000141561125c57507f00000000000000000000000000000000000000000000000000000000000000005b80840384820161128c827f0000000000000000000000000000000000000000000000000000000000000000611bfb565b94506112b8817f0000000000000000000000000000000000000000000000000000000000000000611bfb565b93507f000000000000000000000000000000000000000000000000000000000000000060020b8160020b816112e957fe5b0760020b15611318577f0000000000000000000000000000000000000000000000000000000000000000840193505b8360020b8560020b1261134b577f0000000000000000000000000000000000000000000000000000000000000000850193505b620d89e719600286900b12611360578461138e565b61138e620d89e7197f0000000000000000000000000000000000000000000000000000000000000000611bfb565b9450620d89e8600285900b136113a457836113d1565b6113d1620d89e87f0000000000000000000000000000000000000000000000000000000000000000611bfb565b93508360020b8560020b12611469577f000000000000000000000000000000000000000000000000000000000000000085019350620d89e8600285900b131561146957611441620d89e87f0000000000000000000000000000000000000000000000000000000000000000611bfb565b93507f0000000000000000000000000000000000000000000000000000000000000000840394505b505050915091565b600354600160b01b900460ff161561148b5761148b611c6a565b6040516370a0823160e01b81526000906001600160a01b037f000000000000000000000000000000000000000000000000000000000000000016906370a08231906114da9030906004016129aa565b60206040518083038186803b1580156114f257600080fd5b505afa158015611506573d6000803e3d6000fd5b505050506040513d601f19601f8201168201806040525081019061152a919061288f565b905060007f00000000000000000000000000000000000000000000000000000000000000006001600160a01b03166370a08231306040518263ffffffff1660e01b815260040161157a91906129aa565b60206040518083038186803b15801561159257600080fd5b505afa1580156115a6573d6000803e3d6000fd5b505050506040513d601f19601f820116820180604052508101906115ca919061288f565b905060008211806115db5750600081115b156115f1576115ec84848484611d0e565b6105c8565b6040805160a08101825260008082526020820181905291810182905260608101829052608001819052600255600380546001600160b81b031916905550505050565b3b151590565b60608315611648575081610865565b8251156116585782518084602001fd5b8160405162461bcd60e51b81526004018080602001828103825283818151815260200191508051906020019080838360005b838110156116a257818101518382015260200161168a565b50505050905090810190601f1680156116cf5780820380516001836020036101000a031916815260200191505b509250505060405180910390fd5b6000808211611733576040805162461bcd60e51b815260206004820152601a60248201527f536166654d6174683a206469766973696f6e206279207a65726f000000000000604482015290519081900360640190fd5b81838161173c57fe5b049392505050565b60008282111561179b576040805162461bcd60e51b815260206004820152601e60248201527f536166654d6174683a207375627472616374696f6e206f766572666c6f770000604482015290519081900360640190fd5b50900390565b6000826117b05750600061091f565b828202828482816117bd57fe5b04146108655760405162461bcd60e51b8152600401808060200182810382526021815260200180612e686021913960400191505060405180910390fd5b60008161180957506000610ed0565b6000600161181684611e22565b6001911c1b905080611826575060015b600061184160026110a761183a87866116dd565b8590611ecd565b905061185c60026110a761185587856116dd565b8490611ecd565b905061187060026110a761185587856116dd565b905061188460026110a761185587856116dd565b905061189860026110a761185587856116dd565b90506118ac60026110a761185587856116dd565b90506118b884826116dd565b8111156118d3576118ca816001611744565b92505050610ed0565b9150610ed09050565b60006401000276a36001600160a01b03831610801590611918575073fffd8963efd1fc6a506488495d951d5263988d266001600160a01b038316105b61194d576040805162461bcd60e51b81526020600482015260016024820152602960f91b604482015290519081900360640190fd5b640100000000600160c01b03602083901b166001600160801b03811160071b81811c67ffffffffffffffff811160061b90811c63ffffffff811160051b90811c61ffff811160041b90811c60ff8111600390811b91821c600f811160021b90811c918211600190811b92831c979088119617909417909217179091171717608081106119e157607f810383901c91506119eb565b80607f0383901b91505b908002607f81811c60ff83811c9190911c800280831c81831c1c800280841c81841c1c800280851c81851c1c800280861c81861c1c800280871c81871c1c800280881c81881c1c800280891c81891c1c8002808a1c818a1c1c8002808b1c818b1c1c8002808c1c818c1c1c8002808d1c818d1c1c8002808e1c9c81901c9c909c1c80029c8d901c9e9d607f198f0160401b60c09190911c678000000000000000161760c19b909b1c674000000000000000169a909a1760c29990991c672000000000000000169890981760c39790971c671000000000000000169690961760c49590951c670800000000000000169490941760c59390931c670400000000000000169290921760c69190911c670200000000000000161760c79190911c670100000000000000161760c89190911c6680000000000000161760c99190911c6640000000000000161760ca9190911c6620000000000000161760cb9190911c6610000000000000161760cc9190911c6608000000000000161760cd9190911c66040000000000001617693627a301d71055774c8581026f028f6481ab7f045a5af012a19d003aa9198101608090811d906fdb2df09e81959a81455e260799a0632f8301901d600281810b9083900b14611bec57886001600160a01b0316611bd082611f27565b6001600160a01b03161115611be55781611be7565b805b611bee565b815b9998505050505050505050565b6000808260020b13611c1f5760405162461bcd60e51b815260040161054b90612bb2565b60008260020b8460020b81611c3057fe5b05905060008460020b128015611c5757508260020b8460020b81611c5057fe5b0760020b15155b15611c6157600019015b90910292915050565b600354600160b01b900460ff168015611c84575060025415155b611ca05760405162461bcd60e51b815260040161054b90612aad565b60028054600380546040805160a0810182526000808252602082018190529181018290526060810182905260800181905284556001600160b81b0319811690915590916001600160801b03821691600160801b8104820b91600160981b909104900b6105c884848484612259565b600354600160b01b900460ff1615611d385760405162461bcd60e51b815260040161054b90612a76565b60006040518061016001604052807f00000000000000000000000000000000000000000000000000000000000000006001600160a01b031681526020017f00000000000000000000000000000000000000000000000000000000000000006001600160a01b031681526020017f000000000000000000000000000000000000000000000000000000000000000062ffffff1681526020018660020b81526020018560020b81526020018481526020018381526020016000815260200160008152602001306001600160a01b03168152602001428152509050611e1b8186866124bc565b5050505050565b60008180611e2f57600091505b6001600160801b03811115611e46576080918201911c5b67ffffffffffffffff811115611e5e576040918201911c5b63ffffffff811115611e72576020918201911c5b61ffff811115611e84576010918201911c5b60ff811115611e95576008918201911c5b600f811115611ea6576004918201911c5b6003811115611eb7576002918201911c5b6001811115611ec7576001820191505b50919050565b600082820183811015610865576040805162461bcd60e51b815260206004820152601b60248201527f536166654d6174683a206164646974696f6e206f766572666c6f770000000000604482015290519081900360640190fd5b60008060008360020b12611f3e578260020b611f46565b8260020b6000035b9050620d89e8811115611f84576040805162461bcd60e51b81526020600482015260016024820152601560fa1b604482015290519081900360640190fd5b600060018216611f9857600160801b611faa565b6ffffcb933bd6fad37aa2d162d1a5940015b70ffffffffffffffffffffffffffffffffff1690506002821615611fde576ffff97272373d413259a46990580e213a0260801c5b6004821615611ffd576ffff2e50f5f656932ef12357cf3c7fdcc0260801c5b600882161561201c576fffe5caca7e10e4e61c3624eaa0941cd00260801c5b601082161561203b576fffcb9843d60f6159c9db58835c9266440260801c5b602082161561205a576fff973b41fa98c081472e6896dfb254c00260801c5b6040821615612079576fff2ea16466c96a3843ec78b326b528610260801c5b6080821615612098576ffe5dee046a99a2a811c461f1969c30530260801c5b6101008216156120b8576ffcbe86c7900a88aedcffc83b479aa3a40260801c5b6102008216156120d8576ff987a7253ac413176f2b074cf7815e540260801c5b6104008216156120f8576ff3392b0822b70005940c7a398e4b70f30260801c5b610800821615612118576fe7159475a2c29b7443b29c7fa6e889d90260801c5b611000821615612138576fd097f3bdfd2022b8845ad8f792aa58250260801c5b612000821615612158576fa9f746462d870fdf8a65dc1f90e061e50260801c5b614000821615612178576f70d869a156d2a1b890bb3df62baf32f70260801c5b618000821615612198576f31be135f97d08fd981231505542fcfa60260801c5b620100008216156121b9576f09aa508b5b7a84e1c677de54f3e99bc90260801c5b620200008216156121d9576e5d6af8dedb81196699c329225ee6040260801c5b620400008216156121f8576d2216e584f5fa1ea926041bedfe980260801c5b62080000821615612215576b048a170391f7dc42444e8fa20260801c5b60008460020b131561223057806000198161222c57fe5b0490505b640100000000810615612244576001612247565b60005b60ff16602082901c0192505050919050565b60008080806001600160801b03871615612344576040805160a0810182528981526001600160801b0389166020820152600081830181905260608201524260808201529051630624e65f60e11b81526001600160a01b037f00000000000000000000000000000000000000000000000000000000000000001691630c49ccbe916122e69190600401612c82565b6040805180830381600087803b1580156122ff57600080fd5b505af192505050801561232f575060408051601f3d908101601f1916820190925261232c918101906128ef565b60015b6123385761233f565b5050600193505b612349565b600193505b831561249457604080516080810182528981523060208201526001600160801b038183018190526060820152905163fc6f786560e01b81526001600160a01b037f0000000000000000000000000000000000000000000000000000000000000000169163fc6f7865916123bf9190600401612c3f565b6040805180830381600087803b1580156123d857600080fd5b505af1925050508015612408575060408051601f3d908101601f19168201909252612405918101906128ef565b60015b6124115761241b565b6001945090925090505b604051630852cd8d60e31b81526001600160a01b037f000000000000000000000000000000000000000000000000000000000000000016906342966c6890612467908b90600401612d83565b600060405180830381600087803b15801561248157600080fd5b505af1925050508015612492575060015b505b60008480156124a05750835b90506124b18988888b878787612708565b505050505050505050565b60008060008060007f00000000000000000000000000000000000000000000000000000000000000006001600160a01b03166388316456896040518263ffffffff1660e01b81526004016125109190612cc5565b608060405180830381600087803b15801561252a57600080fd5b505af192505050801561255a575060408051601f3d908101601f19168201909252612557918101906128a7565b60015b612563576126ad565b8398508297508196508095506000886001600160801b03161115612629576040805160a0810182528a81526001600160801b038a166020820181905260028e810b9383018490528d810b60608401819052600160809094018490528d825560038054600160b01b6fffffffffffffffffffffffffffffffff1990911690941762ffffff60801b1916600160801b96840b62ffffff908116979097021762ffffff60981b1916600160981b9290930b95909516021760ff60b01b19161790915594506126a8565b88156126a857604051630852cd8d60e31b81526001600160a01b037f000000000000000000000000000000000000000000000000000000000000000016906342966c689061267b908c90600401612d83565b600060405180830381600087803b15801561269557600080fd5b505af19250505080156126a6575060015b505b505050505b6126bc85888887878787612753565b806126fe576040805160a08101825260008082526020820181905291810182905260608101829052608001819052600255600380546001600160b81b03191690555b5050505050505050565b867fdee9c9ac7e4f2757956dfcf228dc427442ec0a77c0020754a5d9c3b2583d9a1487878787878760405161274296959493929190612ad9565b60405180910390a250505050505050565b867fdee9c9ac7e4f2757956dfcf228dc427442ec0a77c0020754a5d9c3b2583d9a1487878787878760405161274296959493929190612be9565b805161ffff81168114610ed057600080fd5b6000602082840312156127b0578081fd5b813561086581612e03565b6000602082840312156127cc578081fd5b815161086581612e03565b600080600080600080600060e0888a0312156127f1578283fd5b87516127fc81612e03565b8097505060208801518060020b8114612813578384fd5b95506128216040890161278d565b945061282f6060890161278d565b935061283d6080890161278d565b925060a088015160ff81168114612852578283fd5b60c08901519092508015158114612867578182fd5b8091505092959891949750929550565b600060208284031215612888578081fd5b5035919050565b6000602082840312156128a0578081fd5b5051919050565b600080600080608085870312156128bc578384fd5b8451935060208501516001600160801b03811681146128d9578384fd5b6040860151606090960151949790965092505050565b60008060408385031215612901578182fd5b505080516020909101519092909150565b60008060008060608587031215612927578384fd5b8435935060208501359250604085013567ffffffffffffffff8082111561294c578384fd5b818701915087601f83011261295f578384fd5b81358181111561296d578485fd5b88602082850101111561297e578485fd5b95989497505060200194505050565b6001600160a01b03169052565b60020b9052565b62ffffff169052565b6001600160a01b0391909116815260200190565b6001600160a01b03938416815291909216602082015262ffffff909116604082015260600190565b60029190910b815260200190565b60208082526011908201527005072696365206d757374206265203e203607c1b604082015260600190565b6020808252600e908201526d0a0e4d2c6ca40e8dede40d0d2ced60931b604082015260600190565b602080825260159082015274556e617574686f72697a65642063616c6c6261636b60581b604082015260600190565b60208082526017908201527f506f736974696f6e20616c726561647920616374697665000000000000000000604082015260600190565b60208082526012908201527127379030b1ba34bb32903837b9b4ba34b7b760711b604082015260600190565b60e08082526006908201526552454d4f564560d01b610100820152600296870b60208201529490950b60408501526001600160801b03929092166060840152608083015260a082015290151560c08201526101200190565b602080825260129082015271141bdbdb08191bd95cdb89dd08195e1a5cdd60721b604082015260600190565b602080825260149082015273496e76616c6964207469636b2073706163696e6760601b604082015260600190565b6020808252600d908201526c507269636520746f6f206c6f7760981b604082015260600190565b6020808252601d908201527f5469636b2073706163696e67206d75737420626520706f736974697665000000604082015260600190565b60e0808252600490820152631352539560e21b610100820152600296870b60208201529490950b60408501526001600160801b03929092166060840152608083015260a082015290151560c08201526101200190565b815181526020808301516001600160a01b0316908201526040808301516001600160801b0390811691830191909152606092830151169181019190915260800190565b600060a082019050825182526001600160801b03602084015116602083015260408301516040830152606083015160608301526080830151608083015292915050565b600061016082019050612cd982845161298d565b6020830151612ceb602084018261298d565b506040830151612cfe60408401826129a1565b506060830151612d11606084018261299a565b506080830151612d24608084018261299a565b5060a083015160a083015260c083015160c083015260e083015160e083015261010080840151818401525061012080840151612d628285018261298d565b505061014092830151919092015290565b62ffffff91909116815260200190565b90815260200190565b9485526001600160801b03939093166020850152600291820b6040850152900b60608301521515608082015260a00190565b96875260208701959095526040860193909352600291820b6060860152810b60808501520b60a0830152151560c082015260e00190565b60ff91909116815260200190565b6001600160a01b0381168114612e1857600080fd5b5056fe4f776e61626c653a206e6577206f776e657220697320746865207a65726f2061646472657373416464726573733a20696e73756666696369656e742062616c616e636520666f722063616c6c536166654d6174683a206d756c7469706c69636174696f6e206f766572666c6f775361666545524332303a204552433230206f7065726174696f6e20646964206e6f7420737563636565645361666545524332303a20617070726f76652066726f6d206e6f6e2d7a65726f20746f206e6f6e2d7a65726f20616c6c6f77616e6365a2646970667358221220895d9869c4eda3b215177e679dc0e1d9317ead593aca7b59f7cea95cfcc3e7b264736f6c634300070600334f776e61626c653a206e6577206f776e657220697320746865207a65726f2061646472657373416464726573733a20696e73756666696369656e742062616c616e636520666f722063616c6c8be0079c531659141344cd1fd0a4f28419497f9722a3daafe3b4186f6b6457e05361666545524332303a204552433230206f7065726174696f6e20646964206e6f7420737563636565645361666545524332303a20617070726f76652066726f6d206e6f6e2d7a65726f20746f206e6f6e2d7a65726f20616c6c6f77616e6365","opcodes":"PUSH2 0x1A0 PUSH1 0x40 MSTORE PUSH1 0x4 DUP1 SLOAD PUSH3 0xFFFFFF NOT AND DUP2 OR SWAP1 SSTORE CALLVALUE DUP1 ISZERO PUSH3 0x20 JUMPI PUSH1 0x0 DUP1 REVERT JUMPDEST POP PUSH1 0x40 MLOAD PUSH3 0x3C59 CODESIZE SUB DUP1 PUSH3 0x3C59 DUP4 CODECOPY DUP2 ADD PUSH1 0x40 DUP2 SWAP1 MSTORE PUSH3 0x43 SWAP2 PUSH3 0x932 JUMP JUMPDEST PUSH1 0x0 PUSH3 0x4F PUSH3 0x3CA JUMP JUMPDEST PUSH1 0x0 DUP1 SLOAD PUSH1 0x1 PUSH1 0x1 PUSH1 0xA0 SHL SUB NOT AND PUSH1 0x1 PUSH1 0x1 PUSH1 0xA0 SHL SUB DUP4 AND SWAP1 DUP2 OR DUP3 SSTORE PUSH1 0x40 MLOAD SWAP3 SWAP4 POP SWAP2 PUSH1 0x0 DUP1 MLOAD PUSH1 0x20 PUSH3 0x3BD9 DUP4 CODECOPY DUP2 MLOAD SWAP2 MSTORE SWAP1 DUP3 SWAP1 LOG3 POP PUSH1 0x1 DUP1 SSTORE PUSH1 0x1 PUSH1 0x1 PUSH1 0x60 SHL SUB NOT PUSH1 0x60 DUP9 DUP2 SHL DUP3 AND PUSH1 0x80 MSTORE DUP8 DUP2 SHL DUP3 AND PUSH1 0xA0 MSTORE DUP7 DUP2 SHL DUP3 AND PUSH1 0xC0 MSTORE DUP6 DUP2 SHL DUP3 AND PUSH1 0xE0 MSTORE PUSH1 0x1 PUSH1 0x1 PUSH1 0xE8 SHL SUB NOT PUSH1 0xE8 DUP7 SWAP1 SHL AND PUSH2 0x140 MSTORE DUP4 SWAP1 SHL AND PUSH2 0x180 MSTORE PUSH1 0x40 DUP1 MLOAD PUSH4 0x313CE567 PUSH1 0xE0 SHL DUP2 MSTORE SWAP1 MLOAD PUSH1 0x1 PUSH1 0x1 PUSH1 0xA0 SHL SUB DUP8 AND SWAP2 PUSH4 0x313CE567 SWAP2 PUSH1 0x4 DUP1 DUP4 ADD SWAP3 PUSH1 0x20 SWAP3 SWAP2 SWAP1 DUP3 SWAP1 SUB ADD DUP2 DUP7 DUP1 EXTCODESIZE ISZERO DUP1 ISZERO PUSH3 0x113 JUMPI PUSH1 0x0 DUP1 REVERT JUMPDEST POP GAS STATICCALL SWAP3 POP POP POP DUP1 ISZERO PUSH3 0x146 JUMPI POP PUSH1 0x40 DUP1 MLOAD PUSH1 0x1F RETURNDATASIZE SWAP1 DUP2 ADD PUSH1 0x1F NOT AND DUP3 ADD SWAP1 SWAP3 MSTORE PUSH3 0x143 SWAP2 DUP2 ADD SWAP1 PUSH3 0x9F1 JUMP JUMPDEST PUSH1 0x1 JUMPDEST PUSH3 0x16E JUMPI PUSH1 0x40 MLOAD PUSH3 0x461BCD PUSH1 0xE5 SHL DUP2 MSTORE PUSH1 0x4 ADD PUSH3 0x165 SWAP1 PUSH3 0xAB5 JUMP JUMPDEST PUSH1 0x40 MLOAD DUP1 SWAP2 SUB SWAP1 REVERT JUMPDEST PUSH1 0x1 PUSH1 0x1 PUSH1 0xF8 SHL SUB NOT PUSH1 0xF8 SWAP2 SWAP1 SWAP2 SHL AND PUSH2 0x100 MSTORE DUP4 PUSH1 0x1 PUSH1 0x1 PUSH1 0xA0 SHL SUB AND PUSH4 0x313CE567 PUSH1 0x40 MLOAD DUP2 PUSH4 0xFFFFFFFF AND PUSH1 0xE0 SHL DUP2 MSTORE PUSH1 0x4 ADD PUSH1 0x20 PUSH1 0x40 MLOAD DUP1 DUP4 SUB DUP2 DUP7 DUP1 EXTCODESIZE ISZERO DUP1 ISZERO PUSH3 0x1BC JUMPI PUSH1 0x0 DUP1 REVERT JUMPDEST POP GAS STATICCALL SWAP3 POP POP POP DUP1 ISZERO PUSH3 0x1EF JUMPI POP PUSH1 0x40 DUP1 MLOAD PUSH1 0x1F RETURNDATASIZE SWAP1 DUP2 ADD PUSH1 0x1F NOT AND DUP3 ADD SWAP1 SWAP3 MSTORE PUSH3 0x1EC SWAP2 DUP2 ADD SWAP1 PUSH3 0x9F1 JUMP JUMPDEST PUSH1 0x1 JUMPDEST PUSH3 0x20E JUMPI PUSH1 0x40 MLOAD PUSH3 0x461BCD PUSH1 0xE5 SHL DUP2 MSTORE PUSH1 0x4 ADD PUSH3 0x165 SWAP1 PUSH3 0xA3C JUMP JUMPDEST PUSH1 0xF8 SHL PUSH1 0x1 PUSH1 0x1 PUSH1 0xF8 SHL SUB NOT AND PUSH2 0x120 MSTORE PUSH1 0x40 MLOAD PUSH4 0xB4C7741 PUSH1 0xE1 SHL DUP2 MSTORE PUSH1 0x0 SWAP1 PUSH1 0x1 PUSH1 0x1 PUSH1 0xA0 SHL SUB DUP10 AND SWAP1 PUSH4 0x1698EE82 SWAP1 PUSH3 0x254 SWAP1 DUP10 SWAP1 DUP10 SWAP1 DUP10 SWAP1 PUSH1 0x4 ADD PUSH3 0xA14 JUMP JUMPDEST PUSH1 0x20 PUSH1 0x40 MLOAD DUP1 DUP4 SUB DUP2 DUP7 DUP1 EXTCODESIZE ISZERO DUP1 ISZERO PUSH3 0x26D JUMPI PUSH1 0x0 DUP1 REVERT JUMPDEST POP GAS STATICCALL ISZERO DUP1 ISZERO PUSH3 0x282 JUMPI RETURNDATASIZE PUSH1 0x0 DUP1 RETURNDATACOPY RETURNDATASIZE PUSH1 0x0 REVERT JUMPDEST POP POP POP POP PUSH1 0x40 MLOAD RETURNDATASIZE PUSH1 0x1F NOT PUSH1 0x1F DUP3 ADD AND DUP3 ADD DUP1 PUSH1 0x40 MSTORE POP DUP2 ADD SWAP1 PUSH3 0x2A8 SWAP2 SWAP1 PUSH3 0x915 JUMP JUMPDEST SWAP1 POP PUSH1 0x1 PUSH1 0x1 PUSH1 0xA0 SHL SUB DUP2 AND PUSH3 0x2D3 JUMPI PUSH1 0x40 MLOAD PUSH3 0x461BCD PUSH1 0xE5 SHL DUP2 MSTORE PUSH1 0x4 ADD PUSH3 0x165 SWAP1 PUSH3 0xA7E JUMP JUMPDEST DUP1 PUSH1 0x1 PUSH1 0x1 PUSH1 0xA0 SHL SUB AND PUSH4 0xD0C93A7C PUSH1 0x40 MLOAD DUP2 PUSH4 0xFFFFFFFF AND PUSH1 0xE0 SHL DUP2 MSTORE PUSH1 0x4 ADD PUSH1 0x20 PUSH1 0x40 MLOAD DUP1 DUP4 SUB DUP2 DUP7 DUP1 EXTCODESIZE ISZERO DUP1 ISZERO PUSH3 0x30D JUMPI PUSH1 0x0 DUP1 REVERT JUMPDEST POP GAS STATICCALL ISZERO DUP1 ISZERO PUSH3 0x322 JUMPI RETURNDATASIZE PUSH1 0x0 DUP1 RETURNDATACOPY RETURNDATASIZE PUSH1 0x0 REVERT JUMPDEST POP POP POP POP PUSH1 0x40 MLOAD RETURNDATASIZE PUSH1 0x1F NOT PUSH1 0x1F DUP3 ADD AND DUP3 ADD DUP1 PUSH1 0x40 MSTORE POP DUP2 ADD SWAP1 PUSH3 0x348 SWAP2 SWAP1 PUSH3 0x9CE JUMP JUMPDEST PUSH1 0x2 SWAP1 DUP2 SIGNEXTEND SWAP1 SIGNEXTEND PUSH1 0xE8 SHL PUSH2 0x160 MSTORE PUSH3 0x37A PUSH1 0x1 PUSH1 0x1 PUSH1 0xA0 SHL SUB DUP8 AND DUP9 PUSH1 0x0 NOT PUSH3 0x3CE PUSH1 0x20 SWAP1 DUP2 SHL PUSH3 0x73B OR SWAP1 SHR JUMP JUMPDEST PUSH3 0x3A1 DUP8 PUSH1 0x0 NOT DUP8 PUSH1 0x1 PUSH1 0x1 PUSH1 0xA0 SHL SUB AND PUSH3 0x3CE PUSH1 0x20 SHL PUSH3 0x73B OR SWAP1 SWAP3 SWAP2 SWAP1 PUSH1 0x20 SHR JUMP JUMPDEST PUSH1 0x1 PUSH1 0x1 PUSH1 0xA0 SHL SUB DUP3 AND ISZERO PUSH3 0x3BC JUMPI PUSH3 0x3BC DUP3 PUSH3 0x4F2 JUMP JUMPDEST POP POP POP POP POP POP POP POP PUSH3 0xAF7 JUMP JUMPDEST CALLER SWAP1 JUMP JUMPDEST DUP1 ISZERO DUP1 PUSH3 0x458 JUMPI POP PUSH1 0x40 DUP1 MLOAD PUSH4 0x6EB1769F PUSH1 0xE1 SHL DUP2 MSTORE ADDRESS PUSH1 0x4 DUP3 ADD MSTORE PUSH1 0x1 PUSH1 0x1 PUSH1 0xA0 SHL SUB DUP5 DUP2 AND PUSH1 0x24 DUP4 ADD MSTORE SWAP2 MLOAD SWAP2 DUP6 AND SWAP2 PUSH4 0xDD62ED3E SWAP2 PUSH1 0x44 DUP1 DUP3 ADD SWAP3 PUSH1 0x20 SWAP3 SWAP1 SWAP2 SWAP1 DUP3 SWAP1 SUB ADD DUP2 DUP7 DUP1 EXTCODESIZE ISZERO DUP1 ISZERO PUSH3 0x428 JUMPI PUSH1 0x0 DUP1 REVERT JUMPDEST POP GAS STATICCALL ISZERO DUP1 ISZERO PUSH3 0x43D JUMPI RETURNDATASIZE PUSH1 0x0 DUP1 RETURNDATACOPY RETURNDATASIZE PUSH1 0x0 REVERT JUMPDEST POP POP POP POP PUSH1 0x40 MLOAD RETURNDATASIZE PUSH1 0x20 DUP2 LT ISZERO PUSH3 0x454 JUMPI PUSH1 0x0 DUP1 REVERT JUMPDEST POP MLOAD ISZERO JUMPDEST PUSH3 0x495 JUMPI PUSH1 0x40 MLOAD PUSH3 0x461BCD PUSH1 0xE5 SHL DUP2 MSTORE PUSH1 0x4 ADD DUP1 DUP1 PUSH1 0x20 ADD DUP3 DUP2 SUB DUP3 MSTORE PUSH1 0x36 DUP2 MSTORE PUSH1 0x20 ADD DUP1 PUSH3 0x3C23 PUSH1 0x36 SWAP2 CODECOPY PUSH1 0x40 ADD SWAP2 POP POP PUSH1 0x40 MLOAD DUP1 SWAP2 SUB SWAP1 REVERT JUMPDEST PUSH1 0x40 DUP1 MLOAD PUSH1 0x1 PUSH1 0x1 PUSH1 0xA0 SHL SUB DUP5 AND PUSH1 0x24 DUP3 ADD MSTORE PUSH1 0x44 DUP1 DUP3 ADD DUP5 SWAP1 MSTORE DUP3 MLOAD DUP1 DUP4 SUB SWAP1 SWAP2 ADD DUP2 MSTORE PUSH1 0x64 SWAP1 SWAP2 ADD SWAP1 SWAP2 MSTORE PUSH1 0x20 DUP2 ADD DUP1 MLOAD PUSH1 0x1 PUSH1 0x1 PUSH1 0xE0 SHL SUB SWAP1 DUP2 AND PUSH4 0x95EA7B3 PUSH1 0xE0 SHL OR SWAP1 SWAP2 MSTORE PUSH3 0x4ED SWAP2 DUP6 SWAP2 PUSH3 0x5FC AND JUMP JUMPDEST POP POP POP JUMP JUMPDEST PUSH3 0x4FC PUSH3 0x3CA JUMP JUMPDEST PUSH1 0x1 PUSH1 0x1 PUSH1 0xA0 SHL SUB AND PUSH3 0x50F PUSH3 0x6B8 JUMP JUMPDEST PUSH1 0x1 PUSH1 0x1 PUSH1 0xA0 SHL SUB AND EQ PUSH3 0x56B JUMPI PUSH1 0x40 DUP1 MLOAD PUSH3 0x461BCD PUSH1 0xE5 SHL DUP2 MSTORE PUSH1 0x20 PUSH1 0x4 DUP3 ADD DUP2 SWAP1 MSTORE PUSH1 0x24 DUP3 ADD MSTORE PUSH32 0x4F776E61626C653A2063616C6C6572206973206E6F7420746865206F776E6572 PUSH1 0x44 DUP3 ADD MSTORE SWAP1 MLOAD SWAP1 DUP2 SWAP1 SUB PUSH1 0x64 ADD SWAP1 REVERT JUMPDEST PUSH1 0x1 PUSH1 0x1 PUSH1 0xA0 SHL SUB DUP2 AND PUSH3 0x5B2 JUMPI PUSH1 0x40 MLOAD PUSH3 0x461BCD PUSH1 0xE5 SHL DUP2 MSTORE PUSH1 0x4 ADD DUP1 DUP1 PUSH1 0x20 ADD DUP3 DUP2 SUB DUP3 MSTORE PUSH1 0x26 DUP2 MSTORE PUSH1 0x20 ADD DUP1 PUSH3 0x3B8D PUSH1 0x26 SWAP2 CODECOPY PUSH1 0x40 ADD SWAP2 POP POP PUSH1 0x40 MLOAD DUP1 SWAP2 SUB SWAP1 REVERT JUMPDEST PUSH1 0x0 DUP1 SLOAD PUSH1 0x40 MLOAD PUSH1 0x1 PUSH1 0x1 PUSH1 0xA0 SHL SUB DUP1 DUP6 AND SWAP4 SWAP3 AND SWAP2 PUSH1 0x0 DUP1 MLOAD PUSH1 0x20 PUSH3 0x3BD9 DUP4 CODECOPY DUP2 MLOAD SWAP2 MSTORE SWAP2 LOG3 PUSH1 0x0 DUP1 SLOAD PUSH1 0x1 PUSH1 0x1 PUSH1 0xA0 SHL SUB NOT AND PUSH1 0x1 PUSH1 0x1 PUSH1 0xA0 SHL SUB SWAP3 SWAP1 SWAP3 AND SWAP2 SWAP1 SWAP2 OR SWAP1 SSTORE JUMP JUMPDEST PUSH1 0x0 PUSH3 0x658 DUP3 PUSH1 0x40 MLOAD DUP1 PUSH1 0x40 ADD PUSH1 0x40 MSTORE DUP1 PUSH1 0x20 DUP2 MSTORE PUSH1 0x20 ADD PUSH32 0x5361666545524332303A206C6F772D6C6576656C2063616C6C206661696C6564 DUP2 MSTORE POP DUP6 PUSH1 0x1 PUSH1 0x1 PUSH1 0xA0 SHL SUB AND PUSH3 0x6C7 PUSH1 0x20 SHL PUSH3 0x853 OR SWAP1 SWAP3 SWAP2 SWAP1 PUSH1 0x20 SHR JUMP JUMPDEST DUP1 MLOAD SWAP1 SWAP2 POP ISZERO PUSH3 0x4ED JUMPI DUP1 DUP1 PUSH1 0x20 ADD SWAP1 MLOAD PUSH1 0x20 DUP2 LT ISZERO PUSH3 0x679 JUMPI PUSH1 0x0 DUP1 REVERT JUMPDEST POP MLOAD PUSH3 0x4ED JUMPI PUSH1 0x40 MLOAD PUSH3 0x461BCD PUSH1 0xE5 SHL DUP2 MSTORE PUSH1 0x4 ADD DUP1 DUP1 PUSH1 0x20 ADD DUP3 DUP2 SUB DUP3 MSTORE PUSH1 0x2A DUP2 MSTORE PUSH1 0x20 ADD DUP1 PUSH3 0x3BF9 PUSH1 0x2A SWAP2 CODECOPY PUSH1 0x40 ADD SWAP2 POP POP PUSH1 0x40 MLOAD DUP1 SWAP2 SUB SWAP1 REVERT JUMPDEST PUSH1 0x0 SLOAD PUSH1 0x1 PUSH1 0x1 PUSH1 0xA0 SHL SUB AND SWAP1 JUMP JUMPDEST PUSH1 0x60 PUSH3 0x6D8 DUP5 DUP5 PUSH1 0x0 DUP6 PUSH3 0x6E2 JUMP JUMPDEST SWAP1 POP JUMPDEST SWAP4 SWAP3 POP POP POP JUMP JUMPDEST PUSH1 0x60 DUP3 SELFBALANCE LT ISZERO PUSH3 0x725 JUMPI PUSH1 0x40 MLOAD PUSH3 0x461BCD PUSH1 0xE5 SHL DUP2 MSTORE PUSH1 0x4 ADD DUP1 DUP1 PUSH1 0x20 ADD DUP3 DUP2 SUB DUP3 MSTORE PUSH1 0x26 DUP2 MSTORE PUSH1 0x20 ADD DUP1 PUSH3 0x3BB3 PUSH1 0x26 SWAP2 CODECOPY PUSH1 0x40 ADD SWAP2 POP POP PUSH1 0x40 MLOAD DUP1 SWAP2 SUB SWAP1 REVERT JUMPDEST PUSH3 0x730 DUP6 PUSH3 0x849 JUMP JUMPDEST PUSH3 0x782 JUMPI PUSH1 0x40 DUP1 MLOAD PUSH3 0x461BCD PUSH1 0xE5 SHL DUP2 MSTORE PUSH1 0x20 PUSH1 0x4 DUP3 ADD MSTORE PUSH1 0x1D PUSH1 0x24 DUP3 ADD MSTORE PUSH32 0x416464726573733A2063616C6C20746F206E6F6E2D636F6E7472616374000000 PUSH1 0x44 DUP3 ADD MSTORE SWAP1 MLOAD SWAP1 DUP2 SWAP1 SUB PUSH1 0x64 ADD SWAP1 REVERT JUMPDEST PUSH1 0x0 DUP1 DUP7 PUSH1 0x1 PUSH1 0x1 PUSH1 0xA0 SHL SUB AND DUP6 DUP8 PUSH1 0x40 MLOAD DUP1 DUP3 DUP1 MLOAD SWAP1 PUSH1 0x20 ADD SWAP1 DUP1 DUP4 DUP4 JUMPDEST PUSH1 0x20 DUP4 LT PUSH3 0x7C2 JUMPI DUP1 MLOAD DUP3 MSTORE PUSH1 0x1F NOT SWAP1 SWAP3 ADD SWAP2 PUSH1 0x20 SWAP2 DUP3 ADD SWAP2 ADD PUSH3 0x7A1 JUMP JUMPDEST PUSH1 0x1 DUP4 PUSH1 0x20 SUB PUSH2 0x100 EXP SUB DUP1 NOT DUP3 MLOAD AND DUP2 DUP5 MLOAD AND DUP1 DUP3 OR DUP6 MSTORE POP POP POP POP POP POP SWAP1 POP ADD SWAP2 POP POP PUSH1 0x0 PUSH1 0x40 MLOAD DUP1 DUP4 SUB DUP2 DUP6 DUP8 GAS CALL SWAP3 POP POP POP RETURNDATASIZE DUP1 PUSH1 0x0 DUP2 EQ PUSH3 0x826 JUMPI PUSH1 0x40 MLOAD SWAP2 POP PUSH1 0x1F NOT PUSH1 0x3F RETURNDATASIZE ADD AND DUP3 ADD PUSH1 0x40 MSTORE RETURNDATASIZE DUP3 MSTORE RETURNDATASIZE PUSH1 0x0 PUSH1 0x20 DUP5 ADD RETURNDATACOPY PUSH3 0x82B JUMP JUMPDEST PUSH1 0x60 SWAP2 POP JUMPDEST POP SWAP1 SWAP3 POP SWAP1 POP PUSH3 0x83E DUP3 DUP3 DUP7 PUSH3 0x853 JUMP JUMPDEST SWAP8 SWAP7 POP POP POP POP POP POP POP JUMP JUMPDEST DUP1 EXTCODESIZE ISZERO ISZERO JUMPDEST SWAP2 SWAP1 POP JUMP JUMPDEST PUSH1 0x60 DUP4 ISZERO PUSH3 0x864 JUMPI POP DUP2 PUSH3 0x6DB JUMP JUMPDEST DUP3 MLOAD ISZERO PUSH3 0x875 JUMPI DUP3 MLOAD DUP1 DUP5 PUSH1 0x20 ADD REVERT JUMPDEST DUP2 PUSH1 0x40 MLOAD PUSH3 0x461BCD PUSH1 0xE5 SHL DUP2 MSTORE PUSH1 0x4 ADD DUP1 DUP1 PUSH1 0x20 ADD DUP3 DUP2 SUB DUP3 MSTORE DUP4 DUP2 DUP2 MLOAD DUP2 MSTORE PUSH1 0x20 ADD SWAP2 POP DUP1 MLOAD SWAP1 PUSH1 0x20 ADD SWAP1 DUP1 DUP4 DUP4 PUSH1 0x0 JUMPDEST DUP4 DUP2 LT ISZERO PUSH3 0x8C1 JUMPI DUP2 DUP2 ADD MLOAD DUP4 DUP3 ADD MSTORE PUSH1 0x20 ADD PUSH3 0x8A7 JUMP JUMPDEST POP POP POP POP SWAP1 POP SWAP1 DUP2 ADD SWAP1 PUSH1 0x1F AND DUP1 ISZERO PUSH3 0x8EF JUMPI DUP1 DUP3 SUB DUP1 MLOAD PUSH1 0x1 DUP4 PUSH1 0x20 SUB PUSH2 0x100 EXP SUB NOT AND DUP2 MSTORE PUSH1 0x20 ADD SWAP2 POP JUMPDEST POP SWAP3 POP POP POP PUSH1 0x40 MLOAD DUP1 SWAP2 SUB SWAP1 REVERT JUMPDEST DUP1 MLOAD PUSH1 0x1 PUSH1 0x1 PUSH1 0xA0 SHL SUB DUP2 AND DUP2 EQ PUSH3 0x84E JUMPI PUSH1 0x0 DUP1 REVERT JUMPDEST PUSH1 0x0 PUSH1 0x20 DUP3 DUP5 SUB SLT ISZERO PUSH3 0x927 JUMPI DUP1 DUP2 REVERT JUMPDEST PUSH3 0x6DB DUP3 PUSH3 0x8FD JUMP JUMPDEST PUSH1 0x0 DUP1 PUSH1 0x0 DUP1 PUSH1 0x0 DUP1 PUSH1 0x0 PUSH1 0xE0 DUP9 DUP11 SUB SLT ISZERO PUSH3 0x94D JUMPI DUP3 DUP4 REVERT JUMPDEST PUSH3 0x958 DUP9 PUSH3 0x8FD JUMP JUMPDEST SWAP7 POP PUSH3 0x968 PUSH1 0x20 DUP10 ADD PUSH3 0x8FD JUMP JUMPDEST SWAP6 POP PUSH3 0x978 PUSH1 0x40 DUP10 ADD PUSH3 0x8FD JUMP JUMPDEST SWAP5 POP PUSH3 0x988 PUSH1 0x60 DUP10 ADD PUSH3 0x8FD JUMP JUMPDEST SWAP4 POP PUSH1 0x80 DUP9 ADD MLOAD PUSH3 0xFFFFFF DUP2 AND DUP2 EQ PUSH3 0x9A0 JUMPI DUP4 DUP5 REVERT JUMPDEST SWAP3 POP PUSH3 0x9B0 PUSH1 0xA0 DUP10 ADD PUSH3 0x8FD JUMP JUMPDEST SWAP2 POP PUSH3 0x9C0 PUSH1 0xC0 DUP10 ADD PUSH3 0x8FD JUMP JUMPDEST SWAP1 POP SWAP3 SWAP6 SWAP9 SWAP2 SWAP5 SWAP8 POP SWAP3 SWAP6 POP JUMP JUMPDEST PUSH1 0x0 PUSH1 0x20 DUP3 DUP5 SUB SLT ISZERO PUSH3 0x9E0 JUMPI DUP1 DUP2 REVERT JUMPDEST DUP2 MLOAD DUP1 PUSH1 0x2 SIGNEXTEND DUP2 EQ PUSH3 0x6DB JUMPI DUP2 DUP3 REVERT JUMPDEST PUSH1 0x0 PUSH1 0x20 DUP3 DUP5 SUB SLT ISZERO PUSH3 0xA03 JUMPI DUP1 DUP2 REVERT JUMPDEST DUP2 MLOAD PUSH1 0xFF DUP2 AND DUP2 EQ PUSH3 0x6DB JUMPI DUP2 DUP3 REVERT JUMPDEST PUSH1 0x1 PUSH1 0x1 PUSH1 0xA0 SHL SUB SWAP4 DUP5 AND DUP2 MSTORE SWAP2 SWAP1 SWAP3 AND PUSH1 0x20 DUP3 ADD MSTORE PUSH3 0xFFFFFF SWAP1 SWAP2 AND PUSH1 0x40 DUP3 ADD MSTORE PUSH1 0x60 ADD SWAP1 JUMP JUMPDEST PUSH1 0x20 DUP1 DUP3 MSTORE PUSH1 0x22 SWAP1 DUP3 ADD MSTORE PUSH32 0x546F6B656E3120646F6573206E6F7420737570706F727420646563696D616C73 PUSH1 0x40 DUP3 ADD MSTORE PUSH2 0x2829 PUSH1 0xF0 SHL PUSH1 0x60 DUP3 ADD MSTORE PUSH1 0x80 ADD SWAP1 JUMP JUMPDEST PUSH1 0x20 DUP1 DUP3 MSTORE PUSH1 0x13 SWAP1 DUP3 ADD MSTORE PUSH32 0x506F6F6C20646F6573206E6F7420657869737400000000000000000000000000 PUSH1 0x40 DUP3 ADD MSTORE PUSH1 0x60 ADD SWAP1 JUMP JUMPDEST PUSH1 0x20 DUP1 DUP3 MSTORE PUSH1 0x22 SWAP1 DUP3 ADD MSTORE PUSH32 0x546F6B656E3020646F6573206E6F7420737570706F727420646563696D616C73 PUSH1 0x40 DUP3 ADD MSTORE PUSH2 0x2829 PUSH1 0xF0 SHL PUSH1 0x60 DUP3 ADD MSTORE PUSH1 0x80 ADD SWAP1 JUMP JUMPDEST PUSH1 0x80 MLOAD PUSH1 0x60 SHR PUSH1 0xA0 MLOAD PUSH1 0x60 SHR PUSH1 0xC0 MLOAD PUSH1 0x60 SHR PUSH1 0xE0 MLOAD PUSH1 0x60 SHR PUSH2 0x100 MLOAD PUSH1 0xF8 SHR PUSH2 0x120 MLOAD PUSH1 0xF8 SHR PUSH2 0x140 MLOAD PUSH1 0xE8 SHR PUSH2 0x160 MLOAD PUSH1 0xE8 SHR PUSH2 0x180 MLOAD PUSH1 0x60 SHR PUSH2 0x2F1E PUSH3 0xC6F PUSH1 0x0 CODECOPY DUP1 PUSH2 0x360 MSTORE POP DUP1 PUSH2 0x4BD MSTORE DUP1 PUSH2 0x1137 MSTORE DUP1 PUSH2 0x1186 MSTORE DUP1 PUSH2 0x11B9 MSTORE DUP1 PUSH2 0x11DB MSTORE DUP1 PUSH2 0x11FC MSTORE DUP1 PUSH2 0x123C MSTORE DUP1 PUSH2 0x1268 MSTORE DUP1 PUSH2 0x1294 MSTORE DUP1 PUSH2 0x12BC MSTORE DUP1 PUSH2 0x12F4 MSTORE DUP1 PUSH2 0x1327 MSTORE DUP1 PUSH2 0x136A MSTORE DUP1 PUSH2 0x13AD MSTORE DUP1 PUSH2 0x13E2 MSTORE DUP1 PUSH2 0x141D MSTORE DUP1 PUSH2 0x1445 MSTORE POP DUP1 PUSH2 0x605 MSTORE DUP1 PUSH2 0xC42 MSTORE DUP1 PUSH2 0x1DA6 MSTORE POP DUP1 PUSH2 0x203 MSTORE DUP1 PUSH2 0xDB2 MSTORE DUP1 PUSH2 0xDFD MSTORE DUP1 PUSH2 0xE35 MSTORE DUP1 PUSH2 0xE85 MSTORE DUP1 PUSH2 0xF59 MSTORE DUP1 PUSH2 0xF8B MSTORE DUP1 PUSH2 0xFE7 MSTORE DUP1 PUSH2 0x1061 MSTORE POP DUP1 PUSH2 0x475 MSTORE DUP1 PUSH2 0xD8F MSTORE DUP1 PUSH2 0xDDC MSTORE DUP1 PUSH2 0xE59 MSTORE DUP1 PUSH2 0xEA6 MSTORE DUP1 PUSH2 0xF36 MSTORE DUP1 PUSH2 0xFAF MSTORE DUP1 PUSH2 0x100B MSTORE DUP1 PUSH2 0x103D MSTORE POP DUP1 PUSH2 0x4E1 MSTORE DUP1 PUSH2 0x5A1 MSTORE DUP1 PUSH2 0xC21 MSTORE DUP1 PUSH2 0x1530 MSTORE DUP1 PUSH2 0x1D77 MSTORE POP DUP1 PUSH2 0x227 MSTORE DUP1 PUSH2 0x567 MSTORE DUP1 PUSH2 0xC00 MSTORE DUP1 PUSH2 0x14A5 MSTORE DUP1 PUSH2 0x1D48 MSTORE POP DUP1 PUSH2 0x442 MSTORE DUP1 PUSH2 0x50E MSTORE DUP1 PUSH2 0x22B2 MSTORE DUP1 PUSH2 0x238B MSTORE DUP1 PUSH2 0x2432 MSTORE DUP1 PUSH2 0x24C6 MSTORE DUP1 PUSH2 0x2646 MSTORE POP DUP1 PUSH2 0x499 MSTORE DUP1 PUSH2 0xBD1 MSTORE POP PUSH2 0x2F1E PUSH1 0x0 RETURN INVALID PUSH1 0x80 PUSH1 0x40 MSTORE CALLVALUE DUP1 ISZERO PUSH2 0x10 JUMPI PUSH1 0x0 DUP1 REVERT JUMPDEST POP PUSH1 0x4 CALLDATASIZE LT PUSH2 0x100 JUMPI PUSH1 0x0 CALLDATALOAD PUSH1 0xE0 SHR DUP1 PUSH4 0xB31AC6E2 GT PUSH2 0x97 JUMPI DUP1 PUSH4 0xD3487997 GT PUSH2 0x66 JUMPI DUP1 PUSH4 0xD3487997 EQ PUSH2 0x1AF JUMPI DUP1 PUSH4 0xD534D636 EQ PUSH2 0x1C2 JUMPI DUP1 PUSH4 0xDDCA3F43 EQ PUSH2 0x1DB JUMPI DUP1 PUSH4 0xF2FDE38B EQ PUSH2 0x1E3 JUMPI PUSH2 0x100 JUMP JUMPDEST DUP1 PUSH4 0xB31AC6E2 EQ PUSH2 0x182 JUMPI DUP1 PUSH4 0xC45A0155 EQ PUSH2 0x18A JUMPI DUP1 PUSH4 0xD0C93A7C EQ PUSH2 0x192 JUMPI DUP1 PUSH4 0xD21220A7 EQ PUSH2 0x1A7 JUMPI PUSH2 0x100 JUMP JUMPDEST DUP1 PUSH4 0x4AA4A4FC GT PUSH2 0xD3 JUMPI DUP1 PUSH4 0x4AA4A4FC EQ PUSH2 0x162 JUMPI DUP1 PUSH4 0x715018A6 EQ PUSH2 0x16A JUMPI DUP1 PUSH4 0x791B98BC EQ PUSH2 0x172 JUMPI DUP1 PUSH4 0x8DA5CB5B EQ PUSH2 0x17A JUMPI PUSH2 0x100 JUMP JUMPDEST DUP1 PUSH4 0x1D31E7C EQ PUSH2 0x105 JUMPI DUP1 PUSH4 0xB77884D EQ PUSH2 0x123 JUMPI DUP1 PUSH4 0xDFE1681 EQ PUSH2 0x138 JUMPI DUP1 PUSH4 0x41675B05 EQ PUSH2 0x14D JUMPI JUMPDEST PUSH1 0x0 DUP1 REVERT JUMPDEST PUSH2 0x10D PUSH2 0x1F6 JUMP JUMPDEST PUSH1 0x40 MLOAD PUSH2 0x11A SWAP2 SWAP1 PUSH2 0x2D73 JUMP JUMPDEST PUSH1 0x40 MLOAD DUP1 SWAP2 SUB SWAP1 RETURN JUMPDEST PUSH2 0x12B PUSH2 0x201 JUMP JUMPDEST PUSH1 0x40 MLOAD PUSH2 0x11A SWAP2 SWAP1 PUSH2 0x2DF5 JUMP JUMPDEST PUSH2 0x140 PUSH2 0x225 JUMP JUMPDEST PUSH1 0x40 MLOAD PUSH2 0x11A SWAP2 SWAP1 PUSH2 0x29AA JUMP JUMPDEST PUSH2 0x160 PUSH2 0x15B CALLDATASIZE PUSH1 0x4 PUSH2 0x2877 JUMP JUMPDEST PUSH2 0x249 JUMP JUMPDEST STOP JUMPDEST PUSH2 0x140 PUSH2 0x35E JUMP JUMPDEST PUSH2 0x160 PUSH2 0x382 JUMP JUMPDEST PUSH2 0x140 PUSH2 0x440 JUMP JUMPDEST PUSH2 0x140 PUSH2 0x464 JUMP JUMPDEST PUSH2 0x12B PUSH2 0x473 JUMP JUMPDEST PUSH2 0x140 PUSH2 0x497 JUMP JUMPDEST PUSH2 0x19A PUSH2 0x4BB JUMP JUMPDEST PUSH1 0x40 MLOAD PUSH2 0x11A SWAP2 SWAP1 PUSH2 0x29E6 JUMP JUMPDEST PUSH2 0x140 PUSH2 0x4DF JUMP JUMPDEST PUSH2 0x160 PUSH2 0x1BD CALLDATASIZE PUSH1 0x4 PUSH2 0x2912 JUMP JUMPDEST PUSH2 0x503 JUMP JUMPDEST PUSH2 0x1CA PUSH2 0x5CE JUMP JUMPDEST PUSH1 0x40 MLOAD PUSH2 0x11A SWAP6 SWAP5 SWAP4 SWAP3 SWAP2 SWAP1 PUSH2 0x2D8C JUMP JUMPDEST PUSH2 0x10D PUSH2 0x603 JUMP JUMPDEST PUSH2 0x160 PUSH2 0x1F1 CALLDATASIZE PUSH1 0x4 PUSH2 0x279F JUMP JUMPDEST PUSH2 0x627 JUMP JUMPDEST PUSH1 0x4 SLOAD PUSH3 0xFFFFFF AND DUP2 JUMP JUMPDEST PUSH32 0x0 DUP2 JUMP JUMPDEST PUSH32 0x0 DUP2 JUMP JUMPDEST PUSH1 0x2 PUSH1 0x1 SLOAD EQ ISZERO PUSH2 0x2A1 JUMPI PUSH1 0x40 DUP1 MLOAD PUSH3 0x461BCD PUSH1 0xE5 SHL DUP2 MSTORE PUSH1 0x20 PUSH1 0x4 DUP3 ADD MSTORE PUSH1 0x1F PUSH1 0x24 DUP3 ADD MSTORE PUSH32 0x5265656E7472616E637947756172643A207265656E7472616E742063616C6C00 PUSH1 0x44 DUP3 ADD MSTORE SWAP1 MLOAD SWAP1 DUP2 SWAP1 SUB PUSH1 0x64 ADD SWAP1 REVERT JUMPDEST PUSH1 0x2 PUSH1 0x1 SSTORE PUSH2 0x2AE PUSH2 0x86C JUMP JUMPDEST PUSH1 0x1 PUSH1 0x1 PUSH1 0xA0 SHL SUB AND PUSH2 0x2BF PUSH2 0x464 JUMP JUMPDEST PUSH1 0x1 PUSH1 0x1 PUSH1 0xA0 SHL SUB AND EQ PUSH2 0x31A JUMPI PUSH1 0x40 DUP1 MLOAD PUSH3 0x461BCD PUSH1 0xE5 SHL DUP2 MSTORE PUSH1 0x20 PUSH1 0x4 DUP3 ADD DUP2 SWAP1 MSTORE PUSH1 0x24 DUP3 ADD MSTORE PUSH32 0x4F776E61626C653A2063616C6C6572206973206E6F7420746865206F776E6572 PUSH1 0x44 DUP3 ADD MSTORE SWAP1 MLOAD SWAP1 DUP2 SWAP1 SUB PUSH1 0x64 ADD SWAP1 REVERT JUMPDEST PUSH1 0x0 DUP1 PUSH1 0x0 DUP1 PUSH1 0x0 PUSH2 0x32B DUP7 PUSH2 0x870 JUMP JUMPDEST SWAP5 POP SWAP5 POP SWAP5 POP SWAP5 POP SWAP5 POP PUSH1 0x0 PUSH2 0x341 DUP4 DUP4 PUSH2 0x8B9 JUMP JUMPDEST SWAP1 POP PUSH2 0x351 DUP7 DUP9 DUP7 DUP7 DUP7 DUP7 PUSH2 0x925 JUMP JUMPDEST POP POP PUSH1 0x1 DUP1 SSTORE POP POP POP POP POP JUMP JUMPDEST PUSH32 0x0 DUP2 JUMP JUMPDEST PUSH2 0x38A PUSH2 0x86C JUMP JUMPDEST PUSH1 0x1 PUSH1 0x1 PUSH1 0xA0 SHL SUB AND PUSH2 0x39B PUSH2 0x464 JUMP JUMPDEST PUSH1 0x1 PUSH1 0x1 PUSH1 0xA0 SHL SUB AND EQ PUSH2 0x3F6 JUMPI PUSH1 0x40 DUP1 MLOAD PUSH3 0x461BCD PUSH1 0xE5 SHL DUP2 MSTORE PUSH1 0x20 PUSH1 0x4 DUP3 ADD DUP2 SWAP1 MSTORE PUSH1 0x24 DUP3 ADD MSTORE PUSH32 0x4F776E61626C653A2063616C6C6572206973206E6F7420746865206F776E6572 PUSH1 0x44 DUP3 ADD MSTORE SWAP1 MLOAD SWAP1 DUP2 SWAP1 SUB PUSH1 0x64 ADD SWAP1 REVERT JUMPDEST PUSH1 0x0 DUP1 SLOAD PUSH1 0x40 MLOAD PUSH1 0x1 PUSH1 0x1 PUSH1 0xA0 SHL SUB SWAP1 SWAP2 AND SWAP1 PUSH32 0x8BE0079C531659141344CD1FD0A4F28419497F9722A3DAAFE3B4186F6B6457E0 SWAP1 DUP4 SWAP1 LOG3 PUSH1 0x0 DUP1 SLOAD PUSH1 0x1 PUSH1 0x1 PUSH1 0xA0 SHL SUB NOT AND SWAP1 SSTORE JUMP JUMPDEST PUSH32 0x0 DUP2 JUMP JUMPDEST PUSH1 0x0 SLOAD PUSH1 0x1 PUSH1 0x1 PUSH1 0xA0 SHL SUB AND SWAP1 JUMP JUMPDEST PUSH32 0x0 DUP2 JUMP JUMPDEST PUSH32 0x0 DUP2 JUMP JUMPDEST PUSH32 0x0 DUP2 JUMP JUMPDEST PUSH32 0x0 DUP2 JUMP JUMPDEST CALLER PUSH1 0x1 PUSH1 0x1 PUSH1 0xA0 SHL SUB PUSH32 0x0 AND EQ PUSH2 0x554 JUMPI PUSH1 0x40 MLOAD PUSH3 0x461BCD PUSH1 0xE5 SHL DUP2 MSTORE PUSH1 0x4 ADD PUSH2 0x54B SWAP1 PUSH2 0x2A47 JUMP JUMPDEST PUSH1 0x40 MLOAD DUP1 SWAP2 SUB SWAP1 REVERT JUMPDEST DUP4 ISZERO PUSH2 0x58E JUMPI PUSH2 0x58E PUSH1 0x1 PUSH1 0x1 PUSH1 0xA0 SHL SUB PUSH32 0x0 AND CALLER DUP7 PUSH2 0x970 JUMP JUMPDEST DUP3 ISZERO PUSH2 0x5C8 JUMPI PUSH2 0x5C8 PUSH1 0x1 PUSH1 0x1 PUSH1 0xA0 SHL SUB PUSH32 0x0 AND CALLER DUP6 PUSH2 0x970 JUMP JUMPDEST POP POP POP POP JUMP JUMPDEST PUSH1 0x2 DUP1 SLOAD PUSH1 0x3 SLOAD SWAP1 SWAP2 PUSH1 0x1 PUSH1 0x1 PUSH1 0x80 SHL SUB DUP3 AND SWAP2 PUSH1 0x1 PUSH1 0x80 SHL DUP2 DIV DUP3 SIGNEXTEND SWAP2 PUSH1 0x1 PUSH1 0x98 SHL DUP3 DIV SWAP1 SIGNEXTEND SWAP1 PUSH1 0x1 PUSH1 0xB0 SHL SWAP1 DIV PUSH1 0xFF AND DUP6 JUMP JUMPDEST PUSH32 0x0 DUP2 JUMP JUMPDEST PUSH2 0x62F PUSH2 0x86C JUMP JUMPDEST PUSH1 0x1 PUSH1 0x1 PUSH1 0xA0 SHL SUB AND PUSH2 0x640 PUSH2 0x464 JUMP JUMPDEST PUSH1 0x1 PUSH1 0x1 PUSH1 0xA0 SHL SUB AND EQ PUSH2 0x69B JUMPI PUSH1 0x40 DUP1 MLOAD PUSH3 0x461BCD PUSH1 0xE5 SHL DUP2 MSTORE PUSH1 0x20 PUSH1 0x4 DUP3 ADD DUP2 SWAP1 MSTORE PUSH1 0x24 DUP3 ADD MSTORE PUSH32 0x4F776E61626C653A2063616C6C6572206973206E6F7420746865206F776E6572 PUSH1 0x44 DUP3 ADD MSTORE SWAP1 MLOAD SWAP1 DUP2 SWAP1 SUB PUSH1 0x64 ADD SWAP1 REVERT JUMPDEST PUSH1 0x1 PUSH1 0x1 PUSH1 0xA0 SHL SUB DUP2 AND PUSH2 0x6E0 JUMPI PUSH1 0x40 MLOAD PUSH3 0x461BCD PUSH1 0xE5 SHL DUP2 MSTORE PUSH1 0x4 ADD DUP1 DUP1 PUSH1 0x20 ADD DUP3 DUP2 SUB DUP3 MSTORE PUSH1 0x26 DUP2 MSTORE PUSH1 0x20 ADD DUP1 PUSH2 0x2E1C PUSH1 0x26 SWAP2 CODECOPY PUSH1 0x40 ADD SWAP2 POP POP PUSH1 0x40 MLOAD DUP1 SWAP2 SUB SWAP1 REVERT JUMPDEST PUSH1 0x0 DUP1 SLOAD PUSH1 0x40 MLOAD PUSH1 0x1 PUSH1 0x1 PUSH1 0xA0 SHL SUB DUP1 DUP6 AND SWAP4 SWAP3 AND SWAP2 PUSH32 0x8BE0079C531659141344CD1FD0A4F28419497F9722A3DAAFE3B4186F6B6457E0 SWAP2 LOG3 PUSH1 0x0 DUP1 SLOAD PUSH1 0x1 PUSH1 0x1 PUSH1 0xA0 SHL SUB NOT AND PUSH1 0x1 PUSH1 0x1 PUSH1 0xA0 SHL SUB SWAP3 SWAP1 SWAP3 AND SWAP2 SWAP1 SWAP2 OR SWAP1 SSTORE JUMP JUMPDEST DUP1 ISZERO DUP1 PUSH2 0x7C1 JUMPI POP PUSH1 0x40 DUP1 MLOAD PUSH4 0x6EB1769F PUSH1 0xE1 SHL DUP2 MSTORE ADDRESS PUSH1 0x4 DUP3 ADD MSTORE PUSH1 0x1 PUSH1 0x1 PUSH1 0xA0 SHL SUB DUP5 DUP2 AND PUSH1 0x24 DUP4 ADD MSTORE SWAP2 MLOAD SWAP2 DUP6 AND SWAP2 PUSH4 0xDD62ED3E SWAP2 PUSH1 0x44 DUP1 DUP3 ADD SWAP3 PUSH1 0x20 SWAP3 SWAP1 SWAP2 SWAP1 DUP3 SWAP1 SUB ADD DUP2 DUP7 DUP1 EXTCODESIZE ISZERO DUP1 ISZERO PUSH2 0x793 JUMPI PUSH1 0x0 DUP1 REVERT JUMPDEST POP GAS STATICCALL ISZERO DUP1 ISZERO PUSH2 0x7A7 JUMPI RETURNDATASIZE PUSH1 0x0 DUP1 RETURNDATACOPY RETURNDATASIZE PUSH1 0x0 REVERT JUMPDEST POP POP POP POP PUSH1 0x40 MLOAD RETURNDATASIZE PUSH1 0x20 DUP2 LT ISZERO PUSH2 0x7BD JUMPI PUSH1 0x0 DUP1 REVERT JUMPDEST POP MLOAD ISZERO JUMPDEST PUSH2 0x7FC JUMPI PUSH1 0x40 MLOAD PUSH3 0x461BCD PUSH1 0xE5 SHL DUP2 MSTORE PUSH1 0x4 ADD DUP1 DUP1 PUSH1 0x20 ADD DUP3 DUP2 SUB DUP3 MSTORE PUSH1 0x36 DUP2 MSTORE PUSH1 0x20 ADD DUP1 PUSH2 0x2EB3 PUSH1 0x36 SWAP2 CODECOPY PUSH1 0x40 ADD SWAP2 POP POP PUSH1 0x40 MLOAD DUP1 SWAP2 SUB SWAP1 REVERT JUMPDEST PUSH1 0x40 DUP1 MLOAD PUSH1 0x1 PUSH1 0x1 PUSH1 0xA0 SHL SUB DUP5 AND PUSH1 0x24 DUP3 ADD MSTORE PUSH1 0x44 DUP1 DUP3 ADD DUP5 SWAP1 MSTORE DUP3 MLOAD DUP1 DUP4 SUB SWAP1 SWAP2 ADD DUP2 MSTORE PUSH1 0x64 SWAP1 SWAP2 ADD SWAP1 SWAP2 MSTORE PUSH1 0x20 DUP2 ADD DUP1 MLOAD PUSH1 0x1 PUSH1 0x1 PUSH1 0xE0 SHL SUB AND PUSH4 0x95EA7B3 PUSH1 0xE0 SHL OR SWAP1 MSTORE PUSH2 0x84E SWAP1 DUP5 SWAP1 PUSH2 0x9BE JUMP JUMPDEST POP POP POP JUMP JUMPDEST PUSH1 0x60 PUSH2 0x862 DUP5 DUP5 PUSH1 0x0 DUP6 PUSH2 0xA6F JUMP JUMPDEST SWAP1 POP JUMPDEST SWAP4 SWAP3 POP POP POP JUMP JUMPDEST CALLER SWAP1 JUMP JUMPDEST PUSH1 0x0 DUP1 PUSH1 0x0 DUP1 PUSH1 0x0 DUP1 PUSH1 0x0 PUSH2 0x883 PUSH2 0xBCA JUMP JUMPDEST SWAP7 POP SWAP2 POP DUP6 SWAP1 POP PUSH2 0x893 DUP3 PUSH2 0xD78 JUMP JUMPDEST SWAP7 POP PUSH2 0x89E DUP9 PUSH2 0xED5 JUMP JUMPDEST SWAP5 POP PUSH2 0x8A9 DUP6 PUSH2 0x1130 JUMP JUMPDEST SWAP1 SWAP5 POP SWAP3 POP POP POP SWAP2 SWAP4 SWAP6 SWAP1 SWAP3 SWAP5 POP JUMP JUMPDEST PUSH1 0x3 SLOAD PUSH1 0x0 SWAP1 PUSH1 0x1 PUSH1 0xB0 SHL SWAP1 DIV PUSH1 0xFF AND ISZERO DUP1 PUSH2 0x8E7 JUMPI POP PUSH1 0x3 SLOAD PUSH1 0x2 DUP5 DUP2 SIGNEXTEND PUSH1 0x1 PUSH1 0x80 SHL SWAP1 SWAP3 DIV DUP2 SIGNEXTEND SWAP1 SIGNEXTEND EQ ISZERO JUMPDEST DUP1 PUSH2 0x904 JUMPI POP PUSH1 0x3 SLOAD PUSH1 0x2 DUP4 DUP2 SIGNEXTEND PUSH1 0x1 PUSH1 0x98 SHL SWAP1 SWAP3 DIV DUP2 SIGNEXTEND SWAP1 SIGNEXTEND EQ ISZERO JUMPDEST ISZERO PUSH2 0x91B JUMPI PUSH2 0x913 DUP4 DUP4 PUSH2 0x1471 JUMP JUMPDEST POP PUSH1 0x1 PUSH2 0x91F JUMP JUMPDEST POP PUSH1 0x0 JUMPDEST SWAP3 SWAP2 POP POP JUMP JUMPDEST PUSH32 0x5422E969A24D0B1E269860D579E64358E9DE3DF58E771549E1F5310C2EE2E562 TIMESTAMP DUP8 DUP8 DUP8 DUP8 DUP8 DUP8 PUSH1 0x40 MLOAD PUSH2 0x960 SWAP8 SWAP7 SWAP6 SWAP5 SWAP4 SWAP3 SWAP2 SWAP1 PUSH2 0x2DBE JUMP JUMPDEST PUSH1 0x40 MLOAD DUP1 SWAP2 SUB SWAP1 LOG1 POP POP POP POP POP POP JUMP JUMPDEST PUSH1 0x40 DUP1 MLOAD PUSH1 0x1 PUSH1 0x1 PUSH1 0xA0 SHL SUB DUP5 AND PUSH1 0x24 DUP3 ADD MSTORE PUSH1 0x44 DUP1 DUP3 ADD DUP5 SWAP1 MSTORE DUP3 MLOAD DUP1 DUP4 SUB SWAP1 SWAP2 ADD DUP2 MSTORE PUSH1 0x64 SWAP1 SWAP2 ADD SWAP1 SWAP2 MSTORE PUSH1 0x20 DUP2 ADD DUP1 MLOAD PUSH1 0x1 PUSH1 0x1 PUSH1 0xE0 SHL SUB AND PUSH4 0xA9059CBB PUSH1 0xE0 SHL OR SWAP1 MSTORE PUSH2 0x84E SWAP1 DUP5 SWAP1 JUMPDEST PUSH1 0x0 PUSH2 0xA13 DUP3 PUSH1 0x40 MLOAD DUP1 PUSH1 0x40 ADD PUSH1 0x40 MSTORE DUP1 PUSH1 0x20 DUP2 MSTORE PUSH1 0x20 ADD PUSH32 0x5361666545524332303A206C6F772D6C6576656C2063616C6C206661696C6564 DUP2 MSTORE POP DUP6 PUSH1 0x1 PUSH1 0x1 PUSH1 0xA0 SHL SUB AND PUSH2 0x853 SWAP1 SWAP3 SWAP2 SWAP1 PUSH4 0xFFFFFFFF AND JUMP JUMPDEST DUP1 MLOAD SWAP1 SWAP2 POP ISZERO PUSH2 0x84E JUMPI DUP1 DUP1 PUSH1 0x20 ADD SWAP1 MLOAD PUSH1 0x20 DUP2 LT ISZERO PUSH2 0xA32 JUMPI PUSH1 0x0 DUP1 REVERT JUMPDEST POP MLOAD PUSH2 0x84E JUMPI PUSH1 0x40 MLOAD PUSH3 0x461BCD PUSH1 0xE5 SHL DUP2 MSTORE PUSH1 0x4 ADD DUP1 DUP1 PUSH1 0x20 ADD DUP3 DUP2 SUB DUP3 MSTORE PUSH1 0x2A DUP2 MSTORE PUSH1 0x20 ADD DUP1 PUSH2 0x2E89 PUSH1 0x2A SWAP2 CODECOPY PUSH1 0x40 ADD SWAP2 POP POP PUSH1 0x40 MLOAD DUP1 SWAP2 SUB SWAP1 REVERT JUMPDEST PUSH1 0x60 DUP3 SELFBALANCE LT ISZERO PUSH2 0xAB0 JUMPI PUSH1 0x40 MLOAD PUSH3 0x461BCD PUSH1 0xE5 SHL DUP2 MSTORE PUSH1 0x4 ADD DUP1 DUP1 PUSH1 0x20 ADD DUP3 DUP2 SUB DUP3 MSTORE PUSH1 0x26 DUP2 MSTORE PUSH1 0x20 ADD DUP1 PUSH2 0x2E42 PUSH1 0x26 SWAP2 CODECOPY PUSH1 0x40 ADD SWAP2 POP POP PUSH1 0x40 MLOAD DUP1 SWAP2 SUB SWAP1 REVERT JUMPDEST PUSH2 0xAB9 DUP6 PUSH2 0x1633 JUMP JUMPDEST PUSH2 0xB0A JUMPI PUSH1 0x40 DUP1 MLOAD PUSH3 0x461BCD PUSH1 0xE5 SHL DUP2 MSTORE PUSH1 0x20 PUSH1 0x4 DUP3 ADD MSTORE PUSH1 0x1D PUSH1 0x24 DUP3 ADD MSTORE PUSH32 0x416464726573733A2063616C6C20746F206E6F6E2D636F6E7472616374000000 PUSH1 0x44 DUP3 ADD MSTORE SWAP1 MLOAD SWAP1 DUP2 SWAP1 SUB PUSH1 0x64 ADD SWAP1 REVERT JUMPDEST PUSH1 0x0 DUP1 DUP7 PUSH1 0x1 PUSH1 0x1 PUSH1 0xA0 SHL SUB AND DUP6 DUP8 PUSH1 0x40 MLOAD DUP1 DUP3 DUP1 MLOAD SWAP1 PUSH1 0x20 ADD SWAP1 DUP1 DUP4 DUP4 JUMPDEST PUSH1 0x20 DUP4 LT PUSH2 0xB48 JUMPI DUP1 MLOAD DUP3 MSTORE PUSH1 0x1F NOT SWAP1 SWAP3 ADD SWAP2 PUSH1 0x20 SWAP2 DUP3 ADD SWAP2 ADD PUSH2 0xB29 JUMP JUMPDEST PUSH1 0x1 DUP4 PUSH1 0x20 SUB PUSH2 0x100 EXP SUB DUP1 NOT DUP3 MLOAD AND DUP2 DUP5 MLOAD AND DUP1 DUP3 OR DUP6 MSTORE POP POP POP POP POP POP SWAP1 POP ADD SWAP2 POP POP PUSH1 0x0 PUSH1 0x40 MLOAD DUP1 DUP4 SUB DUP2 DUP6 DUP8 GAS CALL SWAP3 POP POP POP RETURNDATASIZE DUP1 PUSH1 0x0 DUP2 EQ PUSH2 0xBAA JUMPI PUSH1 0x40 MLOAD SWAP2 POP PUSH1 0x1F NOT PUSH1 0x3F RETURNDATASIZE ADD AND DUP3 ADD PUSH1 0x40 MSTORE RETURNDATASIZE DUP3 MSTORE RETURNDATASIZE PUSH1 0x0 PUSH1 0x20 DUP5 ADD RETURNDATACOPY PUSH2 0xBAF JUMP JUMPDEST PUSH1 0x60 SWAP2 POP JUMPDEST POP SWAP2 POP SWAP2 POP PUSH2 0xBBF DUP3 DUP3 DUP7 PUSH2 0x1639 JUMP JUMPDEST SWAP8 SWAP7 POP POP POP POP POP POP POP JUMP JUMPDEST PUSH1 0x0 DUP1 PUSH1 0x0 PUSH32 0x0 PUSH1 0x1 PUSH1 0x1 PUSH1 0xA0 SHL SUB AND PUSH4 0x1698EE82 PUSH32 0x0 PUSH32 0x0 PUSH32 0x0 PUSH1 0x40 MLOAD DUP5 PUSH4 0xFFFFFFFF AND PUSH1 0xE0 SHL DUP2 MSTORE PUSH1 0x4 ADD PUSH2 0xC7F SWAP4 SWAP3 SWAP2 SWAP1 PUSH2 0x29BE JUMP JUMPDEST PUSH1 0x20 PUSH1 0x40 MLOAD DUP1 DUP4 SUB DUP2 DUP7 DUP1 EXTCODESIZE ISZERO DUP1 ISZERO PUSH2 0xC97 JUMPI PUSH1 0x0 DUP1 REVERT JUMPDEST POP GAS STATICCALL ISZERO DUP1 ISZERO PUSH2 0xCAB JUMPI RETURNDATASIZE PUSH1 0x0 DUP1 RETURNDATACOPY RETURNDATASIZE PUSH1 0x0 REVERT JUMPDEST POP POP POP POP PUSH1 0x40 MLOAD RETURNDATASIZE PUSH1 0x1F NOT PUSH1 0x1F DUP3 ADD AND DUP3 ADD DUP1 PUSH1 0x40 MSTORE POP DUP2 ADD SWAP1 PUSH2 0xCCF SWAP2 SWAP1 PUSH2 0x27BB JUMP JUMPDEST SWAP1 POP PUSH1 0x1 PUSH1 0x1 PUSH1 0xA0 SHL SUB DUP2 AND PUSH2 0xCF7 JUMPI PUSH1 0x40 MLOAD PUSH3 0x461BCD PUSH1 0xE5 SHL DUP2 MSTORE PUSH1 0x4 ADD PUSH2 0x54B SWAP1 PUSH2 0x2B31 JUMP JUMPDEST DUP1 PUSH1 0x1 PUSH1 0x1 PUSH1 0xA0 SHL SUB AND PUSH4 0x3850C7BD PUSH1 0x40 MLOAD DUP2 PUSH4 0xFFFFFFFF AND PUSH1 0xE0 SHL DUP2 MSTORE PUSH1 0x4 ADD PUSH1 0xE0 PUSH1 0x40 MLOAD DUP1 DUP4 SUB DUP2 DUP7 DUP1 EXTCODESIZE ISZERO DUP1 ISZERO PUSH2 0xD30 JUMPI PUSH1 0x0 DUP1 REVERT JUMPDEST POP GAS STATICCALL ISZERO DUP1 ISZERO PUSH2 0xD44 JUMPI RETURNDATASIZE PUSH1 0x0 DUP1 RETURNDATACOPY RETURNDATASIZE PUSH1 0x0 REVERT JUMPDEST POP POP POP POP PUSH1 0x40 MLOAD RETURNDATASIZE PUSH1 0x1F NOT PUSH1 0x1F DUP3 ADD AND DUP3 ADD DUP1 PUSH1 0x40 MSTORE POP DUP2 ADD SWAP1 PUSH2 0xD68 SWAP2 SWAP1 PUSH2 0x27D7 JUMP JUMPDEST POP SWAP5 SWAP9 SWAP4 SWAP8 POP SWAP3 SWAP6 POP POP POP POP POP POP JUMP JUMPDEST PUSH1 0x0 PUSH1 0x1 PUSH1 0x1 PUSH1 0xA0 SHL SUB DUP3 AND DUP1 MUL PUSH1 0xC0 DUP2 SWAP1 SHR PUSH1 0xFF PUSH32 0x0 DUP2 AND PUSH32 0x0 SWAP1 SWAP2 AND GT ISZERO PUSH2 0xE33 JUMPI PUSH32 0x0 PUSH32 0x0 SUB PUSH1 0xFF AND PUSH1 0xA EXP DUP2 DUP2 PUSH2 0xE2B JUMPI INVALID JUMPDEST DIV SWAP1 POP PUSH2 0xECC JUMP JUMPDEST PUSH32 0x0 PUSH1 0xFF AND PUSH32 0x0 PUSH1 0xFF AND GT ISZERO PUSH2 0xECC JUMPI PUSH1 0xFF PUSH32 0x0 PUSH32 0x0 SUB AND PUSH1 0xA EXP MUL JUMPDEST SWAP2 POP POP JUMPDEST SWAP2 SWAP1 POP JUMP JUMPDEST PUSH1 0x0 DUP1 DUP3 GT PUSH2 0xEF6 JUMPI PUSH1 0x40 MLOAD PUSH3 0x461BCD PUSH1 0xE5 SHL DUP2 MSTORE PUSH1 0x4 ADD PUSH2 0x54B SWAP1 PUSH2 0x29F4 JUMP JUMPDEST PUSH1 0x0 PUSH5 0xE8D4A51000 DUP4 GT ISZERO PUSH2 0xF25 JUMPI PUSH2 0xF1E PUSH15 0xC097CE7BC90715B34B9F1000000000 DUP5 PUSH2 0x16DD JUMP JUMPDEST SWAP1 POP PUSH2 0xF28 JUMP JUMPDEST POP DUP2 JUMPDEST DUP1 PUSH8 0xDE0B6B3A7640000 PUSH1 0xFF PUSH32 0x0 DUP2 AND PUSH32 0x0 SWAP1 SWAP2 AND GT ISZERO PUSH2 0xFE5 JUMPI PUSH2 0xFDE PUSH2 0xFD4 PUSH1 0xFF PUSH32 0x0 DUP2 AND SWAP1 PUSH32 0x0 AND PUSH2 0x1744 JUMP JUMPDEST DUP4 SWAP1 PUSH1 0xA EXP PUSH2 0x17A1 JUMP JUMPDEST SWAP2 POP PUSH2 0x1093 JUMP JUMPDEST PUSH32 0x0 PUSH1 0xFF AND PUSH32 0x0 PUSH1 0xFF AND GT ISZERO PUSH2 0x1093 JUMPI PUSH2 0x1090 PUSH2 0x1086 PUSH1 0xFF PUSH32 0x0 DUP2 AND SWAP1 PUSH32 0x0 AND PUSH2 0x1744 JUMP JUMPDEST DUP3 SWAP1 PUSH1 0xA EXP PUSH2 0x17A1 JUMP JUMPDEST SWAP1 POP JUMPDEST PUSH1 0x0 PUSH2 0x10AD DUP3 PUSH2 0x10A7 DUP6 PUSH1 0x1 PUSH1 0xC0 SHL PUSH2 0x17A1 JUMP JUMPDEST SWAP1 PUSH2 0x16DD JUMP JUMPDEST SWAP1 POP PUSH1 0x0 PUSH2 0x10BA DUP3 PUSH2 0x17FA JUMP JUMPDEST SWAP1 POP PUSH5 0x1000276A3 PUSH1 0x1 PUSH1 0x1 PUSH1 0xA0 SHL SUB DUP3 AND LT ISZERO PUSH2 0x10EA JUMPI PUSH1 0x40 MLOAD PUSH3 0x461BCD PUSH1 0xE5 SHL DUP2 MSTORE PUSH1 0x4 ADD PUSH2 0x54B SWAP1 PUSH2 0x2B8B JUMP JUMPDEST PUSH20 0xFFFD8963EFD1FC6A506488495D951D5263988D26 PUSH1 0x1 PUSH1 0x1 PUSH1 0xA0 SHL SUB DUP3 AND GT ISZERO PUSH2 0x1127 JUMPI PUSH1 0x40 MLOAD PUSH3 0x461BCD PUSH1 0xE5 SHL DUP2 MSTORE PUSH1 0x4 ADD PUSH2 0x54B SWAP1 PUSH2 0x2A1F JUMP JUMPDEST PUSH2 0xBBF DUP2 PUSH2 0x18DC JUMP JUMPDEST PUSH1 0x0 DUP1 PUSH1 0x0 PUSH32 0x0 PUSH1 0x2 SIGNEXTEND SGT PUSH2 0x1176 JUMPI PUSH1 0x40 MLOAD PUSH3 0x461BCD PUSH1 0xE5 SHL DUP2 MSTORE PUSH1 0x4 ADD PUSH2 0x54B SWAP1 PUSH2 0x2B5D JUMP JUMPDEST PUSH1 0x4 SLOAD PUSH1 0x0 SWAP1 PUSH1 0x2 SWAP1 PUSH3 0xFFFFFF AND PUSH32 0x0 MUL DUP2 SIGNEXTEND SDIV SWAP1 POP PUSH1 0x0 DUP2 PUSH1 0x2 SIGNEXTEND SGT PUSH2 0x11D9 JUMPI POP PUSH32 0x0 JUMPDEST PUSH32 0x0 PUSH32 0x0 PUSH1 0x2 SIGNEXTEND DUP3 PUSH1 0x2 SIGNEXTEND DUP2 PUSH2 0x1229 JUMPI INVALID JUMPDEST SDIV MUL SWAP1 POP DUP1 PUSH1 0x2 SIGNEXTEND PUSH1 0x0 EQ ISZERO PUSH2 0x125C JUMPI POP PUSH32 0x0 JUMPDEST DUP1 DUP5 SUB DUP5 DUP3 ADD PUSH2 0x128C DUP3 PUSH32 0x0 PUSH2 0x1BFB JUMP JUMPDEST SWAP5 POP PUSH2 0x12B8 DUP2 PUSH32 0x0 PUSH2 0x1BFB JUMP JUMPDEST SWAP4 POP PUSH32 0x0 PUSH1 0x2 SIGNEXTEND DUP2 PUSH1 0x2 SIGNEXTEND DUP2 PUSH2 0x12E9 JUMPI INVALID JUMPDEST SMOD PUSH1 0x2 SIGNEXTEND ISZERO PUSH2 0x1318 JUMPI PUSH32 0x0 DUP5 ADD SWAP4 POP JUMPDEST DUP4 PUSH1 0x2 SIGNEXTEND DUP6 PUSH1 0x2 SIGNEXTEND SLT PUSH2 0x134B JUMPI PUSH32 0x0 DUP6 ADD SWAP4 POP JUMPDEST PUSH3 0xD89E7 NOT PUSH1 0x2 DUP7 SWAP1 SIGNEXTEND SLT PUSH2 0x1360 JUMPI DUP5 PUSH2 0x138E JUMP JUMPDEST PUSH2 0x138E PUSH3 0xD89E7 NOT PUSH32 0x0 PUSH2 0x1BFB JUMP JUMPDEST SWAP5 POP PUSH3 0xD89E8 PUSH1 0x2 DUP6 SWAP1 SIGNEXTEND SGT PUSH2 0x13A4 JUMPI DUP4 PUSH2 0x13D1 JUMP JUMPDEST PUSH2 0x13D1 PUSH3 0xD89E8 PUSH32 0x0 PUSH2 0x1BFB JUMP JUMPDEST SWAP4 POP DUP4 PUSH1 0x2 SIGNEXTEND DUP6 PUSH1 0x2 SIGNEXTEND SLT PUSH2 0x1469 JUMPI PUSH32 0x0 DUP6 ADD SWAP4 POP PUSH3 0xD89E8 PUSH1 0x2 DUP6 SWAP1 SIGNEXTEND SGT ISZERO PUSH2 0x1469 JUMPI PUSH2 0x1441 PUSH3 0xD89E8 PUSH32 0x0 PUSH2 0x1BFB JUMP JUMPDEST SWAP4 POP PUSH32 0x0 DUP5 SUB SWAP5 POP JUMPDEST POP POP POP SWAP2 POP SWAP2 JUMP JUMPDEST PUSH1 0x3 SLOAD PUSH1 0x1 PUSH1 0xB0 SHL SWAP1 DIV PUSH1 0xFF AND ISZERO PUSH2 0x148B JUMPI PUSH2 0x148B PUSH2 0x1C6A JUMP JUMPDEST PUSH1 0x40 MLOAD PUSH4 0x70A08231 PUSH1 0xE0 SHL DUP2 MSTORE PUSH1 0x0 SWAP1 PUSH1 0x1 PUSH1 0x1 PUSH1 0xA0 SHL SUB PUSH32 0x0 AND SWAP1 PUSH4 0x70A08231 SWAP1 PUSH2 0x14DA SWAP1 ADDRESS SWAP1 PUSH1 0x4 ADD PUSH2 0x29AA JUMP JUMPDEST PUSH1 0x20 PUSH1 0x40 MLOAD DUP1 DUP4 SUB DUP2 DUP7 DUP1 EXTCODESIZE ISZERO DUP1 ISZERO PUSH2 0x14F2 JUMPI PUSH1 0x0 DUP1 REVERT JUMPDEST POP GAS STATICCALL ISZERO DUP1 ISZERO PUSH2 0x1506 JUMPI RETURNDATASIZE PUSH1 0x0 DUP1 RETURNDATACOPY RETURNDATASIZE PUSH1 0x0 REVERT JUMPDEST POP POP POP POP PUSH1 0x40 MLOAD RETURNDATASIZE PUSH1 0x1F NOT PUSH1 0x1F DUP3 ADD AND DUP3 ADD DUP1 PUSH1 0x40 MSTORE POP DUP2 ADD SWAP1 PUSH2 0x152A SWAP2 SWAP1 PUSH2 0x288F JUMP JUMPDEST SWAP1 POP PUSH1 0x0 PUSH32 0x0 PUSH1 0x1 PUSH1 0x1 PUSH1 0xA0 SHL SUB AND PUSH4 0x70A08231 ADDRESS PUSH1 0x40 MLOAD DUP3 PUSH4 0xFFFFFFFF AND PUSH1 0xE0 SHL DUP2 MSTORE PUSH1 0x4 ADD PUSH2 0x157A SWAP2 SWAP1 PUSH2 0x29AA JUMP JUMPDEST PUSH1 0x20 PUSH1 0x40 MLOAD DUP1 DUP4 SUB DUP2 DUP7 DUP1 EXTCODESIZE ISZERO DUP1 ISZERO PUSH2 0x1592 JUMPI PUSH1 0x0 DUP1 REVERT JUMPDEST POP GAS STATICCALL ISZERO DUP1 ISZERO PUSH2 0x15A6 JUMPI RETURNDATASIZE PUSH1 0x0 DUP1 RETURNDATACOPY RETURNDATASIZE PUSH1 0x0 REVERT JUMPDEST POP POP POP POP PUSH1 0x40 MLOAD RETURNDATASIZE PUSH1 0x1F NOT PUSH1 0x1F DUP3 ADD AND DUP3 ADD DUP1 PUSH1 0x40 MSTORE POP DUP2 ADD SWAP1 PUSH2 0x15CA SWAP2 SWAP1 PUSH2 0x288F JUMP JUMPDEST SWAP1 POP PUSH1 0x0 DUP3 GT DUP1 PUSH2 0x15DB JUMPI POP PUSH1 0x0 DUP2 GT JUMPDEST ISZERO PUSH2 0x15F1 JUMPI PUSH2 0x15EC DUP5 DUP5 DUP5 DUP5 PUSH2 0x1D0E JUMP JUMPDEST PUSH2 0x5C8 JUMP JUMPDEST PUSH1 0x40 DUP1 MLOAD PUSH1 0xA0 DUP2 ADD DUP3 MSTORE PUSH1 0x0 DUP1 DUP3 MSTORE PUSH1 0x20 DUP3 ADD DUP2 SWAP1 MSTORE SWAP2 DUP2 ADD DUP3 SWAP1 MSTORE PUSH1 0x60 DUP2 ADD DUP3 SWAP1 MSTORE PUSH1 0x80 ADD DUP2 SWAP1 MSTORE PUSH1 0x2 SSTORE PUSH1 0x3 DUP1 SLOAD PUSH1 0x1 PUSH1 0x1 PUSH1 0xB8 SHL SUB NOT AND SWAP1 SSTORE POP POP POP POP JUMP JUMPDEST EXTCODESIZE ISZERO ISZERO SWAP1 JUMP JUMPDEST PUSH1 0x60 DUP4 ISZERO PUSH2 0x1648 JUMPI POP DUP2 PUSH2 0x865 JUMP JUMPDEST DUP3 MLOAD ISZERO PUSH2 0x1658 JUMPI DUP3 MLOAD DUP1 DUP5 PUSH1 0x20 ADD REVERT JUMPDEST DUP2 PUSH1 0x40 MLOAD PUSH3 0x461BCD PUSH1 0xE5 SHL DUP2 MSTORE PUSH1 0x4 ADD DUP1 DUP1 PUSH1 0x20 ADD DUP3 DUP2 SUB DUP3 MSTORE DUP4 DUP2 DUP2 MLOAD DUP2 MSTORE PUSH1 0x20 ADD SWAP2 POP DUP1 MLOAD SWAP1 PUSH1 0x20 ADD SWAP1 DUP1 DUP4 DUP4 PUSH1 0x0 JUMPDEST DUP4 DUP2 LT ISZERO PUSH2 0x16A2 JUMPI DUP2 DUP2 ADD MLOAD DUP4 DUP3 ADD MSTORE PUSH1 0x20 ADD PUSH2 0x168A JUMP JUMPDEST POP POP POP POP SWAP1 POP SWAP1 DUP2 ADD SWAP1 PUSH1 0x1F AND DUP1 ISZERO PUSH2 0x16CF JUMPI DUP1 DUP3 SUB DUP1 MLOAD PUSH1 0x1 DUP4 PUSH1 0x20 SUB PUSH2 0x100 EXP SUB NOT AND DUP2 MSTORE PUSH1 0x20 ADD SWAP2 POP JUMPDEST POP SWAP3 POP POP POP PUSH1 0x40 MLOAD DUP1 SWAP2 SUB SWAP1 REVERT JUMPDEST PUSH1 0x0 DUP1 DUP3 GT PUSH2 0x1733 JUMPI PUSH1 0x40 DUP1 MLOAD PUSH3 0x461BCD PUSH1 0xE5 SHL DUP2 MSTORE PUSH1 0x20 PUSH1 0x4 DUP3 ADD MSTORE PUSH1 0x1A PUSH1 0x24 DUP3 ADD MSTORE PUSH32 0x536166654D6174683A206469766973696F6E206279207A65726F000000000000 PUSH1 0x44 DUP3 ADD MSTORE SWAP1 MLOAD SWAP1 DUP2 SWAP1 SUB PUSH1 0x64 ADD SWAP1 REVERT JUMPDEST DUP2 DUP4 DUP2 PUSH2 0x173C JUMPI INVALID JUMPDEST DIV SWAP4 SWAP3 POP POP POP JUMP JUMPDEST PUSH1 0x0 DUP3 DUP3 GT ISZERO PUSH2 0x179B JUMPI PUSH1 0x40 DUP1 MLOAD PUSH3 0x461BCD PUSH1 0xE5 SHL DUP2 MSTORE PUSH1 0x20 PUSH1 0x4 DUP3 ADD MSTORE PUSH1 0x1E PUSH1 0x24 DUP3 ADD MSTORE PUSH32 0x536166654D6174683A207375627472616374696F6E206F766572666C6F770000 PUSH1 0x44 DUP3 ADD MSTORE SWAP1 MLOAD SWAP1 DUP2 SWAP1 SUB PUSH1 0x64 ADD SWAP1 REVERT JUMPDEST POP SWAP1 SUB SWAP1 JUMP JUMPDEST PUSH1 0x0 DUP3 PUSH2 0x17B0 JUMPI POP PUSH1 0x0 PUSH2 0x91F JUMP JUMPDEST DUP3 DUP3 MUL DUP3 DUP5 DUP3 DUP2 PUSH2 0x17BD JUMPI INVALID JUMPDEST DIV EQ PUSH2 0x865 JUMPI PUSH1 0x40 MLOAD PUSH3 0x461BCD PUSH1 0xE5 SHL DUP2 MSTORE PUSH1 0x4 ADD DUP1 DUP1 PUSH1 0x20 ADD DUP3 DUP2 SUB DUP3 MSTORE PUSH1 0x21 DUP2 MSTORE PUSH1 0x20 ADD DUP1 PUSH2 0x2E68 PUSH1 0x21 SWAP2 CODECOPY PUSH1 0x40 ADD SWAP2 POP POP PUSH1 0x40 MLOAD DUP1 SWAP2 SUB SWAP1 REVERT JUMPDEST PUSH1 0x0 DUP2 PUSH2 0x1809 JUMPI POP PUSH1 0x0 PUSH2 0xED0 JUMP JUMPDEST PUSH1 0x0 PUSH1 0x1 PUSH2 0x1816 DUP5 PUSH2 0x1E22 JUMP JUMPDEST PUSH1 0x1 SWAP2 SHR SHL SWAP1 POP DUP1 PUSH2 0x1826 JUMPI POP PUSH1 0x1 JUMPDEST PUSH1 0x0 PUSH2 0x1841 PUSH1 0x2 PUSH2 0x10A7 PUSH2 0x183A DUP8 DUP7 PUSH2 0x16DD JUMP JUMPDEST DUP6 SWAP1 PUSH2 0x1ECD JUMP JUMPDEST SWAP1 POP PUSH2 0x185C PUSH1 0x2 PUSH2 0x10A7 PUSH2 0x1855 DUP8 DUP6 PUSH2 0x16DD JUMP JUMPDEST DUP5 SWAP1 PUSH2 0x1ECD JUMP JUMPDEST SWAP1 POP PUSH2 0x1870 PUSH1 0x2 PUSH2 0x10A7 PUSH2 0x1855 DUP8 DUP6 PUSH2 0x16DD JUMP JUMPDEST SWAP1 POP PUSH2 0x1884 PUSH1 0x2 PUSH2 0x10A7 PUSH2 0x1855 DUP8 DUP6 PUSH2 0x16DD JUMP JUMPDEST SWAP1 POP PUSH2 0x1898 PUSH1 0x2 PUSH2 0x10A7 PUSH2 0x1855 DUP8 DUP6 PUSH2 0x16DD JUMP JUMPDEST SWAP1 POP PUSH2 0x18AC PUSH1 0x2 PUSH2 0x10A7 PUSH2 0x1855 DUP8 DUP6 PUSH2 0x16DD JUMP JUMPDEST SWAP1 POP PUSH2 0x18B8 DUP5 DUP3 PUSH2 0x16DD JUMP JUMPDEST DUP2 GT ISZERO PUSH2 0x18D3 JUMPI PUSH2 0x18CA DUP2 PUSH1 0x1 PUSH2 0x1744 JUMP JUMPDEST SWAP3 POP POP POP PUSH2 0xED0 JUMP JUMPDEST SWAP2 POP PUSH2 0xED0 SWAP1 POP JUMP JUMPDEST PUSH1 0x0 PUSH5 0x1000276A3 PUSH1 0x1 PUSH1 0x1 PUSH1 0xA0 SHL SUB DUP4 AND LT DUP1 ISZERO SWAP1 PUSH2 0x1918 JUMPI POP PUSH20 0xFFFD8963EFD1FC6A506488495D951D5263988D26 PUSH1 0x1 PUSH1 0x1 PUSH1 0xA0 SHL SUB DUP4 AND LT JUMPDEST PUSH2 0x194D JUMPI PUSH1 0x40 DUP1 MLOAD PUSH3 0x461BCD PUSH1 0xE5 SHL DUP2 MSTORE PUSH1 0x20 PUSH1 0x4 DUP3 ADD MSTORE PUSH1 0x1 PUSH1 0x24 DUP3 ADD MSTORE PUSH1 0x29 PUSH1 0xF9 SHL PUSH1 0x44 DUP3 ADD MSTORE SWAP1 MLOAD SWAP1 DUP2 SWAP1 SUB PUSH1 0x64 ADD SWAP1 REVERT JUMPDEST PUSH5 0x100000000 PUSH1 0x1 PUSH1 0xC0 SHL SUB PUSH1 0x20 DUP4 SWAP1 SHL AND PUSH1 0x1 PUSH1 0x1 PUSH1 0x80 SHL SUB DUP2 GT PUSH1 0x7 SHL DUP2 DUP2 SHR PUSH8 0xFFFFFFFFFFFFFFFF DUP2 GT PUSH1 0x6 SHL SWAP1 DUP2 SHR PUSH4 0xFFFFFFFF DUP2 GT PUSH1 0x5 SHL SWAP1 DUP2 SHR PUSH2 0xFFFF DUP2 GT PUSH1 0x4 SHL SWAP1 DUP2 SHR PUSH1 0xFF DUP2 GT PUSH1 0x3 SWAP1 DUP2 SHL SWAP2 DUP3 SHR PUSH1 0xF DUP2 GT PUSH1 0x2 SHL SWAP1 DUP2 SHR SWAP2 DUP3 GT PUSH1 0x1 SWAP1 DUP2 SHL SWAP3 DUP4 SHR SWAP8 SWAP1 DUP9 GT SWAP7 OR SWAP1 SWAP5 OR SWAP1 SWAP3 OR OR SWAP1 SWAP2 OR OR OR PUSH1 0x80 DUP2 LT PUSH2 0x19E1 JUMPI PUSH1 0x7F DUP2 SUB DUP4 SWAP1 SHR SWAP2 POP PUSH2 0x19EB JUMP JUMPDEST DUP1 PUSH1 0x7F SUB DUP4 SWAP1 SHL SWAP2 POP JUMPDEST SWAP1 DUP1 MUL PUSH1 0x7F DUP2 DUP2 SHR PUSH1 0xFF DUP4 DUP2 SHR SWAP2 SWAP1 SWAP2 SHR DUP1 MUL DUP1 DUP4 SHR DUP2 DUP4 SHR SHR DUP1 MUL DUP1 DUP5 SHR DUP2 DUP5 SHR SHR DUP1 MUL DUP1 DUP6 SHR DUP2 DUP6 SHR SHR DUP1 MUL DUP1 DUP7 SHR DUP2 DUP7 SHR SHR DUP1 MUL DUP1 DUP8 SHR DUP2 DUP8 SHR SHR DUP1 MUL DUP1 DUP9 SHR DUP2 DUP9 SHR SHR DUP1 MUL DUP1 DUP10 SHR DUP2 DUP10 SHR SHR DUP1 MUL DUP1 DUP11 SHR DUP2 DUP11 SHR SHR DUP1 MUL DUP1 DUP12 SHR DUP2 DUP12 SHR SHR DUP1 MUL DUP1 DUP13 SHR DUP2 DUP13 SHR SHR DUP1 MUL DUP1 DUP14 SHR DUP2 DUP14 SHR SHR DUP1 MUL DUP1 DUP15 SHR SWAP13 DUP2 SWAP1 SHR SWAP13 SWAP1 SWAP13 SHR DUP1 MUL SWAP13 DUP14 SWAP1 SHR SWAP15 SWAP14 PUSH1 0x7F NOT DUP16 ADD PUSH1 0x40 SHL PUSH1 0xC0 SWAP2 SWAP1 SWAP2 SHR PUSH8 0x8000000000000000 AND OR PUSH1 0xC1 SWAP12 SWAP1 SWAP12 SHR PUSH8 0x4000000000000000 AND SWAP11 SWAP1 SWAP11 OR PUSH1 0xC2 SWAP10 SWAP1 SWAP10 SHR PUSH8 0x2000000000000000 AND SWAP9 SWAP1 SWAP9 OR PUSH1 0xC3 SWAP8 SWAP1 SWAP8 SHR PUSH8 0x1000000000000000 AND SWAP7 SWAP1 SWAP7 OR PUSH1 0xC4 SWAP6 SWAP1 SWAP6 SHR PUSH8 0x800000000000000 AND SWAP5 SWAP1 SWAP5 OR PUSH1 0xC5 SWAP4 SWAP1 SWAP4 SHR PUSH8 0x400000000000000 AND SWAP3 SWAP1 SWAP3 OR PUSH1 0xC6 SWAP2 SWAP1 SWAP2 SHR PUSH8 0x200000000000000 AND OR PUSH1 0xC7 SWAP2 SWAP1 SWAP2 SHR PUSH8 0x100000000000000 AND OR PUSH1 0xC8 SWAP2 SWAP1 SWAP2 SHR PUSH7 0x80000000000000 AND OR PUSH1 0xC9 SWAP2 SWAP1 SWAP2 SHR PUSH7 0x40000000000000 AND OR PUSH1 0xCA SWAP2 SWAP1 SWAP2 SHR PUSH7 0x20000000000000 AND OR PUSH1 0xCB SWAP2 SWAP1 SWAP2 SHR PUSH7 0x10000000000000 AND OR PUSH1 0xCC SWAP2 SWAP1 SWAP2 SHR PUSH7 0x8000000000000 AND OR PUSH1 0xCD SWAP2 SWAP1 SWAP2 SHR PUSH7 0x4000000000000 AND OR PUSH10 0x3627A301D71055774C85 DUP2 MUL PUSH16 0x28F6481AB7F045A5AF012A19D003AA9 NOT DUP2 ADD PUSH1 0x80 SWAP1 DUP2 SAR SWAP1 PUSH16 0xDB2DF09E81959A81455E260799A0632F DUP4 ADD SWAP1 SAR PUSH1 0x2 DUP2 DUP2 SIGNEXTEND SWAP1 DUP4 SWAP1 SIGNEXTEND EQ PUSH2 0x1BEC JUMPI DUP9 PUSH1 0x1 PUSH1 0x1 PUSH1 0xA0 SHL SUB AND PUSH2 0x1BD0 DUP3 PUSH2 0x1F27 JUMP JUMPDEST PUSH1 0x1 PUSH1 0x1 PUSH1 0xA0 SHL SUB AND GT ISZERO PUSH2 0x1BE5 JUMPI DUP2 PUSH2 0x1BE7 JUMP JUMPDEST DUP1 JUMPDEST PUSH2 0x1BEE JUMP JUMPDEST DUP2 JUMPDEST SWAP10 SWAP9 POP POP POP POP POP POP POP POP POP JUMP JUMPDEST PUSH1 0x0 DUP1 DUP3 PUSH1 0x2 SIGNEXTEND SGT PUSH2 0x1C1F JUMPI PUSH1 0x40 MLOAD PUSH3 0x461BCD PUSH1 0xE5 SHL DUP2 MSTORE PUSH1 0x4 ADD PUSH2 0x54B SWAP1 PUSH2 0x2BB2 JUMP JUMPDEST PUSH1 0x0 DUP3 PUSH1 0x2 SIGNEXTEND DUP5 PUSH1 0x2 SIGNEXTEND DUP2 PUSH2 0x1C30 JUMPI INVALID JUMPDEST SDIV SWAP1 POP PUSH1 0x0 DUP5 PUSH1 0x2 SIGNEXTEND SLT DUP1 ISZERO PUSH2 0x1C57 JUMPI POP DUP3 PUSH1 0x2 SIGNEXTEND DUP5 PUSH1 0x2 SIGNEXTEND DUP2 PUSH2 0x1C50 JUMPI INVALID JUMPDEST SMOD PUSH1 0x2 SIGNEXTEND ISZERO ISZERO JUMPDEST ISZERO PUSH2 0x1C61 JUMPI PUSH1 0x0 NOT ADD JUMPDEST SWAP1 SWAP2 MUL SWAP3 SWAP2 POP POP JUMP JUMPDEST PUSH1 0x3 SLOAD PUSH1 0x1 PUSH1 0xB0 SHL SWAP1 DIV PUSH1 0xFF AND DUP1 ISZERO PUSH2 0x1C84 JUMPI POP PUSH1 0x2 SLOAD ISZERO ISZERO JUMPDEST PUSH2 0x1CA0 JUMPI PUSH1 0x40 MLOAD PUSH3 0x461BCD PUSH1 0xE5 SHL DUP2 MSTORE PUSH1 0x4 ADD PUSH2 0x54B SWAP1 PUSH2 0x2AAD JUMP JUMPDEST PUSH1 0x2 DUP1 SLOAD PUSH1 0x3 DUP1 SLOAD PUSH1 0x40 DUP1 MLOAD PUSH1 0xA0 DUP2 ADD DUP3 MSTORE PUSH1 0x0 DUP1 DUP3 MSTORE PUSH1 0x20 DUP3 ADD DUP2 SWAP1 MSTORE SWAP2 DUP2 ADD DUP3 SWAP1 MSTORE PUSH1 0x60 DUP2 ADD DUP3 SWAP1 MSTORE PUSH1 0x80 ADD DUP2 SWAP1 MSTORE DUP5 SSTORE PUSH1 0x1 PUSH1 0x1 PUSH1 0xB8 SHL SUB NOT DUP2 AND SWAP1 SWAP2 SSTORE SWAP1 SWAP2 PUSH1 0x1 PUSH1 0x1 PUSH1 0x80 SHL SUB DUP3 AND SWAP2 PUSH1 0x1 PUSH1 0x80 SHL DUP2 DIV DUP3 SIGNEXTEND SWAP2 PUSH1 0x1 PUSH1 0x98 SHL SWAP1 SWAP2 DIV SWAP1 SIGNEXTEND PUSH2 0x5C8 DUP5 DUP5 DUP5 DUP5 PUSH2 0x2259 JUMP JUMPDEST PUSH1 0x3 SLOAD PUSH1 0x1 PUSH1 0xB0 SHL SWAP1 DIV PUSH1 0xFF AND ISZERO PUSH2 0x1D38 JUMPI PUSH1 0x40 MLOAD PUSH3 0x461BCD PUSH1 0xE5 SHL DUP2 MSTORE PUSH1 0x4 ADD PUSH2 0x54B SWAP1 PUSH2 0x2A76 JUMP JUMPDEST PUSH1 0x0 PUSH1 0x40 MLOAD DUP1 PUSH2 0x160 ADD PUSH1 0x40 MSTORE DUP1 PUSH32 0x0 PUSH1 0x1 PUSH1 0x1 PUSH1 0xA0 SHL SUB AND DUP2 MSTORE PUSH1 0x20 ADD PUSH32 0x0 PUSH1 0x1 PUSH1 0x1 PUSH1 0xA0 SHL SUB AND DUP2 MSTORE PUSH1 0x20 ADD PUSH32 0x0 PUSH3 0xFFFFFF AND DUP2 MSTORE PUSH1 0x20 ADD DUP7 PUSH1 0x2 SIGNEXTEND DUP2 MSTORE PUSH1 0x20 ADD DUP6 PUSH1 0x2 SIGNEXTEND DUP2 MSTORE PUSH1 0x20 ADD DUP5 DUP2 MSTORE PUSH1 0x20 ADD DUP4 DUP2 MSTORE PUSH1 0x20 ADD PUSH1 0x0 DUP2 MSTORE PUSH1 0x20 ADD PUSH1 0x0 DUP2 MSTORE PUSH1 0x20 ADD ADDRESS PUSH1 0x1 PUSH1 0x1 PUSH1 0xA0 SHL SUB AND DUP2 MSTORE PUSH1 0x20 ADD TIMESTAMP DUP2 MSTORE POP SWAP1 POP PUSH2 0x1E1B DUP2 DUP7 DUP7 PUSH2 0x24BC JUMP JUMPDEST POP POP POP POP POP JUMP JUMPDEST PUSH1 0x0 DUP2 DUP1 PUSH2 0x1E2F JUMPI PUSH1 0x0 SWAP2 POP JUMPDEST PUSH1 0x1 PUSH1 0x1 PUSH1 0x80 SHL SUB DUP2 GT ISZERO PUSH2 0x1E46 JUMPI PUSH1 0x80 SWAP2 DUP3 ADD SWAP2 SHR JUMPDEST PUSH8 0xFFFFFFFFFFFFFFFF DUP2 GT ISZERO PUSH2 0x1E5E JUMPI PUSH1 0x40 SWAP2 DUP3 ADD SWAP2 SHR JUMPDEST PUSH4 0xFFFFFFFF DUP2 GT ISZERO PUSH2 0x1E72 JUMPI PUSH1 0x20 SWAP2 DUP3 ADD SWAP2 SHR JUMPDEST PUSH2 0xFFFF DUP2 GT ISZERO PUSH2 0x1E84 JUMPI PUSH1 0x10 SWAP2 DUP3 ADD SWAP2 SHR JUMPDEST PUSH1 0xFF DUP2 GT ISZERO PUSH2 0x1E95 JUMPI PUSH1 0x8 SWAP2 DUP3 ADD SWAP2 SHR JUMPDEST PUSH1 0xF DUP2 GT ISZERO PUSH2 0x1EA6 JUMPI PUSH1 0x4 SWAP2 DUP3 ADD SWAP2 SHR JUMPDEST PUSH1 0x3 DUP2 GT ISZERO PUSH2 0x1EB7 JUMPI PUSH1 0x2 SWAP2 DUP3 ADD SWAP2 SHR JUMPDEST PUSH1 0x1 DUP2 GT ISZERO PUSH2 0x1EC7 JUMPI PUSH1 0x1 DUP3 ADD SWAP2 POP JUMPDEST POP SWAP2 SWAP1 POP JUMP JUMPDEST PUSH1 0x0 DUP3 DUP3 ADD DUP4 DUP2 LT ISZERO PUSH2 0x865 JUMPI PUSH1 0x40 DUP1 MLOAD PUSH3 0x461BCD PUSH1 0xE5 SHL DUP2 MSTORE PUSH1 0x20 PUSH1 0x4 DUP3 ADD MSTORE PUSH1 0x1B PUSH1 0x24 DUP3 ADD MSTORE PUSH32 0x536166654D6174683A206164646974696F6E206F766572666C6F770000000000 PUSH1 0x44 DUP3 ADD MSTORE SWAP1 MLOAD SWAP1 DUP2 SWAP1 SUB PUSH1 0x64 ADD SWAP1 REVERT JUMPDEST PUSH1 0x0 DUP1 PUSH1 0x0 DUP4 PUSH1 0x2 SIGNEXTEND SLT PUSH2 0x1F3E JUMPI DUP3 PUSH1 0x2 SIGNEXTEND PUSH2 0x1F46 JUMP JUMPDEST DUP3 PUSH1 0x2 SIGNEXTEND PUSH1 0x0 SUB JUMPDEST SWAP1 POP PUSH3 0xD89E8 DUP2 GT ISZERO PUSH2 0x1F84 JUMPI PUSH1 0x40 DUP1 MLOAD PUSH3 0x461BCD PUSH1 0xE5 SHL DUP2 MSTORE PUSH1 0x20 PUSH1 0x4 DUP3 ADD MSTORE PUSH1 0x1 PUSH1 0x24 DUP3 ADD MSTORE PUSH1 0x15 PUSH1 0xFA SHL PUSH1 0x44 DUP3 ADD MSTORE SWAP1 MLOAD SWAP1 DUP2 SWAP1 SUB PUSH1 0x64 ADD SWAP1 REVERT JUMPDEST PUSH1 0x0 PUSH1 0x1 DUP3 AND PUSH2 0x1F98 JUMPI PUSH1 0x1 PUSH1 0x80 SHL PUSH2 0x1FAA JUMP JUMPDEST PUSH16 0xFFFCB933BD6FAD37AA2D162D1A594001 JUMPDEST PUSH17 0xFFFFFFFFFFFFFFFFFFFFFFFFFFFFFFFFFF AND SWAP1 POP PUSH1 0x2 DUP3 AND ISZERO PUSH2 0x1FDE JUMPI PUSH16 0xFFF97272373D413259A46990580E213A MUL PUSH1 0x80 SHR JUMPDEST PUSH1 0x4 DUP3 AND ISZERO PUSH2 0x1FFD JUMPI PUSH16 0xFFF2E50F5F656932EF12357CF3C7FDCC MUL PUSH1 0x80 SHR JUMPDEST PUSH1 0x8 DUP3 AND ISZERO PUSH2 0x201C JUMPI PUSH16 0xFFE5CACA7E10E4E61C3624EAA0941CD0 MUL PUSH1 0x80 SHR JUMPDEST PUSH1 0x10 DUP3 AND ISZERO PUSH2 0x203B JUMPI PUSH16 0xFFCB9843D60F6159C9DB58835C926644 MUL PUSH1 0x80 SHR JUMPDEST PUSH1 0x20 DUP3 AND ISZERO PUSH2 0x205A JUMPI PUSH16 0xFF973B41FA98C081472E6896DFB254C0 MUL PUSH1 0x80 SHR JUMPDEST PUSH1 0x40 DUP3 AND ISZERO PUSH2 0x2079 JUMPI PUSH16 0xFF2EA16466C96A3843EC78B326B52861 MUL PUSH1 0x80 SHR JUMPDEST PUSH1 0x80 DUP3 AND ISZERO PUSH2 0x2098 JUMPI PUSH16 0xFE5DEE046A99A2A811C461F1969C3053 MUL PUSH1 0x80 SHR JUMPDEST PUSH2 0x100 DUP3 AND ISZERO PUSH2 0x20B8 JUMPI PUSH16 0xFCBE86C7900A88AEDCFFC83B479AA3A4 MUL PUSH1 0x80 SHR JUMPDEST PUSH2 0x200 DUP3 AND ISZERO PUSH2 0x20D8 JUMPI PUSH16 0xF987A7253AC413176F2B074CF7815E54 MUL PUSH1 0x80 SHR JUMPDEST PUSH2 0x400 DUP3 AND ISZERO PUSH2 0x20F8 JUMPI PUSH16 0xF3392B0822B70005940C7A398E4B70F3 MUL PUSH1 0x80 SHR JUMPDEST PUSH2 0x800 DUP3 AND ISZERO PUSH2 0x2118 JUMPI PUSH16 0xE7159475A2C29B7443B29C7FA6E889D9 MUL PUSH1 0x80 SHR JUMPDEST PUSH2 0x1000 DUP3 AND ISZERO PUSH2 0x2138 JUMPI PUSH16 0xD097F3BDFD2022B8845AD8F792AA5825 MUL PUSH1 0x80 SHR JUMPDEST PUSH2 0x2000 DUP3 AND ISZERO PUSH2 0x2158 JUMPI PUSH16 0xA9F746462D870FDF8A65DC1F90E061E5 MUL PUSH1 0x80 SHR JUMPDEST PUSH2 0x4000 DUP3 AND ISZERO PUSH2 0x2178 JUMPI PUSH16 0x70D869A156D2A1B890BB3DF62BAF32F7 MUL PUSH1 0x80 SHR JUMPDEST PUSH2 0x8000 DUP3 AND ISZERO PUSH2 0x2198 JUMPI PUSH16 0x31BE135F97D08FD981231505542FCFA6 MUL PUSH1 0x80 SHR JUMPDEST PUSH3 0x10000 DUP3 AND ISZERO PUSH2 0x21B9 JUMPI PUSH16 0x9AA508B5B7A84E1C677DE54F3E99BC9 MUL PUSH1 0x80 SHR JUMPDEST PUSH3 0x20000 DUP3 AND ISZERO PUSH2 0x21D9 JUMPI PUSH15 0x5D6AF8DEDB81196699C329225EE604 MUL PUSH1 0x80 SHR JUMPDEST PUSH3 0x40000 DUP3 AND ISZERO PUSH2 0x21F8 JUMPI PUSH14 0x2216E584F5FA1EA926041BEDFE98 MUL PUSH1 0x80 SHR JUMPDEST PUSH3 0x80000 DUP3 AND ISZERO PUSH2 0x2215 JUMPI PUSH12 0x48A170391F7DC42444E8FA2 MUL PUSH1 0x80 SHR JUMPDEST PUSH1 0x0 DUP5 PUSH1 0x2 SIGNEXTEND SGT ISZERO PUSH2 0x2230 JUMPI DUP1 PUSH1 0x0 NOT DUP2 PUSH2 0x222C JUMPI INVALID JUMPDEST DIV SWAP1 POP JUMPDEST PUSH5 0x100000000 DUP2 MOD ISZERO PUSH2 0x2244 JUMPI PUSH1 0x1 PUSH2 0x2247 JUMP JUMPDEST PUSH1 0x0 JUMPDEST PUSH1 0xFF AND PUSH1 0x20 DUP3 SWAP1 SHR ADD SWAP3 POP POP POP SWAP2 SWAP1 POP JUMP JUMPDEST PUSH1 0x0 DUP1 DUP1 DUP1 PUSH1 0x1 PUSH1 0x1 PUSH1 0x80 SHL SUB DUP8 AND ISZERO PUSH2 0x2344 JUMPI PUSH1 0x40 DUP1 MLOAD PUSH1 0xA0 DUP2 ADD DUP3 MSTORE DUP10 DUP2 MSTORE PUSH1 0x1 PUSH1 0x1 PUSH1 0x80 SHL SUB DUP10 AND PUSH1 0x20 DUP3 ADD MSTORE PUSH1 0x0 DUP2 DUP4 ADD DUP2 SWAP1 MSTORE PUSH1 0x60 DUP3 ADD MSTORE TIMESTAMP PUSH1 0x80 DUP3 ADD MSTORE SWAP1 MLOAD PUSH4 0x624E65F PUSH1 0xE1 SHL DUP2 MSTORE PUSH1 0x1 PUSH1 0x1 PUSH1 0xA0 SHL SUB PUSH32 0x0 AND SWAP2 PUSH4 0xC49CCBE SWAP2 PUSH2 0x22E6 SWAP2 SWAP1 PUSH1 0x4 ADD PUSH2 0x2C82 JUMP JUMPDEST PUSH1 0x40 DUP1 MLOAD DUP1 DUP4 SUB DUP2 PUSH1 0x0 DUP8 DUP1 EXTCODESIZE ISZERO DUP1 ISZERO PUSH2 0x22FF JUMPI PUSH1 0x0 DUP1 REVERT JUMPDEST POP GAS CALL SWAP3 POP POP POP DUP1 ISZERO PUSH2 0x232F JUMPI POP PUSH1 0x40 DUP1 MLOAD PUSH1 0x1F RETURNDATASIZE SWAP1 DUP2 ADD PUSH1 0x1F NOT AND DUP3 ADD SWAP1 SWAP3 MSTORE PUSH2 0x232C SWAP2 DUP2 ADD SWAP1 PUSH2 0x28EF JUMP JUMPDEST PUSH1 0x1 JUMPDEST PUSH2 0x2338 JUMPI PUSH2 0x233F JUMP JUMPDEST POP POP PUSH1 0x1 SWAP4 POP JUMPDEST PUSH2 0x2349 JUMP JUMPDEST PUSH1 0x1 SWAP4 POP JUMPDEST DUP4 ISZERO PUSH2 0x2494 JUMPI PUSH1 0x40 DUP1 MLOAD PUSH1 0x80 DUP2 ADD DUP3 MSTORE DUP10 DUP2 MSTORE ADDRESS PUSH1 0x20 DUP3 ADD MSTORE PUSH1 0x1 PUSH1 0x1 PUSH1 0x80 SHL SUB DUP2 DUP4 ADD DUP2 SWAP1 MSTORE PUSH1 0x60 DUP3 ADD MSTORE SWAP1 MLOAD PUSH4 0xFC6F7865 PUSH1 0xE0 SHL DUP2 MSTORE PUSH1 0x1 PUSH1 0x1 PUSH1 0xA0 SHL SUB PUSH32 0x0 AND SWAP2 PUSH4 0xFC6F7865 SWAP2 PUSH2 0x23BF SWAP2 SWAP1 PUSH1 0x4 ADD PUSH2 0x2C3F JUMP JUMPDEST PUSH1 0x40 DUP1 MLOAD DUP1 DUP4 SUB DUP2 PUSH1 0x0 DUP8 DUP1 EXTCODESIZE ISZERO DUP1 ISZERO PUSH2 0x23D8 JUMPI PUSH1 0x0 DUP1 REVERT JUMPDEST POP GAS CALL SWAP3 POP POP POP DUP1 ISZERO PUSH2 0x2408 JUMPI POP PUSH1 0x40 DUP1 MLOAD PUSH1 0x1F RETURNDATASIZE SWAP1 DUP2 ADD PUSH1 0x1F NOT AND DUP3 ADD SWAP1 SWAP3 MSTORE PUSH2 0x2405 SWAP2 DUP2 ADD SWAP1 PUSH2 0x28EF JUMP JUMPDEST PUSH1 0x1 JUMPDEST PUSH2 0x2411 JUMPI PUSH2 0x241B JUMP JUMPDEST PUSH1 0x1 SWAP5 POP SWAP1 SWAP3 POP SWAP1 POP JUMPDEST PUSH1 0x40 MLOAD PUSH4 0x852CD8D PUSH1 0xE3 SHL DUP2 MSTORE PUSH1 0x1 PUSH1 0x1 PUSH1 0xA0 SHL SUB PUSH32 0x0 AND SWAP1 PUSH4 0x42966C68 SWAP1 PUSH2 0x2467 SWAP1 DUP12 SWAP1 PUSH1 0x4 ADD PUSH2 0x2D83 JUMP JUMPDEST PUSH1 0x0 PUSH1 0x40 MLOAD DUP1 DUP4 SUB DUP2 PUSH1 0x0 DUP8 DUP1 EXTCODESIZE ISZERO DUP1 ISZERO PUSH2 0x2481 JUMPI PUSH1 0x0 DUP1 REVERT JUMPDEST POP GAS CALL SWAP3 POP POP POP DUP1 ISZERO PUSH2 0x2492 JUMPI POP PUSH1 0x1 JUMPDEST POP JUMPDEST PUSH1 0x0 DUP5 DUP1 ISZERO PUSH2 0x24A0 JUMPI POP DUP4 JUMPDEST SWAP1 POP PUSH2 0x24B1 DUP10 DUP9 DUP9 DUP12 DUP8 DUP8 DUP8 PUSH2 0x2708 JUMP JUMPDEST POP POP POP POP POP POP POP POP POP JUMP JUMPDEST PUSH1 0x0 DUP1 PUSH1 0x0 DUP1 PUSH1 0x0 PUSH32 0x0 PUSH1 0x1 PUSH1 0x1 PUSH1 0xA0 SHL SUB AND PUSH4 0x88316456 DUP10 PUSH1 0x40 MLOAD DUP3 PUSH4 0xFFFFFFFF AND PUSH1 0xE0 SHL DUP2 MSTORE PUSH1 0x4 ADD PUSH2 0x2510 SWAP2 SWAP1 PUSH2 0x2CC5 JUMP JUMPDEST PUSH1 0x80 PUSH1 0x40 MLOAD DUP1 DUP4 SUB DUP2 PUSH1 0x0 DUP8 DUP1 EXTCODESIZE ISZERO DUP1 ISZERO PUSH2 0x252A JUMPI PUSH1 0x0 DUP1 REVERT JUMPDEST POP GAS CALL SWAP3 POP POP POP DUP1 ISZERO PUSH2 0x255A JUMPI POP PUSH1 0x40 DUP1 MLOAD PUSH1 0x1F RETURNDATASIZE SWAP1 DUP2 ADD PUSH1 0x1F NOT AND DUP3 ADD SWAP1 SWAP3 MSTORE PUSH2 0x2557 SWAP2 DUP2 ADD SWAP1 PUSH2 0x28A7 JUMP JUMPDEST PUSH1 0x1 JUMPDEST PUSH2 0x2563 JUMPI PUSH2 0x26AD JUMP JUMPDEST DUP4 SWAP9 POP DUP3 SWAP8 POP DUP2 SWAP7 POP DUP1 SWAP6 POP PUSH1 0x0 DUP9 PUSH1 0x1 PUSH1 0x1 PUSH1 0x80 SHL SUB AND GT ISZERO PUSH2 0x2629 JUMPI PUSH1 0x40 DUP1 MLOAD PUSH1 0xA0 DUP2 ADD DUP3 MSTORE DUP11 DUP2 MSTORE PUSH1 0x1 PUSH1 0x1 PUSH1 0x80 SHL SUB DUP11 AND PUSH1 0x20 DUP3 ADD DUP2 SWAP1 MSTORE PUSH1 0x2 DUP15 DUP2 SIGNEXTEND SWAP4 DUP4 ADD DUP5 SWAP1 MSTORE DUP14 DUP2 SIGNEXTEND PUSH1 0x60 DUP5 ADD DUP2 SWAP1 MSTORE PUSH1 0x1 PUSH1 0x80 SWAP1 SWAP5 ADD DUP5 SWAP1 MSTORE DUP14 DUP3 SSTORE PUSH1 0x3 DUP1 SLOAD PUSH1 0x1 PUSH1 0xB0 SHL PUSH16 0xFFFFFFFFFFFFFFFFFFFFFFFFFFFFFFFF NOT SWAP1 SWAP2 AND SWAP1 SWAP5 OR PUSH3 0xFFFFFF PUSH1 0x80 SHL NOT AND PUSH1 0x1 PUSH1 0x80 SHL SWAP7 DUP5 SIGNEXTEND PUSH3 0xFFFFFF SWAP1 DUP2 AND SWAP8 SWAP1 SWAP8 MUL OR PUSH3 0xFFFFFF PUSH1 0x98 SHL NOT AND PUSH1 0x1 PUSH1 0x98 SHL SWAP3 SWAP1 SWAP4 SIGNEXTEND SWAP6 SWAP1 SWAP6 AND MUL OR PUSH1 0xFF PUSH1 0xB0 SHL NOT AND OR SWAP1 SWAP2 SSTORE SWAP5 POP PUSH2 0x26A8 JUMP JUMPDEST DUP9 ISZERO PUSH2 0x26A8 JUMPI PUSH1 0x40 MLOAD PUSH4 0x852CD8D PUSH1 0xE3 SHL DUP2 MSTORE PUSH1 0x1 PUSH1 0x1 PUSH1 0xA0 SHL SUB PUSH32 0x0 AND SWAP1 PUSH4 0x42966C68 SWAP1 PUSH2 0x267B SWAP1 DUP13 SWAP1 PUSH1 0x4 ADD PUSH2 0x2D83 JUMP JUMPDEST PUSH1 0x0 PUSH1 0x40 MLOAD DUP1 DUP4 SUB DUP2 PUSH1 0x0 DUP8 DUP1 EXTCODESIZE ISZERO DUP1 ISZERO PUSH2 0x2695 JUMPI PUSH1 0x0 DUP1 REVERT JUMPDEST POP GAS CALL SWAP3 POP POP POP DUP1 ISZERO PUSH2 0x26A6 JUMPI POP PUSH1 0x1 JUMPDEST POP JUMPDEST POP POP POP POP JUMPDEST PUSH2 0x26BC DUP6 DUP9 DUP9 DUP8 DUP8 DUP8 DUP8 PUSH2 0x2753 JUMP JUMPDEST DUP1 PUSH2 0x26FE JUMPI PUSH1 0x40 DUP1 MLOAD PUSH1 0xA0 DUP2 ADD DUP3 MSTORE PUSH1 0x0 DUP1 DUP3 MSTORE PUSH1 0x20 DUP3 ADD DUP2 SWAP1 MSTORE SWAP2 DUP2 ADD DUP3 SWAP1 MSTORE PUSH1 0x60 DUP2 ADD DUP3 SWAP1 MSTORE PUSH1 0x80 ADD DUP2 SWAP1 MSTORE PUSH1 0x2 SSTORE PUSH1 0x3 DUP1 SLOAD PUSH1 0x1 PUSH1 0x1 PUSH1 0xB8 SHL SUB NOT AND SWAP1 SSTORE JUMPDEST POP POP POP POP POP POP POP POP JUMP JUMPDEST DUP7 PUSH32 0xDEE9C9AC7E4F2757956DFCF228DC427442EC0A77C0020754A5D9C3B2583D9A14 DUP8 DUP8 DUP8 DUP8 DUP8 DUP8 PUSH1 0x40 MLOAD PUSH2 0x2742 SWAP7 SWAP6 SWAP5 SWAP4 SWAP3 SWAP2 SWAP1 PUSH2 0x2AD9 JUMP JUMPDEST PUSH1 0x40 MLOAD DUP1 SWAP2 SUB SWAP1 LOG2 POP POP POP POP POP POP POP JUMP JUMPDEST DUP7 PUSH32 0xDEE9C9AC7E4F2757956DFCF228DC427442EC0A77C0020754A5D9C3B2583D9A14 DUP8 DUP8 DUP8 DUP8 DUP8 DUP8 PUSH1 0x40 MLOAD PUSH2 0x2742 SWAP7 SWAP6 SWAP5 SWAP4 SWAP3 SWAP2 SWAP1 PUSH2 0x2BE9 JUMP JUMPDEST DUP1 MLOAD PUSH2 0xFFFF DUP2 AND DUP2 EQ PUSH2 0xED0 JUMPI PUSH1 0x0 DUP1 REVERT JUMPDEST PUSH1 0x0 PUSH1 0x20 DUP3 DUP5 SUB SLT ISZERO PUSH2 0x27B0 JUMPI DUP1 DUP2 REVERT JUMPDEST DUP2 CALLDATALOAD PUSH2 0x865 DUP2 PUSH2 0x2E03 JUMP JUMPDEST PUSH1 0x0 PUSH1 0x20 DUP3 DUP5 SUB SLT ISZERO PUSH2 0x27CC JUMPI DUP1 DUP2 REVERT JUMPDEST DUP2 MLOAD PUSH2 0x865 DUP2 PUSH2 0x2E03 JUMP JUMPDEST PUSH1 0x0 DUP1 PUSH1 0x0 DUP1 PUSH1 0x0 DUP1 PUSH1 0x0 PUSH1 0xE0 DUP9 DUP11 SUB SLT ISZERO PUSH2 0x27F1 JUMPI DUP3 DUP4 REVERT JUMPDEST DUP8 MLOAD PUSH2 0x27FC DUP2 PUSH2 0x2E03 JUMP JUMPDEST DUP1 SWAP8 POP POP PUSH1 0x20 DUP9 ADD MLOAD DUP1 PUSH1 0x2 SIGNEXTEND DUP2 EQ PUSH2 0x2813 JUMPI DUP4 DUP5 REVERT JUMPDEST SWAP6 POP PUSH2 0x2821 PUSH1 0x40 DUP10 ADD PUSH2 0x278D JUMP JUMPDEST SWAP5 POP PUSH2 0x282F PUSH1 0x60 DUP10 ADD PUSH2 0x278D JUMP JUMPDEST SWAP4 POP PUSH2 0x283D PUSH1 0x80 DUP10 ADD PUSH2 0x278D JUMP JUMPDEST SWAP3 POP PUSH1 0xA0 DUP9 ADD MLOAD PUSH1 0xFF DUP2 AND DUP2 EQ PUSH2 0x2852 JUMPI DUP3 DUP4 REVERT JUMPDEST PUSH1 0xC0 DUP10 ADD MLOAD SWAP1 SWAP3 POP DUP1 ISZERO ISZERO DUP2 EQ PUSH2 0x2867 JUMPI DUP2 DUP3 REVERT JUMPDEST DUP1 SWAP2 POP POP SWAP3 SWAP6 SWAP9 SWAP2 SWAP5 SWAP8 POP SWAP3 SWAP6 POP JUMP JUMPDEST PUSH1 0x0 PUSH1 0x20 DUP3 DUP5 SUB SLT ISZERO PUSH2 0x2888 JUMPI DUP1 DUP2 REVERT JUMPDEST POP CALLDATALOAD SWAP2 SWAP1 POP JUMP JUMPDEST PUSH1 0x0 PUSH1 0x20 DUP3 DUP5 SUB SLT ISZERO PUSH2 0x28A0 JUMPI DUP1 DUP2 REVERT JUMPDEST POP MLOAD SWAP2 SWAP1 POP JUMP JUMPDEST PUSH1 0x0 DUP1 PUSH1 0x0 DUP1 PUSH1 0x80 DUP6 DUP8 SUB SLT ISZERO PUSH2 0x28BC JUMPI DUP4 DUP5 REVERT JUMPDEST DUP5 MLOAD SWAP4 POP PUSH1 0x20 DUP6 ADD MLOAD PUSH1 0x1 PUSH1 0x1 PUSH1 0x80 SHL SUB DUP2 AND DUP2 EQ PUSH2 0x28D9 JUMPI DUP4 DUP5 REVERT JUMPDEST PUSH1 0x40 DUP7 ADD MLOAD PUSH1 0x60 SWAP1 SWAP7 ADD MLOAD SWAP5 SWAP8 SWAP1 SWAP7 POP SWAP3 POP POP POP JUMP JUMPDEST PUSH1 0x0 DUP1 PUSH1 0x40 DUP4 DUP6 SUB SLT ISZERO PUSH2 0x2901 JUMPI DUP2 DUP3 REVERT JUMPDEST POP POP DUP1 MLOAD PUSH1 0x20 SWAP1 SWAP2 ADD MLOAD SWAP1 SWAP3 SWAP1 SWAP2 POP JUMP JUMPDEST PUSH1 0x0 DUP1 PUSH1 0x0 DUP1 PUSH1 0x60 DUP6 DUP8 SUB SLT ISZERO PUSH2 0x2927 JUMPI DUP4 DUP5 REVERT JUMPDEST DUP5 CALLDATALOAD SWAP4 POP PUSH1 0x20 DUP6 ADD CALLDATALOAD SWAP3 POP PUSH1 0x40 DUP6 ADD CALLDATALOAD PUSH8 0xFFFFFFFFFFFFFFFF DUP1 DUP3 GT ISZERO PUSH2 0x294C JUMPI DUP4 DUP5 REVERT JUMPDEST DUP2 DUP8 ADD SWAP2 POP DUP8 PUSH1 0x1F DUP4 ADD SLT PUSH2 0x295F JUMPI DUP4 DUP5 REVERT JUMPDEST DUP2 CALLDATALOAD DUP2 DUP2 GT ISZERO PUSH2 0x296D JUMPI DUP5 DUP6 REVERT JUMPDEST DUP9 PUSH1 0x20 DUP3 DUP6 ADD ADD GT ISZERO PUSH2 0x297E JUMPI DUP5 DUP6 REVERT JUMPDEST SWAP6 SWAP9 SWAP5 SWAP8 POP POP PUSH1 0x20 ADD SWAP5 POP POP POP JUMP JUMPDEST PUSH1 0x1 PUSH1 0x1 PUSH1 0xA0 SHL SUB AND SWAP1 MSTORE JUMP JUMPDEST PUSH1 0x2 SIGNEXTEND SWAP1 MSTORE JUMP JUMPDEST PUSH3 0xFFFFFF AND SWAP1 MSTORE JUMP JUMPDEST PUSH1 0x1 PUSH1 0x1 PUSH1 0xA0 SHL SUB SWAP2 SWAP1 SWAP2 AND DUP2 MSTORE PUSH1 0x20 ADD SWAP1 JUMP JUMPDEST PUSH1 0x1 PUSH1 0x1 PUSH1 0xA0 SHL SUB SWAP4 DUP5 AND DUP2 MSTORE SWAP2 SWAP1 SWAP3 AND PUSH1 0x20 DUP3 ADD MSTORE PUSH3 0xFFFFFF SWAP1 SWAP2 AND PUSH1 0x40 DUP3 ADD MSTORE PUSH1 0x60 ADD SWAP1 JUMP JUMPDEST PUSH1 0x2 SWAP2 SWAP1 SWAP2 SIGNEXTEND DUP2 MSTORE PUSH1 0x20 ADD SWAP1 JUMP JUMPDEST PUSH1 0x20 DUP1 DUP3 MSTORE PUSH1 0x11 SWAP1 DUP3 ADD MSTORE PUSH17 0x5072696365206D757374206265203E203 PUSH1 0x7C SHL PUSH1 0x40 DUP3 ADD MSTORE PUSH1 0x60 ADD SWAP1 JUMP JUMPDEST PUSH1 0x20 DUP1 DUP3 MSTORE PUSH1 0xE SWAP1 DUP3 ADD MSTORE PUSH14 0xA0E4D2C6CA40E8DEDE40D0D2CED PUSH1 0x93 SHL PUSH1 0x40 DUP3 ADD MSTORE PUSH1 0x60 ADD SWAP1 JUMP JUMPDEST PUSH1 0x20 DUP1 DUP3 MSTORE PUSH1 0x15 SWAP1 DUP3 ADD MSTORE PUSH21 0x556E617574686F72697A65642063616C6C6261636B PUSH1 0x58 SHL PUSH1 0x40 DUP3 ADD MSTORE PUSH1 0x60 ADD SWAP1 JUMP JUMPDEST PUSH1 0x20 DUP1 DUP3 MSTORE PUSH1 0x17 SWAP1 DUP3 ADD MSTORE PUSH32 0x506F736974696F6E20616C726561647920616374697665000000000000000000 PUSH1 0x40 DUP3 ADD MSTORE PUSH1 0x60 ADD SWAP1 JUMP JUMPDEST PUSH1 0x20 DUP1 DUP3 MSTORE PUSH1 0x12 SWAP1 DUP3 ADD MSTORE PUSH18 0x27379030B1BA34BB32903837B9B4BA34B7B7 PUSH1 0x71 SHL PUSH1 0x40 DUP3 ADD MSTORE PUSH1 0x60 ADD SWAP1 JUMP JUMPDEST PUSH1 0xE0 DUP1 DUP3 MSTORE PUSH1 0x6 SWAP1 DUP3 ADD MSTORE PUSH6 0x52454D4F5645 PUSH1 0xD0 SHL PUSH2 0x100 DUP3 ADD MSTORE PUSH1 0x2 SWAP7 DUP8 SIGNEXTEND PUSH1 0x20 DUP3 ADD MSTORE SWAP5 SWAP1 SWAP6 SIGNEXTEND PUSH1 0x40 DUP6 ADD MSTORE PUSH1 0x1 PUSH1 0x1 PUSH1 0x80 SHL SUB SWAP3 SWAP1 SWAP3 AND PUSH1 0x60 DUP5 ADD MSTORE PUSH1 0x80 DUP4 ADD MSTORE PUSH1 0xA0 DUP3 ADD MSTORE SWAP1 ISZERO ISZERO PUSH1 0xC0 DUP3 ADD MSTORE PUSH2 0x120 ADD SWAP1 JUMP JUMPDEST PUSH1 0x20 DUP1 DUP3 MSTORE PUSH1 0x12 SWAP1 DUP3 ADD MSTORE PUSH18 0x141BDBDB08191BD95CDB89DD08195E1A5CDD PUSH1 0x72 SHL PUSH1 0x40 DUP3 ADD MSTORE PUSH1 0x60 ADD SWAP1 JUMP JUMPDEST PUSH1 0x20 DUP1 DUP3 MSTORE PUSH1 0x14 SWAP1 DUP3 ADD MSTORE PUSH20 0x496E76616C6964207469636B2073706163696E67 PUSH1 0x60 SHL PUSH1 0x40 DUP3 ADD MSTORE PUSH1 0x60 ADD SWAP1 JUMP JUMPDEST PUSH1 0x20 DUP1 DUP3 MSTORE PUSH1 0xD SWAP1 DUP3 ADD MSTORE PUSH13 0x507269636520746F6F206C6F77 PUSH1 0x98 SHL PUSH1 0x40 DUP3 ADD MSTORE PUSH1 0x60 ADD SWAP1 JUMP JUMPDEST PUSH1 0x20 DUP1 DUP3 MSTORE PUSH1 0x1D SWAP1 DUP3 ADD MSTORE PUSH32 0x5469636B2073706163696E67206D75737420626520706F736974697665000000 PUSH1 0x40 DUP3 ADD MSTORE PUSH1 0x60 ADD SWAP1 JUMP JUMPDEST PUSH1 0xE0 DUP1 DUP3 MSTORE PUSH1 0x4 SWAP1 DUP3 ADD MSTORE PUSH4 0x13525395 PUSH1 0xE2 SHL PUSH2 0x100 DUP3 ADD MSTORE PUSH1 0x2 SWAP7 DUP8 SIGNEXTEND PUSH1 0x20 DUP3 ADD MSTORE SWAP5 SWAP1 SWAP6 SIGNEXTEND PUSH1 0x40 DUP6 ADD MSTORE PUSH1 0x1 PUSH1 0x1 PUSH1 0x80 SHL SUB SWAP3 SWAP1 SWAP3 AND PUSH1 0x60 DUP5 ADD MSTORE PUSH1 0x80 DUP4 ADD MSTORE PUSH1 0xA0 DUP3 ADD MSTORE SWAP1 ISZERO ISZERO PUSH1 0xC0 DUP3 ADD MSTORE PUSH2 0x120 ADD SWAP1 JUMP JUMPDEST DUP2 MLOAD DUP2 MSTORE PUSH1 0x20 DUP1 DUP4 ADD MLOAD PUSH1 0x1 PUSH1 0x1 PUSH1 0xA0 SHL SUB AND SWAP1 DUP3 ADD MSTORE PUSH1 0x40 DUP1 DUP4 ADD MLOAD PUSH1 0x1 PUSH1 0x1 PUSH1 0x80 SHL SUB SWAP1 DUP2 AND SWAP2 DUP4 ADD SWAP2 SWAP1 SWAP2 MSTORE PUSH1 0x60 SWAP3 DUP4 ADD MLOAD AND SWAP2 DUP2 ADD SWAP2 SWAP1 SWAP2 MSTORE PUSH1 0x80 ADD SWAP1 JUMP JUMPDEST PUSH1 0x0 PUSH1 0xA0 DUP3 ADD SWAP1 POP DUP3 MLOAD DUP3 MSTORE PUSH1 0x1 PUSH1 0x1 PUSH1 0x80 SHL SUB PUSH1 0x20 DUP5 ADD MLOAD AND PUSH1 0x20 DUP4 ADD MSTORE PUSH1 0x40 DUP4 ADD MLOAD PUSH1 0x40 DUP4 ADD MSTORE PUSH1 0x60 DUP4 ADD MLOAD PUSH1 0x60 DUP4 ADD MSTORE PUSH1 0x80 DUP4 ADD MLOAD PUSH1 0x80 DUP4 ADD MSTORE SWAP3 SWAP2 POP POP JUMP JUMPDEST PUSH1 0x0 PUSH2 0x160 DUP3 ADD SWAP1 POP PUSH2 0x2CD9 DUP3 DUP5 MLOAD PUSH2 0x298D JUMP JUMPDEST PUSH1 0x20 DUP4 ADD MLOAD PUSH2 0x2CEB PUSH1 0x20 DUP5 ADD DUP3 PUSH2 0x298D JUMP JUMPDEST POP PUSH1 0x40 DUP4 ADD MLOAD PUSH2 0x2CFE PUSH1 0x40 DUP5 ADD DUP3 PUSH2 0x29A1 JUMP JUMPDEST POP PUSH1 0x60 DUP4 ADD MLOAD PUSH2 0x2D11 PUSH1 0x60 DUP5 ADD DUP3 PUSH2 0x299A JUMP JUMPDEST POP PUSH1 0x80 DUP4 ADD MLOAD PUSH2 0x2D24 PUSH1 0x80 DUP5 ADD DUP3 PUSH2 0x299A JUMP JUMPDEST POP PUSH1 0xA0 DUP4 ADD MLOAD PUSH1 0xA0 DUP4 ADD MSTORE PUSH1 0xC0 DUP4 ADD MLOAD PUSH1 0xC0 DUP4 ADD MSTORE PUSH1 0xE0 DUP4 ADD MLOAD PUSH1 0xE0 DUP4 ADD MSTORE PUSH2 0x100 DUP1 DUP5 ADD MLOAD DUP2 DUP5 ADD MSTORE POP PUSH2 0x120 DUP1 DUP5 ADD MLOAD PUSH2 0x2D62 DUP3 DUP6 ADD DUP3 PUSH2 0x298D JUMP JUMPDEST POP POP PUSH2 0x140 SWAP3 DUP4 ADD MLOAD SWAP2 SWAP1 SWAP3 ADD MSTORE SWAP1 JUMP JUMPDEST PUSH3 0xFFFFFF SWAP2 SWAP1 SWAP2 AND DUP2 MSTORE PUSH1 0x20 ADD SWAP1 JUMP JUMPDEST SWAP1 DUP2 MSTORE PUSH1 0x20 ADD SWAP1 JUMP JUMPDEST SWAP5 DUP6 MSTORE PUSH1 0x1 PUSH1 0x1 PUSH1 0x80 SHL SUB SWAP4 SWAP1 SWAP4 AND PUSH1 0x20 DUP6 ADD MSTORE PUSH1 0x2 SWAP2 DUP3 SIGNEXTEND PUSH1 0x40 DUP6 ADD MSTORE SWAP1 SIGNEXTEND PUSH1 0x60 DUP4 ADD MSTORE ISZERO ISZERO PUSH1 0x80 DUP3 ADD MSTORE PUSH1 0xA0 ADD SWAP1 JUMP JUMPDEST SWAP7 DUP8 MSTORE PUSH1 0x20 DUP8 ADD SWAP6 SWAP1 SWAP6 MSTORE PUSH1 0x40 DUP7 ADD SWAP4 SWAP1 SWAP4 MSTORE PUSH1 0x2 SWAP2 DUP3 SIGNEXTEND PUSH1 0x60 DUP7 ADD MSTORE DUP2 SIGNEXTEND PUSH1 0x80 DUP6 ADD MSTORE SIGNEXTEND PUSH1 0xA0 DUP4 ADD MSTORE ISZERO ISZERO PUSH1 0xC0 DUP3 ADD MSTORE PUSH1 0xE0 ADD SWAP1 JUMP JUMPDEST PUSH1 0xFF SWAP2 SWAP1 SWAP2 AND DUP2 MSTORE PUSH1 0x20 ADD SWAP1 JUMP JUMPDEST PUSH1 0x1 PUSH1 0x1 PUSH1 0xA0 SHL SUB DUP2 AND DUP2 EQ PUSH2 0x2E18 JUMPI PUSH1 0x0 DUP1 REVERT JUMPDEST POP JUMP INVALID 0x4F PUSH24 0x6E61626C653A206E6577206F776E65722069732074686520 PUSH27 0x65726F2061646472657373416464726573733A20696E7375666669 PUSH4 0x69656E74 KECCAK256 PUSH3 0x616C61 PUSH15 0x636520666F722063616C6C53616665 0x4D PUSH2 0x7468 GASPRICE KECCAK256 PUSH14 0x756C7469706C69636174696F6E20 PUSH16 0x766572666C6F77536166654552433230 GASPRICE KECCAK256 GASLIMIT MSTORE NUMBER ORIGIN ADDRESS KECCAK256 PUSH16 0x7065726174696F6E20646964206E6F74 KECCAK256 PUSH20 0x7563636565645361666545524332303A20617070 PUSH19 0x6F76652066726F6D206E6F6E2D7A65726F2074 PUSH16 0x206E6F6E2D7A65726F20616C6C6F7761 PUSH15 0x6365A2646970667358221220895D98 PUSH10 0xC4EDA3B215177E679DC0 0xE1 0xD9 BALANCE PUSH31 0xAD593ACA7B59F7CEA95CFCC3E7B264736F6C634300070600334F776E61626C PUSH6 0x3A206E657720 PUSH16 0x776E657220697320746865207A65726F KECCAK256 PUSH2 0x6464 PUSH19 0x657373416464726573733A20696E7375666669 PUSH4 0x69656E74 KECCAK256 PUSH3 0x616C61 PUSH15 0x636520666F722063616C6C8BE0079C MSTORE8 AND MSIZE EQ SGT DIFFICULTY 0xCD 0x1F 0xD0 LOG4 CALLCODE DUP5 NOT 0x49 PUSH32 0x9722A3DAAFE3B4186F6B6457E05361666545524332303A204552433230206F70 PUSH6 0x726174696F6E KECCAK256 PUSH5 0x6964206E6F PUSH21 0x20737563636565645361666545524332303A206170 PUSH17 0x726F76652066726F6D206E6F6E2D7A6572 PUSH16 0x20746F206E6F6E2D7A65726F20616C6C PUSH16 0x77616E63650000000000000000000000 "},"gasEstimates":{"creation":{"codeDepositCost":"2412400","executionCost":"infinite","totalCost":"infinite"},"external":{"WETH9()":"infinite","currentPosition()":"2114","factory()":"infinite","fee()":"infinite","owner()":"1159","positionManager()":"infinite","rangeWidthMultiplier()":"1070","renounceOwnership()":"24300","tickSpacing()":"infinite","token0()":"infinite","token0Decimals()":"infinite","token1()":"infinite","token1Decimals()":"infinite","transferOwnership(address)":"infinite","uniswapV3MintCallback(uint256,uint256,bytes)":"infinite","updatePredictionAndAdjust(uint256)":"infinite"},"internal":{"_adjustLiquidity(int24,int24)":"infinite","_calculatePredictionData(uint256)":"infinite","_calculateTicks(int24)":"infinite","_emitLiquidityMintEvent(uint256,int24,int24,uint128,uint256,uint256,bool)":"infinite","_emitLiquidityRemoveEvent(uint256,int24,int24,uint128,uint256,uint256,bool)":"infinite","_emitPredictionMetrics(uint256,uint256,int24,int24,int24,bool)":"infinite","_executeMint(struct INonfungiblePositionManager.MintParams memory,int24,int24)":"infinite","_executeRemoval(uint256,uint128,int24,int24)":"infinite","_getCurrentSqrtPriceAndTick()":"infinite","_mintLiquidity(int24,int24,uint256,uint256)":"infinite","_priceToTick(uint256)":"infinite","_removeLiquidity()":"infinite","_sqrtPriceX96ToPrice(uint160)":"infinite","_updatePositionIfNeeded(int24,int24)":"infinite","floorToTickSpacing(int24,int24)":"infinite"}},"methodIdentifiers":{"WETH9()":"4aa4a4fc","currentPosition()":"d534d636","factory()":"c45a0155","fee()":"ddca3f43","owner()":"8da5cb5b","positionManager()":"791b98bc","rangeWidthMultiplier()":"01d31e7c","renounceOwnership()":"715018a6","tickSpacing()":"d0c93a7c","token0()":"0dfe1681","token0Decimals()":"b31ac6e2","token1()":"d21220a7","token1Decimals()":"0b77884d","transferOwnership(address)":"f2fde38b","uniswapV3MintCallback(uint256,uint256,bytes)":"d3487997","updatePredictionAndAdjust(uint256)":"41675b05"}},"storageLayout":{"storage":[{"astId":7,"contract":"contracts/PredictiveLiquidityManager.sol:PredictiveLiquidityManager","label":"_owner","offset":0,"slot":"0","type":"t_address"},{"astId":1271,"contract":"contracts/PredictiveLiquidityManager.sol:PredictiveLiquidityManager","label":"_status","offset":0,"slot":"1","type":"t_uint256"},{"astId":4011,"contract":"contracts/PredictiveLiquidityManager.sol:PredictiveLiquidityManager","label":"currentPosition","offset":0,"slot":"2","type":"t_struct(Position)4009_storage"},{"astId":4014,"contract":"contracts/PredictiveLiquidityManager.sol:PredictiveLiquidityManager","label":"rangeWidthMultiplier","offset":0,"slot":"4","type":"t_uint24"}],"types":{"t_address":{"encoding":"inplace","label":"address","numberOfBytes":"20"},"t_bool":{"encoding":"inplace","label":"bool","numberOfBytes":"1"},"t_int24":{"encoding":"inplace","label":"int24","numberOfBytes":"3"},"t_struct(Position)4009_storage":{"encoding":"inplace","label":"struct PredictiveLiquidityManager.Position","members":[{"astId":4000,"contract":"contracts/PredictiveLiquidityManager.sol:PredictiveLiquidityManager","label":"tokenId","offset":0,"slot":"0","type":"t_uint256"},{"astId":4002,"contract":"contracts/PredictiveLiquidityManager.sol:PredictiveLiquidityManager","label":"liquidity","offset":0,"slot":"1","type":"t_uint128"},{"astId":4004,"contract":"contracts/PredictiveLiquidityManager.sol:PredictiveLiquidityManager","label":"tickLower","offset":16,"slot":"1","type":"t_int24"},{"astId":4006,"contract":"contracts/PredictiveLiquidityManager.sol:PredictiveLiquidityManager","label":"tickUpper","offset":19,"slot":"1","type":"t_int24"},{"astId":4008,"contract":"contracts/PredictiveLiquidityManager.sol:PredictiveLiquidityManager","label":"active","offset":22,"slot":"1","type":"t_bool"}],"numberOfBytes":"64"},"t_uint128":{"encoding":"inplace","label":"uint128","numberOfBytes":"16"},"t_uint24":{"encoding":"inplace","label":"uint24","numberOfBytes":"3"},"t_uint256":{"encoding":"inplace","label":"uint256","numberOfBytes":"32"}}},"userdoc":{"kind":"user","methods":{"uniswapV3MintCallback(uint256,uint256,bytes)":{"notice":"Called to `msg.sender` after minting liquidity to a position from IUniswapV3Pool#mint."}},"notice":"The main liquidity management contract that adjusts positions based on price predictions","version":1}}}}