{"contracts/BaselineMinimal.sol":{"BaselineMinimal":{"abi":[{"inputs":[{"internalType":"address","name":"_factory","type":"address"},{"internalType":"address","name":"_positionManager","type":"address"},{"internalType":"address","name":"_swapRouter","type":"address"},{"internalType":"address","name":"_token0","type":"address"},{"internalType":"address","name":"_token1","type":"address"},{"internalType":"uint24","name":"_fee","type":"uint24"}],"stateMutability":"nonpayable","type":"constructor"},{"anonymous":false,"inputs":[{"indexed":false,"internalType":"uint256","name":"timestamp","type":"uint256"},{"indexed":false,"internalType":"uint160","name":"sqrtPriceX96","type":"uint160"},{"indexed":false,"internalType":"int24","name":"currentTick","type":"int24"},{"indexed":false,"internalType":"int24","name":"targetTickLower","type":"int24"},{"indexed":false,"internalType":"int24","name":"targetTickUpper","type":"int24"},{"indexed":false,"internalType":"bool","name":"adjusted","type":"bool"}],"name":"BaselineAdjustmentMetrics","type":"event"},{"anonymous":false,"inputs":[{"indexed":true,"internalType":"address","name":"previousOwner","type":"address"},{"indexed":true,"internalType":"address","name":"newOwner","type":"address"}],"name":"OwnershipTransferred","type":"event"},{"anonymous":false,"inputs":[{"indexed":true,"internalType":"uint256","name":"tokenId","type":"uint256"},{"indexed":false,"internalType":"uint128","name":"liquidity","type":"uint128"},{"indexed":false,"internalType":"int24","name":"tickLower","type":"int24"},{"indexed":false,"internalType":"int24","name":"tickUpper","type":"int24"},{"indexed":false,"internalType":"uint256","name":"amount0Actual","type":"uint256"},{"indexed":false,"internalType":"uint256","name":"amount1Actual","type":"uint256"}],"name":"PositionMinted","type":"event"},{"anonymous":false,"inputs":[{"indexed":true,"internalType":"uint256","name":"tokenId","type":"uint256"},{"indexed":false,"internalType":"bool","name":"hasPosition","type":"bool"},{"indexed":false,"internalType":"int24","name":"lowerTick","type":"int24"},{"indexed":false,"internalType":"int24","name":"upperTick","type":"int24"},{"indexed":false,"internalType":"uint128","name":"liquidity","type":"uint128"}],"name":"PositionStateChanged","type":"event"},{"anonymous":false,"inputs":[{"indexed":false,"internalType":"uint256","name":"amountIn","type":"uint256"},{"indexed":false,"internalType":"uint256","name":"amountOut","type":"uint256"}],"name":"TokensSwapped","type":"event"},{"inputs":[],"name":"adjustLiquidityWithCurrentPrice","outputs":[],"stateMutability":"nonpayable","type":"function"},{"inputs":[],"name":"currentLiquidity","outputs":[{"internalType":"uint128","name":"","type":"uint128"}],"stateMutability":"view","type":"function"},{"inputs":[],"name":"currentTokenId","outputs":[{"internalType":"uint256","name":"","type":"uint256"}],"stateMutability":"view","type":"function"},{"inputs":[],"name":"factory","outputs":[{"internalType":"contract IUniswapV3Factory","name":"","type":"address"}],"stateMutability":"view","type":"function"},{"inputs":[],"name":"fee","outputs":[{"internalType":"uint24","name":"","type":"uint24"}],"stateMutability":"view","type":"function"},{"inputs":[],"name":"getCurrentPosition","outputs":[{"internalType":"uint256","name":"tokenId","type":"uint256"},{"internalType":"bool","name":"active","type":"bool"},{"internalType":"int24","name":"tickLower","type":"int24"},{"internalType":"int24","name":"tickUpper","type":"int24"},{"internalType":"uint128","name":"liquidity","type":"uint128"}],"stateMutability":"view","type":"function"},{"inputs":[],"name":"hasPosition","outputs":[{"internalType":"bool","name":"","type":"bool"}],"stateMutability":"view","type":"function"},{"inputs":[],"name":"lowerTick","outputs":[{"internalType":"int24","name":"","type":"int24"}],"stateMutability":"view","type":"function"},{"inputs":[],"name":"owner","outputs":[{"internalType":"address","name":"","type":"address"}],"stateMutability":"view","type":"function"},{"inputs":[],"name":"positionManager","outputs":[{"internalType":"contract INonfungiblePositionManager","name":"","type":"address"}],"stateMutability":"view","type":"function"},{"inputs":[],"name":"renounceOwnership","outputs":[],"stateMutability":"nonpayable","type":"function"},{"inputs":[],"name":"rescueETH","outputs":[],"stateMutability":"nonpayable","type":"function"},{"inputs":[{"internalType":"address","name":"token","type":"address"},{"internalType":"address","name":"to","type":"address"}],"name":"rescueTokens","outputs":[],"stateMutability":"nonpayable","type":"function"},{"inputs":[{"internalType":"uint256","name":"amount","type":"uint256"}],"name":"rescueWETH","outputs":[],"stateMutability":"nonpayable","type":"function"},{"inputs":[],"name":"swapRouter","outputs":[{"internalType":"contract ISwapRouter","name":"","type":"address"}],"stateMutability":"view","type":"function"},{"inputs":[],"name":"tickSpacing","outputs":[{"internalType":"int24","name":"","type":"int24"}],"stateMutability":"view","type":"function"},{"inputs":[],"name":"token0","outputs":[{"internalType":"address","name":"","type":"address"}],"stateMutability":"view","type":"function"},{"inputs":[],"name":"token1","outputs":[{"internalType":"address","name":"","type":"address"}],"stateMutability":"view","type":"function"},{"inputs":[{"internalType":"address","name":"newOwner","type":"address"}],"name":"transferOwnership","outputs":[],"stateMutability":"nonpayable","type":"function"},{"inputs":[],"name":"upperTick","outputs":[{"internalType":"int24","name":"","type":"int24"}],"stateMutability":"view","type":"function"},{"stateMutability":"payable","type":"receive"}],"devdoc":{"details":"Adds liquidity tracking via state variable and event. Avoids re-minting if ticks are unchanged. Includes sqrtPriceX96 in metrics event.","events":{"BaselineAdjustmentMetrics(uint256,uint160,int24,int24,int24,bool)":{"params":{"adjusted":"True if an on-chain action (remove/mint) was performed, false if skipped because ticks were unchanged.","currentTick":"The pool tick corresponding to sqrtPriceX96.","sqrtPriceX96":"The raw sqrtPriceX96 from the pool at the time of the check.","targetTickLower":"The calculated lower tick for the target position.","targetTickUpper":"The calculated upper tick for the target position.","timestamp":"The block timestamp of the adjustment check."}},"PositionMinted(uint256,uint128,int24,int24,uint256,uint256)":{"params":{"amount0Actual":"The actual amount of token0 used for minting.","amount1Actual":"The actual amount of token1 used for minting.","liquidity":"The liquidity amount created.","tickLower":"The lower tick of the new position.","tickUpper":"The upper tick of the new position.","tokenId":"The NFT token ID of the new position."}},"PositionStateChanged(uint256,bool,int24,int24,uint128)":{"params":{"hasPosition":"True if a position is now active, false if removed.","liquidity":"The liquidity amount of the active position (0 if removed).","lowerTick":"The lower tick of the active position (0 if removed).","tokenId":"The NFT token ID of the position.","upperTick":"The upper tick of the active position (0 if removed)."}},"TokensSwapped(uint256,uint256)":{"params":{"amountIn":"Amount of token swapped in.","amountOut":"Amount of token received from swap."}}},"kind":"dev","methods":{"adjustLiquidityWithCurrentPrice()":{"details":"Skips on-chain actions (remove/mint) if target ticks match current ticks."},"getCurrentPosition()":{"returns":{"active":"True if a position is currently managed, false otherwise.","liquidity":"The liquidity amount of the current position (0 if none).","tickLower":"The lower tick of the current position (0 if none).","tickUpper":"The upper tick of the current position (0 if none).","tokenId":"The NFT ID of the current position (0 if none)."}},"owner()":{"details":"Returns the address of the current owner."},"renounceOwnership()":{"details":"Leaves the contract without owner. It will not be possible to call `onlyOwner` functions anymore. Can only be called by the current owner. NOTE: Renouncing ownership will leave the contract without an owner, thereby removing any functionality that is only available to the owner."},"rescueTokens(address,address)":{"params":{"to":"The address to send the tokens to.","token":"The address of the ERC20 token to withdraw."}},"rescueWETH(uint256)":{"details":"Assumes token1 is WETH. Withdraws WETH, receives ETH, sends ETH to owner.","params":{"amount":"The amount of WETH (in wei) to withdraw as ETH."}},"transferOwnership(address)":{"details":"Transfers ownership of the contract to a new account (`newOwner`). Can only be called by the current owner."}},"title":"BaselineMinimal","version":1},"evm":{"bytecode":{"linkReferences":{},"object":"6101006040523480156200001257600080fd5b5060405162002c2238038062002c2283398101604081905262000035916200061e565b600062000041620005d9565b600080546001600160a01b0319166001600160a01b0383169081178255604051929350917f8be0079c531659141344cd1fd0a4f28419497f9722a3daafe3b4186f6b6457e0908290a3506001600160a01b038616620000bd5760405162461bcd60e51b8152600401620000b4906200072e565b60405180910390fd5b6001600160a01b038516620000e65760405162461bcd60e51b8152600401620000b490620008a3565b6001600160a01b0384166200010f5760405162461bcd60e51b8152600401620000b49062000844565b6001600160a01b038316620001385760405162461bcd60e51b8152600401620000b4906200087b565b6001600160a01b038216620001615760405162461bcd60e51b8152600401620000b490620008da565b816001600160a01b0316836001600160a01b03161415620001965760405162461bcd60e51b8152600401620000b490620007d6565b60008162ffffff1611620001be5760405162461bcd60e51b8152600401620000b490620007b1565b6001600160601b0319606087811b8216608052600180546001600160a01b038981166001600160a01b03199283161790925560028054898416921691909117905585821b831660a0529084901b90911660c0526001600160e81b031960e883901b1660e052604051630b4c774160e11b8152600091881690631698ee82906200025090879087908790600401620006ed565b60206040518083038186803b1580156200026957600080fd5b505afa1580156200027e573d6000803e3d6000fd5b505050506040513d601f19601f82011682018060405250810190620002a49190620005fa565b90506001600160a01b038116620002cf5760405162461bcd60e51b8152600401620000b49062000765565b806001600160a01b031663d0c93a7c6040518163ffffffff1660e01b815260040160206040518083038186803b1580156200030957600080fd5b505afa1580156200031e573d6000803e3d6000fd5b505050506040513d601f19601f82011682018060405250810190620003449190620006ca565b6002805462ffffff60a01b1916600160a01b62ffffff93830b939093168302178082556000929004810b900b13620003905760405162461bcd60e51b8152600401620000b4906200080d565b60015460405163095ea7b360e01b81526001600160a01b038681169263095ea7b392620003c892909116906000199060040162000715565b602060405180830381600087803b158015620003e357600080fd5b505af1158015620003f8573d6000803e3d6000fd5b505050506040513d601f19601f820116820180604052508101906200041e9190620006a8565b5060015460405163095ea7b360e01b81526001600160a01b038581169263095ea7b3926200045792909116906000199060040162000715565b602060405180830381600087803b1580156200047257600080fd5b505af115801562000487573d6000803e3d6000fd5b505050506040513d601f19601f82011682018060405250810190620004ad9190620006a8565b5060025460405163095ea7b360e01b81526001600160a01b038681169263095ea7b392620004e692909116906000199060040162000715565b602060405180830381600087803b1580156200050157600080fd5b505af115801562000516573d6000803e3d6000fd5b505050506040513d601f19601f820116820180604052508101906200053c9190620006a8565b5060025460405163095ea7b360e01b81526001600160a01b038581169263095ea7b3926200057592909116906000199060040162000715565b602060405180830381600087803b1580156200059057600080fd5b505af1158015620005a5573d6000803e3d6000fd5b505050506040513d601f19601f82011682018060405250810190620005cb9190620006a8565b505050505050505062000902565b3390565b80516001600160a01b0381168114620005f557600080fd5b919050565b6000602082840312156200060c578081fd5b6200061782620005dd565b9392505050565b60008060008060008060c0878903121562000637578182fd5b6200064287620005dd565b95506200065260208801620005dd565b94506200066260408801620005dd565b93506200067260608801620005dd565b92506200068260808801620005dd565b915060a087015162ffffff811681146200069a578182fd5b809150509295509295509295565b600060208284031215620006ba578081fd5b8151801515811462000617578182fd5b600060208284031215620006dc578081fd5b81518060020b811462000617578182fd5b6001600160a01b03938416815291909216602082015262ffffff909116604082015260600190565b6001600160a01b03929092168252602082015260400190565b60208082526017908201527f496e76616c696420666163746f72792061646472657373000000000000000000604082015260600190565b6020808252602c908201527f506f6f6c20646f6573206e6f7420657869737420666f7220737065636966696560408201526b6420746f6b656e732f66656560a01b606082015260800190565b6020808252600b908201526a496e76616c69642066656560a81b604082015260600190565b60208082526018908201527f546f6b656e73206d75737420626520646966666572656e740000000000000000604082015260600190565b6020808252601e908201527f496e76616c6964207469636b2073706163696e672066726f6d20706f6f6c0000604082015260600190565b60208082526013908201527f496e76616c6964207377617020726f7574657200000000000000000000000000604082015260600190565b6020808252600e908201526d0496e76616c696420746f6b656e360941b604082015260600190565b60208082526018908201527f496e76616c696420706f736974696f6e206d616e616765720000000000000000604082015260600190565b6020808252600e908201526d496e76616c696420746f6b656e3160901b604082015260600190565b60805160601c60a05160601c60c05160601c60e05160e81c6122986200098a6000398061048b528061061b5280610f2852806114a752508061015252806101de52806105f95280610e085280610f04528061138e528061147f5250806101ff52806105d7528061099a5280611303528061145a5250806105aa5280610d4d52506122986000f3fe6080604052600436106101225760003560e01c8063791b98bc116100a0578063c853c4bc11610064578063c853c4bc146103d9578063d0c93a7c146103f9578063d21220a71461040e578063ddca3f4314610423578063f2fde38b1461044557610231565b8063791b98bc146103705780638da5cb5b146103855780639b1344ac1461039a578063c31c9c07146103af578063c45a0155146103c457610231565b80635431c94e116100e75780635431c94e146102e257806362ca577214610302578063715018a614610317578063727dd2281461032c57806375a6a7a91461034e57610231565b80629a9b7b146102365780630dfe16811461026157806320800a0014610283578063418f35cc1461029a57806346caf2ae146102c057610231565b3661023157600034116101505760405162461bcd60e51b815260040161014790611e38565b60405180910390fd5b7f00000000000000000000000000000000000000000000000000000000000000006001600160a01b031663d0e30db0346040518263ffffffff1660e01b81526004016000604051808303818588803b1580156101ab57600080fd5b505af11580156101bf573d6000803e3d6000fd5b50505050506000600234816101d057fe5b0490508015610226576102247f00000000000000000000000000000000000000000000000000000000000000007f000000000000000000000000000000000000000000000000000000000000000083610465565b505b61022e610590565b50005b600080fd5b34801561024257600080fd5b5061024b610992565b604051610258919061208b565b60405180910390f35b34801561026d57600080fd5b50610276610998565b6040516102589190611c56565b34801561028f57600080fd5b506102986109bc565b005b3480156102a657600080fd5b506102af610aad565b604051610258959493929190612094565b3480156102cc57600080fd5b506102d5610ae4565b6040516102589190612033565b3480156102ee57600080fd5b506102986102fd366004611ac6565b610af3565b34801561030e57600080fd5b50610298610590565b34801561032357600080fd5b50610298610c41565b34801561033857600080fd5b50610341610ced565b6040516102589190611cc7565b34801561035a57600080fd5b50610363610cfd565b6040516102589190611c92565b34801561037c57600080fd5b50610276610d0d565b34801561039157600080fd5b50610276610d1c565b3480156103a657600080fd5b50610341610d2c565b3480156103bb57600080fd5b50610276610d3c565b3480156103d057600080fd5b50610276610d4b565b3480156103e557600080fd5b506102986103f4366004611b9e565b610d6f565b34801561040557600080fd5b50610341610ef2565b34801561041a57600080fd5b50610276610f02565b34801561042f57600080fd5b50610438610f26565b604051610258919061207b565b34801561045157600080fd5b50610298610460366004611a8e565b610f4a565b60408051610100810182526001600160a01b038086168252848116602083015262ffffff7f0000000000000000000000000000000000000000000000000000000000000000168284015230606083015242608083015260a08201849052600060c0830181905260e08301819052600254935163414bf38960e01b815290939091169063414bf389906104fb908490600401611f1c565b602060405180830381600087803b15801561051557600080fd5b505af1158015610529573d6000803e3d6000fd5b505050506040513d601f19601f8201168201806040525081019061054d9190611bb6565b91507fbdc89df9460547640e2147ba22a6ef8476d5390eecc620e9d76fbaa551bf4e8a83836040516105809291906120fe565b60405180910390a1509392505050565b604051630b4c774160e11b81526000906001600160a01b037f00000000000000000000000000000000000000000000000000000000000000001690631698ee8290610643907f0000000000000000000000000000000000000000000000000000000000000000907f0000000000000000000000000000000000000000000000000000000000000000907f000000000000000000000000000000000000000000000000000000000000000090600401611c6a565b60206040518083038186803b15801561065b57600080fd5b505afa15801561066f573d6000803e3d6000fd5b505050506040513d601f19601f820116820180604052508101906106939190611aaa565b9050600080826001600160a01b0316633850c7bd6040518163ffffffff1660e01b815260040160e06040518083038186803b1580156106d157600080fd5b505afa1580156106e5573d6000803e3d6000fd5b505050506040513d601f19601f820116820180604052508101906107099190611afe565b505060028054959750939550600094600160a01b9004840b600402840b9250610730915050565b059050600260149054906101000a900460020b60020b8160020b121561075f575060028054600160a01b9004900b5b60028054600091600160a01b909104810b9081810b90848603900b8161078157fe5b6002805492909105929092029250600091600160a01b909104810b9081810b90868601900b816107ad57fe5b050290508060020b8260020b126107cf575060028054600160a01b9004900b81015b620d89e719620d89e8600284900b8213156107e8578193505b8060020b8360020b13156107fa578092505b8260020b8460020b1261083d578060020b8360020b141561082b5760028054600160a01b9004900b8303935061083d565b60028054600160a01b9004900b840192505b8160020b8460020b1215801561085957508060020b8360020b13155b801561086a57508260020b8460020b125b6108865760405162461bcd60e51b815260040161014790611e08565b600454600160801b900460ff1680156108b05750600454600285810b600160881b909204810b900b145b80156108cd5750600454600284810b600160a01b909204810b900b145b15610921577f319a1901dfd46c5d39ccc516ff41939b5523c167a22d7c4fbeb5b6a4cc899ad64288888787600060405161090c969594939291906120c4565b60405180910390a15050505050505050610990565b600454600160801b900460ff161561093b5761093b61104c565b61094584846112c4565b7f319a1901dfd46c5d39ccc516ff41939b5523c167a22d7c4fbeb5b6a4cc899ad64288888787600160405161097f969594939291906120c4565b60405180910390a150505050505050505b565b60035481565b7f000000000000000000000000000000000000000000000000000000000000000081565b6109c4611758565b6001600160a01b03166109d5610d1c565b6001600160a01b031614610a1e576040805162461bcd60e51b81526020600482018190526024820152600080516020612219833981519152604482015290519081900360640190fd5b478015610aaa576000610a2f610d1c565b6001600160a01b031682604051610a4590610d29565b60006040518083038185875af1925050503d8060008114610a82576040519150601f19603f3d011682016040523d82523d6000602084013e610a87565b606091505b5050905080610aa85760405162461bcd60e51b815260040161014790611cd5565b505b50565b6003546004549091600160801b820460ff1691600160881b8104600290810b92600160a01b830490910b916001600160801b031690565b6004546001600160801b031681565b610afb611758565b6001600160a01b0316610b0c610d1c565b6001600160a01b031614610b55576040805162461bcd60e51b81526020600482018190526024820152600080516020612219833981519152604482015290519081900360640190fd5b6001600160a01b038216610b7b5760405162461bcd60e51b815260040161014790611daa565b6001600160a01b038116610ba15760405162461bcd60e51b815260040161014790611d73565b6040516370a0823160e01b81526000906001600160a01b038416906370a0823190610bd0903090600401611c56565b60206040518083038186803b158015610be857600080fd5b505afa158015610bfc573d6000803e3d6000fd5b505050506040513d601f19601f82011682018060405250810190610c209190611bb6565b90508015610c3c57610c3c6001600160a01b038416838361175c565b505050565b610c49611758565b6001600160a01b0316610c5a610d1c565b6001600160a01b031614610ca3576040805162461bcd60e51b81526020600482018190526024820152600080516020612219833981519152604482015290519081900360640190fd5b600080546040516001600160a01b03909116907f8be0079c531659141344cd1fd0a4f28419497f9722a3daafe3b4186f6b6457e0908390a3600080546001600160a01b0319169055565b600454600160a01b900460020b81565b600454600160801b900460ff1681565b6001546001600160a01b031681565b6000546001600160a01b03165b90565b600454600160881b900460020b81565b6002546001600160a01b031681565b7f000000000000000000000000000000000000000000000000000000000000000081565b610d77611758565b6001600160a01b0316610d88610d1c565b6001600160a01b031614610dd1576040805162461bcd60e51b81526020600482018190526024820152600080516020612219833981519152604482015290519081900360640190fd5b60008111610df15760405162461bcd60e51b815260040161014790611e5f565b604051632e1a7d4d60e01b81526001600160a01b037f00000000000000000000000000000000000000000000000000000000000000001690632e1a7d4d90610e3d90849060040161208b565b600060405180830381600087803b158015610e5757600080fd5b505af1158015610e6b573d6000803e3d6000fd5b505050506000610e79610d1c565b6001600160a01b031682604051610e8f90610d29565b60006040518083038185875af1925050503d8060008114610ecc576040519150601f19603f3d011682016040523d82523d6000602084013e610ed1565b606091505b5050905080610aa85760405162461bcd60e51b815260040161014790611d00565b60028054600160a01b9004900b81565b7f000000000000000000000000000000000000000000000000000000000000000081565b7f000000000000000000000000000000000000000000000000000000000000000081565b610f52611758565b6001600160a01b0316610f63610d1c565b6001600160a01b031614610fac576040805162461bcd60e51b81526020600482018190526024820152600080516020612219833981519152604482015290519081900360640190fd5b6001600160a01b038116610ff15760405162461bcd60e51b81526004018080602001828103825260268152602001806121cd6026913960400191505060405180910390fd5b600080546040516001600160a01b03808516939216917f8be0079c531659141344cd1fd0a4f28419497f9722a3daafe3b4186f6b6457e091a3600080546001600160a01b0319166001600160a01b0392909216919091179055565b600454600160801b900460ff166110755760405162461bcd60e51b815260040161014790611dd9565b60038054600480546000938490556001600160b81b0319811690915560405191926001600160801b03821692600160881b70ffffffffffffffffffffffffffffffffff19909316928304600290810b93600160a01b9004900b9185917f31f74f9e6b20560a12f5ae59e31b36e7cbbcdc6489ca8f40a878f939e2c7d2769161110291819081908190611c9d565b60405180910390a26001546040805160a0810182528681526001600160801b036020820152600081830181905260608201524260808201529051630624e65f60e11b81526001600160a01b0390921691630c49ccbe9161116491600401611ed9565b6040805180830381600087803b15801561117d57600080fd5b505af19250505080156111ad575060408051601f3d908101601f191682019092526111aa91810190611c16565b60015b6111b6576111b9565b50505b600154604080516080810182528681523060208201526001600160801b038183018190526060820152905163fc6f786560e01b81526001600160a01b039092169163fc6f78659161120c91600401611e96565b6040805180830381600087803b15801561122557600080fd5b505af1925050508015611255575060408051601f3d908101601f1916820190925261125291810190611c16565b60015b61125e57611261565b50505b600154604051630852cd8d60e31b81526001600160a01b03909116906342966c689061129190879060040161208b565b600060405180830381600087803b1580156112ab57600080fd5b505af19250505080156112bc575060015b505b50505050565b8060020b8260020b126112e95760405162461bcd60e51b815260040161014790611d47565b6040516370a0823160e01b81526000906001600160a01b037f000000000000000000000000000000000000000000000000000000000000000016906370a0823190611338903090600401611c56565b60206040518083038186803b15801561135057600080fd5b505afa158015611364573d6000803e3d6000fd5b505050506040513d601f19601f820116820180604052508101906113889190611bb6565b905060007f00000000000000000000000000000000000000000000000000000000000000006001600160a01b03166370a08231306040518263ffffffff1660e01b81526004016113d89190611c56565b60206040518083038186803b1580156113f057600080fd5b505afa158015611404573d6000803e3d6000fd5b505050506040513d601f19601f820116820180604052508101906114289190611bb6565b905081158015611436575080155b15611442575050610aa8565b60015460408051610160810182526001600160a01b037f0000000000000000000000000000000000000000000000000000000000000000811682527f0000000000000000000000000000000000000000000000000000000000000000811660208301527f000000000000000000000000000000000000000000000000000000000000000062ffffff1682840152600288810b606084015287900b608083015260a0820186905260c08201859052600060e0830181905261010083015230610120830152426101408301529151634418b22b60e11b815291909216916388316456916115309190600401611f85565b608060405180830381600087803b15801561154a57600080fd5b505af192505050801561157a575060408051601f3d908101601f1916820190925261157791810190611bce565b60015b6115c757611586612112565b8061159157506115ac565b506004805460006003556001600160b81b03191690556115c2565b6004805460006003556001600160b81b03191690555b6112be565b6001600160801b038316156116d157600384905560048054600160801b6fffffffffffffffffffffffffffffffff199091166001600160801b0386161760ff60801b19161762ffffff60881b1916600160881b60028b810b62ffffff908116929092029290921762ffffff60a01b1916600160a01b928b900b919091169190910217905560405184907f31f74f9e6b20560a12f5ae59e31b36e7cbbcdc6489ca8f40a878f939e2c7d27690611684906001908c908c908990611c9d565b60405180910390a2837f34f67c2e2ddfabdd2a86422e31e022f9feb4c50aa683e668a4d1f6857c0fd8c5848a8a86866040516116c4959493929190612047565b60405180910390a261174e565b831561173457600154604051630852cd8d60e31b81526001600160a01b03909116906342966c689061170790879060040161208b565b600060405180830381600087803b15801561172157600080fd5b505af1925050508015611732575060015b505b836003541461174e57600480546001600160b81b03191690555b5050505050505050565b3390565b604080516001600160a01b038416602482015260448082018490528251808303909101815260649091019091526020810180516001600160e01b031663a9059cbb60e01b179052610c3c90849060006117fe826040518060400160405280602081526020017f5361666545524332303a206c6f772d6c6576656c2063616c6c206661696c6564815250856001600160a01b031661185a9092919063ffffffff16565b805190915015610c3c5780806020019051602081101561181d57600080fd5b5051610c3c5760405162461bcd60e51b815260040180806020018281038252602a815260200180612239602a913960400191505060405180910390fd5b60606118698484600085611873565b90505b9392505050565b6060824710156118b45760405162461bcd60e51b81526004018080602001828103825260268152602001806121f36026913960400191505060405180910390fd5b6118bd856119ce565b61190e576040805162461bcd60e51b815260206004820152601d60248201527f416464726573733a2063616c6c20746f206e6f6e2d636f6e7472616374000000604482015290519081900360640190fd5b600080866001600160a01b031685876040518082805190602001908083835b6020831061194c5780518252601f19909201916020918201910161192d565b6001836020036101000a03801982511681845116808217855250505050505090500191505060006040518083038185875af1925050503d80600081146119ae576040519150601f19603f3d011682016040523d82523d6000602084013e6119b3565b606091505b50915091506119c38282866119d8565b979650505050505050565b803b15155b919050565b606083156119e757508161186c565b8251156119f75782518084602001fd5b8160405162461bcd60e51b81526004018080602001828103825283818151815260200191508051906020019080838360005b83811015611a41578181015183820152602001611a29565b50505050905090810190601f168015611a6e5780820380516001836020036101000a031916815260200191505b509250505060405180910390fd5b805161ffff811681146119d357600080fd5b600060208284031215611a9f578081fd5b813561186c816121b7565b600060208284031215611abb578081fd5b815161186c816121b7565b60008060408385031215611ad8578081fd5b8235611ae3816121b7565b91506020830135611af3816121b7565b809150509250929050565b600080600080600080600060e0888a031215611b18578283fd5b8751611b23816121b7565b8097505060208801518060020b8114611b3a578384fd5b9550611b4860408901611a7c565b9450611b5660608901611a7c565b9350611b6460808901611a7c565b925060a088015160ff81168114611b79578283fd5b60c08901519092508015158114611b8e578182fd5b8091505092959891949750929550565b600060208284031215611baf578081fd5b5035919050565b600060208284031215611bc7578081fd5b5051919050565b60008060008060808587031215611be3578384fd5b8451935060208501516001600160801b0381168114611c00578384fd5b6040860151606090960151949790965092505050565b60008060408385031215611c28578182fd5b505080516020909101519092909150565b6001600160a01b03169052565b60020b9052565b62ffffff169052565b6001600160a01b0391909116815260200190565b6001600160a01b03938416815291909216602082015262ffffff909116604082015260600190565b901515815260200190565b9315158452600292830b6020850152910b60408301526001600160801b0316606082015260800190565b60029190910b815260200190565b602080825260119082015270115512081c995cd8dd594819985a5b1959607a1b604082015260600190565b60208082526027908201527f5745544820726573637565206661696c65643a20455448207472616e736665726040820152660819985a5b195960ca1b606082015260800190565b602080825260129082015271496e76616c6964207469636b2072616e676560701b604082015260600190565b60208082526019908201527f496e76616c696420726563697069656e74206164647265737300000000000000604082015260600190565b602080825260159082015274496e76616c696420746f6b656e206164647265737360581b604082015260600190565b6020808252601590820152744e6f20706f736974696f6e20746f2072656d6f766560581b604082015260600190565b6020808252601690820152752a34b1b59031b0b631bab630ba34b7b71032b93937b960511b604082015260600190565b6020808252600d908201526c09aeae6e840e6cadcc8408aa89609b1b604082015260600190565b60208082526017908201527f416d6f756e74206d75737420626520706f736974697665000000000000000000604082015260600190565b815181526020808301516001600160a01b0316908201526040808301516001600160801b0390811691830191909152606092830151169181019190915260800190565b600060a082019050825182526001600160801b03602084015116602083015260408301516040830152606083015160608301526080830151608083015292915050565b81516001600160a01b03908116825260208084015182169083015260408084015162ffffff16908301526060808401518216908301526080808401519083015260a0838101519083015260c0808401519083015260e09283015116918101919091526101000190565b600061016082019050611f99828451611c39565b6020830151611fab6020840182611c39565b506040830151611fbe6040840182611c4d565b506060830151611fd16060840182611c46565b506080830151611fe46080840182611c46565b5060a083015160a083015260c083015160c083015260e083015160e08301526101008084015181840152506101208084015161202282850182611c39565b505061014092830151919092015290565b6001600160801b0391909116815260200190565b6001600160801b03959095168552600293840b60208601529190920b60408401526060830191909152608082015260a00190565b62ffffff91909116815260200190565b90815260200190565b9485529215156020850152600291820b6040850152900b60608301526001600160801b0316608082015260a00190565b9586526001600160a01b03949094166020860152600292830b604086015290820b6060850152900b6080830152151560a082015260c00190565b918252602082015260400190565b60e01c90565b600060443d101561212257610d29565b600481823e6308c379a0612136825161210c565b1461214057610d29565b6040513d600319016004823e80513d67ffffffffffffffff81602484011181841117156121705750505050610d29565b8284019250825191508082111561218a5750505050610d29565b503d830160208284010111156121a257505050610d29565b601f01601f1916810160200160405291505090565b6001600160a01b0381168114610aaa57600080fdfe4f776e61626c653a206e6577206f776e657220697320746865207a65726f2061646472657373416464726573733a20696e73756666696369656e742062616c616e636520666f722063616c6c4f776e61626c653a2063616c6c6572206973206e6f7420746865206f776e65725361666545524332303a204552433230206f7065726174696f6e20646964206e6f742073756363656564a2646970667358221220f96b0d17d81c237252645c2a3b59565cda342244fdf29d11b9ec3d8f409ff42564736f6c63430007060033","opcodes":"PUSH2 0x100 PUSH1 0x40 MSTORE CALLVALUE DUP1 ISZERO PUSH3 0x12 JUMPI PUSH1 0x0 DUP1 REVERT JUMPDEST POP PUSH1 0x40 MLOAD PUSH3 0x2C22 CODESIZE SUB DUP1 PUSH3 0x2C22 DUP4 CODECOPY DUP2 ADD PUSH1 0x40 DUP2 SWAP1 MSTORE PUSH3 0x35 SWAP2 PUSH3 0x61E JUMP JUMPDEST PUSH1 0x0 PUSH3 0x41 PUSH3 0x5D9 JUMP JUMPDEST PUSH1 0x0 DUP1 SLOAD PUSH1 0x1 PUSH1 0x1 PUSH1 0xA0 SHL SUB NOT AND PUSH1 0x1 PUSH1 0x1 PUSH1 0xA0 SHL SUB DUP4 AND SWAP1 DUP2 OR DUP3 SSTORE PUSH1 0x40 MLOAD SWAP3 SWAP4 POP SWAP2 PUSH32 0x8BE0079C531659141344CD1FD0A4F28419497F9722A3DAAFE3B4186F6B6457E0 SWAP1 DUP3 SWAP1 LOG3 POP PUSH1 0x1 PUSH1 0x1 PUSH1 0xA0 SHL SUB DUP7 AND PUSH3 0xBD JUMPI PUSH1 0x40 MLOAD PUSH3 0x461BCD PUSH1 0xE5 SHL DUP2 MSTORE PUSH1 0x4 ADD PUSH3 0xB4 SWAP1 PUSH3 0x72E JUMP JUMPDEST PUSH1 0x40 MLOAD DUP1 SWAP2 SUB SWAP1 REVERT JUMPDEST PUSH1 0x1 PUSH1 0x1 PUSH1 0xA0 SHL SUB DUP6 AND PUSH3 0xE6 JUMPI PUSH1 0x40 MLOAD PUSH3 0x461BCD PUSH1 0xE5 SHL DUP2 MSTORE PUSH1 0x4 ADD PUSH3 0xB4 SWAP1 PUSH3 0x8A3 JUMP JUMPDEST PUSH1 0x1 PUSH1 0x1 PUSH1 0xA0 SHL SUB DUP5 AND PUSH3 0x10F JUMPI PUSH1 0x40 MLOAD PUSH3 0x461BCD PUSH1 0xE5 SHL DUP2 MSTORE PUSH1 0x4 ADD PUSH3 0xB4 SWAP1 PUSH3 0x844 JUMP JUMPDEST PUSH1 0x1 PUSH1 0x1 PUSH1 0xA0 SHL SUB DUP4 AND PUSH3 0x138 JUMPI PUSH1 0x40 MLOAD PUSH3 0x461BCD PUSH1 0xE5 SHL DUP2 MSTORE PUSH1 0x4 ADD PUSH3 0xB4 SWAP1 PUSH3 0x87B JUMP JUMPDEST PUSH1 0x1 PUSH1 0x1 PUSH1 0xA0 SHL SUB DUP3 AND PUSH3 0x161 JUMPI PUSH1 0x40 MLOAD PUSH3 0x461BCD PUSH1 0xE5 SHL DUP2 MSTORE PUSH1 0x4 ADD PUSH3 0xB4 SWAP1 PUSH3 0x8DA JUMP JUMPDEST DUP2 PUSH1 0x1 PUSH1 0x1 PUSH1 0xA0 SHL SUB AND DUP4 PUSH1 0x1 PUSH1 0x1 PUSH1 0xA0 SHL SUB AND EQ ISZERO PUSH3 0x196 JUMPI PUSH1 0x40 MLOAD PUSH3 0x461BCD PUSH1 0xE5 SHL DUP2 MSTORE PUSH1 0x4 ADD PUSH3 0xB4 SWAP1 PUSH3 0x7D6 JUMP JUMPDEST PUSH1 0x0 DUP2 PUSH3 0xFFFFFF AND GT PUSH3 0x1BE JUMPI PUSH1 0x40 MLOAD PUSH3 0x461BCD PUSH1 0xE5 SHL DUP2 MSTORE PUSH1 0x4 ADD PUSH3 0xB4 SWAP1 PUSH3 0x7B1 JUMP JUMPDEST PUSH1 0x1 PUSH1 0x1 PUSH1 0x60 SHL SUB NOT PUSH1 0x60 DUP8 DUP2 SHL DUP3 AND PUSH1 0x80 MSTORE PUSH1 0x1 DUP1 SLOAD PUSH1 0x1 PUSH1 0x1 PUSH1 0xA0 SHL SUB DUP10 DUP2 AND PUSH1 0x1 PUSH1 0x1 PUSH1 0xA0 SHL SUB NOT SWAP3 DUP4 AND OR SWAP1 SWAP3 SSTORE PUSH1 0x2 DUP1 SLOAD DUP10 DUP5 AND SWAP3 AND SWAP2 SWAP1 SWAP2 OR SWAP1 SSTORE DUP6 DUP3 SHL DUP4 AND PUSH1 0xA0 MSTORE SWAP1 DUP5 SWAP1 SHL SWAP1 SWAP2 AND PUSH1 0xC0 MSTORE PUSH1 0x1 PUSH1 0x1 PUSH1 0xE8 SHL SUB NOT PUSH1 0xE8 DUP4 SWAP1 SHL AND PUSH1 0xE0 MSTORE PUSH1 0x40 MLOAD PUSH4 0xB4C7741 PUSH1 0xE1 SHL DUP2 MSTORE PUSH1 0x0 SWAP2 DUP9 AND SWAP1 PUSH4 0x1698EE82 SWAP1 PUSH3 0x250 SWAP1 DUP8 SWAP1 DUP8 SWAP1 DUP8 SWAP1 PUSH1 0x4 ADD PUSH3 0x6ED JUMP JUMPDEST PUSH1 0x20 PUSH1 0x40 MLOAD DUP1 DUP4 SUB DUP2 DUP7 DUP1 EXTCODESIZE ISZERO DUP1 ISZERO PUSH3 0x269 JUMPI PUSH1 0x0 DUP1 REVERT JUMPDEST POP GAS STATICCALL ISZERO DUP1 ISZERO PUSH3 0x27E JUMPI RETURNDATASIZE PUSH1 0x0 DUP1 RETURNDATACOPY RETURNDATASIZE PUSH1 0x0 REVERT JUMPDEST POP POP POP POP PUSH1 0x40 MLOAD RETURNDATASIZE PUSH1 0x1F NOT PUSH1 0x1F DUP3 ADD AND DUP3 ADD DUP1 PUSH1 0x40 MSTORE POP DUP2 ADD SWAP1 PUSH3 0x2A4 SWAP2 SWAP1 PUSH3 0x5FA JUMP JUMPDEST SWAP1 POP PUSH1 0x1 PUSH1 0x1 PUSH1 0xA0 SHL SUB DUP2 AND PUSH3 0x2CF JUMPI PUSH1 0x40 MLOAD PUSH3 0x461BCD PUSH1 0xE5 SHL DUP2 MSTORE PUSH1 0x4 ADD PUSH3 0xB4 SWAP1 PUSH3 0x765 JUMP JUMPDEST DUP1 PUSH1 0x1 PUSH1 0x1 PUSH1 0xA0 SHL SUB AND PUSH4 0xD0C93A7C PUSH1 0x40 MLOAD DUP2 PUSH4 0xFFFFFFFF AND PUSH1 0xE0 SHL DUP2 MSTORE PUSH1 0x4 ADD PUSH1 0x20 PUSH1 0x40 MLOAD DUP1 DUP4 SUB DUP2 DUP7 DUP1 EXTCODESIZE ISZERO DUP1 ISZERO PUSH3 0x309 JUMPI PUSH1 0x0 DUP1 REVERT JUMPDEST POP GAS STATICCALL ISZERO DUP1 ISZERO PUSH3 0x31E JUMPI RETURNDATASIZE PUSH1 0x0 DUP1 RETURNDATACOPY RETURNDATASIZE PUSH1 0x0 REVERT JUMPDEST POP POP POP POP PUSH1 0x40 MLOAD RETURNDATASIZE PUSH1 0x1F NOT PUSH1 0x1F DUP3 ADD AND DUP3 ADD DUP1 PUSH1 0x40 MSTORE POP DUP2 ADD SWAP1 PUSH3 0x344 SWAP2 SWAP1 PUSH3 0x6CA JUMP JUMPDEST PUSH1 0x2 DUP1 SLOAD PUSH3 0xFFFFFF PUSH1 0xA0 SHL NOT AND PUSH1 0x1 PUSH1 0xA0 SHL PUSH3 0xFFFFFF SWAP4 DUP4 SIGNEXTEND SWAP4 SWAP1 SWAP4 AND DUP4 MUL OR DUP1 DUP3 SSTORE PUSH1 0x0 SWAP3 SWAP1 DIV DUP2 SIGNEXTEND SWAP1 SIGNEXTEND SGT PUSH3 0x390 JUMPI PUSH1 0x40 MLOAD PUSH3 0x461BCD PUSH1 0xE5 SHL DUP2 MSTORE PUSH1 0x4 ADD PUSH3 0xB4 SWAP1 PUSH3 0x80D JUMP JUMPDEST PUSH1 0x1 SLOAD PUSH1 0x40 MLOAD PUSH4 0x95EA7B3 PUSH1 0xE0 SHL DUP2 MSTORE PUSH1 0x1 PUSH1 0x1 PUSH1 0xA0 SHL SUB DUP7 DUP2 AND SWAP3 PUSH4 0x95EA7B3 SWAP3 PUSH3 0x3C8 SWAP3 SWAP1 SWAP2 AND SWAP1 PUSH1 0x0 NOT SWAP1 PUSH1 0x4 ADD PUSH3 0x715 JUMP JUMPDEST PUSH1 0x20 PUSH1 0x40 MLOAD DUP1 DUP4 SUB DUP2 PUSH1 0x0 DUP8 DUP1 EXTCODESIZE ISZERO DUP1 ISZERO PUSH3 0x3E3 JUMPI PUSH1 0x0 DUP1 REVERT JUMPDEST POP GAS CALL ISZERO DUP1 ISZERO PUSH3 0x3F8 JUMPI RETURNDATASIZE PUSH1 0x0 DUP1 RETURNDATACOPY RETURNDATASIZE PUSH1 0x0 REVERT JUMPDEST POP POP POP POP PUSH1 0x40 MLOAD RETURNDATASIZE PUSH1 0x1F NOT PUSH1 0x1F DUP3 ADD AND DUP3 ADD DUP1 PUSH1 0x40 MSTORE POP DUP2 ADD SWAP1 PUSH3 0x41E SWAP2 SWAP1 PUSH3 0x6A8 JUMP JUMPDEST POP PUSH1 0x1 SLOAD PUSH1 0x40 MLOAD PUSH4 0x95EA7B3 PUSH1 0xE0 SHL DUP2 MSTORE PUSH1 0x1 PUSH1 0x1 PUSH1 0xA0 SHL SUB DUP6 DUP2 AND SWAP3 PUSH4 0x95EA7B3 SWAP3 PUSH3 0x457 SWAP3 SWAP1 SWAP2 AND SWAP1 PUSH1 0x0 NOT SWAP1 PUSH1 0x4 ADD PUSH3 0x715 JUMP JUMPDEST PUSH1 0x20 PUSH1 0x40 MLOAD DUP1 DUP4 SUB DUP2 PUSH1 0x0 DUP8 DUP1 EXTCODESIZE ISZERO DUP1 ISZERO PUSH3 0x472 JUMPI PUSH1 0x0 DUP1 REVERT JUMPDEST POP GAS CALL ISZERO DUP1 ISZERO PUSH3 0x487 JUMPI RETURNDATASIZE PUSH1 0x0 DUP1 RETURNDATACOPY RETURNDATASIZE PUSH1 0x0 REVERT JUMPDEST POP POP POP POP PUSH1 0x40 MLOAD RETURNDATASIZE PUSH1 0x1F NOT PUSH1 0x1F DUP3 ADD AND DUP3 ADD DUP1 PUSH1 0x40 MSTORE POP DUP2 ADD SWAP1 PUSH3 0x4AD SWAP2 SWAP1 PUSH3 0x6A8 JUMP JUMPDEST POP PUSH1 0x2 SLOAD PUSH1 0x40 MLOAD PUSH4 0x95EA7B3 PUSH1 0xE0 SHL DUP2 MSTORE PUSH1 0x1 PUSH1 0x1 PUSH1 0xA0 SHL SUB DUP7 DUP2 AND SWAP3 PUSH4 0x95EA7B3 SWAP3 PUSH3 0x4E6 SWAP3 SWAP1 SWAP2 AND SWAP1 PUSH1 0x0 NOT SWAP1 PUSH1 0x4 ADD PUSH3 0x715 JUMP JUMPDEST PUSH1 0x20 PUSH1 0x40 MLOAD DUP1 DUP4 SUB DUP2 PUSH1 0x0 DUP8 DUP1 EXTCODESIZE ISZERO DUP1 ISZERO PUSH3 0x501 JUMPI PUSH1 0x0 DUP1 REVERT JUMPDEST POP GAS CALL ISZERO DUP1 ISZERO PUSH3 0x516 JUMPI RETURNDATASIZE PUSH1 0x0 DUP1 RETURNDATACOPY RETURNDATASIZE PUSH1 0x0 REVERT JUMPDEST POP POP POP POP PUSH1 0x40 MLOAD RETURNDATASIZE PUSH1 0x1F NOT PUSH1 0x1F DUP3 ADD AND DUP3 ADD DUP1 PUSH1 0x40 MSTORE POP DUP2 ADD SWAP1 PUSH3 0x53C SWAP2 SWAP1 PUSH3 0x6A8 JUMP JUMPDEST POP PUSH1 0x2 SLOAD PUSH1 0x40 MLOAD PUSH4 0x95EA7B3 PUSH1 0xE0 SHL DUP2 MSTORE PUSH1 0x1 PUSH1 0x1 PUSH1 0xA0 SHL SUB DUP6 DUP2 AND SWAP3 PUSH4 0x95EA7B3 SWAP3 PUSH3 0x575 SWAP3 SWAP1 SWAP2 AND SWAP1 PUSH1 0x0 NOT SWAP1 PUSH1 0x4 ADD PUSH3 0x715 JUMP JUMPDEST PUSH1 0x20 PUSH1 0x40 MLOAD DUP1 DUP4 SUB DUP2 PUSH1 0x0 DUP8 DUP1 EXTCODESIZE ISZERO DUP1 ISZERO PUSH3 0x590 JUMPI PUSH1 0x0 DUP1 REVERT JUMPDEST POP GAS CALL ISZERO DUP1 ISZERO PUSH3 0x5A5 JUMPI RETURNDATASIZE PUSH1 0x0 DUP1 RETURNDATACOPY RETURNDATASIZE PUSH1 0x0 REVERT JUMPDEST POP POP POP POP PUSH1 0x40 MLOAD RETURNDATASIZE PUSH1 0x1F NOT PUSH1 0x1F DUP3 ADD AND DUP3 ADD DUP1 PUSH1 0x40 MSTORE POP DUP2 ADD SWAP1 PUSH3 0x5CB SWAP2 SWAP1 PUSH3 0x6A8 JUMP JUMPDEST POP POP POP POP POP POP POP POP PUSH3 0x902 JUMP JUMPDEST CALLER SWAP1 JUMP JUMPDEST DUP1 MLOAD PUSH1 0x1 PUSH1 0x1 PUSH1 0xA0 SHL SUB DUP2 AND DUP2 EQ PUSH3 0x5F5 JUMPI PUSH1 0x0 DUP1 REVERT JUMPDEST SWAP2 SWAP1 POP JUMP JUMPDEST PUSH1 0x0 PUSH1 0x20 DUP3 DUP5 SUB SLT ISZERO PUSH3 0x60C JUMPI DUP1 DUP2 REVERT JUMPDEST PUSH3 0x617 DUP3 PUSH3 0x5DD JUMP JUMPDEST SWAP4 SWAP3 POP POP POP JUMP JUMPDEST PUSH1 0x0 DUP1 PUSH1 0x0 DUP1 PUSH1 0x0 DUP1 PUSH1 0xC0 DUP8 DUP10 SUB SLT ISZERO PUSH3 0x637 JUMPI DUP2 DUP3 REVERT JUMPDEST PUSH3 0x642 DUP8 PUSH3 0x5DD JUMP JUMPDEST SWAP6 POP PUSH3 0x652 PUSH1 0x20 DUP9 ADD PUSH3 0x5DD JUMP JUMPDEST SWAP5 POP PUSH3 0x662 PUSH1 0x40 DUP9 ADD PUSH3 0x5DD JUMP JUMPDEST SWAP4 POP PUSH3 0x672 PUSH1 0x60 DUP9 ADD PUSH3 0x5DD JUMP JUMPDEST SWAP3 POP PUSH3 0x682 PUSH1 0x80 DUP9 ADD PUSH3 0x5DD JUMP JUMPDEST SWAP2 POP PUSH1 0xA0 DUP8 ADD MLOAD PUSH3 0xFFFFFF DUP2 AND DUP2 EQ PUSH3 0x69A JUMPI DUP2 DUP3 REVERT JUMPDEST DUP1 SWAP2 POP POP SWAP3 SWAP6 POP SWAP3 SWAP6 POP SWAP3 SWAP6 JUMP JUMPDEST PUSH1 0x0 PUSH1 0x20 DUP3 DUP5 SUB SLT ISZERO PUSH3 0x6BA JUMPI DUP1 DUP2 REVERT JUMPDEST DUP2 MLOAD DUP1 ISZERO ISZERO DUP2 EQ PUSH3 0x617 JUMPI DUP2 DUP3 REVERT JUMPDEST PUSH1 0x0 PUSH1 0x20 DUP3 DUP5 SUB SLT ISZERO PUSH3 0x6DC JUMPI DUP1 DUP2 REVERT JUMPDEST DUP2 MLOAD DUP1 PUSH1 0x2 SIGNEXTEND DUP2 EQ PUSH3 0x617 JUMPI DUP2 DUP3 REVERT JUMPDEST PUSH1 0x1 PUSH1 0x1 PUSH1 0xA0 SHL SUB SWAP4 DUP5 AND DUP2 MSTORE SWAP2 SWAP1 SWAP3 AND PUSH1 0x20 DUP3 ADD MSTORE PUSH3 0xFFFFFF SWAP1 SWAP2 AND PUSH1 0x40 DUP3 ADD MSTORE PUSH1 0x60 ADD SWAP1 JUMP JUMPDEST PUSH1 0x1 PUSH1 0x1 PUSH1 0xA0 SHL SUB SWAP3 SWAP1 SWAP3 AND DUP3 MSTORE PUSH1 0x20 DUP3 ADD MSTORE PUSH1 0x40 ADD SWAP1 JUMP JUMPDEST PUSH1 0x20 DUP1 DUP3 MSTORE PUSH1 0x17 SWAP1 DUP3 ADD MSTORE PUSH32 0x496E76616C696420666163746F72792061646472657373000000000000000000 PUSH1 0x40 DUP3 ADD MSTORE PUSH1 0x60 ADD SWAP1 JUMP JUMPDEST PUSH1 0x20 DUP1 DUP3 MSTORE PUSH1 0x2C SWAP1 DUP3 ADD MSTORE PUSH32 0x506F6F6C20646F6573206E6F7420657869737420666F72207370656369666965 PUSH1 0x40 DUP3 ADD MSTORE PUSH12 0x6420746F6B656E732F666565 PUSH1 0xA0 SHL PUSH1 0x60 DUP3 ADD MSTORE PUSH1 0x80 ADD SWAP1 JUMP JUMPDEST PUSH1 0x20 DUP1 DUP3 MSTORE PUSH1 0xB SWAP1 DUP3 ADD MSTORE PUSH11 0x496E76616C696420666565 PUSH1 0xA8 SHL PUSH1 0x40 DUP3 ADD MSTORE PUSH1 0x60 ADD SWAP1 JUMP JUMPDEST PUSH1 0x20 DUP1 DUP3 MSTORE PUSH1 0x18 SWAP1 DUP3 ADD MSTORE PUSH32 0x546F6B656E73206D75737420626520646966666572656E740000000000000000 PUSH1 0x40 DUP3 ADD MSTORE PUSH1 0x60 ADD SWAP1 JUMP JUMPDEST PUSH1 0x20 DUP1 DUP3 MSTORE PUSH1 0x1E SWAP1 DUP3 ADD MSTORE PUSH32 0x496E76616C6964207469636B2073706163696E672066726F6D20706F6F6C0000 PUSH1 0x40 DUP3 ADD MSTORE PUSH1 0x60 ADD SWAP1 JUMP JUMPDEST PUSH1 0x20 DUP1 DUP3 MSTORE PUSH1 0x13 SWAP1 DUP3 ADD MSTORE PUSH32 0x496E76616C6964207377617020726F7574657200000000000000000000000000 PUSH1 0x40 DUP3 ADD MSTORE PUSH1 0x60 ADD SWAP1 JUMP JUMPDEST PUSH1 0x20 DUP1 DUP3 MSTORE PUSH1 0xE SWAP1 DUP3 ADD MSTORE PUSH14 0x496E76616C696420746F6B656E3 PUSH1 0x94 SHL PUSH1 0x40 DUP3 ADD MSTORE PUSH1 0x60 ADD SWAP1 JUMP JUMPDEST PUSH1 0x20 DUP1 DUP3 MSTORE PUSH1 0x18 SWAP1 DUP3 ADD MSTORE PUSH32 0x496E76616C696420706F736974696F6E206D616E616765720000000000000000 PUSH1 0x40 DUP3 ADD MSTORE PUSH1 0x60 ADD SWAP1 JUMP JUMPDEST PUSH1 0x20 DUP1 DUP3 MSTORE PUSH1 0xE SWAP1 DUP3 ADD MSTORE PUSH14 0x496E76616C696420746F6B656E31 PUSH1 0x90 SHL PUSH1 0x40 DUP3 ADD MSTORE PUSH1 0x60 ADD SWAP1 JUMP JUMPDEST PUSH1 0x80 MLOAD PUSH1 0x60 SHR PUSH1 0xA0 MLOAD PUSH1 0x60 SHR PUSH1 0xC0 MLOAD PUSH1 0x60 SHR PUSH1 0xE0 MLOAD PUSH1 0xE8 SHR PUSH2 0x2298 PUSH3 0x98A PUSH1 0x0 CODECOPY DUP1 PUSH2 0x48B MSTORE DUP1 PUSH2 0x61B MSTORE DUP1 PUSH2 0xF28 MSTORE DUP1 PUSH2 0x14A7 MSTORE POP DUP1 PUSH2 0x152 MSTORE DUP1 PUSH2 0x1DE MSTORE DUP1 PUSH2 0x5F9 MSTORE DUP1 PUSH2 0xE08 MSTORE DUP1 PUSH2 0xF04 MSTORE DUP1 PUSH2 0x138E MSTORE DUP1 PUSH2 0x147F MSTORE POP DUP1 PUSH2 0x1FF MSTORE DUP1 PUSH2 0x5D7 MSTORE DUP1 PUSH2 0x99A MSTORE DUP1 PUSH2 0x1303 MSTORE DUP1 PUSH2 0x145A MSTORE POP DUP1 PUSH2 0x5AA MSTORE DUP1 PUSH2 0xD4D MSTORE POP PUSH2 0x2298 PUSH1 0x0 RETURN INVALID PUSH1 0x80 PUSH1 0x40 MSTORE PUSH1 0x4 CALLDATASIZE LT PUSH2 0x122 JUMPI PUSH1 0x0 CALLDATALOAD PUSH1 0xE0 SHR DUP1 PUSH4 0x791B98BC GT PUSH2 0xA0 JUMPI DUP1 PUSH4 0xC853C4BC GT PUSH2 0x64 JUMPI DUP1 PUSH4 0xC853C4BC EQ PUSH2 0x3D9 JUMPI DUP1 PUSH4 0xD0C93A7C EQ PUSH2 0x3F9 JUMPI DUP1 PUSH4 0xD21220A7 EQ PUSH2 0x40E JUMPI DUP1 PUSH4 0xDDCA3F43 EQ PUSH2 0x423 JUMPI DUP1 PUSH4 0xF2FDE38B EQ PUSH2 0x445 JUMPI PUSH2 0x231 JUMP JUMPDEST DUP1 PUSH4 0x791B98BC EQ PUSH2 0x370 JUMPI DUP1 PUSH4 0x8DA5CB5B EQ PUSH2 0x385 JUMPI DUP1 PUSH4 0x9B1344AC EQ PUSH2 0x39A JUMPI DUP1 PUSH4 0xC31C9C07 EQ PUSH2 0x3AF JUMPI DUP1 PUSH4 0xC45A0155 EQ PUSH2 0x3C4 JUMPI PUSH2 0x231 JUMP JUMPDEST DUP1 PUSH4 0x5431C94E GT PUSH2 0xE7 JUMPI DUP1 PUSH4 0x5431C94E EQ PUSH2 0x2E2 JUMPI DUP1 PUSH4 0x62CA5772 EQ PUSH2 0x302 JUMPI DUP1 PUSH4 0x715018A6 EQ PUSH2 0x317 JUMPI DUP1 PUSH4 0x727DD228 EQ PUSH2 0x32C JUMPI DUP1 PUSH4 0x75A6A7A9 EQ PUSH2 0x34E JUMPI PUSH2 0x231 JUMP JUMPDEST DUP1 PUSH3 0x9A9B7B EQ PUSH2 0x236 JUMPI DUP1 PUSH4 0xDFE1681 EQ PUSH2 0x261 JUMPI DUP1 PUSH4 0x20800A00 EQ PUSH2 0x283 JUMPI DUP1 PUSH4 0x418F35CC EQ PUSH2 0x29A JUMPI DUP1 PUSH4 0x46CAF2AE EQ PUSH2 0x2C0 JUMPI PUSH2 0x231 JUMP JUMPDEST CALLDATASIZE PUSH2 0x231 JUMPI PUSH1 0x0 CALLVALUE GT PUSH2 0x150 JUMPI PUSH1 0x40 MLOAD PUSH3 0x461BCD PUSH1 0xE5 SHL DUP2 MSTORE PUSH1 0x4 ADD PUSH2 0x147 SWAP1 PUSH2 0x1E38 JUMP JUMPDEST PUSH1 0x40 MLOAD DUP1 SWAP2 SUB SWAP1 REVERT JUMPDEST PUSH32 0x0 PUSH1 0x1 PUSH1 0x1 PUSH1 0xA0 SHL SUB AND PUSH4 0xD0E30DB0 CALLVALUE PUSH1 0x40 MLOAD DUP3 PUSH4 0xFFFFFFFF AND PUSH1 0xE0 SHL DUP2 MSTORE PUSH1 0x4 ADD PUSH1 0x0 PUSH1 0x40 MLOAD DUP1 DUP4 SUB DUP2 DUP6 DUP9 DUP1 EXTCODESIZE ISZERO DUP1 ISZERO PUSH2 0x1AB JUMPI PUSH1 0x0 DUP1 REVERT JUMPDEST POP GAS CALL ISZERO DUP1 ISZERO PUSH2 0x1BF JUMPI RETURNDATASIZE PUSH1 0x0 DUP1 RETURNDATACOPY RETURNDATASIZE PUSH1 0x0 REVERT JUMPDEST POP POP POP POP POP PUSH1 0x0 PUSH1 0x2 CALLVALUE DUP2 PUSH2 0x1D0 JUMPI INVALID JUMPDEST DIV SWAP1 POP DUP1 ISZERO PUSH2 0x226 JUMPI PUSH2 0x224 PUSH32 0x0 PUSH32 0x0 DUP4 PUSH2 0x465 JUMP JUMPDEST POP JUMPDEST PUSH2 0x22E PUSH2 0x590 JUMP JUMPDEST POP STOP JUMPDEST PUSH1 0x0 DUP1 REVERT JUMPDEST CALLVALUE DUP1 ISZERO PUSH2 0x242 JUMPI PUSH1 0x0 DUP1 REVERT JUMPDEST POP PUSH2 0x24B PUSH2 0x992 JUMP JUMPDEST PUSH1 0x40 MLOAD PUSH2 0x258 SWAP2 SWAP1 PUSH2 0x208B JUMP JUMPDEST PUSH1 0x40 MLOAD DUP1 SWAP2 SUB SWAP1 RETURN JUMPDEST CALLVALUE DUP1 ISZERO PUSH2 0x26D JUMPI PUSH1 0x0 DUP1 REVERT JUMPDEST POP PUSH2 0x276 PUSH2 0x998 JUMP JUMPDEST PUSH1 0x40 MLOAD PUSH2 0x258 SWAP2 SWAP1 PUSH2 0x1C56 JUMP JUMPDEST CALLVALUE DUP1 ISZERO PUSH2 0x28F JUMPI PUSH1 0x0 DUP1 REVERT JUMPDEST POP PUSH2 0x298 PUSH2 0x9BC JUMP JUMPDEST STOP JUMPDEST CALLVALUE DUP1 ISZERO PUSH2 0x2A6 JUMPI PUSH1 0x0 DUP1 REVERT JUMPDEST POP PUSH2 0x2AF PUSH2 0xAAD JUMP JUMPDEST PUSH1 0x40 MLOAD PUSH2 0x258 SWAP6 SWAP5 SWAP4 SWAP3 SWAP2 SWAP1 PUSH2 0x2094 JUMP JUMPDEST CALLVALUE DUP1 ISZERO PUSH2 0x2CC JUMPI PUSH1 0x0 DUP1 REVERT JUMPDEST POP PUSH2 0x2D5 PUSH2 0xAE4 JUMP JUMPDEST PUSH1 0x40 MLOAD PUSH2 0x258 SWAP2 SWAP1 PUSH2 0x2033 JUMP JUMPDEST CALLVALUE DUP1 ISZERO PUSH2 0x2EE JUMPI PUSH1 0x0 DUP1 REVERT JUMPDEST POP PUSH2 0x298 PUSH2 0x2FD CALLDATASIZE PUSH1 0x4 PUSH2 0x1AC6 JUMP JUMPDEST PUSH2 0xAF3 JUMP JUMPDEST CALLVALUE DUP1 ISZERO PUSH2 0x30E JUMPI PUSH1 0x0 DUP1 REVERT JUMPDEST POP PUSH2 0x298 PUSH2 0x590 JUMP JUMPDEST CALLVALUE DUP1 ISZERO PUSH2 0x323 JUMPI PUSH1 0x0 DUP1 REVERT JUMPDEST POP PUSH2 0x298 PUSH2 0xC41 JUMP JUMPDEST CALLVALUE DUP1 ISZERO PUSH2 0x338 JUMPI PUSH1 0x0 DUP1 REVERT JUMPDEST POP PUSH2 0x341 PUSH2 0xCED JUMP JUMPDEST PUSH1 0x40 MLOAD PUSH2 0x258 SWAP2 SWAP1 PUSH2 0x1CC7 JUMP JUMPDEST CALLVALUE DUP1 ISZERO PUSH2 0x35A JUMPI PUSH1 0x0 DUP1 REVERT JUMPDEST POP PUSH2 0x363 PUSH2 0xCFD JUMP JUMPDEST PUSH1 0x40 MLOAD PUSH2 0x258 SWAP2 SWAP1 PUSH2 0x1C92 JUMP JUMPDEST CALLVALUE DUP1 ISZERO PUSH2 0x37C JUMPI PUSH1 0x0 DUP1 REVERT JUMPDEST POP PUSH2 0x276 PUSH2 0xD0D JUMP JUMPDEST CALLVALUE DUP1 ISZERO PUSH2 0x391 JUMPI PUSH1 0x0 DUP1 REVERT JUMPDEST POP PUSH2 0x276 PUSH2 0xD1C JUMP JUMPDEST CALLVALUE DUP1 ISZERO PUSH2 0x3A6 JUMPI PUSH1 0x0 DUP1 REVERT JUMPDEST POP PUSH2 0x341 PUSH2 0xD2C JUMP JUMPDEST CALLVALUE DUP1 ISZERO PUSH2 0x3BB JUMPI PUSH1 0x0 DUP1 REVERT JUMPDEST POP PUSH2 0x276 PUSH2 0xD3C JUMP JUMPDEST CALLVALUE DUP1 ISZERO PUSH2 0x3D0 JUMPI PUSH1 0x0 DUP1 REVERT JUMPDEST POP PUSH2 0x276 PUSH2 0xD4B JUMP JUMPDEST CALLVALUE DUP1 ISZERO PUSH2 0x3E5 JUMPI PUSH1 0x0 DUP1 REVERT JUMPDEST POP PUSH2 0x298 PUSH2 0x3F4 CALLDATASIZE PUSH1 0x4 PUSH2 0x1B9E JUMP JUMPDEST PUSH2 0xD6F JUMP JUMPDEST CALLVALUE DUP1 ISZERO PUSH2 0x405 JUMPI PUSH1 0x0 DUP1 REVERT JUMPDEST POP PUSH2 0x341 PUSH2 0xEF2 JUMP JUMPDEST CALLVALUE DUP1 ISZERO PUSH2 0x41A JUMPI PUSH1 0x0 DUP1 REVERT JUMPDEST POP PUSH2 0x276 PUSH2 0xF02 JUMP JUMPDEST CALLVALUE DUP1 ISZERO PUSH2 0x42F JUMPI PUSH1 0x0 DUP1 REVERT JUMPDEST POP PUSH2 0x438 PUSH2 0xF26 JUMP JUMPDEST PUSH1 0x40 MLOAD PUSH2 0x258 SWAP2 SWAP1 PUSH2 0x207B JUMP JUMPDEST CALLVALUE DUP1 ISZERO PUSH2 0x451 JUMPI PUSH1 0x0 DUP1 REVERT JUMPDEST POP PUSH2 0x298 PUSH2 0x460 CALLDATASIZE PUSH1 0x4 PUSH2 0x1A8E JUMP JUMPDEST PUSH2 0xF4A JUMP JUMPDEST PUSH1 0x40 DUP1 MLOAD PUSH2 0x100 DUP2 ADD DUP3 MSTORE PUSH1 0x1 PUSH1 0x1 PUSH1 0xA0 SHL SUB DUP1 DUP7 AND DUP3 MSTORE DUP5 DUP2 AND PUSH1 0x20 DUP4 ADD MSTORE PUSH3 0xFFFFFF PUSH32 0x0 AND DUP3 DUP5 ADD MSTORE ADDRESS PUSH1 0x60 DUP4 ADD MSTORE TIMESTAMP PUSH1 0x80 DUP4 ADD MSTORE PUSH1 0xA0 DUP3 ADD DUP5 SWAP1 MSTORE PUSH1 0x0 PUSH1 0xC0 DUP4 ADD DUP2 SWAP1 MSTORE PUSH1 0xE0 DUP4 ADD DUP2 SWAP1 MSTORE PUSH1 0x2 SLOAD SWAP4 MLOAD PUSH4 0x414BF389 PUSH1 0xE0 SHL DUP2 MSTORE SWAP1 SWAP4 SWAP1 SWAP2 AND SWAP1 PUSH4 0x414BF389 SWAP1 PUSH2 0x4FB SWAP1 DUP5 SWAP1 PUSH1 0x4 ADD PUSH2 0x1F1C JUMP JUMPDEST PUSH1 0x20 PUSH1 0x40 MLOAD DUP1 DUP4 SUB DUP2 PUSH1 0x0 DUP8 DUP1 EXTCODESIZE ISZERO DUP1 ISZERO PUSH2 0x515 JUMPI PUSH1 0x0 DUP1 REVERT JUMPDEST POP GAS CALL ISZERO DUP1 ISZERO PUSH2 0x529 JUMPI RETURNDATASIZE PUSH1 0x0 DUP1 RETURNDATACOPY RETURNDATASIZE PUSH1 0x0 REVERT JUMPDEST POP POP POP POP PUSH1 0x40 MLOAD RETURNDATASIZE PUSH1 0x1F NOT PUSH1 0x1F DUP3 ADD AND DUP3 ADD DUP1 PUSH1 0x40 MSTORE POP DUP2 ADD SWAP1 PUSH2 0x54D SWAP2 SWAP1 PUSH2 0x1BB6 JUMP JUMPDEST SWAP2 POP PUSH32 0xBDC89DF9460547640E2147BA22A6EF8476D5390EECC620E9D76FBAA551BF4E8A DUP4 DUP4 PUSH1 0x40 MLOAD PUSH2 0x580 SWAP3 SWAP2 SWAP1 PUSH2 0x20FE JUMP JUMPDEST PUSH1 0x40 MLOAD DUP1 SWAP2 SUB SWAP1 LOG1 POP SWAP4 SWAP3 POP POP POP JUMP JUMPDEST PUSH1 0x40 MLOAD PUSH4 0xB4C7741 PUSH1 0xE1 SHL DUP2 MSTORE PUSH1 0x0 SWAP1 PUSH1 0x1 PUSH1 0x1 PUSH1 0xA0 SHL SUB PUSH32 0x0 AND SWAP1 PUSH4 0x1698EE82 SWAP1 PUSH2 0x643 SWAP1 PUSH32 0x0 SWAP1 PUSH32 0x0 SWAP1 PUSH32 0x0 SWAP1 PUSH1 0x4 ADD PUSH2 0x1C6A JUMP JUMPDEST PUSH1 0x20 PUSH1 0x40 MLOAD DUP1 DUP4 SUB DUP2 DUP7 DUP1 EXTCODESIZE ISZERO DUP1 ISZERO PUSH2 0x65B JUMPI PUSH1 0x0 DUP1 REVERT JUMPDEST POP GAS STATICCALL ISZERO DUP1 ISZERO PUSH2 0x66F JUMPI RETURNDATASIZE PUSH1 0x0 DUP1 RETURNDATACOPY RETURNDATASIZE PUSH1 0x0 REVERT JUMPDEST POP POP POP POP PUSH1 0x40 MLOAD RETURNDATASIZE PUSH1 0x1F NOT PUSH1 0x1F DUP3 ADD AND DUP3 ADD DUP1 PUSH1 0x40 MSTORE POP DUP2 ADD SWAP1 PUSH2 0x693 SWAP2 SWAP1 PUSH2 0x1AAA JUMP JUMPDEST SWAP1 POP PUSH1 0x0 DUP1 DUP3 PUSH1 0x1 PUSH1 0x1 PUSH1 0xA0 SHL SUB AND PUSH4 0x3850C7BD PUSH1 0x40 MLOAD DUP2 PUSH4 0xFFFFFFFF AND PUSH1 0xE0 SHL DUP2 MSTORE PUSH1 0x4 ADD PUSH1 0xE0 PUSH1 0x40 MLOAD DUP1 DUP4 SUB DUP2 DUP7 DUP1 EXTCODESIZE ISZERO DUP1 ISZERO PUSH2 0x6D1 JUMPI PUSH1 0x0 DUP1 REVERT JUMPDEST POP GAS STATICCALL ISZERO DUP1 ISZERO PUSH2 0x6E5 JUMPI RETURNDATASIZE PUSH1 0x0 DUP1 RETURNDATACOPY RETURNDATASIZE PUSH1 0x0 REVERT JUMPDEST POP POP POP POP PUSH1 0x40 MLOAD RETURNDATASIZE PUSH1 0x1F NOT PUSH1 0x1F DUP3 ADD AND DUP3 ADD DUP1 PUSH1 0x40 MSTORE POP DUP2 ADD SWAP1 PUSH2 0x709 SWAP2 SWAP1 PUSH2 0x1AFE JUMP JUMPDEST POP POP PUSH1 0x2 DUP1 SLOAD SWAP6 SWAP8 POP SWAP4 SWAP6 POP PUSH1 0x0 SWAP5 PUSH1 0x1 PUSH1 0xA0 SHL SWAP1 DIV DUP5 SIGNEXTEND PUSH1 0x4 MUL DUP5 SIGNEXTEND SWAP3 POP PUSH2 0x730 SWAP2 POP POP JUMP JUMPDEST SDIV SWAP1 POP PUSH1 0x2 PUSH1 0x14 SWAP1 SLOAD SWAP1 PUSH2 0x100 EXP SWAP1 DIV PUSH1 0x2 SIGNEXTEND PUSH1 0x2 SIGNEXTEND DUP2 PUSH1 0x2 SIGNEXTEND SLT ISZERO PUSH2 0x75F JUMPI POP PUSH1 0x2 DUP1 SLOAD PUSH1 0x1 PUSH1 0xA0 SHL SWAP1 DIV SWAP1 SIGNEXTEND JUMPDEST PUSH1 0x2 DUP1 SLOAD PUSH1 0x0 SWAP2 PUSH1 0x1 PUSH1 0xA0 SHL SWAP1 SWAP2 DIV DUP2 SIGNEXTEND SWAP1 DUP2 DUP2 SIGNEXTEND SWAP1 DUP5 DUP7 SUB SWAP1 SIGNEXTEND DUP2 PUSH2 0x781 JUMPI INVALID JUMPDEST PUSH1 0x2 DUP1 SLOAD SWAP3 SWAP1 SWAP2 SDIV SWAP3 SWAP1 SWAP3 MUL SWAP3 POP PUSH1 0x0 SWAP2 PUSH1 0x1 PUSH1 0xA0 SHL SWAP1 SWAP2 DIV DUP2 SIGNEXTEND SWAP1 DUP2 DUP2 SIGNEXTEND SWAP1 DUP7 DUP7 ADD SWAP1 SIGNEXTEND DUP2 PUSH2 0x7AD JUMPI INVALID JUMPDEST SDIV MUL SWAP1 POP DUP1 PUSH1 0x2 SIGNEXTEND DUP3 PUSH1 0x2 SIGNEXTEND SLT PUSH2 0x7CF JUMPI POP PUSH1 0x2 DUP1 SLOAD PUSH1 0x1 PUSH1 0xA0 SHL SWAP1 DIV SWAP1 SIGNEXTEND DUP2 ADD JUMPDEST PUSH3 0xD89E7 NOT PUSH3 0xD89E8 PUSH1 0x2 DUP5 SWAP1 SIGNEXTEND DUP3 SGT ISZERO PUSH2 0x7E8 JUMPI DUP2 SWAP4 POP JUMPDEST DUP1 PUSH1 0x2 SIGNEXTEND DUP4 PUSH1 0x2 SIGNEXTEND SGT ISZERO PUSH2 0x7FA JUMPI DUP1 SWAP3 POP JUMPDEST DUP3 PUSH1 0x2 SIGNEXTEND DUP5 PUSH1 0x2 SIGNEXTEND SLT PUSH2 0x83D JUMPI DUP1 PUSH1 0x2 SIGNEXTEND DUP4 PUSH1 0x2 SIGNEXTEND EQ ISZERO PUSH2 0x82B JUMPI PUSH1 0x2 DUP1 SLOAD PUSH1 0x1 PUSH1 0xA0 SHL SWAP1 DIV SWAP1 SIGNEXTEND DUP4 SUB SWAP4 POP PUSH2 0x83D JUMP JUMPDEST PUSH1 0x2 DUP1 SLOAD PUSH1 0x1 PUSH1 0xA0 SHL SWAP1 DIV SWAP1 SIGNEXTEND DUP5 ADD SWAP3 POP JUMPDEST DUP2 PUSH1 0x2 SIGNEXTEND DUP5 PUSH1 0x2 SIGNEXTEND SLT ISZERO DUP1 ISZERO PUSH2 0x859 JUMPI POP DUP1 PUSH1 0x2 SIGNEXTEND DUP4 PUSH1 0x2 SIGNEXTEND SGT ISZERO JUMPDEST DUP1 ISZERO PUSH2 0x86A JUMPI POP DUP3 PUSH1 0x2 SIGNEXTEND DUP5 PUSH1 0x2 SIGNEXTEND SLT JUMPDEST PUSH2 0x886 JUMPI PUSH1 0x40 MLOAD PUSH3 0x461BCD PUSH1 0xE5 SHL DUP2 MSTORE PUSH1 0x4 ADD PUSH2 0x147 SWAP1 PUSH2 0x1E08 JUMP JUMPDEST PUSH1 0x4 SLOAD PUSH1 0x1 PUSH1 0x80 SHL SWAP1 DIV PUSH1 0xFF AND DUP1 ISZERO PUSH2 0x8B0 JUMPI POP PUSH1 0x4 SLOAD PUSH1 0x2 DUP6 DUP2 SIGNEXTEND PUSH1 0x1 PUSH1 0x88 SHL SWAP1 SWAP3 DIV DUP2 SIGNEXTEND SWAP1 SIGNEXTEND EQ JUMPDEST DUP1 ISZERO PUSH2 0x8CD JUMPI POP PUSH1 0x4 SLOAD PUSH1 0x2 DUP5 DUP2 SIGNEXTEND PUSH1 0x1 PUSH1 0xA0 SHL SWAP1 SWAP3 DIV DUP2 SIGNEXTEND SWAP1 SIGNEXTEND EQ JUMPDEST ISZERO PUSH2 0x921 JUMPI PUSH32 0x319A1901DFD46C5D39CCC516FF41939B5523C167A22D7C4FBEB5B6A4CC899AD6 TIMESTAMP DUP9 DUP9 DUP8 DUP8 PUSH1 0x0 PUSH1 0x40 MLOAD PUSH2 0x90C SWAP7 SWAP6 SWAP5 SWAP4 SWAP3 SWAP2 SWAP1 PUSH2 0x20C4 JUMP JUMPDEST PUSH1 0x40 MLOAD DUP1 SWAP2 SUB SWAP1 LOG1 POP POP POP POP POP POP POP POP PUSH2 0x990 JUMP JUMPDEST PUSH1 0x4 SLOAD PUSH1 0x1 PUSH1 0x80 SHL SWAP1 DIV PUSH1 0xFF AND ISZERO PUSH2 0x93B JUMPI PUSH2 0x93B PUSH2 0x104C JUMP JUMPDEST PUSH2 0x945 DUP5 DUP5 PUSH2 0x12C4 JUMP JUMPDEST PUSH32 0x319A1901DFD46C5D39CCC516FF41939B5523C167A22D7C4FBEB5B6A4CC899AD6 TIMESTAMP DUP9 DUP9 DUP8 DUP8 PUSH1 0x1 PUSH1 0x40 MLOAD PUSH2 0x97F SWAP7 SWAP6 SWAP5 SWAP4 SWAP3 SWAP2 SWAP1 PUSH2 0x20C4 JUMP JUMPDEST PUSH1 0x40 MLOAD DUP1 SWAP2 SUB SWAP1 LOG1 POP POP POP POP POP POP POP POP JUMPDEST JUMP JUMPDEST PUSH1 0x3 SLOAD DUP2 JUMP JUMPDEST PUSH32 0x0 DUP2 JUMP JUMPDEST PUSH2 0x9C4 PUSH2 0x1758 JUMP JUMPDEST PUSH1 0x1 PUSH1 0x1 PUSH1 0xA0 SHL SUB AND PUSH2 0x9D5 PUSH2 0xD1C JUMP JUMPDEST PUSH1 0x1 PUSH1 0x1 PUSH1 0xA0 SHL SUB AND EQ PUSH2 0xA1E JUMPI PUSH1 0x40 DUP1 MLOAD PUSH3 0x461BCD PUSH1 0xE5 SHL DUP2 MSTORE PUSH1 0x20 PUSH1 0x4 DUP3 ADD DUP2 SWAP1 MSTORE PUSH1 0x24 DUP3 ADD MSTORE PUSH1 0x0 DUP1 MLOAD PUSH1 0x20 PUSH2 0x2219 DUP4 CODECOPY DUP2 MLOAD SWAP2 MSTORE PUSH1 0x44 DUP3 ADD MSTORE SWAP1 MLOAD SWAP1 DUP2 SWAP1 SUB PUSH1 0x64 ADD SWAP1 REVERT JUMPDEST SELFBALANCE DUP1 ISZERO PUSH2 0xAAA JUMPI PUSH1 0x0 PUSH2 0xA2F PUSH2 0xD1C JUMP JUMPDEST PUSH1 0x1 PUSH1 0x1 PUSH1 0xA0 SHL SUB AND DUP3 PUSH1 0x40 MLOAD PUSH2 0xA45 SWAP1 PUSH2 0xD29 JUMP JUMPDEST PUSH1 0x0 PUSH1 0x40 MLOAD DUP1 DUP4 SUB DUP2 DUP6 DUP8 GAS CALL SWAP3 POP POP POP RETURNDATASIZE DUP1 PUSH1 0x0 DUP2 EQ PUSH2 0xA82 JUMPI PUSH1 0x40 MLOAD SWAP2 POP PUSH1 0x1F NOT PUSH1 0x3F RETURNDATASIZE ADD AND DUP3 ADD PUSH1 0x40 MSTORE RETURNDATASIZE DUP3 MSTORE RETURNDATASIZE PUSH1 0x0 PUSH1 0x20 DUP5 ADD RETURNDATACOPY PUSH2 0xA87 JUMP JUMPDEST PUSH1 0x60 SWAP2 POP JUMPDEST POP POP SWAP1 POP DUP1 PUSH2 0xAA8 JUMPI PUSH1 0x40 MLOAD PUSH3 0x461BCD PUSH1 0xE5 SHL DUP2 MSTORE PUSH1 0x4 ADD PUSH2 0x147 SWAP1 PUSH2 0x1CD5 JUMP JUMPDEST POP JUMPDEST POP JUMP JUMPDEST PUSH1 0x3 SLOAD PUSH1 0x4 SLOAD SWAP1 SWAP2 PUSH1 0x1 PUSH1 0x80 SHL DUP3 DIV PUSH1 0xFF AND SWAP2 PUSH1 0x1 PUSH1 0x88 SHL DUP2 DIV PUSH1 0x2 SWAP1 DUP2 SIGNEXTEND SWAP3 PUSH1 0x1 PUSH1 0xA0 SHL DUP4 DIV SWAP1 SWAP2 SIGNEXTEND SWAP2 PUSH1 0x1 PUSH1 0x1 PUSH1 0x80 SHL SUB AND SWAP1 JUMP JUMPDEST PUSH1 0x4 SLOAD PUSH1 0x1 PUSH1 0x1 PUSH1 0x80 SHL SUB AND DUP2 JUMP JUMPDEST PUSH2 0xAFB PUSH2 0x1758 JUMP JUMPDEST PUSH1 0x1 PUSH1 0x1 PUSH1 0xA0 SHL SUB AND PUSH2 0xB0C PUSH2 0xD1C JUMP JUMPDEST PUSH1 0x1 PUSH1 0x1 PUSH1 0xA0 SHL SUB AND EQ PUSH2 0xB55 JUMPI PUSH1 0x40 DUP1 MLOAD PUSH3 0x461BCD PUSH1 0xE5 SHL DUP2 MSTORE PUSH1 0x20 PUSH1 0x4 DUP3 ADD DUP2 SWAP1 MSTORE PUSH1 0x24 DUP3 ADD MSTORE PUSH1 0x0 DUP1 MLOAD PUSH1 0x20 PUSH2 0x2219 DUP4 CODECOPY DUP2 MLOAD SWAP2 MSTORE PUSH1 0x44 DUP3 ADD MSTORE SWAP1 MLOAD SWAP1 DUP2 SWAP1 SUB PUSH1 0x64 ADD SWAP1 REVERT JUMPDEST PUSH1 0x1 PUSH1 0x1 PUSH1 0xA0 SHL SUB DUP3 AND PUSH2 0xB7B JUMPI PUSH1 0x40 MLOAD PUSH3 0x461BCD PUSH1 0xE5 SHL DUP2 MSTORE PUSH1 0x4 ADD PUSH2 0x147 SWAP1 PUSH2 0x1DAA JUMP JUMPDEST PUSH1 0x1 PUSH1 0x1 PUSH1 0xA0 SHL SUB DUP2 AND PUSH2 0xBA1 JUMPI PUSH1 0x40 MLOAD PUSH3 0x461BCD PUSH1 0xE5 SHL DUP2 MSTORE PUSH1 0x4 ADD PUSH2 0x147 SWAP1 PUSH2 0x1D73 JUMP JUMPDEST PUSH1 0x40 MLOAD PUSH4 0x70A08231 PUSH1 0xE0 SHL DUP2 MSTORE PUSH1 0x0 SWAP1 PUSH1 0x1 PUSH1 0x1 PUSH1 0xA0 SHL SUB DUP5 AND SWAP1 PUSH4 0x70A08231 SWAP1 PUSH2 0xBD0 SWAP1 ADDRESS SWAP1 PUSH1 0x4 ADD PUSH2 0x1C56 JUMP JUMPDEST PUSH1 0x20 PUSH1 0x40 MLOAD DUP1 DUP4 SUB DUP2 DUP7 DUP1 EXTCODESIZE ISZERO DUP1 ISZERO PUSH2 0xBE8 JUMPI PUSH1 0x0 DUP1 REVERT JUMPDEST POP GAS STATICCALL ISZERO DUP1 ISZERO PUSH2 0xBFC JUMPI RETURNDATASIZE PUSH1 0x0 DUP1 RETURNDATACOPY RETURNDATASIZE PUSH1 0x0 REVERT JUMPDEST POP POP POP POP PUSH1 0x40 MLOAD RETURNDATASIZE PUSH1 0x1F NOT PUSH1 0x1F DUP3 ADD AND DUP3 ADD DUP1 PUSH1 0x40 MSTORE POP DUP2 ADD SWAP1 PUSH2 0xC20 SWAP2 SWAP1 PUSH2 0x1BB6 JUMP JUMPDEST SWAP1 POP DUP1 ISZERO PUSH2 0xC3C JUMPI PUSH2 0xC3C PUSH1 0x1 PUSH1 0x1 PUSH1 0xA0 SHL SUB DUP5 AND DUP4 DUP4 PUSH2 0x175C JUMP JUMPDEST POP POP POP JUMP JUMPDEST PUSH2 0xC49 PUSH2 0x1758 JUMP JUMPDEST PUSH1 0x1 PUSH1 0x1 PUSH1 0xA0 SHL SUB AND PUSH2 0xC5A PUSH2 0xD1C JUMP JUMPDEST PUSH1 0x1 PUSH1 0x1 PUSH1 0xA0 SHL SUB AND EQ PUSH2 0xCA3 JUMPI PUSH1 0x40 DUP1 MLOAD PUSH3 0x461BCD PUSH1 0xE5 SHL DUP2 MSTORE PUSH1 0x20 PUSH1 0x4 DUP3 ADD DUP2 SWAP1 MSTORE PUSH1 0x24 DUP3 ADD MSTORE PUSH1 0x0 DUP1 MLOAD PUSH1 0x20 PUSH2 0x2219 DUP4 CODECOPY DUP2 MLOAD SWAP2 MSTORE PUSH1 0x44 DUP3 ADD MSTORE SWAP1 MLOAD SWAP1 DUP2 SWAP1 SUB PUSH1 0x64 ADD SWAP1 REVERT JUMPDEST PUSH1 0x0 DUP1 SLOAD PUSH1 0x40 MLOAD PUSH1 0x1 PUSH1 0x1 PUSH1 0xA0 SHL SUB SWAP1 SWAP2 AND SWAP1 PUSH32 0x8BE0079C531659141344CD1FD0A4F28419497F9722A3DAAFE3B4186F6B6457E0 SWAP1 DUP4 SWAP1 LOG3 PUSH1 0x0 DUP1 SLOAD PUSH1 0x1 PUSH1 0x1 PUSH1 0xA0 SHL SUB NOT AND SWAP1 SSTORE JUMP JUMPDEST PUSH1 0x4 SLOAD PUSH1 0x1 PUSH1 0xA0 SHL SWAP1 DIV PUSH1 0x2 SIGNEXTEND DUP2 JUMP JUMPDEST PUSH1 0x4 SLOAD PUSH1 0x1 PUSH1 0x80 SHL SWAP1 DIV PUSH1 0xFF AND DUP2 JUMP JUMPDEST PUSH1 0x1 SLOAD PUSH1 0x1 PUSH1 0x1 PUSH1 0xA0 SHL SUB AND DUP2 JUMP JUMPDEST PUSH1 0x0 SLOAD PUSH1 0x1 PUSH1 0x1 PUSH1 0xA0 SHL SUB AND JUMPDEST SWAP1 JUMP JUMPDEST PUSH1 0x4 SLOAD PUSH1 0x1 PUSH1 0x88 SHL SWAP1 DIV PUSH1 0x2 SIGNEXTEND DUP2 JUMP JUMPDEST PUSH1 0x2 SLOAD PUSH1 0x1 PUSH1 0x1 PUSH1 0xA0 SHL SUB AND DUP2 JUMP JUMPDEST PUSH32 0x0 DUP2 JUMP JUMPDEST PUSH2 0xD77 PUSH2 0x1758 JUMP JUMPDEST PUSH1 0x1 PUSH1 0x1 PUSH1 0xA0 SHL SUB AND PUSH2 0xD88 PUSH2 0xD1C JUMP JUMPDEST PUSH1 0x1 PUSH1 0x1 PUSH1 0xA0 SHL SUB AND EQ PUSH2 0xDD1 JUMPI PUSH1 0x40 DUP1 MLOAD PUSH3 0x461BCD PUSH1 0xE5 SHL DUP2 MSTORE PUSH1 0x20 PUSH1 0x4 DUP3 ADD DUP2 SWAP1 MSTORE PUSH1 0x24 DUP3 ADD MSTORE PUSH1 0x0 DUP1 MLOAD PUSH1 0x20 PUSH2 0x2219 DUP4 CODECOPY DUP2 MLOAD SWAP2 MSTORE PUSH1 0x44 DUP3 ADD MSTORE SWAP1 MLOAD SWAP1 DUP2 SWAP1 SUB PUSH1 0x64 ADD SWAP1 REVERT JUMPDEST PUSH1 0x0 DUP2 GT PUSH2 0xDF1 JUMPI PUSH1 0x40 MLOAD PUSH3 0x461BCD PUSH1 0xE5 SHL DUP2 MSTORE PUSH1 0x4 ADD PUSH2 0x147 SWAP1 PUSH2 0x1E5F JUMP JUMPDEST PUSH1 0x40 MLOAD PUSH4 0x2E1A7D4D PUSH1 0xE0 SHL DUP2 MSTORE PUSH1 0x1 PUSH1 0x1 PUSH1 0xA0 SHL SUB PUSH32 0x0 AND SWAP1 PUSH4 0x2E1A7D4D SWAP1 PUSH2 0xE3D SWAP1 DUP5 SWAP1 PUSH1 0x4 ADD PUSH2 0x208B JUMP JUMPDEST PUSH1 0x0 PUSH1 0x40 MLOAD DUP1 DUP4 SUB DUP2 PUSH1 0x0 DUP8 DUP1 EXTCODESIZE ISZERO DUP1 ISZERO PUSH2 0xE57 JUMPI PUSH1 0x0 DUP1 REVERT JUMPDEST POP GAS CALL ISZERO DUP1 ISZERO PUSH2 0xE6B JUMPI RETURNDATASIZE PUSH1 0x0 DUP1 RETURNDATACOPY RETURNDATASIZE PUSH1 0x0 REVERT JUMPDEST POP POP POP POP PUSH1 0x0 PUSH2 0xE79 PUSH2 0xD1C JUMP JUMPDEST PUSH1 0x1 PUSH1 0x1 PUSH1 0xA0 SHL SUB AND DUP3 PUSH1 0x40 MLOAD PUSH2 0xE8F SWAP1 PUSH2 0xD29 JUMP JUMPDEST PUSH1 0x0 PUSH1 0x40 MLOAD DUP1 DUP4 SUB DUP2 DUP6 DUP8 GAS CALL SWAP3 POP POP POP RETURNDATASIZE DUP1 PUSH1 0x0 DUP2 EQ PUSH2 0xECC JUMPI PUSH1 0x40 MLOAD SWAP2 POP PUSH1 0x1F NOT PUSH1 0x3F RETURNDATASIZE ADD AND DUP3 ADD PUSH1 0x40 MSTORE RETURNDATASIZE DUP3 MSTORE RETURNDATASIZE PUSH1 0x0 PUSH1 0x20 DUP5 ADD RETURNDATACOPY PUSH2 0xED1 JUMP JUMPDEST PUSH1 0x60 SWAP2 POP JUMPDEST POP POP SWAP1 POP DUP1 PUSH2 0xAA8 JUMPI PUSH1 0x40 MLOAD PUSH3 0x461BCD PUSH1 0xE5 SHL DUP2 MSTORE PUSH1 0x4 ADD PUSH2 0x147 SWAP1 PUSH2 0x1D00 JUMP JUMPDEST PUSH1 0x2 DUP1 SLOAD PUSH1 0x1 PUSH1 0xA0 SHL SWAP1 DIV SWAP1 SIGNEXTEND DUP2 JUMP JUMPDEST PUSH32 0x0 DUP2 JUMP JUMPDEST PUSH32 0x0 DUP2 JUMP JUMPDEST PUSH2 0xF52 PUSH2 0x1758 JUMP JUMPDEST PUSH1 0x1 PUSH1 0x1 PUSH1 0xA0 SHL SUB AND PUSH2 0xF63 PUSH2 0xD1C JUMP JUMPDEST PUSH1 0x1 PUSH1 0x1 PUSH1 0xA0 SHL SUB AND EQ PUSH2 0xFAC JUMPI PUSH1 0x40 DUP1 MLOAD PUSH3 0x461BCD PUSH1 0xE5 SHL DUP2 MSTORE PUSH1 0x20 PUSH1 0x4 DUP3 ADD DUP2 SWAP1 MSTORE PUSH1 0x24 DUP3 ADD MSTORE PUSH1 0x0 DUP1 MLOAD PUSH1 0x20 PUSH2 0x2219 DUP4 CODECOPY DUP2 MLOAD SWAP2 MSTORE PUSH1 0x44 DUP3 ADD MSTORE SWAP1 MLOAD SWAP1 DUP2 SWAP1 SUB PUSH1 0x64 ADD SWAP1 REVERT JUMPDEST PUSH1 0x1 PUSH1 0x1 PUSH1 0xA0 SHL SUB DUP2 AND PUSH2 0xFF1 JUMPI PUSH1 0x40 MLOAD PUSH3 0x461BCD PUSH1 0xE5 SHL DUP2 MSTORE PUSH1 0x4 ADD DUP1 DUP1 PUSH1 0x20 ADD DUP3 DUP2 SUB DUP3 MSTORE PUSH1 0x26 DUP2 MSTORE PUSH1 0x20 ADD DUP1 PUSH2 0x21CD PUSH1 0x26 SWAP2 CODECOPY PUSH1 0x40 ADD SWAP2 POP POP PUSH1 0x40 MLOAD DUP1 SWAP2 SUB SWAP1 REVERT JUMPDEST PUSH1 0x0 DUP1 SLOAD PUSH1 0x40 MLOAD PUSH1 0x1 PUSH1 0x1 PUSH1 0xA0 SHL SUB DUP1 DUP6 AND SWAP4 SWAP3 AND SWAP2 PUSH32 0x8BE0079C531659141344CD1FD0A4F28419497F9722A3DAAFE3B4186F6B6457E0 SWAP2 LOG3 PUSH1 0x0 DUP1 SLOAD PUSH1 0x1 PUSH1 0x1 PUSH1 0xA0 SHL SUB NOT AND PUSH1 0x1 PUSH1 0x1 PUSH1 0xA0 SHL SUB SWAP3 SWAP1 SWAP3 AND SWAP2 SWAP1 SWAP2 OR SWAP1 SSTORE JUMP JUMPDEST PUSH1 0x4 SLOAD PUSH1 0x1 PUSH1 0x80 SHL SWAP1 DIV PUSH1 0xFF AND PUSH2 0x1075 JUMPI PUSH1 0x40 MLOAD PUSH3 0x461BCD PUSH1 0xE5 SHL DUP2 MSTORE PUSH1 0x4 ADD PUSH2 0x147 SWAP1 PUSH2 0x1DD9 JUMP JUMPDEST PUSH1 0x3 DUP1 SLOAD PUSH1 0x4 DUP1 SLOAD PUSH1 0x0 SWAP4 DUP5 SWAP1 SSTORE PUSH1 0x1 PUSH1 0x1 PUSH1 0xB8 SHL SUB NOT DUP2 AND SWAP1 SWAP2 SSTORE PUSH1 0x40 MLOAD SWAP2 SWAP3 PUSH1 0x1 PUSH1 0x1 PUSH1 0x80 SHL SUB DUP3 AND SWAP3 PUSH1 0x1 PUSH1 0x88 SHL PUSH17 0xFFFFFFFFFFFFFFFFFFFFFFFFFFFFFFFFFF NOT SWAP1 SWAP4 AND SWAP3 DUP4 DIV PUSH1 0x2 SWAP1 DUP2 SIGNEXTEND SWAP4 PUSH1 0x1 PUSH1 0xA0 SHL SWAP1 DIV SWAP1 SIGNEXTEND SWAP2 DUP6 SWAP2 PUSH32 0x31F74F9E6B20560A12F5AE59E31B36E7CBBCDC6489CA8F40A878F939E2C7D276 SWAP2 PUSH2 0x1102 SWAP2 DUP2 SWAP1 DUP2 SWAP1 DUP2 SWAP1 PUSH2 0x1C9D JUMP JUMPDEST PUSH1 0x40 MLOAD DUP1 SWAP2 SUB SWAP1 LOG2 PUSH1 0x1 SLOAD PUSH1 0x40 DUP1 MLOAD PUSH1 0xA0 DUP2 ADD DUP3 MSTORE DUP7 DUP2 MSTORE PUSH1 0x1 PUSH1 0x1 PUSH1 0x80 SHL SUB PUSH1 0x20 DUP3 ADD MSTORE PUSH1 0x0 DUP2 DUP4 ADD DUP2 SWAP1 MSTORE PUSH1 0x60 DUP3 ADD MSTORE TIMESTAMP PUSH1 0x80 DUP3 ADD MSTORE SWAP1 MLOAD PUSH4 0x624E65F PUSH1 0xE1 SHL DUP2 MSTORE PUSH1 0x1 PUSH1 0x1 PUSH1 0xA0 SHL SUB SWAP1 SWAP3 AND SWAP2 PUSH4 0xC49CCBE SWAP2 PUSH2 0x1164 SWAP2 PUSH1 0x4 ADD PUSH2 0x1ED9 JUMP JUMPDEST PUSH1 0x40 DUP1 MLOAD DUP1 DUP4 SUB DUP2 PUSH1 0x0 DUP8 DUP1 EXTCODESIZE ISZERO DUP1 ISZERO PUSH2 0x117D JUMPI PUSH1 0x0 DUP1 REVERT JUMPDEST POP GAS CALL SWAP3 POP POP POP DUP1 ISZERO PUSH2 0x11AD JUMPI POP PUSH1 0x40 DUP1 MLOAD PUSH1 0x1F RETURNDATASIZE SWAP1 DUP2 ADD PUSH1 0x1F NOT AND DUP3 ADD SWAP1 SWAP3 MSTORE PUSH2 0x11AA SWAP2 DUP2 ADD SWAP1 PUSH2 0x1C16 JUMP JUMPDEST PUSH1 0x1 JUMPDEST PUSH2 0x11B6 JUMPI PUSH2 0x11B9 JUMP JUMPDEST POP POP JUMPDEST PUSH1 0x1 SLOAD PUSH1 0x40 DUP1 MLOAD PUSH1 0x80 DUP2 ADD DUP3 MSTORE DUP7 DUP2 MSTORE ADDRESS PUSH1 0x20 DUP3 ADD MSTORE PUSH1 0x1 PUSH1 0x1 PUSH1 0x80 SHL SUB DUP2 DUP4 ADD DUP2 SWAP1 MSTORE PUSH1 0x60 DUP3 ADD MSTORE SWAP1 MLOAD PUSH4 0xFC6F7865 PUSH1 0xE0 SHL DUP2 MSTORE PUSH1 0x1 PUSH1 0x1 PUSH1 0xA0 SHL SUB SWAP1 SWAP3 AND SWAP2 PUSH4 0xFC6F7865 SWAP2 PUSH2 0x120C SWAP2 PUSH1 0x4 ADD PUSH2 0x1E96 JUMP JUMPDEST PUSH1 0x40 DUP1 MLOAD DUP1 DUP4 SUB DUP2 PUSH1 0x0 DUP8 DUP1 EXTCODESIZE ISZERO DUP1 ISZERO PUSH2 0x1225 JUMPI PUSH1 0x0 DUP1 REVERT JUMPDEST POP GAS CALL SWAP3 POP POP POP DUP1 ISZERO PUSH2 0x1255 JUMPI POP PUSH1 0x40 DUP1 MLOAD PUSH1 0x1F RETURNDATASIZE SWAP1 DUP2 ADD PUSH1 0x1F NOT AND DUP3 ADD SWAP1 SWAP3 MSTORE PUSH2 0x1252 SWAP2 DUP2 ADD SWAP1 PUSH2 0x1C16 JUMP JUMPDEST PUSH1 0x1 JUMPDEST PUSH2 0x125E JUMPI PUSH2 0x1261 JUMP JUMPDEST POP POP JUMPDEST PUSH1 0x1 SLOAD PUSH1 0x40 MLOAD PUSH4 0x852CD8D PUSH1 0xE3 SHL DUP2 MSTORE PUSH1 0x1 PUSH1 0x1 PUSH1 0xA0 SHL SUB SWAP1 SWAP2 AND SWAP1 PUSH4 0x42966C68 SWAP1 PUSH2 0x1291 SWAP1 DUP8 SWAP1 PUSH1 0x4 ADD PUSH2 0x208B JUMP JUMPDEST PUSH1 0x0 PUSH1 0x40 MLOAD DUP1 DUP4 SUB DUP2 PUSH1 0x0 DUP8 DUP1 EXTCODESIZE ISZERO DUP1 ISZERO PUSH2 0x12AB JUMPI PUSH1 0x0 DUP1 REVERT JUMPDEST POP GAS CALL SWAP3 POP POP POP DUP1 ISZERO PUSH2 0x12BC JUMPI POP PUSH1 0x1 JUMPDEST POP JUMPDEST POP POP POP POP JUMP JUMPDEST DUP1 PUSH1 0x2 SIGNEXTEND DUP3 PUSH1 0x2 SIGNEXTEND SLT PUSH2 0x12E9 JUMPI PUSH1 0x40 MLOAD PUSH3 0x461BCD PUSH1 0xE5 SHL DUP2 MSTORE PUSH1 0x4 ADD PUSH2 0x147 SWAP1 PUSH2 0x1D47 JUMP JUMPDEST PUSH1 0x40 MLOAD PUSH4 0x70A08231 PUSH1 0xE0 SHL DUP2 MSTORE PUSH1 0x0 SWAP1 PUSH1 0x1 PUSH1 0x1 PUSH1 0xA0 SHL SUB PUSH32 0x0 AND SWAP1 PUSH4 0x70A08231 SWAP1 PUSH2 0x1338 SWAP1 ADDRESS SWAP1 PUSH1 0x4 ADD PUSH2 0x1C56 JUMP JUMPDEST PUSH1 0x20 PUSH1 0x40 MLOAD DUP1 DUP4 SUB DUP2 DUP7 DUP1 EXTCODESIZE ISZERO DUP1 ISZERO PUSH2 0x1350 JUMPI PUSH1 0x0 DUP1 REVERT JUMPDEST POP GAS STATICCALL ISZERO DUP1 ISZERO PUSH2 0x1364 JUMPI RETURNDATASIZE PUSH1 0x0 DUP1 RETURNDATACOPY RETURNDATASIZE PUSH1 0x0 REVERT JUMPDEST POP POP POP POP PUSH1 0x40 MLOAD RETURNDATASIZE PUSH1 0x1F NOT PUSH1 0x1F DUP3 ADD AND DUP3 ADD DUP1 PUSH1 0x40 MSTORE POP DUP2 ADD SWAP1 PUSH2 0x1388 SWAP2 SWAP1 PUSH2 0x1BB6 JUMP JUMPDEST SWAP1 POP PUSH1 0x0 PUSH32 0x0 PUSH1 0x1 PUSH1 0x1 PUSH1 0xA0 SHL SUB AND PUSH4 0x70A08231 ADDRESS PUSH1 0x40 MLOAD DUP3 PUSH4 0xFFFFFFFF AND PUSH1 0xE0 SHL DUP2 MSTORE PUSH1 0x4 ADD PUSH2 0x13D8 SWAP2 SWAP1 PUSH2 0x1C56 JUMP JUMPDEST PUSH1 0x20 PUSH1 0x40 MLOAD DUP1 DUP4 SUB DUP2 DUP7 DUP1 EXTCODESIZE ISZERO DUP1 ISZERO PUSH2 0x13F0 JUMPI PUSH1 0x0 DUP1 REVERT JUMPDEST POP GAS STATICCALL ISZERO DUP1 ISZERO PUSH2 0x1404 JUMPI RETURNDATASIZE PUSH1 0x0 DUP1 RETURNDATACOPY RETURNDATASIZE PUSH1 0x0 REVERT JUMPDEST POP POP POP POP PUSH1 0x40 MLOAD RETURNDATASIZE PUSH1 0x1F NOT PUSH1 0x1F DUP3 ADD AND DUP3 ADD DUP1 PUSH1 0x40 MSTORE POP DUP2 ADD SWAP1 PUSH2 0x1428 SWAP2 SWAP1 PUSH2 0x1BB6 JUMP JUMPDEST SWAP1 POP DUP2 ISZERO DUP1 ISZERO PUSH2 0x1436 JUMPI POP DUP1 ISZERO JUMPDEST ISZERO PUSH2 0x1442 JUMPI POP POP PUSH2 0xAA8 JUMP JUMPDEST PUSH1 0x1 SLOAD PUSH1 0x40 DUP1 MLOAD PUSH2 0x160 DUP2 ADD DUP3 MSTORE PUSH1 0x1 PUSH1 0x1 PUSH1 0xA0 SHL SUB PUSH32 0x0 DUP2 AND DUP3 MSTORE PUSH32 0x0 DUP2 AND PUSH1 0x20 DUP4 ADD MSTORE PUSH32 0x0 PUSH3 0xFFFFFF AND DUP3 DUP5 ADD MSTORE PUSH1 0x2 DUP9 DUP2 SIGNEXTEND PUSH1 0x60 DUP5 ADD MSTORE DUP8 SWAP1 SIGNEXTEND PUSH1 0x80 DUP4 ADD MSTORE PUSH1 0xA0 DUP3 ADD DUP7 SWAP1 MSTORE PUSH1 0xC0 DUP3 ADD DUP6 SWAP1 MSTORE PUSH1 0x0 PUSH1 0xE0 DUP4 ADD DUP2 SWAP1 MSTORE PUSH2 0x100 DUP4 ADD MSTORE ADDRESS PUSH2 0x120 DUP4 ADD MSTORE TIMESTAMP PUSH2 0x140 DUP4 ADD MSTORE SWAP2 MLOAD PUSH4 0x4418B22B PUSH1 0xE1 SHL DUP2 MSTORE SWAP2 SWAP1 SWAP3 AND SWAP2 PUSH4 0x88316456 SWAP2 PUSH2 0x1530 SWAP2 SWAP1 PUSH1 0x4 ADD PUSH2 0x1F85 JUMP JUMPDEST PUSH1 0x80 PUSH1 0x40 MLOAD DUP1 DUP4 SUB DUP2 PUSH1 0x0 DUP8 DUP1 EXTCODESIZE ISZERO DUP1 ISZERO PUSH2 0x154A JUMPI PUSH1 0x0 DUP1 REVERT JUMPDEST POP GAS CALL SWAP3 POP POP POP DUP1 ISZERO PUSH2 0x157A JUMPI POP PUSH1 0x40 DUP1 MLOAD PUSH1 0x1F RETURNDATASIZE SWAP1 DUP2 ADD PUSH1 0x1F NOT AND DUP3 ADD SWAP1 SWAP3 MSTORE PUSH2 0x1577 SWAP2 DUP2 ADD SWAP1 PUSH2 0x1BCE JUMP JUMPDEST PUSH1 0x1 JUMPDEST PUSH2 0x15C7 JUMPI PUSH2 0x1586 PUSH2 0x2112 JUMP JUMPDEST DUP1 PUSH2 0x1591 JUMPI POP PUSH2 0x15AC JUMP JUMPDEST POP PUSH1 0x4 DUP1 SLOAD PUSH1 0x0 PUSH1 0x3 SSTORE PUSH1 0x1 PUSH1 0x1 PUSH1 0xB8 SHL SUB NOT AND SWAP1 SSTORE PUSH2 0x15C2 JUMP JUMPDEST PUSH1 0x4 DUP1 SLOAD PUSH1 0x0 PUSH1 0x3 SSTORE PUSH1 0x1 PUSH1 0x1 PUSH1 0xB8 SHL SUB NOT AND SWAP1 SSTORE JUMPDEST PUSH2 0x12BE JUMP JUMPDEST PUSH1 0x1 PUSH1 0x1 PUSH1 0x80 SHL SUB DUP4 AND ISZERO PUSH2 0x16D1 JUMPI PUSH1 0x3 DUP5 SWAP1 SSTORE PUSH1 0x4 DUP1 SLOAD PUSH1 0x1 PUSH1 0x80 SHL PUSH16 0xFFFFFFFFFFFFFFFFFFFFFFFFFFFFFFFF NOT SWAP1 SWAP2 AND PUSH1 0x1 PUSH1 0x1 PUSH1 0x80 SHL SUB DUP7 AND OR PUSH1 0xFF PUSH1 0x80 SHL NOT AND OR PUSH3 0xFFFFFF PUSH1 0x88 SHL NOT AND PUSH1 0x1 PUSH1 0x88 SHL PUSH1 0x2 DUP12 DUP2 SIGNEXTEND PUSH3 0xFFFFFF SWAP1 DUP2 AND SWAP3 SWAP1 SWAP3 MUL SWAP3 SWAP1 SWAP3 OR PUSH3 0xFFFFFF PUSH1 0xA0 SHL NOT AND PUSH1 0x1 PUSH1 0xA0 SHL SWAP3 DUP12 SWAP1 SIGNEXTEND SWAP2 SWAP1 SWAP2 AND SWAP2 SWAP1 SWAP2 MUL OR SWAP1 SSTORE PUSH1 0x40 MLOAD DUP5 SWAP1 PUSH32 0x31F74F9E6B20560A12F5AE59E31B36E7CBBCDC6489CA8F40A878F939E2C7D276 SWAP1 PUSH2 0x1684 SWAP1 PUSH1 0x1 SWAP1 DUP13 SWAP1 DUP13 SWAP1 DUP10 SWAP1 PUSH2 0x1C9D JUMP JUMPDEST PUSH1 0x40 MLOAD DUP1 SWAP2 SUB SWAP1 LOG2 DUP4 PUSH32 0x34F67C2E2DDFABDD2A86422E31E022F9FEB4C50AA683E668A4D1F6857C0FD8C5 DUP5 DUP11 DUP11 DUP7 DUP7 PUSH1 0x40 MLOAD PUSH2 0x16C4 SWAP6 SWAP5 SWAP4 SWAP3 SWAP2 SWAP1 PUSH2 0x2047 JUMP JUMPDEST PUSH1 0x40 MLOAD DUP1 SWAP2 SUB SWAP1 LOG2 PUSH2 0x174E JUMP JUMPDEST DUP4 ISZERO PUSH2 0x1734 JUMPI PUSH1 0x1 SLOAD PUSH1 0x40 MLOAD PUSH4 0x852CD8D PUSH1 0xE3 SHL DUP2 MSTORE PUSH1 0x1 PUSH1 0x1 PUSH1 0xA0 SHL SUB SWAP1 SWAP2 AND SWAP1 PUSH4 0x42966C68 SWAP1 PUSH2 0x1707 SWAP1 DUP8 SWAP1 PUSH1 0x4 ADD PUSH2 0x208B JUMP JUMPDEST PUSH1 0x0 PUSH1 0x40 MLOAD DUP1 DUP4 SUB DUP2 PUSH1 0x0 DUP8 DUP1 EXTCODESIZE ISZERO DUP1 ISZERO PUSH2 0x1721 JUMPI PUSH1 0x0 DUP1 REVERT JUMPDEST POP GAS CALL SWAP3 POP POP POP DUP1 ISZERO PUSH2 0x1732 JUMPI POP PUSH1 0x1 JUMPDEST POP JUMPDEST DUP4 PUSH1 0x3 SLOAD EQ PUSH2 0x174E JUMPI PUSH1 0x4 DUP1 SLOAD PUSH1 0x1 PUSH1 0x1 PUSH1 0xB8 SHL SUB NOT AND SWAP1 SSTORE JUMPDEST POP POP POP POP POP POP POP POP JUMP JUMPDEST CALLER SWAP1 JUMP JUMPDEST PUSH1 0x40 DUP1 MLOAD PUSH1 0x1 PUSH1 0x1 PUSH1 0xA0 SHL SUB DUP5 AND PUSH1 0x24 DUP3 ADD MSTORE PUSH1 0x44 DUP1 DUP3 ADD DUP5 SWAP1 MSTORE DUP3 MLOAD DUP1 DUP4 SUB SWAP1 SWAP2 ADD DUP2 MSTORE PUSH1 0x64 SWAP1 SWAP2 ADD SWAP1 SWAP2 MSTORE PUSH1 0x20 DUP2 ADD DUP1 MLOAD PUSH1 0x1 PUSH1 0x1 PUSH1 0xE0 SHL SUB AND PUSH4 0xA9059CBB PUSH1 0xE0 SHL OR SWAP1 MSTORE PUSH2 0xC3C SWAP1 DUP5 SWAP1 PUSH1 0x0 PUSH2 0x17FE DUP3 PUSH1 0x40 MLOAD DUP1 PUSH1 0x40 ADD PUSH1 0x40 MSTORE DUP1 PUSH1 0x20 DUP2 MSTORE PUSH1 0x20 ADD PUSH32 0x5361666545524332303A206C6F772D6C6576656C2063616C6C206661696C6564 DUP2 MSTORE POP DUP6 PUSH1 0x1 PUSH1 0x1 PUSH1 0xA0 SHL SUB AND PUSH2 0x185A SWAP1 SWAP3 SWAP2 SWAP1 PUSH4 0xFFFFFFFF AND JUMP JUMPDEST DUP1 MLOAD SWAP1 SWAP2 POP ISZERO PUSH2 0xC3C JUMPI DUP1 DUP1 PUSH1 0x20 ADD SWAP1 MLOAD PUSH1 0x20 DUP2 LT ISZERO PUSH2 0x181D JUMPI PUSH1 0x0 DUP1 REVERT JUMPDEST POP MLOAD PUSH2 0xC3C JUMPI PUSH1 0x40 MLOAD PUSH3 0x461BCD PUSH1 0xE5 SHL DUP2 MSTORE PUSH1 0x4 ADD DUP1 DUP1 PUSH1 0x20 ADD DUP3 DUP2 SUB DUP3 MSTORE PUSH1 0x2A DUP2 MSTORE PUSH1 0x20 ADD DUP1 PUSH2 0x2239 PUSH1 0x2A SWAP2 CODECOPY PUSH1 0x40 ADD SWAP2 POP POP PUSH1 0x40 MLOAD DUP1 SWAP2 SUB SWAP1 REVERT JUMPDEST PUSH1 0x60 PUSH2 0x1869 DUP5 DUP5 PUSH1 0x0 DUP6 PUSH2 0x1873 JUMP JUMPDEST SWAP1 POP JUMPDEST SWAP4 SWAP3 POP POP POP JUMP JUMPDEST PUSH1 0x60 DUP3 SELFBALANCE LT ISZERO PUSH2 0x18B4 JUMPI PUSH1 0x40 MLOAD PUSH3 0x461BCD PUSH1 0xE5 SHL DUP2 MSTORE PUSH1 0x4 ADD DUP1 DUP1 PUSH1 0x20 ADD DUP3 DUP2 SUB DUP3 MSTORE PUSH1 0x26 DUP2 MSTORE PUSH1 0x20 ADD DUP1 PUSH2 0x21F3 PUSH1 0x26 SWAP2 CODECOPY PUSH1 0x40 ADD SWAP2 POP POP PUSH1 0x40 MLOAD DUP1 SWAP2 SUB SWAP1 REVERT JUMPDEST PUSH2 0x18BD DUP6 PUSH2 0x19CE JUMP JUMPDEST PUSH2 0x190E JUMPI PUSH1 0x40 DUP1 MLOAD PUSH3 0x461BCD PUSH1 0xE5 SHL DUP2 MSTORE PUSH1 0x20 PUSH1 0x4 DUP3 ADD MSTORE PUSH1 0x1D PUSH1 0x24 DUP3 ADD MSTORE PUSH32 0x416464726573733A2063616C6C20746F206E6F6E2D636F6E7472616374000000 PUSH1 0x44 DUP3 ADD MSTORE SWAP1 MLOAD SWAP1 DUP2 SWAP1 SUB PUSH1 0x64 ADD SWAP1 REVERT JUMPDEST PUSH1 0x0 DUP1 DUP7 PUSH1 0x1 PUSH1 0x1 PUSH1 0xA0 SHL SUB AND DUP6 DUP8 PUSH1 0x40 MLOAD DUP1 DUP3 DUP1 MLOAD SWAP1 PUSH1 0x20 ADD SWAP1 DUP1 DUP4 DUP4 JUMPDEST PUSH1 0x20 DUP4 LT PUSH2 0x194C JUMPI DUP1 MLOAD DUP3 MSTORE PUSH1 0x1F NOT SWAP1 SWAP3 ADD SWAP2 PUSH1 0x20 SWAP2 DUP3 ADD SWAP2 ADD PUSH2 0x192D JUMP JUMPDEST PUSH1 0x1 DUP4 PUSH1 0x20 SUB PUSH2 0x100 EXP SUB DUP1 NOT DUP3 MLOAD AND DUP2 DUP5 MLOAD AND DUP1 DUP3 OR DUP6 MSTORE POP POP POP POP POP POP SWAP1 POP ADD SWAP2 POP POP PUSH1 0x0 PUSH1 0x40 MLOAD DUP1 DUP4 SUB DUP2 DUP6 DUP8 GAS CALL SWAP3 POP POP POP RETURNDATASIZE DUP1 PUSH1 0x0 DUP2 EQ PUSH2 0x19AE JUMPI PUSH1 0x40 MLOAD SWAP2 POP PUSH1 0x1F NOT PUSH1 0x3F RETURNDATASIZE ADD AND DUP3 ADD PUSH1 0x40 MSTORE RETURNDATASIZE DUP3 MSTORE RETURNDATASIZE PUSH1 0x0 PUSH1 0x20 DUP5 ADD RETURNDATACOPY PUSH2 0x19B3 JUMP JUMPDEST PUSH1 0x60 SWAP2 POP JUMPDEST POP SWAP2 POP SWAP2 POP PUSH2 0x19C3 DUP3 DUP3 DUP7 PUSH2 0x19D8 JUMP JUMPDEST SWAP8 SWAP7 POP POP POP POP POP POP POP JUMP JUMPDEST DUP1 EXTCODESIZE ISZERO ISZERO JUMPDEST SWAP2 SWAP1 POP JUMP JUMPDEST PUSH1 0x60 DUP4 ISZERO PUSH2 0x19E7 JUMPI POP DUP2 PUSH2 0x186C JUMP JUMPDEST DUP3 MLOAD ISZERO PUSH2 0x19F7 JUMPI DUP3 MLOAD DUP1 DUP5 PUSH1 0x20 ADD REVERT JUMPDEST DUP2 PUSH1 0x40 MLOAD PUSH3 0x461BCD PUSH1 0xE5 SHL DUP2 MSTORE PUSH1 0x4 ADD DUP1 DUP1 PUSH1 0x20 ADD DUP3 DUP2 SUB DUP3 MSTORE DUP4 DUP2 DUP2 MLOAD DUP2 MSTORE PUSH1 0x20 ADD SWAP2 POP DUP1 MLOAD SWAP1 PUSH1 0x20 ADD SWAP1 DUP1 DUP4 DUP4 PUSH1 0x0 JUMPDEST DUP4 DUP2 LT ISZERO PUSH2 0x1A41 JUMPI DUP2 DUP2 ADD MLOAD DUP4 DUP3 ADD MSTORE PUSH1 0x20 ADD PUSH2 0x1A29 JUMP JUMPDEST POP POP POP POP SWAP1 POP SWAP1 DUP2 ADD SWAP1 PUSH1 0x1F AND DUP1 ISZERO PUSH2 0x1A6E JUMPI DUP1 DUP3 SUB DUP1 MLOAD PUSH1 0x1 DUP4 PUSH1 0x20 SUB PUSH2 0x100 EXP SUB NOT AND DUP2 MSTORE PUSH1 0x20 ADD SWAP2 POP JUMPDEST POP SWAP3 POP POP POP PUSH1 0x40 MLOAD DUP1 SWAP2 SUB SWAP1 REVERT JUMPDEST DUP1 MLOAD PUSH2 0xFFFF DUP2 AND DUP2 EQ PUSH2 0x19D3 JUMPI PUSH1 0x0 DUP1 REVERT JUMPDEST PUSH1 0x0 PUSH1 0x20 DUP3 DUP5 SUB SLT ISZERO PUSH2 0x1A9F JUMPI DUP1 DUP2 REVERT JUMPDEST DUP2 CALLDATALOAD PUSH2 0x186C DUP2 PUSH2 0x21B7 JUMP JUMPDEST PUSH1 0x0 PUSH1 0x20 DUP3 DUP5 SUB SLT ISZERO PUSH2 0x1ABB JUMPI DUP1 DUP2 REVERT JUMPDEST DUP2 MLOAD PUSH2 0x186C DUP2 PUSH2 0x21B7 JUMP JUMPDEST PUSH1 0x0 DUP1 PUSH1 0x40 DUP4 DUP6 SUB SLT ISZERO PUSH2 0x1AD8 JUMPI DUP1 DUP2 REVERT JUMPDEST DUP3 CALLDATALOAD PUSH2 0x1AE3 DUP2 PUSH2 0x21B7 JUMP JUMPDEST SWAP2 POP PUSH1 0x20 DUP4 ADD CALLDATALOAD PUSH2 0x1AF3 DUP2 PUSH2 0x21B7 JUMP JUMPDEST DUP1 SWAP2 POP POP SWAP3 POP SWAP3 SWAP1 POP JUMP JUMPDEST PUSH1 0x0 DUP1 PUSH1 0x0 DUP1 PUSH1 0x0 DUP1 PUSH1 0x0 PUSH1 0xE0 DUP9 DUP11 SUB SLT ISZERO PUSH2 0x1B18 JUMPI DUP3 DUP4 REVERT JUMPDEST DUP8 MLOAD PUSH2 0x1B23 DUP2 PUSH2 0x21B7 JUMP JUMPDEST DUP1 SWAP8 POP POP PUSH1 0x20 DUP9 ADD MLOAD DUP1 PUSH1 0x2 SIGNEXTEND DUP2 EQ PUSH2 0x1B3A JUMPI DUP4 DUP5 REVERT JUMPDEST SWAP6 POP PUSH2 0x1B48 PUSH1 0x40 DUP10 ADD PUSH2 0x1A7C JUMP JUMPDEST SWAP5 POP PUSH2 0x1B56 PUSH1 0x60 DUP10 ADD PUSH2 0x1A7C JUMP JUMPDEST SWAP4 POP PUSH2 0x1B64 PUSH1 0x80 DUP10 ADD PUSH2 0x1A7C JUMP JUMPDEST SWAP3 POP PUSH1 0xA0 DUP9 ADD MLOAD PUSH1 0xFF DUP2 AND DUP2 EQ PUSH2 0x1B79 JUMPI DUP3 DUP4 REVERT JUMPDEST PUSH1 0xC0 DUP10 ADD MLOAD SWAP1 SWAP3 POP DUP1 ISZERO ISZERO DUP2 EQ PUSH2 0x1B8E JUMPI DUP2 DUP3 REVERT JUMPDEST DUP1 SWAP2 POP POP SWAP3 SWAP6 SWAP9 SWAP2 SWAP5 SWAP8 POP SWAP3 SWAP6 POP JUMP JUMPDEST PUSH1 0x0 PUSH1 0x20 DUP3 DUP5 SUB SLT ISZERO PUSH2 0x1BAF JUMPI DUP1 DUP2 REVERT JUMPDEST POP CALLDATALOAD SWAP2 SWAP1 POP JUMP JUMPDEST PUSH1 0x0 PUSH1 0x20 DUP3 DUP5 SUB SLT ISZERO PUSH2 0x1BC7 JUMPI DUP1 DUP2 REVERT JUMPDEST POP MLOAD SWAP2 SWAP1 POP JUMP JUMPDEST PUSH1 0x0 DUP1 PUSH1 0x0 DUP1 PUSH1 0x80 DUP6 DUP8 SUB SLT ISZERO PUSH2 0x1BE3 JUMPI DUP4 DUP5 REVERT JUMPDEST DUP5 MLOAD SWAP4 POP PUSH1 0x20 DUP6 ADD MLOAD PUSH1 0x1 PUSH1 0x1 PUSH1 0x80 SHL SUB DUP2 AND DUP2 EQ PUSH2 0x1C00 JUMPI DUP4 DUP5 REVERT JUMPDEST PUSH1 0x40 DUP7 ADD MLOAD PUSH1 0x60 SWAP1 SWAP7 ADD MLOAD SWAP5 SWAP8 SWAP1 SWAP7 POP SWAP3 POP POP POP JUMP JUMPDEST PUSH1 0x0 DUP1 PUSH1 0x40 DUP4 DUP6 SUB SLT ISZERO PUSH2 0x1C28 JUMPI DUP2 DUP3 REVERT JUMPDEST POP POP DUP1 MLOAD PUSH1 0x20 SWAP1 SWAP2 ADD MLOAD SWAP1 SWAP3 SWAP1 SWAP2 POP JUMP JUMPDEST PUSH1 0x1 PUSH1 0x1 PUSH1 0xA0 SHL SUB AND SWAP1 MSTORE JUMP JUMPDEST PUSH1 0x2 SIGNEXTEND SWAP1 MSTORE JUMP JUMPDEST PUSH3 0xFFFFFF AND SWAP1 MSTORE JUMP JUMPDEST PUSH1 0x1 PUSH1 0x1 PUSH1 0xA0 SHL SUB SWAP2 SWAP1 SWAP2 AND DUP2 MSTORE PUSH1 0x20 ADD SWAP1 JUMP JUMPDEST PUSH1 0x1 PUSH1 0x1 PUSH1 0xA0 SHL SUB SWAP4 DUP5 AND DUP2 MSTORE SWAP2 SWAP1 SWAP3 AND PUSH1 0x20 DUP3 ADD MSTORE PUSH3 0xFFFFFF SWAP1 SWAP2 AND PUSH1 0x40 DUP3 ADD MSTORE PUSH1 0x60 ADD SWAP1 JUMP JUMPDEST SWAP1 ISZERO ISZERO DUP2 MSTORE PUSH1 0x20 ADD SWAP1 JUMP JUMPDEST SWAP4 ISZERO ISZERO DUP5 MSTORE PUSH1 0x2 SWAP3 DUP4 SIGNEXTEND PUSH1 0x20 DUP6 ADD MSTORE SWAP2 SIGNEXTEND PUSH1 0x40 DUP4 ADD MSTORE PUSH1 0x1 PUSH1 0x1 PUSH1 0x80 SHL SUB AND PUSH1 0x60 DUP3 ADD MSTORE PUSH1 0x80 ADD SWAP1 JUMP JUMPDEST PUSH1 0x2 SWAP2 SWAP1 SWAP2 SIGNEXTEND DUP2 MSTORE PUSH1 0x20 ADD SWAP1 JUMP JUMPDEST PUSH1 0x20 DUP1 DUP3 MSTORE PUSH1 0x11 SWAP1 DUP3 ADD MSTORE PUSH17 0x115512081C995CD8DD594819985A5B1959 PUSH1 0x7A SHL PUSH1 0x40 DUP3 ADD MSTORE PUSH1 0x60 ADD SWAP1 JUMP JUMPDEST PUSH1 0x20 DUP1 DUP3 MSTORE PUSH1 0x27 SWAP1 DUP3 ADD MSTORE PUSH32 0x5745544820726573637565206661696C65643A20455448207472616E73666572 PUSH1 0x40 DUP3 ADD MSTORE PUSH7 0x819985A5B1959 PUSH1 0xCA SHL PUSH1 0x60 DUP3 ADD MSTORE PUSH1 0x80 ADD SWAP1 JUMP JUMPDEST PUSH1 0x20 DUP1 DUP3 MSTORE PUSH1 0x12 SWAP1 DUP3 ADD MSTORE PUSH18 0x496E76616C6964207469636B2072616E6765 PUSH1 0x70 SHL PUSH1 0x40 DUP3 ADD MSTORE PUSH1 0x60 ADD SWAP1 JUMP JUMPDEST PUSH1 0x20 DUP1 DUP3 MSTORE PUSH1 0x19 SWAP1 DUP3 ADD MSTORE PUSH32 0x496E76616C696420726563697069656E74206164647265737300000000000000 PUSH1 0x40 DUP3 ADD MSTORE PUSH1 0x60 ADD SWAP1 JUMP JUMPDEST PUSH1 0x20 DUP1 DUP3 MSTORE PUSH1 0x15 SWAP1 DUP3 ADD MSTORE PUSH21 0x496E76616C696420746F6B656E2061646472657373 PUSH1 0x58 SHL PUSH1 0x40 DUP3 ADD MSTORE PUSH1 0x60 ADD SWAP1 JUMP JUMPDEST PUSH1 0x20 DUP1 DUP3 MSTORE PUSH1 0x15 SWAP1 DUP3 ADD MSTORE PUSH21 0x4E6F20706F736974696F6E20746F2072656D6F7665 PUSH1 0x58 SHL PUSH1 0x40 DUP3 ADD MSTORE PUSH1 0x60 ADD SWAP1 JUMP JUMPDEST PUSH1 0x20 DUP1 DUP3 MSTORE PUSH1 0x16 SWAP1 DUP3 ADD MSTORE PUSH22 0x2A34B1B59031B0B631BAB630BA34B7B71032B93937B9 PUSH1 0x51 SHL PUSH1 0x40 DUP3 ADD MSTORE PUSH1 0x60 ADD SWAP1 JUMP JUMPDEST PUSH1 0x20 DUP1 DUP3 MSTORE PUSH1 0xD SWAP1 DUP3 ADD MSTORE PUSH13 0x9AEAE6E840E6CADCC8408AA89 PUSH1 0x9B SHL PUSH1 0x40 DUP3 ADD MSTORE PUSH1 0x60 ADD SWAP1 JUMP JUMPDEST PUSH1 0x20 DUP1 DUP3 MSTORE PUSH1 0x17 SWAP1 DUP3 ADD MSTORE PUSH32 0x416D6F756E74206D75737420626520706F736974697665000000000000000000 PUSH1 0x40 DUP3 ADD MSTORE PUSH1 0x60 ADD SWAP1 JUMP JUMPDEST DUP2 MLOAD DUP2 MSTORE PUSH1 0x20 DUP1 DUP4 ADD MLOAD PUSH1 0x1 PUSH1 0x1 PUSH1 0xA0 SHL SUB AND SWAP1 DUP3 ADD MSTORE PUSH1 0x40 DUP1 DUP4 ADD MLOAD PUSH1 0x1 PUSH1 0x1 PUSH1 0x80 SHL SUB SWAP1 DUP2 AND SWAP2 DUP4 ADD SWAP2 SWAP1 SWAP2 MSTORE PUSH1 0x60 SWAP3 DUP4 ADD MLOAD AND SWAP2 DUP2 ADD SWAP2 SWAP1 SWAP2 MSTORE PUSH1 0x80 ADD SWAP1 JUMP JUMPDEST PUSH1 0x0 PUSH1 0xA0 DUP3 ADD SWAP1 POP DUP3 MLOAD DUP3 MSTORE PUSH1 0x1 PUSH1 0x1 PUSH1 0x80 SHL SUB PUSH1 0x20 DUP5 ADD MLOAD AND PUSH1 0x20 DUP4 ADD MSTORE PUSH1 0x40 DUP4 ADD MLOAD PUSH1 0x40 DUP4 ADD MSTORE PUSH1 0x60 DUP4 ADD MLOAD PUSH1 0x60 DUP4 ADD MSTORE PUSH1 0x80 DUP4 ADD MLOAD PUSH1 0x80 DUP4 ADD MSTORE SWAP3 SWAP2 POP POP JUMP JUMPDEST DUP2 MLOAD PUSH1 0x1 PUSH1 0x1 PUSH1 0xA0 SHL SUB SWAP1 DUP2 AND DUP3 MSTORE PUSH1 0x20 DUP1 DUP5 ADD MLOAD DUP3 AND SWAP1 DUP4 ADD MSTORE PUSH1 0x40 DUP1 DUP5 ADD MLOAD PUSH3 0xFFFFFF AND SWAP1 DUP4 ADD MSTORE PUSH1 0x60 DUP1 DUP5 ADD MLOAD DUP3 AND SWAP1 DUP4 ADD MSTORE PUSH1 0x80 DUP1 DUP5 ADD MLOAD SWAP1 DUP4 ADD MSTORE PUSH1 0xA0 DUP4 DUP2 ADD MLOAD SWAP1 DUP4 ADD MSTORE PUSH1 0xC0 DUP1 DUP5 ADD MLOAD SWAP1 DUP4 ADD MSTORE PUSH1 0xE0 SWAP3 DUP4 ADD MLOAD AND SWAP2 DUP2 ADD SWAP2 SWAP1 SWAP2 MSTORE PUSH2 0x100 ADD SWAP1 JUMP JUMPDEST PUSH1 0x0 PUSH2 0x160 DUP3 ADD SWAP1 POP PUSH2 0x1F99 DUP3 DUP5 MLOAD PUSH2 0x1C39 JUMP JUMPDEST PUSH1 0x20 DUP4 ADD MLOAD PUSH2 0x1FAB PUSH1 0x20 DUP5 ADD DUP3 PUSH2 0x1C39 JUMP JUMPDEST POP PUSH1 0x40 DUP4 ADD MLOAD PUSH2 0x1FBE PUSH1 0x40 DUP5 ADD DUP3 PUSH2 0x1C4D JUMP JUMPDEST POP PUSH1 0x60 DUP4 ADD MLOAD PUSH2 0x1FD1 PUSH1 0x60 DUP5 ADD DUP3 PUSH2 0x1C46 JUMP JUMPDEST POP PUSH1 0x80 DUP4 ADD MLOAD PUSH2 0x1FE4 PUSH1 0x80 DUP5 ADD DUP3 PUSH2 0x1C46 JUMP JUMPDEST POP PUSH1 0xA0 DUP4 ADD MLOAD PUSH1 0xA0 DUP4 ADD MSTORE PUSH1 0xC0 DUP4 ADD MLOAD PUSH1 0xC0 DUP4 ADD MSTORE PUSH1 0xE0 DUP4 ADD MLOAD PUSH1 0xE0 DUP4 ADD MSTORE PUSH2 0x100 DUP1 DUP5 ADD MLOAD DUP2 DUP5 ADD MSTORE POP PUSH2 0x120 DUP1 DUP5 ADD MLOAD PUSH2 0x2022 DUP3 DUP6 ADD DUP3 PUSH2 0x1C39 JUMP JUMPDEST POP POP PUSH2 0x140 SWAP3 DUP4 ADD MLOAD SWAP2 SWAP1 SWAP3 ADD MSTORE SWAP1 JUMP JUMPDEST PUSH1 0x1 PUSH1 0x1 PUSH1 0x80 SHL SUB SWAP2 SWAP1 SWAP2 AND DUP2 MSTORE PUSH1 0x20 ADD SWAP1 JUMP JUMPDEST PUSH1 0x1 PUSH1 0x1 PUSH1 0x80 SHL SUB SWAP6 SWAP1 SWAP6 AND DUP6 MSTORE PUSH1 0x2 SWAP4 DUP5 SIGNEXTEND PUSH1 0x20 DUP7 ADD MSTORE SWAP2 SWAP1 SWAP3 SIGNEXTEND PUSH1 0x40 DUP5 ADD MSTORE PUSH1 0x60 DUP4 ADD SWAP2 SWAP1 SWAP2 MSTORE PUSH1 0x80 DUP3 ADD MSTORE PUSH1 0xA0 ADD SWAP1 JUMP JUMPDEST PUSH3 0xFFFFFF SWAP2 SWAP1 SWAP2 AND DUP2 MSTORE PUSH1 0x20 ADD SWAP1 JUMP JUMPDEST SWAP1 DUP2 MSTORE PUSH1 0x20 ADD SWAP1 JUMP JUMPDEST SWAP5 DUP6 MSTORE SWAP3 ISZERO ISZERO PUSH1 0x20 DUP6 ADD MSTORE PUSH1 0x2 SWAP2 DUP3 SIGNEXTEND PUSH1 0x40 DUP6 ADD MSTORE SWAP1 SIGNEXTEND PUSH1 0x60 DUP4 ADD MSTORE PUSH1 0x1 PUSH1 0x1 PUSH1 0x80 SHL SUB AND PUSH1 0x80 DUP3 ADD MSTORE PUSH1 0xA0 ADD SWAP1 JUMP JUMPDEST SWAP6 DUP7 MSTORE PUSH1 0x1 PUSH1 0x1 PUSH1 0xA0 SHL SUB SWAP5 SWAP1 SWAP5 AND PUSH1 0x20 DUP7 ADD MSTORE PUSH1 0x2 SWAP3 DUP4 SIGNEXTEND PUSH1 0x40 DUP7 ADD MSTORE SWAP1 DUP3 SIGNEXTEND PUSH1 0x60 DUP6 ADD MSTORE SWAP1 SIGNEXTEND PUSH1 0x80 DUP4 ADD MSTORE ISZERO ISZERO PUSH1 0xA0 DUP3 ADD MSTORE PUSH1 0xC0 ADD SWAP1 JUMP JUMPDEST SWAP2 DUP3 MSTORE PUSH1 0x20 DUP3 ADD MSTORE PUSH1 0x40 ADD SWAP1 JUMP JUMPDEST PUSH1 0xE0 SHR SWAP1 JUMP JUMPDEST PUSH1 0x0 PUSH1 0x44 RETURNDATASIZE LT ISZERO PUSH2 0x2122 JUMPI PUSH2 0xD29 JUMP JUMPDEST PUSH1 0x4 DUP2 DUP3 RETURNDATACOPY PUSH4 0x8C379A0 PUSH2 0x2136 DUP3 MLOAD PUSH2 0x210C JUMP JUMPDEST EQ PUSH2 0x2140 JUMPI PUSH2 0xD29 JUMP JUMPDEST PUSH1 0x40 MLOAD RETURNDATASIZE PUSH1 0x3 NOT ADD PUSH1 0x4 DUP3 RETURNDATACOPY DUP1 MLOAD RETURNDATASIZE PUSH8 0xFFFFFFFFFFFFFFFF DUP2 PUSH1 0x24 DUP5 ADD GT DUP2 DUP5 GT OR ISZERO PUSH2 0x2170 JUMPI POP POP POP POP PUSH2 0xD29 JUMP JUMPDEST DUP3 DUP5 ADD SWAP3 POP DUP3 MLOAD SWAP2 POP DUP1 DUP3 GT ISZERO PUSH2 0x218A JUMPI POP POP POP POP PUSH2 0xD29 JUMP JUMPDEST POP RETURNDATASIZE DUP4 ADD PUSH1 0x20 DUP3 DUP5 ADD ADD GT ISZERO PUSH2 0x21A2 JUMPI POP POP POP PUSH2 0xD29 JUMP JUMPDEST PUSH1 0x1F ADD PUSH1 0x1F NOT AND DUP2 ADD PUSH1 0x20 ADD PUSH1 0x40 MSTORE SWAP2 POP POP SWAP1 JUMP JUMPDEST PUSH1 0x1 PUSH1 0x1 PUSH1 0xA0 SHL SUB DUP2 AND DUP2 EQ PUSH2 0xAAA JUMPI PUSH1 0x0 DUP1 REVERT INVALID 0x4F PUSH24 0x6E61626C653A206E6577206F776E65722069732074686520 PUSH27 0x65726F2061646472657373416464726573733A20696E7375666669 PUSH4 0x69656E74 KECCAK256 PUSH3 0x616C61 PUSH15 0x636520666F722063616C6C4F776E61 PUSH3 0x6C653A KECCAK256 PUSH4 0x616C6C65 PUSH19 0x206973206E6F7420746865206F776E65725361 PUSH7 0x6545524332303A KECCAK256 GASLIMIT MSTORE NUMBER ORIGIN ADDRESS KECCAK256 PUSH16 0x7065726174696F6E20646964206E6F74 KECCAK256 PUSH20 0x756363656564A2646970667358221220F96B0D17 0xD8 SHR 0x23 PUSH19 0x52645C2A3B59565CDA342244FDF29D11B9EC3D DUP16 BLOCKHASH SWAP16 DELEGATECALL 0x25 PUSH5 0x736F6C6343 STOP SMOD MOD STOP CALLER "},"gasEstimates":{"creation":{"codeDepositCost":"1771200","executionCost":"infinite","totalCost":"infinite"},"external":{"adjustLiquidityWithCurrentPrice()":"infinite","currentLiquidity()":"1182","currentTokenId()":"1052","factory()":"infinite","fee()":"infinite","getCurrentPosition()":"2157","hasPosition()":"1168","lowerTick()":"1134","owner()":"1116","positionManager()":"1093","renounceOwnership()":"infinite","rescueETH()":"infinite","rescueTokens(address,address)":"infinite","rescueWETH(uint256)":"infinite","swapRouter()":"1159","tickSpacing()":"1114","token0()":"infinite","token1()":"infinite","transferOwnership(address)":"infinite","upperTick()":"1156"},"internal":{"_createPosition(int24,int24)":"infinite","_removePosition()":"infinite","_swapExactInputSingle(address,address,uint256)":"infinite"}},"methodIdentifiers":{"adjustLiquidityWithCurrentPrice()":"62ca5772","currentLiquidity()":"46caf2ae","currentTokenId()":"009a9b7b","factory()":"c45a0155","fee()":"ddca3f43","getCurrentPosition()":"418f35cc","hasPosition()":"75a6a7a9","lowerTick()":"9b1344ac","owner()":"8da5cb5b","positionManager()":"791b98bc","renounceOwnership()":"715018a6","rescueETH()":"20800a00","rescueTokens(address,address)":"5431c94e","rescueWETH(uint256)":"c853c4bc","swapRouter()":"c31c9c07","tickSpacing()":"d0c93a7c","token0()":"0dfe1681","token1()":"d21220a7","transferOwnership(address)":"f2fde38b","upperTick()":"727dd228"}},"storageLayout":{"storage":[{"astId":7,"contract":"contracts/BaselineMinimal.sol:BaselineMinimal","label":"_owner","offset":0,"slot":"0","type":"t_address"},{"astId":2913,"contract":"contracts/BaselineMinimal.sol:BaselineMinimal","label":"positionManager","offset":0,"slot":"1","type":"t_contract(INonfungiblePositionManager)2618"},{"astId":2915,"contract":"contracts/BaselineMinimal.sol:BaselineMinimal","label":"swapRouter","offset":0,"slot":"2","type":"t_contract(ISwapRouter)2775"},{"astId":2923,"contract":"contracts/BaselineMinimal.sol:BaselineMinimal","label":"tickSpacing","offset":20,"slot":"2","type":"t_int24"},{"astId":2925,"contract":"contracts/BaselineMinimal.sol:BaselineMinimal","label":"currentTokenId","offset":0,"slot":"3","type":"t_uint256"},{"astId":2927,"contract":"contracts/BaselineMinimal.sol:BaselineMinimal","label":"currentLiquidity","offset":0,"slot":"4","type":"t_uint128"},{"astId":2929,"contract":"contracts/BaselineMinimal.sol:BaselineMinimal","label":"hasPosition","offset":16,"slot":"4","type":"t_bool"},{"astId":2931,"contract":"contracts/BaselineMinimal.sol:BaselineMinimal","label":"lowerTick","offset":17,"slot":"4","type":"t_int24"},{"astId":2933,"contract":"contracts/BaselineMinimal.sol:BaselineMinimal","label":"upperTick","offset":20,"slot":"4","type":"t_int24"}],"types":{"t_address":{"encoding":"inplace","label":"address","numberOfBytes":"20"},"t_bool":{"encoding":"inplace","label":"bool","numberOfBytes":"1"},"t_contract(INonfungiblePositionManager)2618":{"encoding":"inplace","label":"contract INonfungiblePositionManager","numberOfBytes":"20"},"t_contract(ISwapRouter)2775":{"encoding":"inplace","label":"contract ISwapRouter","numberOfBytes":"20"},"t_int24":{"encoding":"inplace","label":"int24","numberOfBytes":"3"},"t_uint128":{"encoding":"inplace","label":"uint128","numberOfBytes":"16"},"t_uint256":{"encoding":"inplace","label":"uint256","numberOfBytes":"32"}}},"userdoc":{"events":{"BaselineAdjustmentMetrics(uint256,uint160,int24,int24,int24,bool)":{"notice":"Emitted by the main adjustment function."},"PositionMinted(uint256,uint128,int24,int24,uint256,uint256)":{"notice":"Emitted specifically upon successful minting of a new position."},"PositionStateChanged(uint256,bool,int24,int24,uint128)":{"notice":"Emitted when the active position's state changes (created, removed, or ticks/liquidity updated)."},"TokensSwapped(uint256,uint256)":{"notice":"Emitted when tokens are swapped within the receive function."}},"kind":"user","methods":{"adjustLiquidityWithCurrentPrice()":{"notice":"Reads the current pool tick, calculates a target range, and adjusts the liquidity position if the target range differs from the current one."},"getCurrentPosition()":{"notice":"Returns the details of the currently managed liquidity position."},"rescueETH()":{"notice":"Allows the owner to withdraw any ETH held by this contract."},"rescueTokens(address,address)":{"notice":"Allows the owner to withdraw any ERC20 token from this contract."},"rescueWETH(uint256)":{"notice":"Allows the owner to withdraw WETH (token1) as ETH."}},"notice":"Minimal version of the baseline liquidity management contract, optimized for gas and tracking.","version":1}}}}