{
  "_format": "hh-sol-artifact-1",
  "contractName": "BaselineLiquidityManager",
  "sourceName": "contracts/BaselineLiquidityManager.sol",
  "abi": [
    {
      "inputs": [
        {
          "internalType": "address",
          "name": "_factory",
          "type": "address"
        },
        {
          "internalType": "address",
          "name": "_positionManager",
          "type": "address"
        },
        {
          "internalType": "address",
          "name": "_token0",
          "type": "address"
        },
        {
          "internalType": "address",
          "name": "_token1",
          "type": "address"
        },
        {
          "internalType": "uint24",
          "name": "_fee",
          "type": "uint24"
        },
        {
          "internalType": "address",
          "name": "_weth9",
          "type": "address"
        },
        {
          "internalType": "address",
          "name": "_initialOwner",
          "type": "address"
        }
      ],
      "stateMutability": "nonpayable",
      "type": "constructor"
    },
    {
      "anonymous": false,
      "inputs": [
        {
          "indexed": false,
          "internalType": "uint256",
          "name": "timestamp",
          "type": "uint256"
        },
        {
          "indexed": false,
          "internalType": "uint256",
          "name": "currentPrice",
          "type": "uint256"
        },
        {
          "indexed": false,
          "internalType": "int24",
          "name": "currentTick",
          "type": "int24"
        },
        {
          "indexed": false,
          "internalType": "int24",
          "name": "finalTickLower",
          "type": "int24"
        },
        {
          "indexed": false,
          "internalType": "int24",
          "name": "finalTickUpper",
          "type": "int24"
        },
        {
          "indexed": false,
          "internalType": "bool",
          "name": "adjusted",
          "type": "bool"
        }
      ],
      "name": "BaselineAdjustmentMetrics",
      "type": "event"
    },
    {
      "anonymous": false,
      "inputs": [
        {
          "indexed": false,
          "internalType": "string",
          "name": "operationType",
          "type": "string"
        },
        {
          "indexed": true,
          "internalType": "uint256",
          "name": "tokenId",
          "type": "uint256"
        },
        {
          "indexed": false,
          "internalType": "int24",
          "name": "tickLower",
          "type": "int24"
        },
        {
          "indexed": false,
          "internalType": "int24",
          "name": "tickUpper",
          "type": "int24"
        },
        {
          "indexed": false,
          "internalType": "uint128",
          "name": "liquidity",
          "type": "uint128"
        },
        {
          "indexed": false,
          "internalType": "uint256",
          "name": "amount0",
          "type": "uint256"
        },
        {
          "indexed": false,
          "internalType": "uint256",
          "name": "amount1",
          "type": "uint256"
        },
        {
          "indexed": false,
          "internalType": "bool",
          "name": "success",
          "type": "bool"
        }
      ],
      "name": "LiquidityOperation",
      "type": "event"
    },
    {
      "anonymous": false,
      "inputs": [
        {
          "indexed": true,
          "internalType": "address",
          "name": "previousOwner",
          "type": "address"
        },
        {
          "indexed": true,
          "internalType": "address",
          "name": "newOwner",
          "type": "address"
        }
      ],
      "name": "OwnershipTransferred",
      "type": "event"
    },
    {
      "anonymous": false,
      "inputs": [
        {
          "indexed": true,
          "internalType": "string",
          "name": "paramName",
          "type": "string"
        },
        {
          "indexed": false,
          "internalType": "uint256",
          "name": "newValue",
          "type": "uint256"
        }
      ],
      "name": "StrategyParamUpdated",
      "type": "event"
    },
    {
      "inputs": [],
      "name": "WETH9",
      "outputs": [
        {
          "internalType": "address",
          "name": "",
          "type": "address"
        }
      ],
      "stateMutability": "view",
      "type": "function"
    },
    {
      "inputs": [],
      "name": "adjustLiquidityWithCurrentPrice",
      "outputs": [],
      "stateMutability": "nonpayable",
      "type": "function"
    },
    {
      "inputs": [],
      "name": "currentPosition",
      "outputs": [
        {
          "internalType": "uint256",
          "name": "tokenId",
          "type": "uint256"
        },
        {
          "internalType": "uint128",
          "name": "liquidity",
          "type": "uint128"
        },
        {
          "internalType": "int24",
          "name": "tickLower",
          "type": "int24"
        },
        {
          "internalType": "int24",
          "name": "tickUpper",
          "type": "int24"
        },
        {
          "internalType": "bool",
          "name": "active",
          "type": "bool"
        }
      ],
      "stateMutability": "view",
      "type": "function"
    },
    {
      "inputs": [],
      "name": "factory",
      "outputs": [
        {
          "internalType": "contract IUniswapV3Factory",
          "name": "",
          "type": "address"
        }
      ],
      "stateMutability": "view",
      "type": "function"
    },
    {
      "inputs": [],
      "name": "fee",
      "outputs": [
        {
          "internalType": "uint24",
          "name": "",
          "type": "uint24"
        }
      ],
      "stateMutability": "view",
      "type": "function"
    },
    {
      "inputs": [],
      "name": "getActivePositionDetails",
      "outputs": [
        {
          "internalType": "uint256",
          "name": "tokenId",
          "type": "uint256"
        },
        {
          "internalType": "uint128",
          "name": "liquidity",
          "type": "uint128"
        },
        {
          "internalType": "int24",
          "name": "tickLower",
          "type": "int24"
        },
        {
          "internalType": "int24",
          "name": "tickUpper",
          "type": "int24"
        },
        {
          "internalType": "bool",
          "name": "active",
          "type": "bool"
        }
      ],
      "stateMutability": "view",
      "type": "function"
    },
    {
      "inputs": [],
      "name": "getContractBalances",
      "outputs": [
        {
          "internalType": "uint256",
          "name": "balance0",
          "type": "uint256"
        },
        {
          "internalType": "uint256",
          "name": "balance1",
          "type": "uint256"
        },
        {
          "internalType": "uint256",
          "name": "balanceWETH",
          "type": "uint256"
        }
      ],
      "stateMutability": "view",
      "type": "function"
    },
    {
      "inputs": [],
      "name": "getCurrentPrice",
      "outputs": [
        {
          "internalType": "uint256",
          "name": "priceDecimal",
          "type": "uint256"
        }
      ],
      "stateMutability": "view",
      "type": "function"
    },
    {
      "inputs": [],
      "name": "getPoolAddress",
      "outputs": [
        {
          "internalType": "address",
          "name": "",
          "type": "address"
        }
      ],
      "stateMutability": "view",
      "type": "function"
    },
    {
      "inputs": [],
      "name": "owner",
      "outputs": [
        {
          "internalType": "address",
          "name": "",
          "type": "address"
        }
      ],
      "stateMutability": "view",
      "type": "function"
    },
    {
      "inputs": [],
      "name": "positionManager",
      "outputs": [
        {
          "internalType": "contract INonfungiblePositionManager",
          "name": "",
          "type": "address"
        }
      ],
      "stateMutability": "view",
      "type": "function"
    },
    {
      "inputs": [],
      "name": "rangeWidthMultiplier",
      "outputs": [
        {
          "internalType": "uint24",
          "name": "",
          "type": "uint24"
        }
      ],
      "stateMutability": "view",
      "type": "function"
    },
    {
      "inputs": [],
      "name": "renounceOwnership",
      "outputs": [],
      "stateMutability": "nonpayable",
      "type": "function"
    },
    {
      "inputs": [
        {
          "internalType": "uint24",
          "name": "_multiplier",
          "type": "uint24"
        }
      ],
      "name": "setRangeWidthMultiplier",
      "outputs": [],
      "stateMutability": "nonpayable",
      "type": "function"
    },
    {
      "inputs": [],
      "name": "tickSpacing",
      "outputs": [
        {
          "internalType": "int24",
          "name": "",
          "type": "int24"
        }
      ],
      "stateMutability": "view",
      "type": "function"
    },
    {
      "inputs": [],
      "name": "token0",
      "outputs": [
        {
          "internalType": "address",
          "name": "",
          "type": "address"
        }
      ],
      "stateMutability": "view",
      "type": "function"
    },
    {
      "inputs": [],
      "name": "token0Decimals",
      "outputs": [
        {
          "internalType": "uint8",
          "name": "",
          "type": "uint8"
        }
      ],
      "stateMutability": "view",
      "type": "function"
    },
    {
      "inputs": [],
      "name": "token1",
      "outputs": [
        {
          "internalType": "address",
          "name": "",
          "type": "address"
        }
      ],
      "stateMutability": "view",
      "type": "function"
    },
    {
      "inputs": [],
      "name": "token1Decimals",
      "outputs": [
        {
          "internalType": "uint8",
          "name": "",
          "type": "uint8"
        }
      ],
      "stateMutability": "view",
      "type": "function"
    },
    {
      "inputs": [
        {
          "internalType": "address",
          "name": "newOwner",
          "type": "address"
        }
      ],
      "name": "transferOwnership",
      "outputs": [],
      "stateMutability": "nonpayable",
      "type": "function"
    },
    {
      "inputs": [
        {
          "internalType": "uint256",
          "name": "amount0Owed",
          "type": "uint256"
        },
        {
          "internalType": "uint256",
          "name": "amount1Owed",
          "type": "uint256"
        },
        {
          "internalType": "bytes",
          "name": "",
          "type": "bytes"
        }
      ],
      "name": "uniswapV3MintCallback",
      "outputs": [],
      "stateMutability": "nonpayable",
      "type": "function"
    },
    {
      "stateMutability": "payable",
      "type": "receive"
    }
  ],
  "bytecode": "0x6101a06040526004805462ffffff1916811790553480156200002057600080fd5b50604051620039c5380380620039c5833981016040819052620000439162000932565b60006200004f620003ca565b600080546001600160a01b0319166001600160a01b03831690811782556040519293509160008051602062003945833981519152908290a350600180556001600160601b0319606088811b821660805287811b821660a05286811b821660c05285811b821660e0526001600160e81b031960e886901b166101405283901b16610180526040805163313ce56760e01b815290516001600160a01b0387169163313ce567916004808301926020929190829003018186803b1580156200011357600080fd5b505afa92505050801562000146575060408051601f3d908101601f191682019092526200014391810190620009f1565b60015b6200016e5760405162461bcd60e51b8152600401620001659062000ab5565b60405180910390fd5b6001600160f81b031960f89190911b1661010052836001600160a01b031663313ce5676040518163ffffffff1660e01b815260040160206040518083038186803b158015620001bc57600080fd5b505afa925050508015620001ef575060408051601f3d908101601f19168201909252620001ec91810190620009f1565b60015b6200020e5760405162461bcd60e51b8152600401620001659062000a3c565b60f81b6001600160f81b03191661012052604051630b4c774160e11b81526000906001600160a01b03891690631698ee8290620002549089908990899060040162000a14565b60206040518083038186803b1580156200026d57600080fd5b505afa15801562000282573d6000803e3d6000fd5b505050506040513d601f19601f82011682018060405250810190620002a8919062000915565b90506001600160a01b038116620002d35760405162461bcd60e51b8152600401620001659062000a7e565b806001600160a01b031663d0c93a7c6040518163ffffffff1660e01b815260040160206040518083038186803b1580156200030d57600080fd5b505afa15801562000322573d6000803e3d6000fd5b505050506040513d601f19601f82011682018060405250810190620003489190620009ce565b600290810b900b60e81b610160526200037a6001600160a01b03871688600019620003ce602090811b62000f4117901c565b620003a187600019876001600160a01b0316620003ce60201b62000f41179092919060201c565b6001600160a01b03821615620003bc57620003bc82620004f2565b505050505050505062000af7565b3390565b80158062000458575060408051636eb1769f60e11b81523060048201526001600160a01b03848116602483015291519185169163dd62ed3e91604480820192602092909190829003018186803b1580156200042857600080fd5b505afa1580156200043d573d6000803e3d6000fd5b505050506040513d60208110156200045457600080fd5b5051155b620004955760405162461bcd60e51b81526004018080602001828103825260368152602001806200398f6036913960400191505060405180910390fd5b604080516001600160a01b038416602482015260448082018490528251808303909101815260649091019091526020810180516001600160e01b0390811663095ea7b360e01b17909152620004ed918591620005fc16565b505050565b620004fc620003ca565b6001600160a01b03166200050f620006b8565b6001600160a01b0316146200056b576040805162461bcd60e51b815260206004820181905260248201527f4f776e61626c653a2063616c6c6572206973206e6f7420746865206f776e6572604482015290519081900360640190fd5b6001600160a01b038116620005b25760405162461bcd60e51b8152600401808060200182810382526026815260200180620038f96026913960400191505060405180910390fd5b600080546040516001600160a01b03808516939216916000805160206200394583398151915291a3600080546001600160a01b0319166001600160a01b0392909216919091179055565b600062000658826040518060400160405280602081526020017f5361666545524332303a206c6f772d6c6576656c2063616c6c206661696c6564815250856001600160a01b0316620006c760201b62001059179092919060201c565b805190915015620004ed578080602001905160208110156200067957600080fd5b5051620004ed5760405162461bcd60e51b815260040180806020018281038252602a81526020018062003965602a913960400191505060405180910390fd5b6000546001600160a01b031690565b6060620006d88484600085620006e2565b90505b9392505050565b606082471015620007255760405162461bcd60e51b81526004018080602001828103825260268152602001806200391f6026913960400191505060405180910390fd5b620007308562000849565b62000782576040805162461bcd60e51b815260206004820152601d60248201527f416464726573733a2063616c6c20746f206e6f6e2d636f6e7472616374000000604482015290519081900360640190fd5b600080866001600160a01b031685876040518082805190602001908083835b60208310620007c25780518252601f199092019160209182019101620007a1565b6001836020036101000a03801982511681845116808217855250505050505090500191505060006040518083038185875af1925050503d806000811462000826576040519150601f19603f3d011682016040523d82523d6000602084013e6200082b565b606091505b5090925090506200083e82828662000853565b979650505050505050565b803b15155b919050565b6060831562000864575081620006db565b825115620008755782518084602001fd5b8160405162461bcd60e51b81526004018080602001828103825283818151815260200191508051906020019080838360005b83811015620008c1578181015183820152602001620008a7565b50505050905090810190601f168015620008ef5780820380516001836020036101000a031916815260200191505b509250505060405180910390fd5b80516001600160a01b03811681146200084e57600080fd5b60006020828403121562000927578081fd5b620006db82620008fd565b600080600080600080600060e0888a0312156200094d578283fd5b6200095888620008fd565b96506200096860208901620008fd565b95506200097860408901620008fd565b94506200098860608901620008fd565b9350608088015162ffffff81168114620009a0578384fd5b9250620009b060a08901620008fd565b9150620009c060c08901620008fd565b905092959891949750929550565b600060208284031215620009e0578081fd5b81518060020b8114620006db578182fd5b60006020828403121562000a03578081fd5b815160ff81168114620006db578182fd5b6001600160a01b03938416815291909216602082015262ffffff909116604082015260600190565b60208082526022908201527f546f6b656e3120646f6573206e6f7420737570706f727420646563696d616c73604082015261282960f01b606082015260800190565b60208082526013908201527f506f6f6c20646f6573206e6f7420657869737400000000000000000000000000604082015260600190565b60208082526022908201527f546f6b656e3020646f6573206e6f7420737570706f727420646563696d616c73604082015261282960f01b606082015260800190565b60805160601c60a05160601c60c05160601c60e05160601c6101005160f81c6101205160f81c6101405160e81c6101605160e81c6101805160601c612c8a62000c6f600039806104fd5280610e6b5280610eb55250806107415280611730528061177f52806117b252806117de528061180a528061183f528061188252806118c552806118fa5280611935528061195d5250806108125280610ade5280610caa52806112435280611ec252508061038d528061139b5280611414528061147052806114a25250806106f952806113be52806113f0528061144c52806114c652508061076552806107f052806109c95280610a795280610c885280610de252806112225280611a485280611e935250806103b152806107ce52806108d352806109835280610c665280610d2e528061120152806119bd5280611e645250806106c65280611f905280612069528061211052806121a4528061232452508061071d52806107a15280610c3952806111d25250612c8a6000f3fe60806040526004361061012e5760003560e01c8063b31ac6e2116100ab578063d534d6361161006f578063d534d636146102db578063ddca3f43146102f0578063eb91d37e14610305578063f2fde38b14610327578063f586c6d914610347578063ffd2a7d31461035c57610135565b8063b31ac6e21461025a578063c45a01551461026f578063d0c93a7c14610284578063d21220a7146102a6578063d3487997146102bb57610135565b80634aa4a4fc116100f25780634aa4a4fc146101f157806362ca577214610206578063715018a61461021b578063791b98bc146102305780638da5cb5b1461024557610135565b806301d31e7c1461013a5780630b77884d146101655780630dfe1681146101875780631ee0b02e146101a9578063479c2e76146101cb57610135565b3661013557005b600080fd5b34801561014657600080fd5b5061014f610380565b60405161015c9190612aaf565b60405180910390f35b34801561017157600080fd5b5061017a61038b565b60405161015c9190612b41565b34801561019357600080fd5b5061019c6103af565b60405161015c91906126b3565b3480156101b557600080fd5b506101c96101c4366004612555565b6103d3565b005b3480156101d757600080fd5b506101e06104c4565b60405161015c959493929190612ac8565b3480156101fd57600080fd5b5061019c6104fb565b34801561021257600080fd5b506101c961051f565b34801561022757600080fd5b506101c9610618565b34801561023c57600080fd5b5061019c6106c4565b34801561025157600080fd5b5061019c6106e8565b34801561026657600080fd5b5061017a6106f7565b34801561027b57600080fd5b5061019c61071b565b34801561029057600080fd5b5061029961073f565b60405161015c91906126ef565b3480156102b257600080fd5b5061019c610763565b3480156102c757600080fd5b506101c96102d63660046125fb565b610787565b3480156102e757600080fd5b506101e0610aa7565b3480156102fc57600080fd5b5061014f610adc565b34801561031157600080fd5b5061031a610b00565b60405161015c9190612abf565b34801561033357600080fd5b506101c961034236600461247d565b610b1d565b34801561035357600080fd5b5061019c610c1f565b34801561036857600080fd5b50610371610d27565b60405161015c93929190612b2b565b60045462ffffff1681565b7f000000000000000000000000000000000000000000000000000000000000000081565b7f000000000000000000000000000000000000000000000000000000000000000081565b6103db611072565b6001600160a01b03166103ec6106e8565b6001600160a01b031614610435576040805162461bcd60e51b81526020600482018190526024820152600080516020612bd5833981519152604482015290519081900360640190fd5b60008162ffffff16116104635760405162461bcd60e51b815260040161045a906128b7565b60405180910390fd5b6004805462ffffff191662ffffff831617905560405161048290612693565b60405180910390207f22a7b700c7155ab4252833eee76474bc7531e6598483ae76eb278df86f084c0c826040516104b99190612aaf565b60405180910390a250565b6002805460035490926001600160801b03821692600160801b8304810b92600160981b810490910b91600160b01b90910460ff1690565b7f000000000000000000000000000000000000000000000000000000000000000081565b60026001541415610577576040805162461bcd60e51b815260206004820152601f60248201527f5265656e7472616e637947756172643a207265656e7472616e742063616c6c00604482015290519081900360640190fd5b6002600155610584611072565b6001600160a01b03166105956106e8565b6001600160a01b0316146105de576040805162461bcd60e51b81526020600482018190526024820152600080516020612bd5833981519152604482015290519081900360640190fd5b6000806000806105ec611076565b9350935093509350600061060083836110af565b905061060d85858361111b565b505060018055505050565b610620611072565b6001600160a01b03166106316106e8565b6001600160a01b03161461067a576040805162461bcd60e51b81526020600482018190526024820152600080516020612bd5833981519152604482015290519081900360640190fd5b600080546040516001600160a01b03909116907f8be0079c531659141344cd1fd0a4f28419497f9722a3daafe3b4186f6b6457e0908390a3600080546001600160a01b0319169055565b7f000000000000000000000000000000000000000000000000000000000000000081565b6000546001600160a01b031690565b7f000000000000000000000000000000000000000000000000000000000000000081565b7f000000000000000000000000000000000000000000000000000000000000000081565b7f000000000000000000000000000000000000000000000000000000000000000081565b7f000000000000000000000000000000000000000000000000000000000000000081565b604051630b4c774160e11b81526000906001600160a01b037f00000000000000000000000000000000000000000000000000000000000000001690631698ee829061083a907f0000000000000000000000000000000000000000000000000000000000000000907f0000000000000000000000000000000000000000000000000000000000000000907f0000000000000000000000000000000000000000000000000000000000000000906004016126c7565b60206040518083038186803b15801561085257600080fd5b505afa158015610866573d6000803e3d6000fd5b505050506040513d601f19601f8201168201806040525081019061088a9190612499565b9050336001600160a01b038216146108b45760405162461bcd60e51b815260040161045a9061276b565b84156109aa576040516370a0823160e01b815285906001600160a01b037f000000000000000000000000000000000000000000000000000000000000000016906370a08231906109089030906004016126b3565b60206040518083038186803b15801561092057600080fd5b505afa158015610934573d6000803e3d6000fd5b505050506040513d601f19601f820116820180604052508101906109589190612578565b10156109765760405162461bcd60e51b815260040161045a906126fd565b6109aa6001600160a01b037f0000000000000000000000000000000000000000000000000000000000000000163387611179565b8315610aa0576040516370a0823160e01b815284906001600160a01b037f000000000000000000000000000000000000000000000000000000000000000016906370a08231906109fe9030906004016126b3565b60206040518083038186803b158015610a1657600080fd5b505afa158015610a2a573d6000803e3d6000fd5b505050506040513d601f19601f82011682018060405250810190610a4e9190612578565b1015610a6c5760405162461bcd60e51b815260040161045a906127a2565b610aa06001600160a01b037f0000000000000000000000000000000000000000000000000000000000000000163386611179565b5050505050565b6002805460035490916001600160801b03821691600160801b8104820b91600160981b8204900b90600160b01b900460ff1685565b7f000000000000000000000000000000000000000000000000000000000000000081565b600080610b0b6111cb565b509050610b1781611379565b91505090565b610b25611072565b6001600160a01b0316610b366106e8565b6001600160a01b031614610b7f576040805162461bcd60e51b81526020600482018190526024820152600080516020612bd5833981519152604482015290519081900360640190fd5b6001600160a01b038116610bc45760405162461bcd60e51b8152600401808060200182810382526026815260200180612b686026913960400191505060405180910390fd5b600080546040516001600160a01b03808516939216917f8be0079c531659141344cd1fd0a4f28419497f9722a3daafe3b4186f6b6457e091a3600080546001600160a01b0319166001600160a01b0392909216919091179055565b604051630b4c774160e11b81526000906001600160a01b037f00000000000000000000000000000000000000000000000000000000000000001690631698ee8290610cd2907f0000000000000000000000000000000000000000000000000000000000000000907f0000000000000000000000000000000000000000000000000000000000000000907f0000000000000000000000000000000000000000000000000000000000000000906004016126c7565b60206040518083038186803b158015610cea57600080fd5b505afa158015610cfe573d6000803e3d6000fd5b505050506040513d601f19601f82011682018060405250810190610d229190612499565b905090565b60008060007f00000000000000000000000000000000000000000000000000000000000000006001600160a01b03166370a08231306040518263ffffffff1660e01b8152600401610d7891906126b3565b60206040518083038186803b158015610d9057600080fd5b505afa158015610da4573d6000803e3d6000fd5b505050506040513d601f19601f82011682018060405250810190610dc89190612578565b6040516370a0823160e01b81529093506001600160a01b037f000000000000000000000000000000000000000000000000000000000000000016906370a0823190610e179030906004016126b3565b60206040518083038186803b158015610e2f57600080fd5b505afa158015610e43573d6000803e3d6000fd5b505050506040513d601f19601f82011682018060405250810190610e679190612578565b91507f00000000000000000000000000000000000000000000000000000000000000006001600160a01b0316610e9e576000610f3a565b6040516370a0823160e01b81526001600160a01b037f000000000000000000000000000000000000000000000000000000000000000016906370a0823190610eea9030906004016126b3565b60206040518083038186803b158015610f0257600080fd5b505afa158015610f16573d6000803e3d6000fd5b505050506040513d601f19601f82011682018060405250810190610f3a9190612578565b9050909192565b801580610fc7575060408051636eb1769f60e11b81523060048201526001600160a01b03848116602483015291519185169163dd62ed3e91604480820192602092909190829003018186803b158015610f9957600080fd5b505afa158015610fad573d6000803e3d6000fd5b505050506040513d6020811015610fc357600080fd5b5051155b6110025760405162461bcd60e51b8152600401808060200182810382526036815260200180612c1f6036913960400191505060405180910390fd5b604080516001600160a01b038416602482015260448082018490528251808303909101815260649091019091526020810180516001600160e01b031663095ea7b360e01b17905261105490849061151d565b505050565b606061106884846000856115ce565b90505b9392505050565b3390565b6000806000806000806110876111cb565b9550915084905061109782611379565b95506110a285611729565b9094509250505090919293565b600354600090600160b01b900460ff1615806110dd5750600354600284810b600160801b909204810b900b14155b806110fa5750600354600283810b600160981b909204810b900b14155b15611111576111098383611989565b506001611115565b5060005b92915050565b6003546040517f15f744a7d97f7abd1bc7398cb3f55bb78b9dd63011770e854d31d8d846f13ef39161116c91429187918791600160801b8104600290810b92600160981b909204900b908890612afa565b60405180910390a1505050565b604080516001600160a01b038416602482015260448082018490528251808303909101815260649091019091526020810180516001600160e01b031663a9059cbb60e01b17905261105490849061151d565b60008060007f00000000000000000000000000000000000000000000000000000000000000006001600160a01b0316631698ee827f00000000000000000000000000000000000000000000000000000000000000007f00000000000000000000000000000000000000000000000000000000000000007f00000000000000000000000000000000000000000000000000000000000000006040518463ffffffff1660e01b8152600401611280939291906126c7565b60206040518083038186803b15801561129857600080fd5b505afa1580156112ac573d6000803e3d6000fd5b505050506040513d601f19601f820116820180604052508101906112d09190612499565b90506001600160a01b0381166112f85760405162461bcd60e51b815260040161045a9061285d565b806001600160a01b0316633850c7bd6040518163ffffffff1660e01b815260040160e06040518083038186803b15801561133157600080fd5b505afa158015611345573d6000803e3d6000fd5b505050506040513d601f19601f8201168201806040525081019061136991906124b5565b5094989397509295505050505050565b60008061138f6001600160a01b03841680611b4c565b905080600160c01b60ff7f000000000000000000000000000000000000000000000000000000000000000081167f0000000000000000000000000000000000000000000000000000000000000000909116111561144a5761144361143960ff7f00000000000000000000000000000000000000000000000000000000000000008116907f000000000000000000000000000000000000000000000000000000000000000016611ba5565b8390600a0a611b4c565b91506114f8565b7f000000000000000000000000000000000000000000000000000000000000000060ff167f000000000000000000000000000000000000000000000000000000000000000060ff1611156114f8576114f56114eb60ff7f00000000000000000000000000000000000000000000000000000000000000008116907f000000000000000000000000000000000000000000000000000000000000000016611ba5565b8290600a0a611b4c565b90505b6115148161150e84670de0b6b3a7640000611b4c565b90611c02565b95945050505050565b6000611572826040518060400160405280602081526020017f5361666545524332303a206c6f772d6c6576656c2063616c6c206661696c6564815250856001600160a01b03166110599092919063ffffffff16565b8051909150156110545780806020019051602081101561159157600080fd5b50516110545760405162461bcd60e51b815260040180806020018281038252602a815260200180612bf5602a913960400191505060405180910390fd5b60608247101561160f5760405162461bcd60e51b8152600401808060200182810382526026815260200180612b8e6026913960400191505060405180910390fd5b61161885611c69565b611669576040805162461bcd60e51b815260206004820152601d60248201527f416464726573733a2063616c6c20746f206e6f6e2d636f6e7472616374000000604482015290519081900360640190fd5b600080866001600160a01b031685876040518082805190602001908083835b602083106116a75780518252601f199092019160209182019101611688565b6001836020036101000a03801982511681845116808217855250505050505090500191505060006040518083038185875af1925050503d8060008114611709576040519150601f19603f3d011682016040523d82523d6000602084013e61170e565b606091505b509150915061171e828286611c73565b979650505050505050565b60008060007f000000000000000000000000000000000000000000000000000000000000000060020b1361176f5760405162461bcd60e51b815260040161045a90612889565b60045460009060029062ffffff167f000000000000000000000000000000000000000000000000000000000000000002810b05905060008160020b136117d257507f00000000000000000000000000000000000000000000000000000000000000005b808403848201611802827f0000000000000000000000000000000000000000000000000000000000000000611d17565b945061182e817f0000000000000000000000000000000000000000000000000000000000000000611d17565b93508360020b8560020b12611863577f0000000000000000000000000000000000000000000000000000000000000000850193505b620d89e719600286900b1261187857846118a6565b6118a6620d89e7197f0000000000000000000000000000000000000000000000000000000000000000611d17565b9450620d89e8600285900b136118bc57836118e9565b6118e9620d89e87f0000000000000000000000000000000000000000000000000000000000000000611d17565b93508360020b8560020b12611981577f000000000000000000000000000000000000000000000000000000000000000085019350620d89e8600285900b131561198157611959620d89e87f0000000000000000000000000000000000000000000000000000000000000000611d17565b93507f0000000000000000000000000000000000000000000000000000000000000000840394505b505050915091565b600354600160b01b900460ff16156119a3576119a3611d86565b6040516370a0823160e01b81526000906001600160a01b037f000000000000000000000000000000000000000000000000000000000000000016906370a08231906119f29030906004016126b3565b60206040518083038186803b158015611a0a57600080fd5b505afa158015611a1e573d6000803e3d6000fd5b505050506040513d601f19601f82011682018060405250810190611a429190612578565b905060007f00000000000000000000000000000000000000000000000000000000000000006001600160a01b03166370a08231306040518263ffffffff1660e01b8152600401611a9291906126b3565b60206040518083038186803b158015611aaa57600080fd5b505afa158015611abe573d6000803e3d6000fd5b505050506040513d601f19601f82011682018060405250810190611ae29190612578565b90506000821180611af35750600081115b15611b0957611b0484848484611e2a565b611b46565b6040805160a08101825260008082526020820181905291810182905260608101829052608001819052600255600380546001600160b81b03191690555b50505050565b600082611b5b57506000611115565b82820282848281611b6857fe5b041461106b5760405162461bcd60e51b8152600401808060200182810382526021815260200180612bb46021913960400191505060405180910390fd5b600082821115611bfc576040805162461bcd60e51b815260206004820152601e60248201527f536166654d6174683a207375627472616374696f6e206f766572666c6f770000604482015290519081900360640190fd5b50900390565b6000808211611c58576040805162461bcd60e51b815260206004820152601a60248201527f536166654d6174683a206469766973696f6e206279207a65726f000000000000604482015290519081900360640190fd5b818381611c6157fe5b049392505050565b803b15155b919050565b60608315611c8257508161106b565b825115611c925782518084602001fd5b8160405162461bcd60e51b81526004018080602001828103825283818151815260200191508051906020019080838360005b83811015611cdc578181015183820152602001611cc4565b50505050905090810190601f168015611d095780820380516001836020036101000a031916815260200191505b509250505060405180910390fd5b6000808260020b13611d3b5760405162461bcd60e51b815260040161045a906128ee565b60008260020b8460020b81611d4c57fe5b05905060008460020b128015611d7357508260020b8460020b81611d6c57fe5b0760020b15155b15611d7d57600019015b90910292915050565b600354600160b01b900460ff168015611da0575060025415155b611dbc5760405162461bcd60e51b815260040161045a906127d9565b60028054600380546040805160a0810182526000808252602082018190529181018290526060810182905260800181905284556001600160b81b0319811690915590916001600160801b03821691600160801b8104820b91600160981b909104900b611b4684848484611f37565b600354600160b01b900460ff1615611e545760405162461bcd60e51b815260040161045a90612734565b60006040518061016001604052807f00000000000000000000000000000000000000000000000000000000000000006001600160a01b031681526020017f00000000000000000000000000000000000000000000000000000000000000006001600160a01b031681526020017f000000000000000000000000000000000000000000000000000000000000000062ffffff1681526020018660020b81526020018560020b81526020018481526020018381526020016000815260200160008152602001306001600160a01b03168152602001428152509050610aa081868661219a565b60008080806001600160801b03871615612022576040805160a0810182528981526001600160801b0389166020820152600081830181905260608201524260808201529051630624e65f60e11b81526001600160a01b037f00000000000000000000000000000000000000000000000000000000000000001691630c49ccbe91611fc491906004016129be565b6040805180830381600087803b158015611fdd57600080fd5b505af192505050801561200d575060408051601f3d908101601f1916820190925261200a918101906125d8565b60015b6120165761201d565b5050600193505b612027565b600193505b831561217257604080516080810182528981523060208201526001600160801b038183018190526060820152905163fc6f786560e01b81526001600160a01b037f0000000000000000000000000000000000000000000000000000000000000000169163fc6f78659161209d919060040161297b565b6040805180830381600087803b1580156120b657600080fd5b505af19250505080156120e6575060408051601f3d908101601f191682019092526120e3918101906125d8565b60015b6120ef576120f9565b6001945090925090505b604051630852cd8d60e31b81526001600160a01b037f000000000000000000000000000000000000000000000000000000000000000016906342966c6890612145908b90600401612abf565b600060405180830381600087803b15801561215f57600080fd5b505af1925050508015612170575060015b505b600084801561217e5750835b905061218f8988888b8787876123e6565b505050505050505050565b60008060008060007f00000000000000000000000000000000000000000000000000000000000000006001600160a01b03166388316456896040518263ffffffff1660e01b81526004016121ee9190612a01565b608060405180830381600087803b15801561220857600080fd5b505af1925050508015612238575060408051601f3d908101601f1916820190925261223591810190612590565b60015b6122415761238b565b8398508297508196508095506000886001600160801b03161115612307576040805160a0810182528a81526001600160801b038a166020820181905260028e810b9383018490528d810b60608401819052600160809094018490528d825560038054600160b01b6fffffffffffffffffffffffffffffffff1990911690941762ffffff60801b1916600160801b96840b62ffffff908116979097021762ffffff60981b1916600160981b9290930b95909516021760ff60b01b1916179091559450612386565b881561238657604051630852cd8d60e31b81526001600160a01b037f000000000000000000000000000000000000000000000000000000000000000016906342966c6890612359908c90600401612abf565b600060405180830381600087803b15801561237357600080fd5b505af1925050508015612384575060015b505b505050505b61239a85888887878787612431565b806123dc576040805160a08101825260008082526020820181905291810182905260608101829052608001819052600255600380546001600160b81b03191690555b5050505050505050565b867fdee9c9ac7e4f2757956dfcf228dc427442ec0a77c0020754a5d9c3b2583d9a1487878787878760405161242096959493929190612805565b60405180910390a250505050505050565b867fdee9c9ac7e4f2757956dfcf228dc427442ec0a77c0020754a5d9c3b2583d9a1487878787878760405161242096959493929190612925565b805161ffff81168114611c6e57600080fd5b60006020828403121561248e578081fd5b813561106b81612b4f565b6000602082840312156124aa578081fd5b815161106b81612b4f565b600080600080600080600060e0888a0312156124cf578283fd5b87516124da81612b4f565b8097505060208801518060020b81146124f1578384fd5b95506124ff6040890161246b565b945061250d6060890161246b565b935061251b6080890161246b565b925060a088015160ff81168114612530578283fd5b60c08901519092508015158114612545578182fd5b8091505092959891949750929550565b600060208284031215612566578081fd5b813562ffffff8116811461106b578182fd5b600060208284031215612589578081fd5b5051919050565b600080600080608085870312156125a5578384fd5b8451935060208501516001600160801b03811681146125c2578384fd5b6040860151606090960151949790965092505050565b600080604083850312156125ea578182fd5b505080516020909101519092909150565b60008060008060608587031215612610578384fd5b8435935060208501359250604085013567ffffffffffffffff80821115612635578384fd5b818701915087601f830112612648578384fd5b813581811115612656578485fd5b886020828501011115612667578485fd5b95989497505060200194505050565b6001600160a01b03169052565b60020b9052565b62ffffff169052565b733930b733b2abb4b23a3426bab63a34b83634b2b960611b815260140190565b6001600160a01b0391909116815260200190565b6001600160a01b03938416815291909216602082015262ffffff909116604082015260600190565b60029190910b815260200190565b6020808252601c908201527f496e73756666696369656e7420543020666f722063616c6c6261636b00000000604082015260600190565b60208082526017908201527f506f736974696f6e20616c726561647920616374697665000000000000000000604082015260600190565b60208082526017908201527f43616c6c6261636b2073656e64657220696e76616c6964000000000000000000604082015260600190565b6020808252601c908201527f496e73756666696369656e7420543120666f722063616c6c6261636b00000000604082015260600190565b60208082526012908201527127379030b1ba34bb32903837b9b4ba34b7b760711b604082015260600190565b60e08082526006908201526552454d4f564560d01b610100820152600296870b60208201529490950b60408501526001600160801b03929092166060840152608083015260a082015290151560c08201526101200190565b602080825260129082015271141bdbdb08191bd95cdb89dd08195e1a5cdd60721b604082015260600190565b602080825260149082015273496e76616c6964207469636b2073706163696e6760601b604082015260600190565b6020808252601b908201527f4d756c7469706c696572206d75737420626520706f7369746976650000000000604082015260600190565b6020808252601d908201527f5469636b2073706163696e67206d75737420626520706f736974697665000000604082015260600190565b60e0808252600490820152631352539560e21b610100820152600296870b60208201529490950b60408501526001600160801b03929092166060840152608083015260a082015290151560c08201526101200190565b815181526020808301516001600160a01b0316908201526040808301516001600160801b0390811691830191909152606092830151169181019190915260800190565b600060a082019050825182526001600160801b03602084015116602083015260408301516040830152606083015160608301526080830151608083015292915050565b600061016082019050612a15828451612676565b6020830151612a276020840182612676565b506040830151612a3a604084018261268a565b506060830151612a4d6060840182612683565b506080830151612a606080840182612683565b5060a083015160a083015260c083015160c083015260e083015160e083015261010080840151818401525061012080840151612a9e82850182612676565b505061014092830151919092015290565b62ffffff91909116815260200190565b90815260200190565b9485526001600160801b03939093166020850152600291820b6040850152900b60608301521515608082015260a00190565b9586526020860194909452600292830b604086015290820b6060850152900b6080830152151560a082015260c00190565b9283526020830191909152604082015260600190565b60ff91909116815260200190565b6001600160a01b0381168114612b6457600080fd5b5056fe4f776e61626c653a206e6577206f776e657220697320746865207a65726f2061646472657373416464726573733a20696e73756666696369656e742062616c616e636520666f722063616c6c536166654d6174683a206d756c7469706c69636174696f6e206f766572666c6f774f776e61626c653a2063616c6c6572206973206e6f7420746865206f776e65725361666545524332303a204552433230206f7065726174696f6e20646964206e6f7420737563636565645361666545524332303a20617070726f76652066726f6d206e6f6e2d7a65726f20746f206e6f6e2d7a65726f20616c6c6f77616e6365a26469706673582212205fd8e369c6cc78e1678731ff417e44e546f8ba2a77f1ab9a45bafb65cd87db7264736f6c634300070600334f776e61626c653a206e6577206f776e657220697320746865207a65726f2061646472657373416464726573733a20696e73756666696369656e742062616c616e636520666f722063616c6c8be0079c531659141344cd1fd0a4f28419497f9722a3daafe3b4186f6b6457e05361666545524332303a204552433230206f7065726174696f6e20646964206e6f7420737563636565645361666545524332303a20617070726f76652066726f6d206e6f6e2d7a65726f20746f206e6f6e2d7a65726f20616c6c6f77616e6365",
  "linkReferences": {},
  "deployedLinkReferences": {}
}